:020000040800F2
:10000000C0220020C9010008CD250008E92300080E
:10001000C92500084D070008692A000800000000F3
:100020000000000000000000000000002126000881
:100030006907000800000000D12500084D260008CF
:10004000E3010008E3010008E3010008E301000800
:10005000E3010008E3010008E3010008E3010008F0
:10006000E3010008E3010008E3010008E3010008E0
:1000700051070008E3010008E3010008E30100085C
:10008000E30100085D070008E3010008E301000840
:10009000E3010008E3010008E3010008E3010008B0
:1000A000E301000871260008E3010008E3010008ED
:1000B000E3010008E3010008E3010008E301000890
:1000C000E3010008E3010008E3010008E301000880
:1000D000E3010008E3010008512A00085D2A000836
:1000E000E3010008E3010008E301000800F002F862
:1000F00000F05AF814A696E8000CB244B344DA456E
:1001000001D100F051F8BAE80F000FA696E83000D0
:10011000A5EB040504EB0607AAEB0704A7F101070A
:100120004FEA15154FEA3414A4F10104AC4201D38F
:1001300000F03AF813F0010F18BFFB1A43F0010367
:1001400000F001F8DBE71847C4540000E454000055
:10015000103A24BF78C878C1FAD8520724BF30C8F3
:1001600030C144BF04680C60704700007047000055
:100170000023002400250026103A28BF78C1FBD8B0
:10018000520728BF30C148BF0B607047642900F098
:10019000AD80732900F01B82002070471FB500F06E
:1001A00077F91FBD10B510BD00F058FA1146FFF7E2
:1001B000F5FF02F05DFF00F076FA03B4FFF7F2FFFF
:1001C00003BC00F045FA0000094880470948004791
:1001D000FEE7FEE7FEE7FEE7FEE7FEE7FEE7FEE7F7
:1001E000FEE7FEE704480549054A064B7047000054
:1001F0006D260008ED000008C01C0020C022002071
:10020000C01E0020C01E00200FB41CB5074B06AA5C
:100210007B4469460090059800F0AFF900206946DC
:1002200000F0BEF91CBC5DF814FB00008D0300005B
:100230002DE9F0410E460446002020622046E16888
:10024000884730B3252805D0D4E901219047206A9A
:10025000401CF2E7E168204600278847050018D0D7
:10026000A5F14100192802D820354FF40067324625
:10027000294620462760FFF789FF40B1012804D0B6
:10028000F61D26F007060836D8E7361DD6E72846BD
:10029000DAE7206ABDE8F08170B50C460546012A10
:1002A00005D02878800600D5EA69002302E0012302
:1002B00005E05B1C934202D2E05C0028F9D1A869FA
:1002C000E618C01AA861286A184428622846AFF3C5
:1002D000008004E0D5E9012114F8010B9047B442F5
:1002E000F8D32846AFF3008070BD00002DE9F0413F
:1002F0000646002410687529314616A510D0AFF3C4
:100300000080002802DA404213A507E031688A071E
:1003100001D512A502E0490704D511A5012401E089
:10032000AFF3008000210A2206F1240709E0B0FBA8
:10033000F2FCB0FBF2F302FB1C003030785418469C
:10034000491C0028F3D123462A463046BDE8F04137
:1003500000F0B4B8000000002D0000002B000000E9
:100360002000000010B5431C02E010F8011B71B121
:100370008107FAD14FF0013202C88C1A8C4314EA7B
:10038000C211F9D0C01A0A0603D0C01E10BDC01A8F
:1003900010BD0A0401D0801E10BD0902FCD0401E11
:1003A00010BD032A40F2308010F0030C00F01580DD
:1003B00011F8013BBCF1020F624498BF11F801CB68
:1003C00000F8013B38BF11F8013BA2F1040298BFCD
:1003D00000F801CB38BF00F8013B11F0030300F037
:1003E000FA80083AC0F0088051F8043B083A51F806
:1003F00004CBA0E80810F5E7121D5CBF51F8043BE0
:1004000040F8043BAFF30080D20724BF11F8013B52
:1004100011F801CB48BF11F8012B24BF00F8013BB4
:1004200000F801CB48BF00F8012B704702F0FF0332
:1004300043EA032242EA024200F002B84FF000020F
:1004400000B5134694469646203922BFA0E80C50CA
:10045000A0E80C50B1F12001BFF4F7AF090728BFA5
:10046000A0E80C5048BF0CC05DF804EB890028BF21
:1004700040F8042B08BF704748BF20F8022B11F04A
:10048000804F18BF00F8012B7047704770477047C6
:1004900008487CB57844009007487844009C05469D
:1004A000019004E02046016808448047241DAC42C6
:1004B000F8D17CBD94510000925100002DE9F04725
:1004C0000D4699469246044600F1240801688806C4
:1004D00004D5E06921F01001216000E00120A8426C
:1004E00001DD471B00E00027A1697A1902EB090032
:1004F000081AA0612078C00602D42046AFF300801D
:10050000002608E0D4E901211AF806009047206A85
:10051000401C761C20624E45F4DB2078C0060AD5CC
:100520002046AFF3008006E0D4E901213020904757
:10053000206A401C2062381EA7F10107F4DC07E0A6
:10054000D4E9012118F805009047206A401C206278
:10055000281EA5F10105F3DC2046AFF300802078CA
:10056000000602D50220BDE8F0870120FBE700006D
:1005700001694A1C02610878704700B58FB0CDE967
:1005800001310021059105497944CDE90310114657
:100590006846FFF74DFE0FB000BD0000E5FFFFFF0E
:1005A0000A6802F8010B0A60704710B5436913B17D
:1005B000AFF3008001E0FFF76FFE012010BD12785D
:1005C00000F124010A7000224A700122EDE711684F
:1005D0004FF0FF32E9E710B5203AC0F00B80B1E8E8
:1005E0001850A0E81850B1E81850A0E81850203A68
:1005F000BFF4F5AF5FEA027C24BFB1E81850A0E871
:10060000185044BF18C918C0BDE810405FEA827C8A
:1006100024BF51F8043B40F8043B08BF7047D207A1
:1006200028BF31F8023B48BF11F8012B28BF20F842
:10063000023B48BF00F8012B704710B5002000F0C6
:100640003BF8FFF7AFFDBDE810400120AFF300809D
:1006500001491820ABBEFEE726000200754600F0F7
:1006600033F8AE4605006946534620F0070085463C
:1006700018B020B5FFF7B6FDBDE820404FF00006EA
:100680004FF000074FF000084FF0000BAC46ACE80D
:10069000C009ACE8C009ACE8C009ACE8C00921F069
:1006A00007018D46704710B50446AFF30080204621
:1006B000BDE81040FFF781BD10B500F00FF8BDE8B0
:1006C000104000F006B800000048704728000020E5
:1006D0007047002801D0FFF7BBBF704710B500215D
:1006E00002A000F013F8012010BD0000534947415B
:1006F0004252543A2041626E6F726D616C20746593
:10070000726D696E6174696F6E00000070B50546A8
:100710000C460A2000E06D1C00F011F835B1287875
:100720000028F8D102E0641C00F009F814B1207828
:100730000028F8D1BDE870400A20AFF3008008B56A
:1007400069468DF800000320ABBE08BDFEE700003F
:1007500040F2A020C2F2000000F08EB840F25C200F
:10076000C2F2000000F088B870470000EFF310807C
:1007700072B600BFFEE70000014690F82100022893
:1007800016D10868D1E90FC3026822F00E02026098
:10079000026822F001020260012000FA03F2CCF8A4
:1007A000042081F821000020002281F820207047D9
:1007B000042088630120002281F820207047000077
:1007C00090F82110022923D1026840F2040C11682C
:1007D000C4F2020C21F00E01116013682F21C4F243
:1007E00002018A4223F00103136015DD3023C4F2B5
:1007F00002039A421CD04423C4F202039A421BD043
:100800005823C4F202039A421CD14FF4803321E0F2
:1008100004218163012070470823C4F202039A4235
:100820000ED01C23C4F202039A420BD1102311E014
:100830004FF480730EE000BF4FF480530AE000BF16
:10084000012307E00CF168014FF080738A4208BF72
:100850004FF480130121CCF8003080F82110416B57
:100860000022002980F8202004BF0020704780B5B6
:100870008847002080BD000010B5D0E90FCE016888
:10088000DCF800300A6823FA0EF35C072AD512F070
:10089000040427D00A68920603D40A6822F00402EE
:1008A0000A602F22C4F20202914240F20402C4F212
:1008B00002025BDD3023C4F20203994272D044236A
:1008C000C4F20203994273D05823C4F2020399423E
:1008D00040F07A804FF480231360C16A002940F011
:1008E00098806FE09C0727D512F0020424D00A6894
:1008F000920606D40A6822F00A020A60012280F8F1
:1009000021202F22C4F20202914240F20402C4F2DA
:1009100002023BDD3023C4F20203994260D044233B
:10092000C4F2020399425FD05823C4F202039942F1
:1009300060D14FF4003365E01B0743D512F0080285
:1009400008BF10BD0A6822F00E020A60012101FAF8
:100950000EF2CCF80420816380F82110016B002294
:10096000002980F8202054D12CE000BF0823C4F2D5
:100970000203994222D01C23C4F20203994223D1DC
:1009800040231360C16A002943D11BE00823C4F24D
:10099000020399422CD01C23C4F20203994229D1AC
:1009A00020232FE04FF480631360C16A89BB09E004
:1009B0004FF480431360C16A59BB03E00423136002
:1009C000C16A31BB10BD00BF02F168044FF0806303
:1009D000A14208BF4FF480031360C16AC9B9F1E7AF
:1009E0004FF400730EE000BF4FF400530AE000BF65
:1009F000022307E002F168044FF00073A14208BF30
:100A00004FF400131360816A0022002980F820202F
:100A1000D8D0BDE810400847014600284FF001003B
:100A200008BF70472DE9F043D1F800C04FF6F873C6
:100A3000CBF6FD734CF6CD426344CCF6CC42A3FB1F
:100A400002236FF0030202EA93020023C4F20203BE
:100A500001F10C08C1E90F320222D1E9019E98E8A8
:100A6000F00181F82120DCF8002043F6F0739A436E
:100A700042EA090242EA0E0222432A4332433A433F
:100A800042EA0802CCF8002000228A6381F82100A3
:100A900081F820200020BDE8F043704790F820C086
:100AA000BCF1010F04BF02207047F0B54FF0010EFA
:100AB00080F820E090F821C0BCF1010F26D14FF062
:100AC000020C80F821C04FF0000CC0F838C0D0E90B
:100AD00000C4C56AC66BDCF80070102C27F0010753
:100AE000CCF80070006C0EFA00F070600846CCF88C
:100AF000043004BF10460A46CCF80800CCF80C209D
:100B0000DCF8000045B140F00E000DE0002180F857
:100B100020100220F0BD00BF20F00400CCF800003F
:100B2000DCF8000040F00A00CCF80000DCF800001F
:100B300040F00100CCF800000020F0BD2DE9F04F9E
:100B400082B00E68002E00F0FD8041F20042C4F237
:100B50000102042340F2004E904208BF03234FF6E7
:100B6000FF7CC4F2010E009300240123C1F2100C9B
:100B70004FF0000A4FF000094BE000BF41F20002C5
:100B8000C4F20102009F904208BF022704F00C0348
:100B90000F229A402BEA020207FA03F34FEA9A0562
:100BA0001A4346F825204E6840F20C45F202DEF862
:100BB000082054BF22EA080242EA0802C4F20105F2
:100BC000CEF808202A68B30254BF22EA080242EA9B
:100BD00008022A60B303DEF8042054BF22EA0802A8
:100BE00042EA0802F303CEF80420DEF800204FF0BA
:100BF000010354BF22EA080242EA0802CEF80020AC
:100C00000E680AF1010A36FA0AF204F1040400F04F
:100C1000998003FA0AFB16EA0B08F1D04E68664584
:100C200012DC122E56D8DFE806F0350B4D4955552B
:100C3000555555555555555555555545510000BFB8
:100C4000D1F80C9046E000BF4FF6FF72C1F22102CE
:100C500096420FDC0022C1F2110296421AD0002205
:100C6000C1F21202964215D00022C1F22102964230
:100C700010D02FE00022C1F2220296420AD00022B8
:100C8000C1F23102964205D00022C1F232029642F0
:100C900020D100BF8A684AB1012A14BFC0F814B03D
:100CA000C0F810B04FF0080914E000BF4FF004097D
:100CB00010E000BFCA6802F104090BE04FF0000920
:100CC00008E000BFCA6802F1080903E0CA6802F13F
:100CD0000C0900BF02462646B8F5807F24BF0432C7
:100CE000203E17680F25B54027EA050509FA06F6E4
:100CF00035431560CA79D2067FF582AF41F21803F9
:100D0000C4F202031A68AEF57E7642F001021A6060
:100D10001A6802F001020192019A2AF0030256F8C1
:100D200002B040F60002C4F20102904208D040F640
:100D30000042C4F2010290427FF420AF012725E770
:100D4000002723E702B0BDE8F08F0000002A08BFAB
:100D5000090401617047000041F2C050C2F2000076
:100D60000068704740F2000041F2C051C2F200003A
:100D7000C2F2000100780A68104408607047000061
:100D800080B542F20000C4F20200016841F0100197
:100D90000160032000F0C2F80F2000F005F800F019
:100DA00057F8002080BD0000B0B586B041F21801B0
:100DB000C4F202010A68054642F400620A6009684A
:100DC00001A801F4006101910199694600F094F9CC
:100DD00000F0C8F94DF68361C4F21B31A0FB01019C
:100DE0004FF0FF3000EB914140F2E42042F6004228
:100DF000C2F20000C4F2010240F2E7330024C0E96D
:100E00000021C0E902430461846100F0C3FB08B122
:100E100006B0B0BD40F2E420C2F2000000F03AFC9F
:100E20000028F5D1192000F03BF80F2D0CD819201F
:100E30002946002200F046F840F204010020C2F2E8
:100E400000010D6006B0B0BD012006B0B0BD0000CD
:100E500080B582B041F21800C4F20200016800229D
:100E600041F001010160016801F001010191019966
:100E7000416841F08051416040680F2100F080508E
:100E8000009000986FF0010000F01CF80420C4F2FC
:100E900001000168022262F31A61016002B080BDA4
:100EA000002848BF704700F01F01012202FA01F13B
:100EB0001C2202EAD0004EF20012CEF20002815053
:100EC0007047000010B54EF60C5CCEF2000CDCF85A
:100ED0000030C3F3022E8EF00704042C28BF042434
:100EE000BEF103034FF0FF3E0EFA04F438BF0023B7
:100EF000A14399400EFA03F39A43114300F00F0205
:100F000000F160430901043A03F564436244002898
:100F100048BF02F10C03197010BD00004EF60C51D1
:100F2000CEF200010A684FF6FF031A4060F30A226E
:100F300042F0806040F0FD7008607047002804BFF8
:100F4000012070472DE9F04381B042F20008C4F25D
:100F500002080446D8F800000D4600F00700814260
:100F60000CD9D8F8000020F007002843C8F800008A
:100F7000D8F8000000F00700A8426CD1206841F2C8
:100F800004098107C4F2020917D5410705D5D9F82C
:100F9000001041F4E061C9F80010010705D5D9F847
:100FA000001041F46051C9F80010D9F80010A2688F
:100FB00021F0F0011143C9F80010C00742D1D8F860
:100FC000000000F0070085420CD2D8F8000020F0A5
:100FD00007002843C8F80000D8F8000000F0070018
:100FE000A84238D12068410707D5D9F80010E26837
:100FF00021F4E0611143C9F80010000708D5D9F8C1
:101000000000216920F4605040EAC100C9F80000E6
:10101000D9F8002002F00C00082841F20020C0F2AC
:101020007A004DD145F29853C2F38341C0F60003D4
:10103000595CD20338D440F60010C0F23D0048435A
:101040003EE000BF606859F8041C022808D001285F
:1010500026D1890306D4012001B0BDE8F08300BF8A
:101060008901F8D5D9F8001021F003010843C9F827
:101070000000FFF771FE064641F28837D9F80000FC
:10108000616800F00C00B0EB810F98D0FFF764FEB0
:10109000801BB842F2D9032001B0BDE8F08300BF45
:1010A0008907D8D5DEE700BFD9F8002045F21853EC
:1010B000C2F34042C0F600039A5C4843B0FBF2F032
:1010C000D9F8001045F20052C1F30311C0F6000236
:1010D000515C40F2080220FA01F140F20400C2F231
:1010E00000000068C2F200021160FFF75DFE002000
:1010F00001B0BDE8F08300000F22026041F204025B
:10110000C4F20202136803F003034360136803F0A0
:10111000F0038360136803F4E063C36012684FF464
:10112000E06303EAD202026142F20000C4F202006C
:10113000006800F0070008607047000040F20800F7
:1011400041F20401C2F20000C4F202010068096821
:1011500045F21052C1F30221C0F60002515CC840B2
:101160007047000040F2080041F20401C2F20000A2
:10117000C4F202010068096845F21052C1F3C221AD
:10118000C0F60002515CC84070470000002804BF50
:10119000012070472DE9F04182B00446007841F209
:1011A0000006C007C4F202060CD0706800F00C0004
:1011B000042840F081803068800303D560680028EF
:1011C00000F04681207880071BD5706810F00C0F66
:1011D00009D0706800F00C00082840F08780706823
:1011E000C00300F183803068800703D5206901289F
:1011F00040F02E813068616920F0F80040EAC100BB
:1012000030602078000713D4207840072CD4E5699B
:10121000002D00F01881706800F00C00082840F0E4
:10122000A780012D40F00481012002B0BDE8F081CB
:10123000A069002800F084800020C4F2422001212F
:10124000C0F88014FFF788FD054600BF706A80076C
:1012500000F1B280FFF780FD401B0228F6D9032081
:1012600002B0BDE8F08100BFF0695FEAC00808D4B1
:10127000F06940F08050F061F06900F0805000901B
:10128000009847F20007C4F200073868C00549D447
:10129000386840F480703860FFF75EFD054600BF97
:1012A0003868C0053ED4FFF757FD401B6428F7D9C6
:1012B000032002B0BDE8F081706800F00C0008283F
:1012C00003D17068C0033FF576AF616830680029CC
:1012D00000F00C81B1F5A02F00F00081B1F5803F46
:1012E00040F01A8140F480301CE100BF20690028E2
:1012F00040F20000C4F2422000F088800121016029
:10130000FFF72AFD054600BF306880073FF572AF42
:10131000FFF722FD401B0228F6D9032002B0BDE8EA
:10132000F08100BFE168306A002900F09D80052946
:1013300000F09280012940F0AF8040F00100B1E060
:101340000020C4F242200021C0F88014FFF704FD01
:10135000054600BF706A80077FF556AFFFF7FCFCBB
:10136000401B0228F6D9032002B0BDE8F08100BF7F
:101370000027C4F2422700203866FFF7EDFC022D5B
:1013800005460DD13068800140F1DE80FFF7E4FCB6
:10139000401B02284FF00300F4D902B0BDE8F081F1
:1013A000306880014FD5FFF7D7FC401B02284FF073
:1013B0000300F5D9F1E700BF40F20800C2F20000D7
:1013C000006844F6D351C1F26201A0FB0101480A52
:1013D000019000BF00BF0198411E002801913FF419
:1013E00013AF00BF0198411E002801913FF40CAFDC
:1013F00000BF0198411E002801913FF405AF00BFD6
:101400000198411E00280191E4D1FDE60021016010
:10141000FFF7A2FC054600BF306880077FF5F1AEFC
:10142000FFF79AFC401B02284FF00300F4D9B4E701
:101430007068216A00F480328A4209D1616A00F43E
:101440007010884204D1002002B0BDE8F08100BFD6
:10145000012002B0BDE8F08140F004003062306A43
:1014600040F001001EE000BF20F001003062306A51
:1014700020F004003062FFF76FFC054641F2883728
:10148000306A800720D5FFF767FC401BB8424FF059
:101490000300F5D981E700BF20F001003062306A17
:1014A00020F004003062FFF757FC054641F2883710
:1014B000306A800708D4FFF74FFC401BB842F7D9C9
:1014C000032002B0BDE8F081B8F1000F3FF59FAEF8
:1014D000F06920F08050F06199E600BF40F4802070
:1014E0003060306840F480301CE000BF20F4803071
:1014F0003060306820F480203060FFF72DFC054616
:10150000306880037FF55EAEFFF726FC401B642841
:101510004FF00300F4D940E720F4803030603068A9
:1015200020F480203060FFF717FC05463068800308
:101530003FF548AEFFF710FC401B6428F6D90320A6
:1015400002B0BDE8F08100BF206AB0F5803F05D150
:101550007168A26821F40031114371607168626A98
:1015600021F4741111430843706001203866FFF7BD
:10157000F3FB0446306880013FF565AFFFF7ECFBF5
:10158000001B02284FF00300F4D906E77047000063
:1015900070470000002804BF0120704710B590F884
:1015A0003D1031B9002180F83C10044600F070F87D
:1015B0002046022180F83D10016840F2FF740B685C
:1015C000C4F2000442F6004CA142C4F2010C15DC46
:1015D000B1F1804F1AD040F20042C4F200029142B1
:1015E00014D0A14218DCB1F1804F1DD040F200426E
:1015F000C4F20002914217D01AE000BF614505D045
:1016000040F60002C4F200029142EAD1826823F05F
:1016100070031343A142E6DD614505D040F60002A8
:10162000C4F20002914203D1026923F440731343D0
:10163000846923F08002D0F804E0C3682243614546
:101640000A60CB62C1F828E002D14269CCF83020B0
:1016500001224A610B69DB0703D00B6923F0010308
:101660000B6180F8462080F83E2080F83F2080F80B
:10167000402080F8412080F8422080F8432080F804
:10168000442080F8452080F83D20002010BD000057
:101690007047000090F83D1001291CBF01207047E1
:1016A000022180F83D10006840F2FF72C168C4F268
:1016B0000002904241F00101C16009DCB0F1804FAD
:1016C00012D040F20041C4F2000188420CD012E076
:1016D00042F60041C4F20101884205D040F6000103
:1016E000C4F20001884206D1816801F00701062991
:1016F00004BF00207047016841F001010160002033
:10170000704700007047000070B504460068C56867
:101710000669B10716D515F0020113D06FF002016A
:101720000161012121778069800703D02046FFF7FE
:10173000E9FF05E0204600F08FF8204600F08EF823
:1017400000202077700719D515F0040016D0206806
:101750006FF00401016102212177806910F4407F5C
:1017600004D02046FFF7CEFF06E000BF204600F081
:1017700073F8204600F072F800202077300717D564
:1017800015F0080014D020686FF0080101610421F1
:101790002177C069800703D02046FFF7B3FF05E03B
:1017A000204600F059F8204600F058F80020207735
:1017B000F00619D515F0100016D020686FF0100152
:1017C000016108212177C06910F4407F04D02046D0
:1017D000FFF798FF06E000BF204600F03DF82046E6
:1017E00000F03CF800202077F00718BF15F001004A
:1017F00002D1300609D412E020686FF001010161C6
:10180000204600F02DF8300609D515F0800006D0EE
:1018100020686FF0800101612046FFF7B7FE700677
:1018200009D515F0400006D020686FF04001016135
:10183000204600F01FF8B00658BF70BD15F020001C
:1018400008D021686FF0200220460A61BDE8704090
:10185000FFF79EBE70BD000070470000704700009B
:10186000006842F60041C4F20101884218BF704787
:10187000FFF778BA7047000070470000704700001B
:10188000B0B582B001680A68CC684B6902F02F05D8
:10189000202D04F0200505D125B102B0BDE8B040EF
:1018A00001F056B85FEA027C1EBF03F0010E04F49B
:1018B000907313EB0E0341D1036BD50618D5012BA2
:1018C00016D114F0100313D0002201920A6801927D
:1018D0004A680192019A496949064BD4818DC28DAB
:1018E000C38D002B18BF914240F0F48102B0B0BD0F
:1018F00013062DD514F080032AD090F84120212A18
:10190000F4D18268B2F5805F03D10269002A00F049
:101910006782026A531C036212784A60C28C013AE1
:101920001304C284E2D1C86820F08000C860C8688F
:1019300040F04000C86002B0B0BD00BFD30718BF80
:1019400014F4807340F0D080530700F1D380D8E0C6
:101950005206CBD514F04002C8D0CA6822F040022B
:10196000CA60202180F8411002B0BDE8B04000F00C
:1019700037BD00BFC16B0A68526893B2002BB5D067
:10198000858DAB42B2D2C2858969202900F0A18041
:10199000016851E8031F026821F4807142E80313D3
:1019A000DBB1016851E8031F026821F4807142E84D
:1019B000031393B1016851E8031F026821F4807199
:1019C00042E803134BB1016851E8031F026821F498
:1019D000807142E80313002BDAD1016851E8051F3A
:1019E000026821F0010142E80513C3B3016851E820
:1019F000051F026821F0010142E805137BB301686D
:101A000051E8051F026821F0010142E8051333B3D4
:101A1000016851E8051F026821F0010142E8051341
:101A2000002BDAD11BE000BF016851E8051F0268F6
:101A300021F0400142E80513DBB1016851E8051FC0
:101A4000026821F0400142E8051393B1016851E8B2
:101A5000051F026821F0400142E805134BB10168FF
:101A600051E8051F026821F0400142E80513002BF0
:101A7000DAD1202180F8421000210163016851E889
:101A8000031F026821F0100142E80313DBB1016873
:101A900051E8031F026821F0100142E8031393B1DB
:101AA000016851E8031F026821F0100142E80313A6
:101AB0004BB1016851E8031F026821F0100142E8B0
:101AC0000313002BDAD1C16B04460846FEF754FE1F
:101AD000204602214163818DC28D891A89B202B0EC
:101AE000BDE8B040FFF7C8BE436C43F00103436458
:101AF000530706D5BEF1000F03D0436C43F0020339
:101B00004364930706D5BEF1000F03D0436C43F046
:101B100004034364BCF1000F06D55EEA050303D05D
:101B2000436C43F008034364436C002B3FF4DEAE88
:101B3000920605D525B1044600F00AFF216820462B
:101B40004969426C01F0400102F00802891800F076
:101B5000B98000BF016851E8031F026821F4907149
:101B600042E80313BBB3016851E8031F026821F484
:101B7000907142E8031373B3016851E8031F0268D0
:101B800021F4907142E803132BB3016851E8031F5D
:101B9000026821F4907142E80313002BDAD11AE0B5
:101BA000016851E8051F026821F0010142E80513B0
:101BB000DBB1016851E8051F026821F0010142E82C
:101BC000051393B1016851E8051F026821F0010176
:101BD00042E805134BB1016851E8051F026821F086
:101BE000010142E80513002BDAD1016B012924D150
:101BF000016851E8031F026821F0100142E8031355
:101C0000DBB1016851E8031F026821F0100142E8CE
:101C1000031393B1016851E8031F026821F010011A
:101C200042E803134BB1016851E8031F026821F039
:101C3000100142E80313002BDAD1202180F8421072
:101C40000021016301684969490640F1C3800168C8
:101C500051E8051F026821F0400142E80513DBB19D
:101C6000016851E8051F026821F0400142E80513B0
:101C700093B1016851E8051F026821F0400142E874
:101C800005134BB1016851E8051F026821F04001BE
:101C900042E80513002BDAD1C16B002900F09A80CD
:101CA00042F21172C0F60002044608464A63FEF78B
:101CB00087FD00283FF41AAEE06B416B02B0BDE82F
:101CC000B04008470446FFF7D9FD0020606402B029
:101CD000B0BD00BF891A00BF026852E8032F036835
:101CE00022F4907243E80325BDB3026852E8032F43
:101CF000036822F4907243E8032575B3026852E842
:101D0000032F036822F4907243E803252DB3026881
:101D100052E8032F036822F4907243E80325002D54
:101D2000DAD11AE0026852E8052F036822F00102B6
:101D300043E80525DDB1026852E8052F036822F06B
:101D4000010243E8052595B1026852E8052F0368B2
:101D500022F0010243E805254DB1026852E8052F43
:101D6000036822F0010243E80525002DDAD1202284
:101D700080F8422000220263026852E8032F0368C1
:101D800022F0100243E80325DDB1026852E8032F78
:101D9000036822F0100243E8032595B1026852E877
:101DA000032F036822F0100243E803254DB10268B7
:101DB00052E8032F036822F0100243E80325002DA8
:101DC000DAD1022289B2426302B0BDE8B040FFF727
:101DD00053BD00BF02B0BDE8B040FFF74FBD00BF2C
:101DE000026A32F8023B6FF35F234B60026295E5B3
:101DF000002804BF0120704710B5044690F8410048
:101E000028B9002084F84000204600F063F8242020
:101E100084F841002068D4E90212C36823F4005317
:101E2000C360036923F440531A430261D4E90423D5
:101E30001143C268194341F20C639A431143C160D4
:101E40004169A26921F44071114343F60002C4F2D2
:101E500001029042416103D0FFF770F902E000BF38
:101E6000FFF780F9D4E90023192148439900B0FB1A
:101E7000F1F048F21F5CC5F2EB1CA0FB0C314FF6F1
:101E80009C734909C0F6FF7301FB0300322303EB87
:101E90000010A0FB0C03F02000EA531000EB01102F
:101EA000C3F34311084490601069202120F490404E
:101EB0001061506920F02A005061D06840F4005051
:101EC000D0600020606484F8411084F842106063A0
:101ED00010BD0000F0B585B00446006844F2004132
:101EE000C4F20001002788420497CDE902770197E8
:101EF00000F0928044F60001C4F20001884239D01B
:101F000043F60001C4F20101884240F0D48041F25E
:101F10001800C4F20200016840F6000441F4804158
:101F200001600168C4F2010401F48041009100994C
:101F3000016801AD41F0040101600068294600F02C
:101F40000400009000984FF400700190022002906D
:101F5000032004902046FEF7F1FD4FF480600190CD
:101F60000020CDE9020020462946FEF7E7FD05B036
:101F7000F0BD00BF41F21800C4F20200416801AE9A
:101F800041F480214160416801F480210091009971
:101F9000016841F0080101600068314600F0080066
:101FA000009000984FF4806001900220029003207E
:101FB000049040F60000C4F2010000F58065284658
:101FC000FEF7BCFD4FF40060019000272846314623
:101FD000CDE90277FEF7B2FD40F2A0251C20C2F247
:101FE0000005C4F202001021802285E88300284603
:101FF000C5E90327C5E90577EF61FEF70DFD002868
:1020000018BFFEF7B3FB272005210022A5636C62F1
:10201000FEF758FF27204CE041F21800C4F20200FE
:10202000416840F6000541F4003141604168C4F266
:10203000010501F4003100910099016801AE41F001
:10204000040101600068314600F00400009000982F
:102050000420019002200290032004902846FEF7FD
:102060006DFD0820CDE90107284631460397FEF7AC
:1020700065FD1C20C4F2020040F25C256430C2F20F
:1020800000051021802285E883002846C5E9032742
:10209000C5E90577EF61FEF7BFFC002818BFFEF722
:1020A00065FB262005210022A5636C62FEF70AFF6E
:1020B0002620FEF7F5FE05B0F0BD000090F8423096
:1020C000202B07D100294FF0010318BF002A05D1AA
:1020D0001846704702231846704700BF0023036369
:1020E000816222218285C285436480F842100169A1
:1020F000006819B1C16841F48071C160416941F063
:1021000001014161C16841F02001C160184670477A
:102110002DE9F04186B040F27012C2F2000211685F
:1021200001291FDB02F110044B1E54F80C1C8A68B5
:1021300082421BD0B3B154F8081C8A6882421BD07B
:10214000012B0FD054F8041C8A6882422ED0022B37
:1021500008D021688A6882420FD0043B591C04F1E0
:102160001004E2D106B0BDE8F08100BF0C3CCB6AA0
:102170001A2B05D91EE000BF083CCB6A1A2B19D8D0
:1021800091F8272019440A73216891F8292081F8D1
:102190002820216891F8272081F829202168CA6A1F
:1021A000531CCB62022B1FD02CE000BF043CCB6A37
:1021B0001A2BE5D930B3002381F83430C1E90B3351
:1021C0000B85C1E90333C1E90533C1E90733C1F820
:1021D00023302731054610460122FFF76FFF2168A3
:1021E0002846CB6A022B0DD191F82820212A0FD145
:1021F00091F82920402A2BD14A7B0A63063281F8C4
:10220000342025E091F82820262A04D020E000BFC1
:102210000223262A1CD191F829202A2A18D1012B21
:1022200063DB8E463EF80C0F9EF80220ADF80200EC
:102230009EF803008DF804208DF80500B2B30DF16F
:102240000208042A02F0030C0AD200221AE000BF9E
:102250002731012206B0BDE8F041FFF72FBF00BFD4
:1022600002F0FC05002200BF8E18377C08EB02004C
:102270000771777C04324771B77C95428771F67C91
:10228000C671F1D1BCF1000F10D002EB0E0006793F
:1022900008F10405BCF1010FAE5407D02A4445797A
:1022A000BCF1020F55701CBF8079907003EB0E00DB
:1022B00010F8022C00238DF8162010F8010C0022D3
:1022C0008DF8170048680DF1020100F0E7FF58B1E2
:1022D0002068406801F02AF820680DF1020140688A
:1022E0000022002300F0DAFF2168886800283FF40C
:1022F00039AF002281F83420C1E90B220A85C1E9F7
:102300000322C1E90522C1E90722C1F823202731B0
:102310000122FFF7D3FE06B0BDE8F08190F841300E
:10232000202B09D1944600294FF0010218BFBCF1BF
:10233000000F05D11046704702221046704700BFBB
:1023400070B5002221230162A0F824C0A0F826C0A5
:10235000426480F841300468836B42F6990E42F67D
:10236000491542F21D76C0F6000EC0F60005C0F613
:102370000006C3E90AE5C3E90C62221D04461846BB
:102380006346FEF78BFB216820466FF040020A602F
:10239000016851E8051F026841F0800142E8051319
:1023A000DBB1016851E8051F026841F0800142E895
:1023B000051393B1016851E8051F026841F08001DF
:1023C00042E805134BB1016851E8051F026841F06E
:1023D000800142E80513002BDAD1002070BD000017
:1023E0007047000070470000FEE7000080B582B033
:1023F00041F21400C4F202000168002241F0010120
:1024000001600068052100F00100019001980C2096
:10241000FEF758FD0C20FEF743FD11200521002298
:10242000FEF750FD112002B0BDE88040FEF738BD38
:1024300010B542F2456045F2A852C0F60000C0F661
:102440000002002100F084FF40F28804C2F2000480
:10245000206042F27D6045F21C52C0F60000C0F6DA
:102460000002002100F074FF606042F2057045F246
:102470004052C0F60000C0F60002002100F068FFE4
:10248000A06010BD70B586B0002541F21800CDE9FE
:102490000455CDE90255C4F20200016841F200047E
:1024A00041F0100101600168C4F2010401F0100163
:1024B000019101990168002241F020010160016849
:1024C0004FF4005601F0200101910199016841F09B
:1024D00004010160016801F00401019101990168A2
:1024E00041F00801016000684FF4005100F008005D
:1024F000019001982046FEF729FC0120CDE9030553
:102500000220059002A920460296FEF717FB06B0AE
:1025100070BD000080B540F22C3043F60001C2F2DD
:102520000000C4F2010100234FF00C0C4FF4E13223
:1025300080E80E00C0E90333C0E905C3C361FFF7BB
:1025400057FC002808BF80BDBDE88040FEF70EB9EB
:1025500080B540F2743044F20041C2F20000C4F28F
:10256000000100234FF00C0C4FF4E13280E80E0024
:10257000C0E90333C0E905C3C361FFF739FC002894
:1025800008BF80BDBDE88040FEF7F0B880B540F2DE
:10259000BC3044F60001C2F20000C4F20001002386
:1025A0004FF00C0C4FF4E13280E80E00C0E9033329
:1025B000C0E905C3C361FFF71BFC002808BF80BD4D
:1025C000BDE88040FEF7D2B8FEE70000FEE700005D
:1025D000EFF30980BFF36F8F0D4B1A6820E9F00FFE
:1025E00010602DE908404FF0500080F3118801F091
:1025F00047FF4FF0000080F31188BDE808401968DC
:102600000868B0E8F00F80F30988BFF36F8F704758
:102610009C000020000000000000000000000000FE
:10262000074B19680868B0E8F00F80F30988BFF31A
:102630006F8F4FF0000080F311884EF00D0E704741
:102640009C000020012000F055FDFBE780B54EF214
:102650001000CEF20000006802F066FD012808BFFD
:1026600080BDBDE8804002F009B80000704700005E
:1026700040F2E420C2F20000FFF746B840F65414DE
:1026800040F2B015C2F20004C2F20005204629460D
:1026900000F074FA284600F07FFA284600F0B4FCF7
:1026A000052014210022002600F0AEFDC4E9150625
:1026B00044F22100E08342F6262060862846C4E9E1
:1026C0001766C4E9196600F071FA40F2743704F134
:1026D0003406C2F2000700BF284600F021FC606DFE
:1026E00031460022002300F047FD3046FDF73AFE58
:1026F00082B238463146FFF711FE0A2000F0FAFC9C
:10270000EAE7000080B500BF012000F0F3FCFBE722
:10271000406A0021C185C184FFF7B0B8406A0168F2
:102720004A6990F84130212B2DD112F080022AD035
:102730000021C184016851E8031F026821F0C00133
:1027400042E80313DBB1016851E8031F026821F07E
:10275000C00142E8031393B1016851E8031F026806
:1027600021F0C00142E803134BB1016851E8031F97
:10277000026821F0C00142E80313002BDAD12021C6
:1027800080F841100168496990F84220222A40F0FF
:102790007D8011F0400179D00021C185016851E8A8
:1027A000031F026821F4907142E80313BBB3016870
:1027B00051E8031F026821F4907142E8031373B3D8
:1027C000016851E8031F026821F4907142E8031385
:1027D0002BB3016851E8031F026821F4907142E8AD
:1027E0000313002BDAD11AE0016851E8051F0268D3
:1027F00021F0010142E80513DBB1016851E8051F32
:10280000026821F0010142E8051393B1016851E823
:10281000051F026821F0010142E805134BB1016870
:1028200051E8051F026821F0010142E80513002B61
:10283000DAD1016B012924D1016851E8031F026834
:1028400021F0100142E80313DBB1016851E8031FD6
:10285000026821F0100142E8031393B1016851E8C6
:10286000031F026821F0100142E803134BB1016815
:1028700051E8031F026821F0100142E80313002B06
:10288000DAD1202180F8421000210163416C41F02F
:1028900010014164FEF7F2BF0168406A09688906C9
:1028A00048BFFFF79DBD0021C18400BF016851E80A
:1028B000051F026821F0800142E8051383B3016817
:1028C00051E8051F026821F0800142E805133BB37F
:1028D000016851E8051F026821F0800142E80513F4
:1028E000F3B1016851E8051F026821F0800142E858
:1028F0000513002BDAD113E0016851E8031F0268C9
:1029000041F0400142E80313002B08BF7047016803
:1029100051E8031F026841F0400142E8031393B1FC
:10292000016851E8031F026841F0400142E80313C7
:102930004BB1016851E8031F026841F0400142E8D1
:102940000313002BD8D17047406AFFF74BBD00003E
:1029500081B090F84210222921D183680246B3F554
:10296000805F09D152F8281F52F8183C002B63D021
:1029700003685B680AE000BF52F8281F13B90369B7
:10298000002BF5D003685B6803F07F030B701168C0
:1029900001311160C18D01390A04C18502D001B035
:1029A000704700BF0168CA6822F02002CA60CA6886
:1029B00022F48072CA604A6922F001024A61202131
:1029C00080F8421000214163026B012A3CD101636F
:1029D000016851E8031F026821F0100142E8031367
:1029E000DBB1016851E8031F026821F0100142E8E1
:1029F000031393B1016851E8031F026821F010012D
:102A000042E803134BB1016851E8031F026821F04B
:102A1000100142E80313002BDAD101680A68D206DC
:102A200006D5002200920A68009249680091009938
:102A3000818D01B0FEF720BF026852686FF35F22FC
:102A400021F8022B8162A5E701B0FFF761BB00000E
:102A500040F27430C2F20000FEF712BF40F2BC3008
:102A6000C2F20000FEF70CBFFEE7000080B540F2A6
:102A7000B01040F27431C2F20000C2F2000100F066
:102A8000D5FA45F2785240F65410C0F60002C2F270
:102A9000000000210832C0E9002180F85810A0F899
:102AA0005910C0E90D11C0E90F11C0E91111C1643D
:102AB000A0F85010C0E91711C0E9191180BD00003D
:102AC0002DE9F0414468002C52D044F22100A04688
:102AD00028F8780F88F8022088F803108AB3042AAF
:102AE00002F0030C02D2002116E000BF02F0FC024B
:102AF000581C0021451815F8016C671887F87C6090
:102B0000465C043187F87D606E788A4287F87E6083
:102B1000AE7887F87F60EDD1BCF1000F11D05A5C20
:102B200004F17C00BCF1010F42540AD04A1C13F896
:102B300002E0BCF1020F00F802E002D002315A5C60
:102B4000425442F62621D4F89400A4F88C10414651
:102B50000022002300F0A2FB50B1D4F8940000F052
:102B6000E5FBD4F8940041460022002300F096FBD8
:102B7000002C18BF01242046BDE8F08191F8A82060
:102B80004160032A88BF704701EB8203C3F89800B5
:102B9000501C81F8A800704710B504460520162186
:102BA000002200F031FB606010BD00008268002A46
:102BB00008BF7047002380F83430C0E90B33038529
:102BC000C0E90333C0E90533C0E9073300F1270149
:102BD000844610460122CCF82330FFF76FBA00007C
:102BE00045F26452C0F60002816040F27011083272
:102BF000C2F2000102600A680023032A80F84B3009
:102C0000C8BF7047531C0B6001EB820148607047DE
:102C10002DE9F04F944601F0DF02532A6CD193F86E
:102C200000B0BCF1050F80F858B093F801A003F193
:102C3000040980F859A093F802E080F85AE0DA78A5
:102C400080F85B2004D199F8003080F85C3038E0DF
:102C500037D3ACF10506032E0CF0030802D200278F
:102C600019E000BF0CF0FC07C7F1000C002700BF03
:102C7000DC192579C61986F85C506579043786F821
:102C80005D50A57986F85E50E4790CEB07050435B4
:102C900086F85F40ECD1B8F1000F12D019F8076048
:102CA00000F15C03B8F1010FDE550AD07E1C19F863
:102CB0000650B8F1020F9D5503D0023719F807608E
:102CC000DE55BBF1530F11D0BBF14D0F14D1BAF14A
:102CD000490F13D0BAF1410F0ED1BEF14A0F0BD1FB
:102CE00000F15C03BDE8F04F00F032B8BAF1450FD7
:102CF00008BFBEF1540F17D0BDE8F08FBEF14E0FE4
:102D000018BFBDE8F08F44F64D1141844E2180F884
:102D1000241046F66D11C6F66E718164722180F83A
:102D20004C10BDE8F08F00BF44F253514184542150
:102D300080F8241046F27351C7F27441816446F65C
:102D40006961A0F84C10672180F84E10BDE8F08F43
:102D500010B582B0964644F24D1284462CF8222FCC
:102D60004A2246F26D148CF80220C6F66A74624656
:102D700042F8264F722473298CF82A4016D0532922
:102D800040F07D80BEF16A0F2ED0BEF16E0F3DD1B6
:102D900093F800C05FEACC7138D093F801E045F2B7
:102DA000FB5100F13403C0F6000127E0BEF1420FF1
:102DB00038D0BEF1530F62D1532180F8251093F91A
:102DC0000010B1F1FF3F3BDDC9B2402948D22029B4
:102DD0004ED210294ED208294ED2042942D20229BD
:102DE00042D259BB4BE000BF93F800C093F801E01A
:102DF00045F2ED5100F13403C0F6000104461846D7
:102E00006346CDF800E0FDF7FFF92046426D00F182
:102E1000340110460022002302B0BDE8104000F04B
:102E20003DBA00BF422180F82510197801390329E5
:102E300025D8DFE801F003191B1700BF01211CE0B2
:102E40008021572490F8202080F8261057216346CF
:102E500080F8214002B0BDE81040FFF731BE00BF4E
:102E600040210AE0042108E0022106E0032104E0F9
:102E7000202102E0102100E0082180F8261002B095
:102E800010BD0000F0B581B08C4644F2210401462B
:102E900021F84C4F8A7081F803C08AB3042A02F0EB
:102EA000030C01D2002215E002F0FC0E5C1C002293
:102EB000A51815F8016C871887F85060A65C0432D5
:102EC00087F851606E78964587F85260AD7887F83C
:102ED0005350EDD1BCF1000F12D09C5C00F1500EAC
:102EE000BCF1010F0EF802400AD0541C1D5DBCF16C
:102EF000020F0EF8045003D002329B5C0EF8023031
:102F0000D0F8902042F62623A0F860301046002228
:102F1000002300F0C3F9B0FA80F0400901B0F0BD21
:102F20002DE9F0410446406804F1620100220023CB
:102F300000F022F9B8B994F8A800A0B104F19808FB
:102F400004F16605002700BF58F8270094F86420B4
:102F5000036894F865101E682B46B04794F8A800E3
:102F600001378742F0D3D4F8940004F178010022AD
:102F7000002300F001F9D0B994F8A800002808BF98
:102F8000BDE8F08104F1980804F17C05002700BF3A
:102F900058F8270094F87A20036894F87B101E688C
:102FA0002B46B04794F8A80001378742F0D3BDE81C
:102FB000F0810000F0B587B00446D0F8900001AE73
:102FC00031460022002300F0D7F808B107B0F0BD69
:102FD0009DF80670BDF8040040F21005C2F200052D
:102FE0002880AF7027B1311DE81C3A46FDF7D9F9AA
:102FF000BDF818007919A1F80300A0687A1D2946C8
:10300000FFF78CF907B0F0BD10B504460520162176
:10301000002200F0F9F8C4F89000052016210022E3
:1030200000F0F2F8C4F8940010BD000080B5FFF77E
:10303000D7FD45F28451C0F600010831016000213E
:1030400080F8A81080BD000001A000F003FF00BFC1
:1030500050757265207669727475616C2066756E44
:103060006374696F6E2063616C6C6564210000009D
:1030700090B0FDF785FE00240120CDE90B44CDE999
:10308000094406900A904FF4E0104FF48031022575
:103090000F9006A8CDE90714CDE90D51FEF776F89B
:1030A00020B1EFF3108072B6FEE700BF0F20CDE92C
:1030B00001054FF48060CDE9040401A802210394C6
:1030C000FDF73CFF20B1EFF3108072B6FEE700BFC2
:1030D000FFF7D8F9FFF78AF9FFF73AFAFFF71AFA7C
:1030E000FFF754FA00F016F8FFF7A2F900F026F8FF
:1030F000FEE70000EFF3058100291CBF6FF005001B
:103100007047002804BF0020704780B501F06EF8BA
:10311000002080BDEFF3058000281CBF6FF0050084
:10312000704740F2AC10C2F200000168002911BFE4
:103130004FF0FF300121016000207047EFF3058060
:1031400000281CBF6FF00500704740F2AC10C2F2BF
:103150000000016801291CBF4FF0FF30704780B5A7
:103160004EF61F51CEF2000100220A7002210160CA
:1031700001F006F9002080BD10B582B0B0FA80F4ED
:10318000B1FA81F264095209EFF3058CBCF1000F2A
:1031900042EA04021CD0002B18BF01231A4318D1A5
:1031A0000022019201AA01F09BFE012820D1019882
:1031B000D0B14EF60450CEF200004FF080510160C5
:1031C000BFF34F8FBFF36F8F002002B010BD00BF61
:1031D00022B16FF0030002B010BD00BF1A461C46BA
:1031E00001F05EFD012807D1002002B010BD00BF34
:1031F0006FF0020002B010BD6FF00100002C08BF9C
:103200006FF0020002B010BDB0B582B000294FF0DF
:103210000004EFF3058318BF002803D1204602B055
:10322000B0BD00BF002BF9D1D2B1D2E902352BB32A
:10323000502DF3D3D2F810C0BCF1000FEED0556979
:1032400001FB00F4A5424FF00004E7D315466246A7
:10325000009401F06DFA0028E0D02C6805E000BF72
:10326000002201F023FA0028D8D02146054600F0BC
:1032700067FF2C46204602B0B0BD00BF002DCDD167
:103280001369002BCAD15369002BC7D11546002200
:1032900001F00CFA0028E0D1C0E7000010B582B0C0
:1032A000B0FA80F4B1FA81F264095209EFF3058CA7
:1032B000BCF1000F42EA04021CD0002B18BF01230E
:1032C0001A4318D10022019201AA002301F044FC04
:1032D000012827D1019850B14EF60450CEF20000DB
:1032E0004FF080510160BFF34F8FBFF36F8F00200D
:1032F00002B010BD22B16FF0030002B010BD00BFDC
:103300001C461A46002301F0C7FA01460020012995
:1033100005D06FF00100002C08BF6FF0020002B072
:1033200010BD00BF6FF0020002B010BDEFF30581C9
:1033300000291CBF6FF005007047002804BF6FF024
:103340000300704780B5002101F060FA002080BDC5
:10335000F0B585B08C4600230493EFF30581B0B33C
:10336000A9BB2AB39469002C08BF1824382C2ED886
:103370001179C9072BD15669D2E902574FEA960E47
:103380001168002E734608BF80231DB35C2F25D320
:1033900012690023002A18BF002E18D0CDE9004280
:1033A00072466346029501F083FE05B0F0BD00BF92
:1033B00080231824002104AF9AB26346CDE9004768
:1033C00001F046FE00230499012808BF0B46184669
:1033D00005B0F0BD17B91269002AECD000231846D9
:1033E00005B0F0BD2DE9F041044600F0B3FD40F218
:1033F0009C06C2F20006F06840F2F4450130F0602D
:103400003068C2F2000558B13069002840F00781E9
:103410003068E16AC06A884298BF3460FFE000BF4C
:103420003460F068012840F0FA80284600F042FD40
:1034300005F1140000F03EFD05F1280000F03AFD12
:1034400005F13C0000F036FD05F1500000F032FDC2
:1034500005F1640000F02EFD05F1780000F02AFD72
:1034600005F18C0000F026FD05F1A00000F022FD22
:1034700005F1B40000F01EFD05F1C80000F01AFDD2
:1034800005F1DC0000F016FD05F1F00000F012FD82
:1034900005F5827000F00EFD05F58C7000F00AFD58
:1034A00005F5967000F006FD05F5A07000F002FD30
:1034B00005F5AA7000F0FEFC05F5B47000F0FAFC0A
:1034C00005F5BE7000F0F6FC05F5C87000F0F2FCE2
:1034D00005F5D27000F0EEFC05F5DC7000F0EAFCBA
:1034E00005F5E67000F0E6FC05F5F07000F0E2FC92
:1034F00005F5FA7000F0DEFC05F5027000F0DAFC6C
:1035000005F5077000F0D6FC05F50C7000F0D2FC54
:1035100005F5117000F0CEFC05F5167000F0CAFC40
:1035200005F51B7000F0C6FC05F5207000F0C2FC2C
:1035300005F5257000F0BEFC05F52A7000F0BAFC18
:1035400005F52F7000F0B6FC05F5347000F0B2FC04
:1035500005F5397000F0AEFC05F53E7000F0AAFCF0
:1035600005F5437000F0A6FC05F5487000F0A2FCDC
:1035700005F54D7000F09EFC05F5527000F09AFCC8
:1035800005F5577000F096FC05F55C7000F092FCB4
:1035900005F5617000F08EFC05F5667000F08AFCA0
:1035A00005F56B7000F086FC05F5707000F082FC8C
:1035B00005F5757000F07EFC05F57A7000F07AFC78
:1035C00005F57F7000F076FC05F5826000F072FC76
:1035D00005F2244000F06EFC05F5876000F06AFCFF
:1035E00005F24C4000F066FC40F28418C2F200087C
:1035F000404600F05FFC08F11407384600F05AFC22
:1036000006F1640000F056FC06F13C0000F052FCAC
:1036100006F1500000F04EFCC6F81C80376270685E
:10362000716A421CE06A72608842626488BF70629C
:1036300000EB800005EB8000211D00F07DFC00F018
:10364000ADFC306988B13068E16AC06A884228BF41
:10365000BDE8F0814EF60450CEF200004FF08051EC
:103660000160BFF34F8FBFF36F8FBDE8F0810000A3
:1036700040F29C0540F2F4464EF60458C2F20005B2
:10368000C2F20006CEF200084FF0805703E000BF00
:10369000204600F09BFCA868D0B100F05BFCA86C51
:1036A000C468201D00F0D8FBE8680138E860A8680D
:1036B0000138A86000F072FC94F859000228EAD0A2
:1036C0000128E5D070B9206B00F080FCE0E700BF76
:1036D00030680228DFD3C8F80070BFF34F8FBFF304
:1036E0006F8FD8E74FF0500080F31188BFF36F8FD2
:1036F000BFF34F8FFEE700002DE9F0470A9C82469A
:10370000206B16460F46DDE908599100A522984620
:10371000FCF78CFE206B002F00EB8600A0F104006C
:1037200020F0070644D0387884F83400D8B378788D
:1037300084F83500B8B3B87884F8360098B3F878D0
:1037400084F8370078B3387984F8380058B378793A
:1037500084F8390038B3B87984F83A0018B3F879A6
:1037600084F83B00F8B1387A84F83C00D8B1787A14
:1037700084F83D00B8B1B87A84F83E0098B1F87A80
:1037800084F83F0078B1387B84F8400058B1787BEA
:1037900084F8410038B1B87B84F8420000281CBF8F
:1037A000F87B84F84300002084F8430003E000BF66
:1037B000002084F834000027201D372D28BF37252E
:1037C000E562C4E9135700F081FB04F1180000F032
:1037D0007DFBC5F13800A061304651464246246168
:1037E0006462676584F8587000F024FBB9F1000F3B
:1037F000206018BFC9F80040BDE8F087064800689F
:10380000006880F3088862B661B6BFF34F8FBFF3DC
:103810006F8F00DF00BF000008ED00E081B00020E6
:10382000009040F20C00C2F2000000684FF050011E
:1038300081F31188BFF36F8FBFF34F8F013007D033
:10384000FEE700BF009830B9009820B9009810B981
:1038500000980028F6D001B07047000088B040F210
:10386000141AC2F2000A0DF11009EB46DAF808004A
:1038700005681DB1C068046801E000BF002400F0C5
:10388000F7FD01F061FCDAF810100646884220D3FB
:10389000002DCAF8106051D0B4424FD801F05EFD3F
:1038A000DAF80800C068C7683D1D284600F0D4FA61
:1038B00097F82800410745D400F0FA0087F828005F
:1038C00082E000BF7860DAF8080029463F6100F026
:1038D00001FBDAF80800016831B3C068C768046802
:1038E0003D1D284600F0B8FA396A3846884797F8EF
:1038F00028004007EDD5B8692044A042E2D8DAF8A4
:103900000000002800F04081002004A991C101F0CE
:103910000BFCDAF8000049460022002300F0BCFF4F
:103920000028D6D130E100BFDAF80C10CAF81060D8
:10393000CAE9021001F012FD4FE000BF65B100229C
:1039400010E000BFB8693F610119B14279601DD92B
:103950000AF108001FE000BFDAF80C000068B0FAB6
:1039600080F04209DAF80000A11B00F015FC01F01C
:10397000F5FC90BB4EF60450CEF200004FF08051A3
:103980000160BFF34F8FBFF36F8F26E0311B814281
:1039900006D20AF10C000068294600F09BFA13E0F9
:1039A000DAF80000002800F00D81002004A991C180
:1039B00001F0BAFBDAF8000049460022002300F0CB
:1039C0006BFF002800F0FE80396A3846884704E023
:1039D0000AF10C02106800F07DFADAF8000059468E
:1039E000002201F05DF900283FF440AF0098B0F1EB
:1039F000FF3F06DCDDE9012003999047009800288D
:103A0000EBD4029E706910B1301D00F025FA01F070
:103A10009BFBDAF81010074688420CD30098CAF8CE
:103A2000107009283DD9D8E76860DAF80800214607
:103A30002D6100F04FFADAF80800016841B3C06860
:103A4000C568D0F800802C1D204600F005FA296AD0
:103A50002846884795F828004007ECD5A8694044D7
:103A60004045E1D8DAF80000002800F0838000200B
:103A7000CDE90408069501F057FBDAF80000494645
:103A80000022002300F008FF0028D4D172E000BF1C
:103A9000DAF80C10CAE902100098CAF81070092868
:103AA0009BD8DFE800F005050557415F0505574144
:103AB00096F82800B26940F00101019886F82810B4
:103AC0001318314641F8043FBB42366108D987429A
:103AD0000AF10802BFF47EAF834205D27AE700BF45
:103AE000381A9042FFF474AF316A3046884796F82E
:103AF000280040077FF571AFDAF8000000284DD0AC
:103B00000198B169069608440021CDE9041001F03E
:103B10000BFBDAF8000049460022002300F0BCFE4F
:103B200000287FF45AAF39E096F8280040F00101F0
:103B3000019886F828100028B06139D03844314601
:103B40000AF10C0241F8040F3661B84288BF0AF14D
:103B500008023FE796F8280000F0FE0086F82800EB
:103B60003BE700BF96F828008107F5D4304600F007
:103B70002DFA32E74FF0500080F31188BFF36F8FBA
:103B8000BFF34F8FFEE700BF4FF0500080F3118866
:103B9000BFF36F8FBFF34F8FFEE700BF4FF05000B2
:103BA00080F31188BFF36F8FBFF34F8FFEE700BF25
:103BB0004FF0500080F31188BFF36F8FBFF34F8F2A
:103BC000FEE700BF4FF0500080F31188BFF36F8F06
:103BD000BFF34F8FFEE70000F0B581B0044600F060
:103BE000B9F994F94560012E0FDB04F1240500BFFB
:103BF000286850B1284601F077FB002818BF00F074
:103C00003FFBF0B2013E0128F2D8FF2684F8456060
:103C100000F0C4F900F09EF994F94470012F0EDB16
:103C200004F11005286850B1284601F05DFB00281A
:103C300018BF00F025FBF8B2013F0128F2D884F844
:103C4000446001B0BDE8F04000F0A8B970B504468A
:103C500000F00EFC40F2501CC2F2000CDCF8042014
:103C600012B19CF8000020E040F6C010C2F2000043
:103C7000420700F5406200F1070122F0070218BF79
:103C800021F007000021A2F10803CCE90601CCF8DD
:103C9000043042E90211DCF80420191AC0E90021BD
:103CA0000120CCE902118CF800000025002C4FF017
:103CB000000148BF01215AD0084058D124F0070024
:103CC00000F11003600708BF04F10803DCF80800E6
:103CD000591E81424BD2604650F818EFDEF804506E
:103CE0009D422CD2DEF80010C1B174464D689D4251
:103CF00018D20E68B6B175689D4217D23068A8B167
:103D000045689D4216D20468A4B165689D4215D2EB
:103D10002168A6460029E9D111E000BF0CF1180086
:103D20000DE000BF8E46204609E000BFB6460846BB
:103D300005E000BF8646304601E000BFA646964536
:103D400014D00268DEF80040E91A112904604FD34C
:103D50000EEB0305680719D04FF0500080F311886F
:103D6000BFF36F8FBFF34F8FFEE700BF002501F059
:103D7000F5FA68075CD04FF0500080F31188BFF36C
:103D80006F8FBFF34F8F00BFFEE700BF0CF118002D
:103D90006960CEF8043000BF0168A9420AD2086801
:103DA000A8420BD20168A94204D208680B46A84277
:103DB000F2D304E00346084601E000BF0B465C680E
:103DC00069681E19AE4202D121441D4659606C1823
:103DD000844201D0044607E0DCF80440A04203D04E
:103DE000D0E9004008446860AB422C6018BF1D60F9
:103DF000DEF80400DCE9021302F10805091A994211
:103E0000CCF8081038BFCCF80C109CF80010002932
:103E10004FF0000118BF40F00040CEE90010DCF880
:103E200010000130CCF8100001F098FA6807A2D118
:103E3000284670BD034643F61D00C0F600004FF053
:103E4000807C21F0010103E90310A3F1400043F855
:103E5000202C7047FCF7F1FB0169D0E90132D1F861
:103E600004C09A608445536008BF4A600022026122
:103E700008680138086008687047000041F2C473A0
:103E8000C2F20003036041F2C450C2F200000860B5
:103E9000802010607047000041F62043C2F200030A
:103EA000036041F62000C2F2000008604FF4807009
:103EB000106070474FF0FF31024642F8081F0021A2
:103EC0004260C0E9032201607047000000210161E7
:103ED0007047000010B5D1F800C01CF1010213D0EA
:103EE00000F1080462681368634511D853681C68C0
:103EF000644511D85A68146864450FD8546823681B
:103F0000A6466345EED90BE00269D2F804E007E06B
:103F10009646224604E000BF9E4601E096461A46B9
:103F2000C1F804E0CEF808108A60516008610168A9
:103F30000131016010BD0000D0F800C04368086185
:103F40009A68C1E90132516099600CF10101016088
:103F5000704700004FF0500080F31188BFF36F8F5F
:103F6000BFF34F8F40F20C00C2F2000001684A1C00
:103F7000026009B1704700BF4EF60450CEF2000057
:103F80000068000608BF70474FF0500080F31188AA
:103F9000BFF36F8FBFF34F8FFEE7000040F20C00BE
:103FA000C2F20000016839B10139016018BF7047E1
:103FB000002080F3118870474FF0500080F3118883
:103FC000BFF36F8FBFF34F8FFEE7000070B500287F
:103FD00008BF70BD40F25014C2F20004217850F8BE
:103FE000042C002918BF4FF0004111420ED0A0F15F
:103FF00008052B68A3B14FF0500080F31188BFF380
:104000006F8FBFF34F8F00BFFEE700BF4FF0500030
:1040100080F31188BFF36F8FBFF34F8FFEE700BFB0
:1040200022EA010140F8041C064600F021FA56F885
:10403000040CA1680144A16004F118010B68AB42B3
:104040000AD21968A94213D20B68AB4204D219688C
:104050001A46A942F2D301E00A4619465368D61817
:10406000AE420AD02B188B420DD00B4612E000BF97
:104070001A465368D618AE42F4D11844154650601B
:104080002B188B42F1D16368994203D0D1E90031FA
:1040900008446860AA422B6018BF1560606901304F
:1040A0006061BDE8704001F059B900004EF21000A7
:1040B000CEF2000000210160816040F20801C2F2EE
:1040C0000001096844F6D352C1F26202A1FB021258
:1040D0004FF0FF3101EB9211416007210160704701
:1040E00040F29400EFF305811029C2F2000011D3D1
:1040F0004EF2F032CEF20002895C0278914209D28F
:104100004FF0500080F31188BFF36F8FBFF34F8FD4
:10411000FEE700BF4EF60C51CEF200010968406880
:1041200001F4E061814298BF70474FF0500080F386
:104130001188BFF36F8FBFF34F8F00BFFEE7000002
:1041400041F67C4CC2F2000CDCF8003003B363464D
:1041500053F8082FEAB1634653F8102FCAB16346EB
:1041600053F8182FAAB1634653F8202F8AB163463B
:1041700053F8282F6AB1634653F8302F4AB15CF8E0
:10418000382F002A634608BFC3E90010704700BFFC
:104190006346C3E90010704770B515460E460446E5
:1041A000FFF7D8FE94F84400FF2804BF002084F8ED
:1041B000440094F84500FF2804BF002084F845001F
:1041C000FFF7ECFEA06B28B12046BDE87040FFF77A
:1041D00003BD00BF04F1240031462A4600F092F8E6
:1041E0002046BDE87040FFF7F7BC000070B588B30B
:1041F00040F29C04C2F20004616949B14FF05000E2
:1042000080F31188BFF36F8FBFF34F8FFEE700BFBE
:104210006169064601316161A5692168043108467A
:10422000FFF71AFE2068AD19456005D3206A2168A2
:104230000431FFF74FFE08E0E06921680431FFF721
:1042400049FEE06A854238BFE56201F087F8002840
:1042500018BF70BD4EF60450CEF200004FF08051F2
:104260000160BFF34F8FBFF36F8F70BD40F29C01B1
:10427000C2F200018A6B02608969416070470000E8
:1042800040F29C00C2F2000001210163704700006F
:1042900070B5D8B140F29C04C2F200040D4621680A
:1042A0001831FFF717FEA66920680430FFF7D4FD28
:1042B000681C15D02068AD19456019D3206A2168A3
:1042C0000431BDE87040FFF705BE00BF4FF050005D
:1042D00080F31188BFF36F8FBFF34F8FFEE700BFEE
:1042E00054F8500B011D2046BDE87040FFF724BE76
:1042F000E06921680431FFF7EDFDE06A854238BFCF
:10430000E56270BDF0B581B0C0B140F29C04C2F26C
:1043100000040D46216816461831FFF70DFEA76907
:1043200020680430FFF798FD96B154F8500B011D3A
:10433000204601B0BDE8F040FFF7FEBD4FF0500051
:1043400080F31188BFF36F8FBFF34F8FFEE700BF7D
:104350002068ED19456007D3206A2168043101B057
:10436000BDE8F040FFF7B6BDE06921680431FFF712
:10437000B1FDE06A854238BFE56201B0F0BD0000E2
:1043800010B588B00020CDE9050006A805A904AA4B
:10439000FFF774FD059800283ED0069C002C45D000
:1043A0005C21049A079107995C2949D107992063F8
:1043B000022084F8590007A80021CDE9001043F23B
:1043C0007160C0F6000028A100230294FFF794F961
:1043D0002046FFF707F8079840F29C04C2F2000459
:1043E000A062B0B101F032F8411C33D0012810D1E5
:1043F0004FF0500080F31188BFF36F8FBFF34F8FE2
:104400004FF0FF30E062012020610020A06100F049
:104410009DF808B010BD00BF4FF0500080F3118828
:10442000BFF36F8FBFF34F8FFEE700BF4FF0500019
:1044300080F31188BFF36F8FBFF34F8FFEE700BF8C
:104440004FF0500080F31188BFF36F8FBFF34F8F91
:10445000FEE700BF4FF0500080F31188BFF36F8F6D
:10446000BFF34F8FFEE700BF49444C4500000000FA
:1044700040F29C00C2F20000416901314161704785
:1044800080B540F29C0EC2F2000EDEF8141019B195
:104490000121CEF8301080BD0021CEF83010DEF8BA
:1044A000241040F2F44C01EB8102C2F2000C5CF8E3
:1044B0002230002B0CEB82030CD05868426803F1C9
:1044C000080082425A6023D0D068CEF80000CEF8AF
:1044D000241080BD283B19B35A6901EB8100002AE2
:1044E0000CEB800226D101291AD0186830BB0229B2
:1044F00016D053F8140C28BB032911D053F8280CFC
:1045000004390028A3F15003E5D02833D5E700BFD4
:1045100052685A60D068CEF80000CEF8241080BDF2
:104520004FF0500080F31188BFF36F8FBFF34F8FB0
:10453000FEE700BFA2F114030139BEE7A2F1280390
:104540000239BAE7A2F13C030339B6E7B0B584B04B
:104550004EF2004CCEF2000C9CF800100291FF21AC
:104560008CF800109CF800108DF807109DF80710CB
:1045700001F0500240F29401C2F200010A700722D9
:104580004A609DF90720B2F1FF3F61DC032200BFC2
:10459000D31C4B609DF8070040008DF807009DF983
:1045A0000700B0F1FF3F24DC931C4B609DF807002F
:1045B00040008DF807009DF90700B0F1FF3F18DCBF
:1045C000531C4B609DF8070040008DF807009DF9D3
:1045D0000700B0F1FF3F0CDC4A609DF80700043A89
:1045E00040008DF807009DF90700B0F1FF3FCFDDD7
:1045F000131D032B2CD14FF44070486002988CF8A7
:104600000000DCF8200940F47000CCF82009DCF848
:10461000200940F07040CCF82009FFF747FD40F238
:104620000C04C2F2000400252560FFF7E7F8FFF74D
:1046300027FF039520684FF0500181F31188BFF3E5
:104640006F8FBFF34F8F013012D000BFFEE700BF66
:104650004FF0500080F31188BFF36F8FBFF34F8F7F
:10466000FEE700BF039830B9039820B9039810B94A
:1046700003980028F6D0002004B0B0BD80B54FF0FC
:10468000500080F31188BFF36F8FBFF34F8F00F09E
:1046900061FD30B14EF60450CEF200004FF0805173
:1046A0000160002080F3118880BD0000B0B3F0B538
:1046B00081B005464843503014460E46FFF7C6FA0F
:1046C00050B30027014680F84670002E18BF5031C5
:1046D0000160C0E90F560546FFF73CFC2868D5E9A4
:1046E0000F12AF6302FB0103013901FB0201C5E9AF
:1046F0000103FF20E96085F8440085F8450005F1D5
:104700001000FFF7D7FB05F12400FFF7D3FBFFF7FD
:1047100045FC284685F84C4001B0F0BD4FF05000F4
:1047200080F31188BFF36F8FBFF34F8FFEE7000058
:1047300070B582B060B1ABB1F1B9EAB14FF05000E1
:1047400080F31188BFF36F8FBFF34F8FFEE700BF79
:104750004FF0500080F31188BFF36F8FBFF34F8F7E
:10476000FEE700BF4FF0500080F31188BFF36F8F5A
:10477000BFF34F8FFEE700BF51B14AB94FF0500071
:1047800080F31188BFF36F8FBFF34F8FFEE700BF39
:1047900050250195019D502D2ED1019C069E01248E
:1047A00083F84640002908BF1A461A60C3E90F0182
:1047B0001C46FFF7CFFB2068D4E90F12002502FB4F
:1047C0000103013901FB0201A563C4E90103FF20D4
:1047D000E16084F8440084F8450004F11000FFF71C
:1047E00069FB04F12400FFF765FBFFF7D7FB2046C8
:1047F00084F84C6002B070BD4FF0500080F3118817
:10480000BFF36F8FBFF34F8FFEE7000020B370B58B
:1048100004460E46FFF79EFB2068D4E90F120025E0
:1048200002FB0103013901FB0201A563C4E9010395
:10483000FF20E16084F8440084F8450004F1100092
:10484000A6B1FFF737FB04F12400FFF733FBFFF7B6
:10485000A5FB012070BD00BF4FF0500080F3118810
:10486000BFF36F8FBFF34F8FFEE700BF01680029D2
:10487000EDD000F039FD0028E9D04EF60450CEF21C
:1048800000004FF080510160BFF34F8FBFF36F8F77
:10489000FFF784FB012070BD2DE9F04F83B0029239
:1048A000C0B11D460446F9B1022D02D1E06B0128CA
:1048B0005CD116460F4600F037FC18BB16B34FF01C
:1048C000500080F31188BFF36F8FBFF34F8F00BF8D
:1048D000FEE700BF4FF0500080F31188BFF36F8FE9
:1048E000BFF34F8FFEE700BF206C0028DCD04FF0F5
:1048F000500080F31188BFF36F8FBFF34F8F00BF5D
:10490000FEE700BFFFF726FBA06B022D65D0E16B31
:10491000884262D30298002800F018816846FFF7A9
:10492000A5FCFFF73BFBFFF7A3FDFFF713FB94F894
:104930004400FF2804BF002084F8440094F8450098
:10494000FF2804BF002084F84500FFF727FB6846D6
:1049500002A900F02FFB98B12046FFF73DF900F0C7
:10496000FDFC002003B0BDE8F08F00BF4FF0500009
:1049700080F31188BFF36F8FBFF34F8FFEE700BF47
:1049800004F11008FFF7E6FAD4F83890E66BFFF769
:1049900005FBB14516D102994046FFF779FC204648
:1049A000FFF71AF900F0DAFC88B94EF60450CEF29F
:1049B00000004FF080510160BFF34F8FBFF36F8F46
:1049C00005E000BF2046FFF707F900F0C7FCFFF73E
:1049D000C1FAA06BE16B884266D2A66B226CDAB199
:1049E00039462DB3E068FBF7DCFCE168206C2268F7
:1049F000091A9142E16003D2A16840420844E06094
:104A0000A81EB0FA80F040093146002E18BF0121DF
:104A10000840361A18E000BF2068A8B9A06800F066
:104A20001BFC0021B0FA80F0A16040090DE000BF3E
:104A30006068FBF7B6FCD4E90101226C104488429F
:104A4000606001D3206860600120711CA16354F88C
:104A5000241FA9B1204600F047FC50B14EF6045087
:104A6000CEF200004FF080510160BFF34F8FBFF3D3
:104A70006F8FFFF793FA012003B0BDE8F08F00BFFE
:104A80000028F6D14EF60450CEF200004FF08051CF
:104A90000160BFF34F8FBFF36F8FFFF77FFA0120E5
:104AA00003B0BDE8F08F00BFE94602AE0CE000BFE6
:104AB0002046FFF791F800F051FCFFF74BFAA06B8E
:104AC000E16B8842FFF489AF029800283ED0FFF7DF
:104AD00065FAFFF7CDFCFFF73DFA94F84400FF2894
:104AE00004BF002084F8440094F84500FF2804BF68
:104AF000002084F84500FFF751FA4846314600F09F
:104B000059FA00287FF428AFFFF724FAD4F838A028
:104B1000D4F83CB0FFF742FADA45C9D102994046D1
:104B2000FFF7B6FB2046FFF757F800F017FC002808
:104B3000C3D14EF60450CEF200004FF08051016018
:104B4000BFF34F8FBFF36F8FB7E700BFFFF726FAB2
:104B5000002003B0BDE8F08F2DE9F04700B31D46FB
:104B6000044639B3022D02D1E06B012852D10E4622
:104B70009046FFF7B5FAEFF3118A4FF0500080F33B
:104B80001188BFF36F8FBFF34F8FA06B022D1FD023
:104B9000E16B88421CD300208AF31188BDE8F087BE
:104BA0004FF0500080F31188BFF36F8FBFF34F8F2A
:104BB000FEE700BF206C0028D4D04FF0500080F3F7
:104BC0001188BFF36F8FBFF34F8F00BFFEE700BFA9
:104BD00094F84590A06BA76B226C2AB331465DB365
:104BE000E068FBF7DEFBE168206C2268091A91425D
:104BF000E16003D2A16840420844E060A81EB0FA18
:104C000080F040093946002F18BF012108403F1AA3
:104C10001EE000BF4FF0500080F31188BFF36F8F8C
:104C2000BFF34F8FFEE700BF206888B9A06800F08F
:104C300013FB0020A0600BE06068FBF7B2FBD4E937
:104C40000101226C10448842606001D320686060DA
:104C5000781CB9F1FF0FA06312D154F8240F98B15A
:104C6000204600F041FB0146B8F1000F4FF0010073
:104C700018BF00290ED18AF31188BDE8F08700BF64
:104C800009F1010084F8450001208AF31188BDE88C
:104C9000F08700BFC8F800008AF31188BDE8F087EC
:104CA0002DE9F04F83B0029290B1154604460029D9
:104CB00048D00E4600F038FAA0B99DB14FF0500030
:104CC00080F31188BFF36F8FBFF34F8FFEE700BFF4
:104CD0004FF0500080F31188BFF36F8FBFF34F8FF9
:104CE000FEE700BFFFF736F9D4F838A0BAF1000F9D
:104CF00036D0226C52B1D4E9023130461144E16021
:104D0000994224BF2168E160FBF74BFBAAF1010047
:104D1000A06354F8100F70B1204600F0E5FA50B1CE
:104D20004EF60450CEF200004FF080510160BFF308
:104D30004F8FBFF36F8F0124FFF730F9204603B088
:104D4000BDE8F08F206C0028B3D04FF0500080F306
:104D50001188BFF36F8FBFF34F8F00BFFEE700BF17
:104D60000298002800F0B4806846FFF77FFAFFF74A
:104D700015F9FFF77DFBFFF7EDF894F8440004F117
:104D80002408FF2804BF002084F8440094F845005C
:104D9000FF2804BF002084F84500FFF7FFF86846AD
:104DA00002A900F007F978B12046FEF715FF00F0E0
:104DB000D5FAFFF7CFF8A56BFFF7F0F82DBB00246D
:104DC000204603B0BDE8F08FFFF7C4F8A56BFFF7EE
:104DD000E5F82DB12046FEF7FFFE00F0BFFA14E023
:104DE00002994046FFF754FA2046FEF7F5FE00F020
:104DF000B5FA50B94EF60450CEF200004FF0805193
:104E00000160BFF34F8FBFF36F8FFFF7A3F8D4F8A4
:104E100038A0BAF1000F7FF46CAF4FF00009EB46F9
:104E200002AF13E02046FEF7D7FE00F097FAFFF737
:104E300091F8A56BFFF7B2F8002DC0D0FFF78AF804
:104E4000D4F838A0BAF1000F7FF453AF02980028CD
:104E50003ED0FFF7A3F8FFF70BFBFFF77BF894F8C2
:104E60004400FF2808BF84F8449094F84500FF28C8
:104E700008BF84F84590FFF791F85846394600F08E
:104E800099F80028CED1FFF765F8A56BFFF786F8F3
:104E900035B12046FEF7A0FE00F060FACEE700BF75
:104EA00002994046FFF7F4F92046FEF795FE00F020
:104EB00055FA0028C2D14EF60450CEF200004FF051
:104EC00080510160BFF34F8FBFF36F8FB6E700BF14
:104ED0000024FFF763F8204603B0BDE8F08F000020
:104EE0002DE9F04381B000283CD00446002943D08E
:104EF0000D469046FFF7F4F8EFF311894FF050009C
:104F000080F31188BFF36F8FBFF34F8FA66B002E16
:104F100040D094F84470226C52B1D4E9020111449B
:104F2000E160814224BF2168E1602846FBF739FA3D
:104F3000701EFF2FA06333D154F8100F002832D019
:104F4000204600F0D1F90146B8F1000F4FF0010002
:104F500003D0002918BFC8F8000089F3118801B0F8
:104F6000BDE8F0834FF0500080F31188BFF36F8FDE
:104F7000BFF34F8FFEE700BF206C0028B8D04FF082
:104F8000500080F31188BFF36F8FBFF34F8F00BFC6
:104F9000FEE700BF002089F3118801B0BDE8F0836F
:104FA000781C84F84400012089F3118801B0BDE821
:104FB000F0830000B0B548B30C4689B30546FEF750
:104FC000C9FF40F29C0CC2F2000CDCF818302268D9
:104FD000501C2FD0AE4668682D68DCF83810A94206
:104FE00001D083422ED2181A824229D9101A206089
:104FF000DCF838000024CEF80000DCF81800CEF809
:105000000400FEF7CBFF2046B0BD00BF4FF05000BC
:1050100080F31188BFF36F8FBFF34F8FFEE700BFA0
:105020004FF0500080F31188BFF36F8FBFF34F8FA5
:10503000FEE700BF0024FEF7B1FF2046B0BD00BF71
:10504000002020600124FEF7A9FF2046B0BD00002B
:105050002DE9F04184B007469000984615460E466B
:10506000FEF7F4FDF8B104465C20FEF7EFFDB8B1A1
:10507000DDE90A210023046380F85930CDE90021DD
:105080000446384631462A4643460294FEF734FB2E
:105090002046FEF7A7F9012004B0BDE8F08100BF6B
:1050A0002046FEF793FF4FF0FF3004B0BDE8F081DB
:1050B00070B586B00B9CCCB10C9E0EB35C250495EC
:1050C000049D5C2D26D1049DDDF828C0022586F8BC
:1050D000595005AD3463CDE900C50296FEF70CFBCF
:1050E0003046FEF77FF9059806B070BD4FF05000CE
:1050F00080F31188BFF36F8FBFF34F8FFEE700BFC0
:105100004FF0500080F31188BFF36F8FBFF34F8FC4
:10511000FEE700BF4FF0500080F31188BFF36F8FA0
:10512000BFF34F8FFEE7000040F29C00C2F2000088
:10513000016900290FBF01204069B0FA80F04009E1
:1051400018BF40007047000040F29C00C2F200000F
:10515000806970472DE9F04381B040F29C06C2F2AD
:105160000006706940B1706B002401307063204606
:1051700001B0BDE8F08300BFB06910F10109C6F8C5
:10518000189020D3F069006850B14FF0500080F3C0
:105190001188BFF36F8FBFF34F8F00BFFEE700BFD3
:1051A000F069316AF1613062B06B0130B063F0696F
:1051B000006828B1F069C068C068406802E000BFBC
:1051C0004FF0FF30F062F06A40F2F4488145C2F2DD
:1051D000000801D200242EE0F0690024006813E0EA
:1051E000F86A716A884288BF706200EB800008EB41
:1051F00080002946FEF7A0FEF86A3168C96AF269A4
:10520000884228BF0124106890B1F069C068C7685F
:105210003D4655F8040F81450CD32846FEF71CFE89
:10522000B86A0028DCD007F11800FEF715FED7E7B2
:105230004FF0FF30F0623068C06A00EB800058F831
:105240002000012888BF0124306B002818BF0124EA
:10525000204601B0BDE8F08370B588B140F29C05EE
:10526000C2F20005296888420CD04FF0500080F34C
:105270001188BFF36F8FBFF34F8F00BFFEE700BFF2
:10528000002070BD016D29B3013901654FF00001A7
:105290001DD1C26AC36C9A4219D0041D064620462D
:1052A000FEF7DAFDF06CC0F13801F062B161696AB5
:1052B000884240F2F44188BF686200EB8000C2F28D
:1052C000000101EB80002146FEF736FE0121084671
:1052D00070BD00BF4FF0500080F31188BFF36F8F97
:1052E000BFF34F8FFEE7000070B5C068C5686DB1B1
:1052F00005F118042046FEF7AFFD40F29C06C2F20D
:105300000006706960B106F164001AE04FF05000C9
:1053100080F31188BFF36F8FBFF34F8FFEE700BF9D
:105320002C1D2046FEF798FDE86A716A884240F21B
:10533000F44188BF706200EB8000C2F2000101EB13
:1053400080002146FEF7F8FDE86A3168C96A8842A4
:1053500092BF00200120306370BD00002DE9F041B4
:1053600040F29C05C2F20005686968B1FEF7F2FDE3
:10537000686901386861686980B10024FEF70EFE33
:105380002046BDE8F08100BF4FF0500080F3118847
:10539000BFF36F8FBFF34F8FFEE700BFE8680028B1
:1053A000EBD0686E88B340F2F446C2F200064FF0CC
:1053B000010800BF286FC76807F11800FEF74CFD11
:1053C0003C1D2046FEF748FDF86A696A884288BF9E
:1053D000686200EB800006EB80002146FEF7ACFD22
:1053E000F86A2968C96A884228BFC5F83080686EA3
:1053F0000028DFD1E869006820B1E869C068C068AA
:10540000406801E04FF0FF30E8626C6B4CB1012660
:10541000FFF7A0FE002818BF2E63013CF8D1002042
:105420006863286B0028A8D04EF60450CEF2000026
:105430004FF080510160BFF34F8F0124BFF36F8F96
:10544000FEF7ACFD2046BDE8F081000070B586B0E7
:10545000FEF780FD40F21416C2F20006306808BB69
:1054600006F114042046FEF725FD06F1280528461E
:10547000FEF720FD40F2044240F2A443C6E9024593
:105480000025C2F20002C2F200030A20102100959A
:10549000FFF74EF9306028B145F2E851C0F600013F
:1054A000FEF74EFEFEF77AFD3068D8B10020CDE958
:1054B000040005A804A903AAFEF7EEFCDDE9032019
:1054C0000221059DCDE9001043F65D00C0F6000005
:1054D00009A100230295FFF7EBFD706010B10120D8
:1054E00006B070BD4FF0500080F31188BFF36F8F8E
:1054F000BFF34F8FFEE700BF546D722053766300F9
:105500000000000000000000010203040607080973
:10551000000000000102030401020000D855000849
:10552000000000000000000000000000000000007B
:10553000000400000800000000000000000000005F
:10554000DF5500080000000000000000000000001F
:10555000000000000004000008000000000000003F
:1055600000000000000000000000000049300008BA
:105570004930000849300008000000000000000029
:10558000112C00080000000000000000212F00087E
:10559000852E0008B52F0008020304050607080938
:1055A0000A0B0C0D0E0F1010CC5500080000000067
:1055B00000000000000000000000000000020000E9
:1055C0001800000000000000000000006465666133
:1055D000756C745461736B0053637265656E00572C
:1055E0006972656C65737300546D72510025732E7A
:1055F0006A25642E76616C3D25640025732E6E2528
:10560000642E76616C3D2564000000003056000871
:105610000000002028000000500100085856000833
:1056200028000020982200007001000841D4FFFFEC
:10563000010000001000000000127A00AAAAAAAA25
:10564000000000000000000000000000000000005A
:08565000000000000000000052
:04000005080000ED02
:00000001FF
