:020000040800F2
:10000000C83B0020B9010008052D0008612A00083E
:10001000012D000811050008D93500080000000076
:10002000000000000000000000000000012E000899
:100030009505000800000000812D0008452E0008ED
:10004000D3010008D3010008D3010008D301000840
:10005000D3010008D3010008D3010008D301000830
:10006000D3010008D3010008D3010008D301000820
:1000700015050008D301000825050008D301000874
:10008000D301000835050008D3010008D30100089A
:10009000D3010008D3010008D3010008D3010008F0
:1000A000D3010008D52E0008D3010008D3010008B1
:1000B000D3010008D3010008D3010008D3010008D0
:1000C000D3010008D3010008D3010008D3010008C0
:1000D000D3010008A9350008B9350008C935000862
:1000E000D3010008D3010008D301000800F002F892
:1000F00000F052F814A696E8000CB244B344DA4576
:1001000001D100F049F8BAE80F000FA696E83000D8
:10011000A5EB040504EB0607AAEB0704A7F101070A
:100120004FEA15154FEA3414A4F10104AC4201D38F
:1001300000F032F813F0010F18BFFB1A43F001036F
:1001400000F001F8DBE71847C87B0000E87B0000FF
:10015000103A24BF78C878C1FAD8520724BF30C8F3
:1001600030C144BF04680C60704700007047000055
:100170000023002400250026103A28BF78C1FBD8B0
:10018000520728BF30C148BF0B6070471FB500F051
:10019000EDF81FBD10B510BD00F042F91146FFF794
:1001A000F5FF04F0F7FC00F060F903B4FFF7F2FF8D
:1001B00003BC00F02FF900000948804709480047B8
:1001C000FEE7FEE7FEE7FEE7FEE7FEE7FEE7FEE707
:1001D000FEE7FEE704480549054A064B7047000064
:1001E000D12E0008ED000008C8350020C83B0020D3
:1001F000C8370020C837002040EA0103024630B566
:100200009B0710D14FF0013400E008C208C91D1B44
:100210009D4315EAC41FF8D013F0FF0102F8011B3B
:100220000DD01B0AF8E711F8013B002B02F8013B47
:1002300005D011F8013B002B02F8013BF3D130BD92
:1002400010B5431C02E010F8011B71B18107FAD10F
:100250004FF0013202C88C1A8C4314EAC211F9D053
:10026000C01A0A0603D0C01E10BDC01A10BD0A0471
:1002700001D0801E10BD0902FCD0401E10BD032A13
:1002800040F2308010F0030C00F0158011F8013BB3
:10029000BCF1020F624498BF11F801CB00F8013B9A
:1002A00038BF11F8013BA2F1040298BF00F801CB5E
:1002B00038BF00F8013B11F0030300F06D80083AED
:1002C000C0F0088051F8043B083A51F804CBA0E88C
:1002D0000810F5E7121D5CBF51F8043B40F8043BE1
:1002E000AFF30080D20724BF11F8013B11F801CB16
:1002F00048BF11F8012B24BF00F8013B00F801CBE7
:1003000048BF00F8012B704702F0FF0343EA0322C5
:1003100042EA024200F002B84FF0000200B5134674
:1003200094469646203922BFA0E80C50A0E80C5015
:10033000B1F12001BFF4F7AF090728BFA0E80C50C6
:1003400048BF0CC05DF804EB890028BF40F8042BBF
:1003500008BF704748BF20F8022B11F0804F18BF2C
:1003600000F8012B704770477047704708487CB50C
:100370007844009007487844009C0546019004E0CA
:100380002046016808448047241DAC42F8D17CBD5A
:10039000BC790000C279000010B5203AC0F00B8093
:1003A000B1E81850A0E81850B1E81850A0E818506B
:1003B000203ABFF4F5AF5FEA027C24BFB1E81850E1
:1003C000A0E8185044BF18C918C0BDE810405FEA43
:1003D000827C24BF51F8043B40F8043B08BF7047BF
:1003E000D20728BF31F8023B48BF11F8012B28BFC4
:1003F00020F8023B48BF00F8012B704710B50020E1
:1004000000F03CF8FFF7C6FEBDE81040012000F008
:1004100001B8000001491820ABBEFEE7260002002B
:10042000754600F033F8AE4605006946534620F0A5
:100430000700854618B020B5FFF7CCFEBDE8204088
:100440004FF000064FF000074FF000084FF0000B90
:10045000AC46ACE8C009ACE8C009ACE8C009ACE8FF
:10046000C00921F007018D46704710B50446AFF36F
:1004700000802046BDE81040FFF797BE10B500F0A1
:100480000FF8BDE8104000F006B8000000487047C3
:10049000280000207047002801D0FFF7BBBF70473D
:1004A00010B5002102A000F013F8012010BD0000DB
:1004B000534947414252543A2041626E6F726D6116
:1004C0006C207465726D696E6174696F6E000000F6
:1004D00070B505460C460A2000E06D1C00F011F8CE
:1004E00035B128780028F8D102E0641C00F009F842
:1004F00014B120780028F8D1BDE870400A20AFF38D
:10050000008008B569468DF800000320ABBE08BD29
:10051000FFE7FEE780B540F26830C2F2000000F06D
:100520000FF980BD80B540F2E020C2F2000000F07B
:1005300007F980BD80B540F22430C2F2000000F01F
:10054000FFF880BD84B0039002910192009303985C
:10055000C16B026C012090404860009803990968C3
:10056000486003984068102809D1FFE70198039973
:1005700009688860029803990968C86008E00298D1
:10058000039909688860019803990968C860FFE7C2
:1005900004B070477047000081B0EFF3108072B66E
:1005A0000090FFE7FEE7000083B0019000208DF887
:1005B0000300019890F8210002280DD0FFE701996F
:1005C00004208863FFE70199002081F82000FFE7FD
:1005D00001208DF80B0021E001980168086820F0E7
:1005E0000E00086001980168086820F001000860AA
:1005F0000198C16B026C012090404860FFE70199AF
:10060000012081F82100FFE70199002081F82000F6
:10061000FFE79DF803008DF80B00FFE79DF80B0046
:1006200003B0704780B588B0079000208DF81B009C
:10063000079890F82100022807D0FFE707990420C7
:10064000886301208DF81B0076E007980168086830
:1006500020F00E00086007980168086820F001008B
:100660000860079800680821C4F20201884203D19B
:10067000FFE70120059047E0079800681C21C4F2BD
:100680000201884203D1FFE71020049039E0079867
:1006900000683021C4F20201884204D1FFE74FF420
:1006A000807003902AE0079800684421C4F2020198
:1006B000884204D1FFE74FF4805002901BE0079876
:1006C00000685821C4F20201884204D1FFE74FF4C8
:1006D000803001900CE0079801686C22C4F202029D
:1006E0004FF08070914208BF4FF480100190FFE7F7
:1006F00001980290FFE702980390FFE703980490A7
:10070000FFE704980590FFE705980421C4F2020171
:1007100008600799012081F82100FFE70799002070
:1007200081F82000FFE70798406B20B1FFE70798AA
:10073000416B8847FFE7FFE79DF81B0008B080BDCD
:1007400080B58EB00D900D98C06B00680C900D9820
:10075000006800680B900C980D99096CC840400720
:10076000002875D5FFE79DF82C00400700286FD5BD
:10077000FFE70D98006800688006002807D4FFE7AF
:100780000D980168086820F004000860FFE70D98E4
:1007900000680821C4F20201884203D1FFE7042067
:1007A0000A9047E00D9800681C21C4F202018842BB
:1007B00003D1FFE74020099039E00D98006830210F
:1007C000C4F20201884204D1FFE74FF48060089030
:1007D0002AE00D9800684421C4F20201884204D145
:1007E000FFE74FF4804007901BE00D980068582108
:1007F000C4F20201884204D1FFE74FF48020069042
:100800000CE00D9801686C22C4F202024FF0806087
:10081000914208BF4FF480000690FFE706980790CA
:10082000FFE707980890FFE708980990FFE7099805
:100830000A90FFE70A980421C4F2020108600D98AB
:10084000C06A20B1FFE70D98C16A8847FFE7B8E0AA
:100850000C980D99096CC8408007002840F18080F1
:10086000FFE79DF82C008007002879D5FFE70D9859
:1008700000680068800600280BD4FFE70D98016827
:10088000086820F00A0008600D99012081F8210015
:10089000FFE70D9800680821C4F20201884203D1E5
:1008A000FFE70220059047E00D9800681C21C4F284
:1008B0000201884203D1FFE72020049039E00D981F
:1008C00000683021C4F20201884204D1FFE74FF4EE
:1008D000007003902AE00D9800684421C4F20201E0
:1008E000884204D1FFE74FF4005002901BE00D98BE
:1008F00000685821C4F20201884204D1FFE74FF496
:10090000003001900CE00D9801686C22C4F20202E4
:100910004FF00070914208BF4FF400100190FFE7C4
:1009200001980290FFE702980390FFE70398049074
:10093000FFE704980590FFE705980421C4F202013F
:100940000860FFE70D99002081F82000FFE70D986F
:10095000806A20B1FFE70D98816A8847FFE72FE0A2
:100960000C980D99096CC8400007002827D5FFE7AF
:100970009DF82C000007002821D5FFE70D9801689D
:10098000086820F00E0008600D98C26B016C012011
:1009900000FA01F151600D9988630D9981F82100E9
:1009A000FFE70D99002081F82000FFE70D98006B0C
:1009B00020B1FFE70D98016B8847FFE7FFE7FFE7EE
:1009C000FFE70EB080BD000083B0019000200090D2
:1009D000019820B9FFE701208DF80B0047E001994D
:1009E00008684FF6F872CBF6FD7210444CF6CD4213
:1009F000CCF6CC42A0FB02026FF0030000EA9200AA
:100A0000086401990020C4F20200C8630199022021
:100A100081F821000198006800680090009843F672
:100A2000F0718843009001994868D1F808C0CB68FC
:100A30000A6940EA0C00184310434A6910438A6966
:100A40001043C96901430098084300900098019938
:100A500009680860019900208863019A012182F8E1
:100A60002110019981F820008DF80B00FFE79DF817
:100A70000B0003B07047000080B586B0049003916E
:100A80000292019300208DF80300FFE7049890F88C
:100A90002000012804D1FFE702208DF817004CE068
:100AA0000499012081F82000FFE7FFE7049890F8FF
:100AB0002100012832D1FFE70499022081F82100AA
:100AC00004990020886304980168086820F00100F8
:100AD000086004980399029A019BFFF733FD04987C
:100AE000C06A38B1FFE704980168086840F00E005A
:100AF00008600CE004980168086820F004000860B1
:100B000004980168086840F00A000860FFE704984C
:100B10000168086840F00100086009E0FFE70499F7
:100B2000002081F82000FFE702208DF80300FFE796
:100B30009DF803008DF81700FFE79DF8170006B039
:100B400080BD000090B00F900E9100200D90099094
:100B5000FFE70E9800680D99C840002800F07F81DB
:100B6000FFE70D99012088400C900E9800680C99C1
:100B700008400B900B980C99884240F06C81FFE77D
:100B80000E9840680590002851D0FFE7059801288D
:100B90003AD0FFE7059802283FD0FFE705980328E1
:100BA0005FD0FFE70598112832D0FFE7059812289B
:100BB00038D0FFE705980021C1F21101884236D0F4
:100BC000FFE705980021C1F2120188422FD0FFE70C
:100BD00005980021C1F22101884228D0FFE705983D
:100BE0000021C1F22201884221D0FFE705980021AF
:100BF000C1F2310188421AD0FFE705980021C1F205
:100C00003201884213D02FE00E98C06809902CE082
:100C10000E98C0680430099027E00E98C06808302C
:100C2000099022E00E98C0680C3009901DE00E98E3
:100C3000806818B9FFE70420099011E00E988068D9
:100C4000012806D1FFE7082009900C980F99086148
:100C500005E0082009900C980F994861FFE7FFE72D
:100C600003E00020099000E0FFE70B98FF2803D87D
:100C7000FFE70F98049003E00F9804300490FFE71B
:100C8000049808900B98FF2804D8FFE70D9880007F
:100C9000039006E00D996FF01F0000EB81000390B8
:100CA000FFE70398079008980068079A0F21914082
:100CB0008843099991400843089908600E98C079C3
:100CC000C006002840F1C680FFE7FFE741F21800A8
:100CD000C4F20200016841F001010160006800F007
:100CE000010006900698FFE70D9820F00300082108
:100CF000C4F2010140580A900D9800F003008100F1
:100D00000F2000FA01F10A9888430A900F9840F6E4
:100D10000001C4F20101884203D1FFE700200290E4
:100D200026E00F9840F60041C4F20101884203D149
:100D3000FFE70120019018E00F9841F20001C4F292
:100D40000101884203D1FFE7022000900AE00F99D9
:100D500041F20042C4F201020420914208BF032084
:100D60000090FFE700980190FFE701980290FFE7ED
:100D700002980D9901F00301890000FA01F10A9827
:100D800008430A900A980D9921F003010822C4F241
:100D9000010288500E988079C006002809D5FFE727
:100DA0000B9A40F20841C4F2010108681043086040
:100DB00008E00B9A40F20841C4F201010868904330
:100DC0000860FFE70E9880798006002809D5FFE7C4
:100DD0000B9A40F20C41C4F201010868104308600C
:100DE00008E00B9A40F20C41C4F2010108689043FC
:100DF0000860FFE70E9880798007002809D5FFE793
:100E00000B9A40F20441C4F20101086810430860E3
:100E100008E00B9A40F20441C4F2010108689043D3
:100E20000860FFE70E988079C00748B1FFE70B9A8A
:100E300040F20041C4F2010108681043086008E074
:100E40000B9A40F20041C4F2010108689043086027
:100E5000FFE7FFE7FFE70D9801300D9079E610B04E
:100E60007047000083B00290ADF806100298C06889
:100E70000090009ABDF8060002EA0001904340EAA3
:100E800001400299086103B07047000082B00190F0
:100E9000ADF802108DF801209DF8010028B1FFE7A0
:100EA000BDF802000199086105E0BDF802000004E8
:100EB00001990861FFE702B07047000042F68850D0
:100EC000C2F200000068704740F20400C2F2000065
:100ED000027842F68851C2F20001086810440860A6
:100EE0007047000080B542F20001C4F202010868B8
:100EF00040F010000860032000F0D4F80F2000F04C
:100F000005F800F071F8002080BD000080B58CB0BD
:100F10000B900020059004908DF80B00FFE741F244
:100F20001800C4F20200016841F400610160006829
:100F300000F4006001900198FFE706A803A900F003
:100F4000E5F900F025FA059005984DF68361C4F2A5
:100F50001B31A0FB01014FF0FF3000EB91400490EA
:100F600040F2AC30C2F2000042F60041C4F201018E
:100F7000016040F2E731C1600499416000210161E4
:100F80008160816100F0BAFD8DF80B009DF80B00C7
:100F900028BBFFE740F2AC30C2F2000000F000FED8
:100FA0008DF80B009DF80B00C0B9FFE7192000F089
:100FB00055F80B980F280CD8FFE70B991920002241
:100FC00000F056F80B9840F20801C2F200010860E8
:100FD00003E001208DF80B00FFE7FFE7FFE79DF836
:100FE0000B000CB080BD000080B584B0FFE741F27B
:100FF0001800C4F20200016841F0010101600068BC
:1010000000F0010003900398FFE7FFE741F21C00A6
:10101000C4F20200016841F080510160006800F0F4
:10102000805002900298FFE76FF001000F2100222C
:1010300000F01EF8FFE70421C4F2010108680190E6
:10104000019820F0E0600190019840F0007001905C
:1010500001980860FFE704B080BD000080B582B051
:101060008DF807009DF9070003F0C2FC02B080BDB7
:1010700080B586B08DF8170004910392002002908D
:1010800003F0CEFC02909DF917000190029804999C
:10109000039A01F039FE0146019803F0C9FC06B03D
:1010A00080BD000080B582B00190019803F004FD7E
:1010B00002B080BD80B584B002900191029820B941
:1010C000FFE701208DF80F001BE1019842F20001BB
:1010D000C4F20201096801F00701884216D9FFE74E
:1010E00042F20000C4F20200016821F00701019AF7
:1010F00011430160006800F007000199884204D0A4
:10110000FFE701208DF80F00FBE0FFE70298007871
:10111000800700282AD5FFE70298007840070028BA
:1011200009D5FFE741F20401C4F20201086840F466
:10113000E0600860FFE7029800780007002809D502
:10114000FFE741F20401C4F20201086840F4605074
:101150000860FFE741F20401C4F20201086820F0D0
:10116000F000029A926810430860FFE70298007846
:10117000C007002860D0FFE70298406801280ED120
:10118000FFE741F20000C4F202000068800300287B
:1011900004D4FFE701208DF80F00B2E021E00298AF
:1011A000406802280ED1FFE741F20000C4F20200BD
:1011B00000688001002804D4FFE701208DF80F00AB
:1011C0009FE00DE041F20000C4F2020000688007D9
:1011D000002804D4FFE701208DF80F0091E0FFE71D
:1011E000FFE741F20401C4F20201086820F00300A5
:1011F000029A526810430860FFF760FE0090FFE714
:1012000041F20400C4F20200006800F00C000299F0
:101210004968B0EB810F0ED0FFE7FFF74FFE009952
:10122000401A41F28931884204D3FFE703208DF848
:101230000F0066E0E4E7FFE7019842F20001C4F224
:101240000201096801F00701884216D2FFE742F265
:101250000000C4F20200016821F00701019A114365
:101260000160006800F007000199884204D0FFE7A0
:1012700001208DF80F0044E0FFE702980078400756
:1012800000280CD5FFE741F20401C4F2020108680E
:1012900020F4E060029AD26810430860FFE70298E9
:1012A0000078000700280DD5FFE741F20401C4F2E1
:1012B0000201086820F46050029A126940EAC200F4
:1012C0000860FFE700F076F841F20401C4F2020181
:1012D0000968C9B20A0947F69831C0F60001895C6D
:1012E000C84040F20001C2F20001086040F208006C
:1012F000C2F200000068FFF709FE00208DF80F0021
:10130000FFE79DF80F0004B080BD000082B001909F
:10131000009101990F20086041F20400C4F202001C
:10132000016801F00301019A5160016801F0F001C8
:10133000019A9160016801F4E061019AD16000684E
:1013400000F46050C0080199086142F20000C4F244
:101350000200006800F007000099086002B07047C2
:1013600040F20000C2F200000068704780B5FFF74D
:10137000F7FF41F20401C4F202010968C1F302223D
:1013800047F6A831C0F60001895CC84080BD000066
:1013900080B5FFF7E5FF41F20401C4F202010968DC
:1013A000C1F3C22247F6A831C0F60001895CC840EB
:1013B00080BD000086B0002005900490039002904C
:1013C000019041F20400C4F2020000680590059803
:1013D00000F00C000146009100283FD0FFE7009884
:1013E000042804D0FFE70098082806D037E041F22F
:1013F0000020C0F27A00019037E00598C0F38341E5
:1014000047F6D430C0F60000405C02909DF816000C
:10141000C007C0B1FFE741F20400C4F20200006857
:10142000C0F3404147F6E430C0F60000405C049051
:10143000029841F20021C0F27A0148430499B0FBBE
:10144000F1F0039007E0029840F60011C0F23D0170
:1014500048430390FFE70398019006E0FFE741F25D
:101460000020C0F27A000190FFE7019806B07047B3
:1014700080B586B00490049820B9FFE701208DF86C
:1014800017002EE304980078C007002800F0AE8013
:10149000FFE741F20400C4F20200006800F00C0013
:1014A000042813D0FFE741F20400C4F202000068F0
:1014B00000F00C0008281BD1FFE741F20400C4F241
:1014C00002000068C003002812D5FFE741F20000C7
:1014D000C4F2020000688003002808D5FFE70498E2
:1014E000406820B9FFE701208DF81700F9E27CE0A1
:1014F000FFE704984068B0F5803F09D1FFE741F26B
:101500000001C4F20201086840F48030086032E053
:101510000498406868B9FFE741F20001C4F2020193
:10152000086820F480300860086820F48020086093
:1015300020E004984068B0F5A02F0DD1FFE741F2FC
:101540000001C4F20201086840F4802008600868C5
:1015500040F4803008600CE041F20001C4F2020166
:10156000086820F480300860086820F48020086053
:10157000FFE7FFE7FFE7FFE704984068D0B1FFE728
:10158000FFF79CFC0390FFE741F20000C4F2020069
:101590000068800300280CD4FFE7FFF78FFC039955
:1015A000401A652804D3FFE703208DF8170098E25E
:1015B000EAE719E0FFF782FC0390FFE741F2000041
:1015C000C4F202000068800300280CD5FFE7FFF793
:1015D00075FC0399401A652804D3FFE703208DF8B2
:1015E00017007EE2EAE7FFE7FFE7FFE704980078ED
:1015F0008007002840F18D80FFE741F20400C4F22B
:101600000200006810F00C0F13D0FFE741F2040055
:10161000C4F20200006800F00C00082829D1FFE79E
:1016200041F20400C4F202000068C003002820D484
:10163000FFE741F20000C4F20200006880070028C2
:1016400009D5FFE704980069012804D0FFE70120CD
:101650008DF8170045E241F20001C4F2020108686A
:1016600020F0F800049A526940EAC2000860FFE7DF
:101670004EE00498006958B3FFE70021C4F242210C
:1016800001200860FFF71AFC0390FFE741F2000019
:10169000C4F202000068800700280CD4FFE7FFF7BF
:1016A0000DFC0399401A032804D3FFE703208DF8AB
:1016B000170016E2EAE741F20001C4F202010868ED
:1016C00020F0F800049A526940EAC20008601EE067
:1016D0000021C4F2422100200860FFF7EFFB0390D5
:1016E000FFE741F20000C4F2020000688007002812
:1016F0000CD5FFE7FFF7E2FB0399401A032804D358
:10170000FFE703208DF81700EBE1EAE7FFE7FFE7CB
:10171000FFE7049800780007002848D5FFE7049801
:10172000806918B3FFE740F28041C4F242210120F2
:101730000860FFF7C3FB0390FFE741F22400C4F207
:1017400002000068800700280CD4FFE7FFF7B6FB13
:101750000399401A032804D3FFE703208DF81700EC
:10176000BFE1EAE7012001F02DFB1FE040F28041DC
:10177000C4F2422100200860FFF7A0FB0390FFE7BE
:1017800041F22400C4F202000068800700280CD552
:10179000FFE7FFF793FB0399401A032804D3FFE701
:1017A00003208DF817009CE1EAE7FFE7FFE70498C4
:1017B00000784007002840F1D880FFE700208DF82E
:1017C000070041F21C00C4F202000068C0000028BB
:1017D00013D4FFE7FFE741F21C00C4F202000168E6
:1017E00041F080510160006800F080500090009846
:1017F000FFE701208DF80700FFE747F20000C4F281
:1018000000000068C005002822D4FFE747F200016D
:10181000C4F20001086840F480700860FFF74EFBD6
:101820000390FFE747F20000C4F200000068C00523
:1018300000280CD4FFE7FFF741FB0399401A652805
:1018400004D3FFE703208DF817004AE1EAE7FFE73A
:10185000FFE70498C068012809D1FFE741F22001A1
:10186000C4F20201086840F00100086031E0049809
:10187000C06868B9FFE741F22001C4F202010868BC
:1018800020F001000860086820F0040008601FE0F4
:101890000498C06805280DD1FFE741F22001C4F289
:1018A0000201086840F004000860086840F0010088
:1018B00008600CE041F22001C4F20201086820F047
:1018C00001000860086820F004000860FFE7FFE7F7
:1018D000FFE7FFE70498C068E0B1FFE7FFF7EEFA23
:1018E0000390FFE741F22000C4F202000068800785
:1018F00000280ED4FFE7FFF7E1FA0399401A41F2FE
:101900008931884204D3FFE703208DF81700E8E00F
:10191000E8E71BE0FFF7D2FA0390FFE741F220006F
:10192000C4F202000068800700280ED5FFE7FFF729
:10193000C5FA0399401A41F28931884204D3FFE77E
:1019400003208DF81700CCE0E8E7FFE79DF80700DB
:10195000012809D1FFE741F21C01C4F20201086825
:1019600020F080500860FFE7FFE70498C069002876
:1019700000F0B380FFE741F20400C4F20200006807
:1019800000F00C00082800F08280FFE70498C0698E
:1019900002285CD1FFE76021C4F2422100200860E8
:1019A000FFF78CFA0390FFE741F20000C4F2020057
:1019B0000068800100280CD5FFE7FFF77FFA039944
:1019C000401A032804D3FFE703208DF8170088E0AE
:1019D000EAE70498006AB0F5803F0CD1FFE741F2D6
:1019E0000401C4F20201086820F40030049A9268ED
:1019F00010430860FFE741F20401C4F202010868E5
:101A000020F47410049B1A6A5B6A1A43104308603E
:101A10006021C4F2422101200860FFF74FFA0390D1
:101A2000FFE741F20000C4F20200006880010028D4
:101A30000CD4FFE7FFF742FA0399401A032804D3B6
:101A4000FFE703208DF817004BE0EAE71EE0602176
:101A5000C4F2422100200860FFF730FA0390FFE74C
:101A600041F20000C4F202000068800100280CD599
:101A7000FFE7FFF723FA0399401A032804D3FFE78F
:101A800003208DF817002CE0EAE7FFE724E0049834
:101A9000C069012804D1FFE701208DF8170020E07C
:101AA00041F20400C4F2020000680290029800F4BF
:101AB00080300499096A884208D1FFE7029800F44F
:101AC00070100499496A884204D0FFE701208DF81C
:101AD000170006E0FFE7FFE7FFE700208DF817009B
:101AE000FFE79DF8170006B080BD000081B00090B0
:101AF00001B0704781B0009001B0704780B582B0EE
:101B00000090009820B9FFE701208DF807003FE022
:101B1000009890F83D0040B9FFE70099002081F857
:101B20003C00009800F038F8FFE70099022081F8A7
:101B30003D00009951F8040B01F0D4F900990120FF
:101B400081F84600FFE70099012081F83E000099E6
:101B500081F83F00009981F84000009981F8410028
:101B6000FFE7FFE70099012081F84200009981F822
:101B70004300009981F84400009981F84500FFE78F
:101B80000099012081F83D0000208DF80700FFE753
:101B90009DF8070002B080BD81B0009001B0704791
:101BA00083B00190019890F83D00012804D0FFE730
:101BB00001208DF80B0047E00199022081F83D00DB
:101BC00001980168C86840F00100C8600198006889
:101BD00042F60041C4F20101884218D0FFE70198A3
:101BE0000068B0F1804F12D0FFE70198006840F222
:101BF0000041C4F20001884209D0FFE70198006863
:101C000040F60001C4F20001884212D1FFE70198BA
:101C10000068806800F0070000900098062807D050
:101C2000FFE701980168086840F001000860FFE7DD
:101C300006E001980168086840F001000860FFE7CD
:101C400000208DF80B00FFE79DF80B0003B07047F4
:101C500081B0009001B0704780B584B003900398C4
:101C60000068C068029003980068006901909DF8C0
:101C700004008007002824D5FFE79DF808008007AE
:101C800000281DD5FFE7039801686FF00200086186
:101C9000039901200877039800688069800720B1C4
:101CA000FFE70398FFF7D4FF06E0039800F0E2F89F
:101CB000039800F0E3F8FFE7039900200877FFE7B7
:101CC000FFE79DF804004007002825D5FFE79DF8B1
:101CD0000800400700281ED5FFE7039801686FF051
:101CE000040008610399022008770398006880695E
:101CF00010F4407F04D0FFE70398FFF7A9FF06E048
:101D0000039800F0B7F8039800F0B8F8FFE70399DC
:101D100000200877FFE7FFE79DF804000007002890
:101D200024D5FFE79DF80800000700281DD5FFE730
:101D3000039801686FF00800086103990420087790
:101D400003980068C069800720B1FFE70398FFF798
:101D50007FFF06E0039800F08DF8039800F08EF8FE
:101D6000FFE7039900200877FFE7FFE79DF80400ED
:101D7000C006002825D5FFE79DF80800C00600280A
:101D80001ED5FFE7039801686FF010000861039902
:101D90000820087703980068C06910F4407F04D0D9
:101DA000FFE70398FFF754FF06E0039800F062F89E
:101DB000039800F063F8FFE7039900200877FFE736
:101DC000FFE79DF80400C00778B1FFE79DF8080021
:101DD000C00748B1FFE7039801686FF00100086190
:101DE000039800F04FF8FFE7FFE79DF804000006B6
:101DF000002810D5FFE79DF808000006002809D547
:101E0000FFE7039801686FF0800008610398FFF70F
:101E10006DFEFFE7FFE79DF804004006002810D59F
:101E2000FFE79DF808004006002809D5FFE7039862
:101E300001686FF040000861039800F035F8FFE793
:101E4000FFE79DF804008006002810D5FFE79DF805
:101E500008008006002809D5FFE7039801686FF0A5
:101E6000200008610398FFF745FEFFE7FFE704B095
:101E700080BD000081B0009001B0704781B000903B
:101E800001B0704780B582B001900198006842F6B9
:101E90000041C4F20101884203D1FFE7FFF714F8C3
:101EA000FFE702B080BD000081B0009001B0704734
:101EB00082B00190ADF8021002B0704781B000907E
:101EC00001B0704780B592B0119011980068006819
:101ED000109011980068C0680F90119800684069D0
:101EE0000E9000200D900C90109800F00F000D90B7
:101EF0000D9888B9FFE79DF84000800600280AD5B4
:101F0000FFE79DF83C008006002804D5FFE7119804
:101F100001F0BAF9E9E1FFE70D98002800F0C2806E
:101F2000FFE79DF83800C00738B9FFE7BDF83C006F
:101F300010F4907F00F0B680FFE79DF84000C007E6
:101F400058B1FFE79DF83D00C00730B1FFE7119998
:101F5000486C40F001004864FFE79DF840004007EE
:101F600000280BD5FFE79DF83800C00730B1FFE728
:101F70001199486C40F002004864FFE79DF840006A
:101F8000800700280BD5FFE79DF83800C00730B167
:101F9000FFE71199486C40F004004864FFE79DF8A2
:101FA00040000007002811D5FFE79DF83C0080069F
:101FB000002805D4FFE79DF83800C00730B1FFE7DF
:101FC0001199486C40F008004864FFE71198406C94
:101FD000002866D0FFE79DF84000800600280AD55B
:101FE000FFE79DF83C008006002804D5FFE7119824
:101FF00001F04AF9FFE7119800684069C0F38010CA
:102000000C901198406C0007002804D4FFE70C984E
:1020100000283ED0FFE7119801F0BCF81198006845
:102020004069400600282FD5FFE7FFE7FFE711983A
:10203000006850E8050F20F040000B90FFE70B9977
:102040001198026842E805100028F0D1FFE7FFE789
:102050001198C06B98B1FFE71198C16B43F265000E
:10206000C0F6000048631198C06BFEF7DBFA28B198
:10207000FFE71198C06B416B8847FFE703E01198B9
:10208000FFF71CFFFFE703E01198FFF717FFFFE7DB
:1020900006E01198FFF712FF119900204864FFE74E
:1020A000FFE722E11198006B012840F0FE80FFE776
:1020B0009DF84000C006002840F1F780FFE79DF83A
:1020C0003C00C006002840F1F080FFE7FFE7002059
:1020D0000A901198006800680A901198006840689A
:1020E0000A900A98FFE711980068406940060028A6
:1020F00040F18180FFE71198C06B00684068ADF83F
:102100002600BDF82600002874D0FFE7BDF82600A1
:102110001199898D88426DDAFFE7BDF82600119983
:10212000C8851198C06B8069202858D0FFE7FFE769
:10213000FFE71198006850E8030F20F480700890C2
:10214000FFE708991198026842E803100028F0D1CF
:10215000FFE7FFE7FFE7FFE71198006850E8050F8A
:1021600020F001000790FFE707991198026842E804
:1021700005100028F0D1FFE7FFE7FFE7FFE7119820
:10218000006850E8050F20F040000690FFE7069930
:102190001198026842E805100028F0D1FFE7FFE738
:1021A0001199202081F84200119900200863FFE76F
:1021B000FFE71198006850E8030F20F01000059029
:1021C000FFE705991198026842E803100028F0D152
:1021D000FFE7FFE71198C06BFEF7E6F9FFE71199FB
:1021E000022048631198818DC28D891A89B2FFF748
:1021F0005FFEFFE779E01199888DC98D401AADF82F
:1022000012001198C08D00284ED0FFE7BDF81200D3
:10221000002849D0FFE7FFE7FFE71198006850E882
:10222000030F20F490700390FFE703991198026860
:1022300042E803100028F0D1FFE7FFE7FFE7FFE7E0
:102240001198006850E8050F20F001000290FFE7A8
:1022500002991198026842E805100028F0D1FFE7C2
:10226000FFE71199202081F84200119900200863AE
:10227000FFE7FFE71198006850E8030F20F0100017
:102280000190FFE701991198026842E803100028C5
:10229000F0D1FFE7FFE71199022048631198BDF8DC
:1022A0001210FFF705FEFFE71FE09DF84000000653
:1022B00000280AD5FFE79DF83C000006002804D559
:1022C000FFE7119801F026F90FE09DF84000400665
:1022D00000280AD5FFE79DF83C004006002804D5F9
:1022E000FFE7119800F0A0FFFFE712B080BD0000EB
:1022F00080B582B00090009820B9FFE701208DF8EA
:10230000070040E00098806908B1FFE700E0FFE7C0
:10231000009890F8410040B9FFE70099002081F84B
:102320004000009800F034F8FFE70099242081F87D
:10233000410000980168C86820F40050C860009807
:1023400001F058F800980168086920F4904008618D
:1023500000980168486920F02A00486100980168E7
:10236000C86840F40050C860009900204864009A92
:10237000202182F84110009A82F8421000994863A7
:102380008DF80700FFE79DF8070002B080BD000050
:1023900080B59AB01990002018901790169015905B
:1023A0001998006843F60001C4F20101884267D120
:1023B000FFE7FFE741F21800C4F20200016841F4B0
:1023C00080410160006800F4804014901498FFE799
:1023D000FFE741F21800C4F20200016841F0040175
:1023E0000160006800F0040013901398FFE74FF4B9
:1023F00000701590022016900320189040F60000FF
:10240000C4F201000B9015A90C91FEF79BFB0B98F1
:102410000C994FF48062159200220D921692179239
:10242000FEF790FB0D9940F2E020C2F200000E9002
:102430004422C4F2020202601022426081608022C3
:10244000C260016141618161C161FEF7BDFA18B1ED
:10245000FFE7FEF7A1F8FFE7FFE7199840F2E02158
:10246000C2F20001816319984862FFE725200A90B3
:1024700005210022FEF7FCFD0A98FEF7EFFDDFE0E4
:102480001998006844F20041C4F20001884265D105
:10249000FFE7FFE741F21C00C4F20200016841F4CB
:1024A00000310160006800F4003012901298FFE7DC
:1024B000FFE741F21800C4F20200016841F0040194
:1024C0000160006800F0040011901198FFE70420FB
:1024D0001590022016900320189040F60000C4F2D8
:1024E0000100069015A90791FEF72CFB06980799A5
:1024F000082215920022089216921792FEF722FBEC
:10250000089940F22430C2F2000009908022C4F2FF
:10251000020202601022426081608022C26001617A
:1025200041618161C161FEF74FFA18B1FFE7FEF723
:1025300033F8FFE7FFE7199840F22431C2F20001B7
:10254000816319984862FFE7262005900521002243
:10255000FEF78EFD0598FEF781FD70E01998006882
:1025600044F60001C4F20001884267D1FFE7FFE7AB
:1025700041F21C00C4F20200016841F480210160B4
:10258000006800F4802010901098FFE7FFE741F208
:102590001800C4F20200016841F0080101600068FF
:1025A00000F008000F900F98FFE74FF4806015903F
:1025B000022016900320189040F60040C4F201005B
:1025C000019015A90291FEF7BDFA019802994FF406
:1025D000006215920022039216921792FEF7B2FA49
:1025E000039940F26830C2F2000004901C22C4F249
:1025F000020202601022426081608022C26001619A
:1026000041618161C161FEF7DFF918B1FFE7FDF7B4
:10261000C3FFFFE7FFE7199840F26831C2F20001FB
:10262000816319984862FFE7272000900521002266
:10263000FEF71EFD0098FEF711FDFFE7FFE7FFE73D
:102640001AB080BD80B584B002900191ADF802202F
:10265000029890F84200202817D1FFE7019820B196
:10266000FFE7BDF8020020B9FFE701208DF80F0059
:102670000FE002990020086302980199BDF802203A
:1026800000F016FF8DF80F0003E002208DF80F0018
:10269000FFE79DF80F0004B080BD000080B58AB050
:1026A000099000200890FFE7089840F26421C2F2E8
:1026B00000010968884280F25781FFE7089940F2DB
:1026C0005420C2F2000050F8210080680999884225
:1026D00040F04581FFE7089940F25420C2F2000023
:1026E00050F82100806AD0B9FFE7089940F25420E1
:1026F000C2F2000050F8210090F8220021280DD0ED
:10270000FFE70998089A40F25421C2F2000151F8FB
:10271000221022310122FFF795FF25E1FFE70899FA
:1027200040F25420C2F2000050F82100806A1528BF
:1027300021D8FFE7089940F25420C2F2000050F877
:10274000212092F82210936A1A441173089950F8C4
:10275000212092F8241082F82310089950F82120A3
:1027600092F8221082F82410089950F82110886AF3
:102770000130886209E0089940F25420C2F200005A
:1027800050F8210000F0C6FFFFE7089940F25420FE
:10279000C2F2000050F82100806A03282BD1FFE725
:1027A000089940F25420C2F2000050F8210090F83D
:1027B000230021281FD1FFE7089940F25420C2F2DC
:1027C000000050F8210090F82400402813D1FFE7C2
:1027D000089940F25420C2F2000050F82120916A7A
:1027E0001144C97AD162089950F82110C86A06309C
:1027F00081F83000FFE7089940F25420C2F200004F
:1028000050F8210090F82300262840F09A80FFE736
:10281000089940F25420C2F2000050F8210090F8CC
:1028200024002A2840F08D80FFE7089940F25420C8
:10283000C2F2000050F82100806A012877DBFFE730
:10284000089940F25420C2F2000050F82110097B90
:102850008DF80A10089950F82110497B8DF80B105B
:10286000089950F82110C97B8DF80C10089950F880
:102870002100807B8DF80D0000200190FFE701987A
:102880009DF80C10884213DAFFE7089940F25420B3
:10289000C2F2000050F82100019A1044007C0DF1B2
:1028A0000A0111440871FFE7019801300190E6E741
:1028B000089940F25420C2F2000050F82120916A99
:1028C0001144897A8DF81E10089950F82120916AD8
:1028D0001144C97A8DF81F10089950F821004068FA
:1028E0000DF10A0100231A4602F0B6FA014640F63D
:1028F000B820C2F2000001600068B8B1FFE7089993
:1029000040F25420C2F20000009050F821004068CC
:1029100002F004FB0098089950F8210040680DF17E
:102920000A0100231A4602F097FAFFE7FFE7089929
:1029300040F25420C2F2000050F8210000F0EAFEFC
:102940000CE00998089A40F25421C2F2000151F8B3
:10295000221022310122FFF775FEFFE704E0FFE7B6
:102960000898013008909FE60AB080BD80B586B017
:1029700004900391ADF80A20049890F841002028B3
:102980005DD1FFE7039820B1FFE7BDF80A0020B949
:10299000FFE701208DF8170055E0039804990862BD
:1029A000BDF80A0004998884BDF80A000499C88417
:1029B000049900204864049A212182F84110049966
:1029C0008A6B43F20111C0F60001916204998A6B8F
:1029D00043F27D11C0F60001D16204998A6B43F283
:1029E0008501C0F6000111630499896B486303A84F
:1029F000019004980268806B019909680432BDF85F
:102A00000A30FEF739F8049801686FF0400008605A
:102A1000FFE7FFE70498006850E8050F40F08000EA
:102A20000090FFE700990498026842E8051000282A
:102A3000F0D1FFE7FFE700208DF8170003E0022048
:102A40008DF81700FFE79DF8170006B080BD000065
:102A500081B0009001B0704781B0009001B0704724
:102A6000FFE7FEE780B586B0FFE741F21400C4F24D
:102A70000200016841F001010160006800F00100FE
:102A800005900598FFE70C20009005210291002297
:102A90000392FEF7EDFA0098FEF7E0FA0299039A26
:102AA0000E200190FEF7E4FA0198FEF7D7FA02999A
:102AB000039A11200490FEF7DBFA0498FEF7CEFA91
:102AC00006B080BD80B582B042F63560C0F6000029
:102AD00047F68842C0F600020021019102F03EFA5A
:102AE000019940F2DC22C2F20002106043F21500AC
:102AF000C0F6000047F6E832C0F6000202F02EFAF7
:102B0000019940F22412C2F20002106043F23D002B
:102B1000C0F6000047F60C42C0F6000202F01EFAB2
:102B2000019940F25022C2F20002106042F6ED70AC
:102B3000C0F6000047F6B032C0F6000202F00EFA0E
:102B400040F21C11C2F20001086002B080BD00001A
:102B500080B590B000200F900E900D900C90FFE784
:102B600041F21800C4F20200016841F01001016056
:102B7000006800F010000B900B98FFE7FFE741F2B0
:102B80001800C4F20200016841F0200101600068F1
:102B900000F020000A900A98FFE7FFE741F21800D2
:102BA000C4F20200016841F004010160006800F015
:102BB000040009900998FFE7FFE741F21800C4F20A
:102BC0000200016841F008010160006800F008009F
:102BD00008900898FFE741F20000C4F2010002905B
:102BE0004FF40051019100220492FEF74FF9049A2C
:102BF00040F60040C4F20100069001210391FEF767
:102C000045F9019B0298039A04990C930D920E9139
:102C1000022105910F910CA90791FDF793FFDDF8B3
:102C20000CC0049B059A06980799CDF830C0CDF8E2
:102C300034C00E930F92FDF785FF10B080BD0000E9
:102C400080B582B040F2F430C2F20000019043F649
:102C50000001C4F2010101604FF4E1314160002143
:102C60008160C16001610C2242618161C161FFF735
:102C70003FFB18B1FFE7FDF78FFCFFE702B080BD17
:102C800080B582B040F23C40C2F20000019044F2B4
:102C90000041C4F2000101604FF4E13141600021C4
:102CA0008160C16001610C2242618161C161FFF7F5
:102CB0001FFB18B1FFE7FDF76FFCFFE702B080BD17
:102CC00080B582B040F28440C2F20000019044F628
:102CD0000001C4F2000101604FF4E13141600021C4
:102CE0008160C16001610C2242618161C161FFF7B5
:102CF000FFFA18B1FFE7FDF74FFCFFE702B080BD18
:102D0000FFE7FEE7FFE7FEE788B007900691059230
:102D1000079800F0070004900498C0F10700052808
:102D200003D3FFE70420019004E00498C0F10700FA
:102D30000190FFE70198039004980430062803D817
:102D4000FFE70020009003E0049803380090FFE7BD
:102D50000098029006980399012202FA01F10139C4
:102D60000840029B984005999A40013A1140084357
:102D700008B07047000000000000000000000000E4
:102D8000EFF30980BFF36F8F0D4B1A6820E9F00F46
:102D900010602DE908404FF0500080F3118803F0D7
:102DA0004DFD4FF0000080F31188BDE80840196820
:102DB0000868B0E8F00F80F30988BFF36F8F7047A1
:102DC000C005002082B00190019840F20001C2F2DB
:102DD00000010968C90844F6D352C1F26202A1FB9E
:102DE0000221890948430090FFE700BFFFE70098F0
:102DF000411E00910028F8D1FFE702B070470000A3
:102E0000074B19680868B0E8F00F80F30988BFF332
:102E10006F8F4FF0000080F311884EF00D0E704759
:102E2000C005002080B56FF00400002101F022FEF3
:102E300080BD000080B582B00190FFE7012001F065
:102E4000C3FEFBE780B54EF21000CEF20000006832
:102E500004F056FB012803D0FFE703F0C7FDFFE7AE
:102E600080BD000080B590B006A800902821FDF735
:102E700053FA00980023059304930393029301935C
:102E8000012206924FF48031079108930A920222A0
:102E90000D920E914FF4E0110F91FEF7E9FA18B17F
:102EA000FFE7FDF779FBFFE70F2001900221029178
:102EB000002003904FF480620492059001A8FEF771
:102EC000F9F818B1FFE7FDF767FBFFE710B080BD29
:102ED0007047000080B540F2AC30C2F20000FEF74F
:102EE000BBFE80BD83B00290019102980068009003
:102EF000029842F60041C4F20101884215D0FFE772
:102F00000298B0F1804F10D0FFE7029840F20041E4
:102F1000C4F20001884208D0FFE7029840F60001A1
:102F2000C4F2000188420AD1FFE7009820F0700047
:102F3000009001984168009808430090FFE70298CC
:102F400042F60041C4F20101884215D0FFE7029821
:102F5000B0F1804F10D0FFE7029840F20041C4F278
:102F60000001884208D0FFE7029840F60001C4F251
:102F7000000188420AD1FFE7009820F440700090D9
:102F80000198C168009808430090FFE7009820F07E
:102F900080000199496908430090009802990860EF
:102FA000019880680299C862019800680299886255
:102FB000029842F60041C4F20101884205D1FFE7C0
:102FC0000198006902990863FFE7029901204861AE
:102FD00002980069C00730B1FFE70299086920F044
:102FE00001000861FFE703B07047000080B582B0C0
:102FF000019040F27C20C2F2000000F0CFFBFFE71E
:1030000040F27C20C2F2000000F00AFC0A2001F02D
:10301000DBFDF5E780B582B0019040F63820C2F2C2
:10302000000000F0DDFCFFE740F63820C2F20000AF
:1030300000F036FD0A2001F0C7FDF5E780B582B04B
:10304000019043F25840C2F2000001F06FFAFFE72E
:1030500043F25840C2F2000001F058FA0A2001F091
:10306000B3FDF5E780B582B001900198406A009009
:1030700000990020C8850099C8840098FEF71EFFBB
:1030800002B080BD80B584B0039000200290039808
:10309000406A0190019800684069C0B2C00902907E
:1030A000019890F8410021280AD1FFE7029838B131
:1030B000FFE701990020C884019800F0C9F8FFE7F4
:1030C000019800684069C0F380100290019890F860
:1030D000420022280AD1FFE7029838B1FFE70199A0
:1030E0000020C885019800F055F8FFE70199486C69
:1030F00040F0100048640198FEF7E0FE04B080BD87
:1031000080B584B003900398406A029003980068E9
:103110000068800600282AD4FFE702990020C884AE
:10312000FFE7FFE70298006850E8050F20F08000F5
:103130000190FFE701990298026842E80510002813
:10314000F0D1FFE7FFE7FFE7FFE70298006850E8EC
:10315000030F40F040000090FFE7009902980268DA
:1031600042E803100028F0D1FFE7FFE703E00298F0
:10317000FFF76EFCFFE704B080BD000080B582B0B1
:1031800001900198406A00900098FFF765FC02B03A
:1031900080BD000084B00390FFE7FFE7039800685C
:1031A00050E8030F20F490700290FFE70299039813
:1031B000026842E803100028F0D1FFE7FFE7FFE7CD
:1031C000FFE70398006850E8050F20F00100019028
:1031D000FFE701990398026842E805100028F0D142
:1031E000FFE7FFE70398006B012814D1FFE7FFE733
:1031F000FFE70398006850E8030F20F010000090EC
:10320000FFE700990398026842E803100028F0D114
:10321000FFE7FFE7FFE70399202081F842000399C9
:103220000020086304B0704780B582B00190019817
:103230000168C86820F04000C8600199202081F82A
:1032400041000198FFF704FC002002B080BD00009F
:1032500082B00190FFE7FFE70198006850E8030F94
:1032600020F0C0000090FFE700990198026842E852
:1032700003100028F0D1FFE7FFE70199202081F833
:10328000410002B07047000080B586B004900498F9
:1032900090F84200222840F0A480FFE7049880685C
:1032A000B0F5805F15D1FFE70498006988B9FFE7A2
:1032B000002003900498806A029004980068406897
:1032C0006FF35F20029908800499886A023088624F
:1032D00025E00498806A039000200290049880689A
:1032E000B0F5805F08D0FFE70498806850B9FFE729
:1032F0000498006930B9FFE70498006840680399B2
:10330000087007E004980068406800F07F000399A7
:103310000870FFE70499886A01308862FFE7049922
:10332000C88D0138C8850004002856D1FFE70498ED
:103330000168C86820F02000C86004980168C86867
:1033400020F48070C86004980168486920F001008A
:1033500048610499202081F84200049900204863C4
:103360000498006B012830D1FFE70499002008631E
:10337000FFE7FFE70498006850E8030F20F0100013
:103380000190FFE701990498026842E803100028C1
:10339000F0D1FFE7FFE7049800680068C006002846
:1033A0000ED5FFE7FFE70020009004980068006852
:1033B000009004980068406800900098FFE7FFE7DD
:1033C0000498818DFEF774FD03E00498FFF766F919
:1033D000FFE700208DF8170007E000208DF81700A8
:1033E00003E002208DF81700FFE79DF8170006B0F4
:1033F00080BD000080B584B0039003980068006928
:1034000020F44050039A1168D26810430861039970
:1034100088680A6949691043084302900398006864
:10342000C06841F20C618843029908430399096816
:10343000C86003980068406920F44070039A1168DE
:103440009269104348610398006843F60001C4F292
:103450000101884204D1FFE7FDF79AFF019003E0E4
:10346000FDF784FF0190FFE7019819214843039A73
:10347000116852689200B0FBF2FC48F21F52C5F28C
:10348000EB12ACFB02304309642003FB10CC32206A
:1034900000EB0C10A0FB0202F02000EA521000EB3F
:1034A0000310C2F343121044886004B080BD0000D2
:1034B00083B002900191ADF80220019802998862D0
:1034C000BDF8020002998885BDF802000299C885FE
:1034D0000299002048640299222081F84200029853
:1034E000006938B1FFE702980168C86840F480704D
:1034F000C860FFE702980168486940F00100486130
:1035000002980168C86840F02000C860002003B03D
:103510007047000083B00190019890F84100212885
:103520003AD1FFE701988068B0F5805F13D1FFE7DB
:103530000198006978B9FFE70198006A0090009847
:1035400000886FF35F200199096848600199086A53
:103550000230086208E0019A106A411C116200788A
:10356000019909684860FFE70199C88C0138C8844F
:10357000000468B9FFE701980168C86820F080007E
:10358000C86001980168C86840F04000C860FFE763
:1035900000208DF80B0003E002208DF80B00FFE700
:1035A0009DF80B0003B0704780B540F2F430C2F2D2
:1035B0000000FEF787FC80BD80B540F23C40C2F2BF
:1035C0000000FEF77FFC80BD80B540F28440C2F26F
:1035D0000000FEF777FC80BDFFE7FEE780B501F055
:1035E0009DFA01F0BFFA80BD80B501F0A3FA01F0A9
:1035F000C1FA80BD80B501F0A9FA01F0C3FA80BD1F
:1036000080B586B004908DF80F108DF80E200293CF
:1036100004980190406860B1FFE7019840689DF808
:103620000F109DF80E20029B01F04AF88DF817004C
:1036300003E000208DF81700FFE79DF8170006B0A3
:1036400080BD000083B002908DF807108DF8062031
:10365000009303B07047000080B582B001900091E4
:10366000019900984860486801F07AF802B080BD7E
:1036700080B586B004908DF80F108DF80E2002935F
:1036800004980190406878B1FFE7019840689DF880
:103690000F109DF80E20029BD0F800C0DCF804C08B
:1036A000E0478DF8170003E000208DF81700FFE7D2
:1036B0009DF8170006B080BD81B00090009847F6D5
:1036C0003041C0F60001083101600021416001B0C5
:1036D0007047000080B582B00190019800900520ED
:1036E0001621002201F038FB0099486002B080BD2D
:1036F00081B00090009840F26423C2F200031A687F
:10370000511C196040F25421C2F2000141F822001C
:1037100001B0704780B584B0039003980290806830
:10372000B8B1FFE702990020019081F83000C8622B
:10373000886281F8230081F824000884C8618861C8
:1037400048610861C860886822310122FEF77AFF6B
:10375000FFE704B080BD000080B584B00290019105
:1037600002990091039147F63C40C0F600000830F2
:10377000086001988860002081F8470040F26420CA
:10378000C2F200000068032804DCFFE70098FFF79E
:10379000AFFFFFE7039804B080BD000080B584B0A0
:1037A00003900398029040F27C20C2F2000040F2A5
:1037B0008801C2F200010191FFF74EFF019801F06C
:1037C000E9F80198FFF786FF0198FFF7A3FF029938
:1037D000002081F84A0081F84B0081F84C0081F804
:1037E0004D0081F84E0081F84F0081F8500081F8BB
:1037F000510081F8520081F853004FF0210C81F8FC
:1038000008C040234B7226220A772A20487781F885
:103810001EC0CB7781F8322081F8330004B080BD20
:1038200080B582B001900198009040F28800C2F209
:10383000000000F0F7FF00990020A1F85D00C1F83A
:103840005900C1F8550002B080BD000080B586B0B7
:1038500005908DF813108DF81220039305980290AF
:103860009DF81300412836D1FFE703980078C00780
:10387000A8B1FFE70298012180F85410553001905B
:1038800047F60751C0F60001FCF7B6FC019A029812
:1038900090F8541001F0010100F046F8FFE703989A
:1038A00000788007002815D5FFE70298012180F8ED
:1038B00054105530009047F60B51C0F60001FCF74C
:1038C0009BFC009A029890F8541001F0010100F05E
:1038D0002BF8FFE7FFE79DF81300612801D1FFE710
:1038E000FFE706B080BD000080B584B003908DF87E
:1038F0000B108DF80A200193039800909DF80B009F
:10390000412805D0FFE79DF80B00612809D1FFE7AA
:1039100000989DF80B109DF80A20019BFFF796FF79
:10392000FFE704B080BD000080B586B005908DF83B
:1039300013100392059802909DF81300C00768B118
:10394000FFE703980190FCF77BFC019982B240F2FB
:10395000F430C2F20000FFF709F8FFE702990020F7
:1039600081F8540006B080BD80B588B006900698F6
:1039700003900790FFF7A0FE039947F65040C0F66A
:10398000000008300860002081F84A0001F14B0077
:10399000543104910590FFE70599049A002001F83D
:1039A000010B084691420590F6D1FFE703990020EC
:1039B00081F8540081F8550001F156005F31019102
:1039C0000290FFE70299019A002001F8010B0846D6
:1039D00091420290F6D1FFE7079808B080BD000041
:1039E00080B588B007900798029040F63820C2F260
:1039F0000000039040F22811C2F200010191FFF78C
:103A00002BFE0198FFF766FE019800F0C3FF05202A
:103A100014210022049201F09FF9029B03990246AF
:103A200004989A6681F86F000690FFE706980F28C1
:103A30000EDCFFE7069940F63820C2F20000014490
:103A4000002081F87000FFE7069801300690EDE74E
:103A500000200590FFE7059802280EDCFFE7059996
:103A600040F63820C2F200000144002081F86C00CA
:103A7000FFE7059801300590EDE70299212088774E
:103A80004020C877262081F832002A2081F83300B0
:103A900040F22810C2F20000FFF73CFE08B080BDE3
:103AA00080B582B0019040F22810C2F2000000F010
:103AB000B9FE02B080BD000080B586B0DDF820C040
:103AC00005908DF8131003928DF80B300598019036
:103AD000039800784D2813D1FFE7039840784128D8
:103AE0000ED1FFE7039880784A2809D1FFE70198B3
:103AF0009DF813109DF80B20089B00F071F931E040
:103B0000039800784D2813D1FFE70398407849289F
:103B10000ED1FFE7039880784E2809D1FFE701987E
:103B20009DF813109DF80B20089B00F091FA18E007
:103B300003980078532813D1FFE70398407845286D
:103B40000ED1FFE703988078542809D1FFE7019848
:103B50009DF813109DF80B20089B00F005F8FFE777
:103B6000FFE7FFE706B080BD80B584B003908DF815
:103B70000B108DF80A2001930398532180F822102E
:103B8000452180F82310542180F824105C3047F63A
:103B90000351C0F60001FCF72FFB9DF80B007328C2
:103BA00040F0BB80FFE79DF80A0053283FD1FFE7B4
:103BB000019800780006002801D5FFE736E001985B
:103BC00000784006002801D5FFE72EE00198007834
:103BD0008006002801D5FFE726E001980078C0069E
:103BE000002801D5FFE71EE00198007800070028B3
:103BF00001D5FFE716E0019800784007002801D5BD
:103C0000FFE70EE0019800788007002801D5FFE764
:103C100006E001980078C00708B1FFE7FFE7FFE77B
:103C2000FFE7FFE7FFE7FFE7FFE7FFE7FFE79DF8B5
:103C30000A00422870D1FFE701980078012801D1DD
:103C4000FFE768E001980078022801D1FFE761E012
:103C500001980078032801D1FFE75AE00198007825
:103C6000042801D1FFE753E001980078052801D12D
:103C7000FFE74CE001980078062801D1FFE745E016
:103C800001980078072801D1FFE73EE0019800780D
:103C9000082801D1FFE737E001980078092801D111
:103CA000FFE730E0019800780A2801D1FFE729E01A
:103CB000019800780B2801D1FFE722E001980078F5
:103CC0000C2801D1FFE71BE0019800780D2801D1F5
:103CD000FFE714E0019800780E2801D1FFE70DE01E
:103CE000019800780F2801D1FFE706E001980078DD
:103CF000102801D1FFE7FFE7FFE7FFE7FFE7FFE756
:103D0000FFE7FFE7FFE7FFE7FFE7FFE7FFE7FFE783
:103D1000FFE7FFE7FFE7FFE7FFE704B080BD000034
:103D200080B588B007908DF81B108DF81A20059388
:103D3000079802909DF81B00732805D0FFE79DF8B7
:103D40001B0053284AD1FFE700200490FFE70498A6
:103D500002280CDCFFE702990598049A805C114464
:103D600081F86C00FFE7049801300490EFE70299B6
:103D70000598C07881F86F009DF81A00052806D1D3
:103D8000FFE702990598007981F8700017E000209C
:103D90000390FFE703989DF81A10043988420DDA62
:103DA000FFE702990598039A10440079114481F8BD
:103DB0007000FFE7039801300390EBE7FFE70298FC
:103DC0009DF81B1000F16C0290F86F3000F1700C40
:103DD000EE46CEF800C0FFF76FFEFFE708B080BDEB
:103DE00080B586B005908DF813108DF812200393DE
:103DF000059802904D2180F82210412180F823106F
:103E00004A2180F824105C3047F6FD41C0F60001DD
:103E1000FCF7F2F99DF81300532801D1FFE7FFE703
:103E20009DF81300732840F01181FFE79DF8120000
:103E3000532840F08080FFE70299532081F8250045
:103E4000039800780006002821D5FFE740F60040DF
:103E5000C4F2010001210191FDF704F801990298D3
:103E600040F6C022C2F20002116000F1220380215C
:103E700080F82610572180F82110052180F82010A5
:103E800090F8202090F82110FFF7BAFB52E0039839
:103E900000784006002805D5FFE70299402081F808
:103EA000260046E0039800788006002805D5FFE745
:103EB0000299202081F826003AE003980078C00695
:103EC000002805D5FFE70299102081F826002EE092
:103ED000039800780007002805D5FFE7029908201D
:103EE00081F8260022E0039800784007002805D5D5
:103EF000FFE70299042081F8260016E00398007875
:103F00008007002805D5FFE70299022081F82600E6
:103F10000AE003980078C00728B1FFE70299012062
:103F200081F82600FFE7FFE7FFE7FFE7FFE7FFE78E
:103F3000FFE7FFE7FFE79DF81200422840F0858089
:103F4000FFE70299422081F82500039800780128B4
:103F500005D1FFE70299012081F8260074E003985B
:103F60000078022805D1FFE70299022081F8260097
:103F700069E003980078032805D1FFE70299032040
:103F800081F826005EE003980078042805D1FFE759
:103F90000299042081F8260053E003980078052850
:103FA00001D1FFE74CE003980078062801D1FFE734
:103FB00045E003980078072801D1FFE73EE0039829
:103FC0000078082801D1FFE737E003980078092836
:103FD00001D1FFE730E0039800780A2801D1FFE71C
:103FE00029E0039800780B2801D1FFE722E003982D
:103FF00000780C2801D1FFE71BE0039800780D281A
:1040000001D1FFE714E0039800780E2801D1FFE703
:104010000DE0039800780F2801D1FFE706E0039830
:104020000078102801D1FFE7FFE7FFE7FFE7FFE790
:10403000FFE7FFE7FFE7FFE7FFE7FFE7FFE7FFE750
:10404000FFE7FFE7FFE7FFE7FFE7FFE706B080BD19
:1040500080B586B005908DF813108DF8122003936B
:10406000059902914D2081F82200492081F8230012
:104070004E2081F824006D2081F85C00692081F8D1
:104080005D006E2081F85E006F2081F85F00722075
:1040900081F860009DF81300732840F0BF81FFE7AE
:1040A0009DF8120053283FD1FFE7039800780006DF
:1040B000002801D5FFE736E0039800784006002885
:1040C00001D5FFE72EE0039800788006002801D58F
:1040D000FFE726E003980078C006002801D5FFE737
:1040E0001EE0039800780007002801D5FFE716E0DE
:1040F000039800784007002801D5FFE70EE00398F9
:1041000000788007002801D5FFE706E003980078D3
:10411000C00708B1FFE7FFE7FFE7FFE7FFE7FFE7BB
:10412000FFE7FFE7FFE7FFE79DF81200422840F0B6
:104130007481FFE70398007801281ED1FFE740F65D
:104140000040C4F2010001210191FCF78BFE0199AE
:10415000029800F12203422280F8252080F82610E0
:10416000572180F82110052180F8201090F8202098
:1041700090F82110FFF744FA4EE1039800780228E6
:1041800016D1FFE7029800F12203422180F82510A2
:10419000022180F82610572180F82110052180F88F
:1041A000201090F8202090F82110FFF729FA32E132
:1041B00003980078032816D1FFE7029800F1220344
:1041C000422180F82510032180F82610572180F81D
:1041D0002110052180F8201090F8202090F821105F
:1041E000FFF70EFA16E103980078042816D1FFE7CE
:1041F000029800F12203422180F82510042180F862
:104200002610572180F82110052180F8201090F801
:10421000202090F82110FFF7F3F9FAE003980078D6
:10422000052815D1FFE7029800F12203422180F80A
:104230002510052180F82610572280F8212080F8CB
:10424000201090F8202090F82110FFF7D9F9DFE036
:1042500003980078062816D1FFE7029800F12203A0
:10426000422180F82510062180F82610572180F879
:104270002110052180F8201090F8202090F82110BE
:10428000FFF7BEF9C3E003980078072816D1FFE7CF
:10429000029800F12203422180F82510072180F8BE
:1042A0002610572180F82110052180F8201090F861
:1042B000202090F82110FFF7A3F9A7E003980078D9
:1042C000082816D1FFE7029800F12203422180F866
:1042D0002510082180F82610572180F8211005218B
:1042E00080F8201090F8202090F82110FFF788F92E
:1042F0008BE003980078092816D1FFE7029800F1B7
:104300002203422180F82510092180F82610572128
:1043100080F82110052180F8201090F8202090F8D6
:104320002110FFF76DF96FE0039800780A2816D185
:10433000FFE7029800F12203422180F825100A21AC
:1043400080F82610572180F82110052180F82010D0
:1043500090F8202090F82110FFF752F953E00398CD
:1043600000780B2816D1FFE7029800F122034221C2
:1043700080F825100B2180F82610572180F8211095
:10438000052180F8201090F8202090F82110FFF7E8
:1043900037F937E0039800780C2816D1FFE7029828
:1043A00000F12203422180F825100C2180F826100C
:1043B000572180F82110052180F8201090F8202046
:1043C00090F82110FFF71CF91BE0039800780D28E6
:1043D00001D1FFE714E0039800780E2801D1FFE730
:1043E0000DE0039800780F2801D1FFE706E003985D
:1043F0000078102801D1FFE7FFE7FFE7FFE7FFE7BD
:10440000FFE7FFE7FFE7FFE7FFE7FFE7FFE7FFE77C
:10441000FFE7FFE7FFE7FFE7FFE7FFE706B080BD45
:1044200080B58EB00C900C9809900D90FFF744F970
:10443000099947F65C40C0F600000830086000208B
:1044400081F8340001F1350048310A910B90FFE703
:104450000B990A9A002001F8010B084691420B9033
:10446000F6D1FFE70999002081F8480001F14900E1
:104470005C3107910890FFE70899079A002001F83E
:10448000010B084691420890F6D1FFE709990020F8
:1044900081F85C0001F15D00663105910690FFE74F
:1044A0000699059A002001F8010B084691420690F2
:1044B000F6D1FFE70999002081F86C0001F16D0049
:1044C0006F3103910490FFE70499039A002001F8EB
:1044D000010B084691420490F6D1FFE709990020AC
:1044E00081F8700001F17100803101910290FFE7C5
:1044F0000299019A002001F8010B084691420290AE
:10450000F6D1FFE70D980EB080BD000080B582B0F7
:10451000019040F2BC10C2F20000009000F082F95D
:10452000009800F0E1F902B080BD000080B584B0D1
:1045300003900398019043F25840C2F2000040F209
:10454000BC11C2F200010091FFF786F8009800F05C
:1045500021FA0098FFF7BEF801994FF0210C81F87D
:1045600008C040234B7226220A772A20487781F818
:104570001EC0CB7781F8322081F8330000200290F2
:10458000FFE702980F280BDCFFE70198029901442E
:10459000002081F82200FFE7029801300290F0E746
:1045A00040F2BC10C2F20000FFF7B4F804B080BDC6
:1045B00080B584B0039002910398009040F6C42126
:1045C000C2F200010220086000200190FFE701987C
:1045D00004280CDCFFE700990298019A805C1144E2
:1045E00081F82200FFE7019801300190EFE7009881
:1045F000052180F82010772180F8211090F82020E4
:1046000090F8211000F12203FFF732F804B080BDCA
:1046100080B584B003908DF80B108DF80A200193BB
:10462000039800909DF80B00572808D1FFE70098E9
:104630000199FFF7BDFF009800F004F8FFE704B010
:1046400080BD000081B0009001B0704780B588B097
:104650000690069803900790FFF72EF8039947F607
:104660006840C0F6000008300860002081F84A0069
:1046700001F14B00543104910590FFE70599049A2C
:10468000002001F8010B084691420590F6D1FFE7A2
:104690000399002081F8540001F155005E31019129
:1046A0000290FFE70299019A002001F8010B0846E9
:1046B00091420290F6D1FFE7079808B080BD000054
:1046C00080B586B005908DF813108DF812200393F5
:1046D00005990191212081F87400402081F875002E
:1046E0009DF8120081F876009DF8130081F877009C
:1046F00000200290FFE702989DF8121088420CDA21
:10470000FFE701990398029A805C114481F87800D0
:10471000FFE7029801300290EDE7019800F1740183
:10472000262280F888202A2280F88920D0F890005C
:1047300000231A4600F090FB70B1FFE70198D0F813
:10474000900000F0EBFB0199D1F890007431002348
:104750001A4600F081FBFFE7012006B080BD000093
:1047600082B00190009140F27820C2F2000000680F
:10477000032810DCFFE7009840F27821C2F2000124
:104780000B6840F26822C2F2000242F82300086877
:1047900001300860FFE702B07047000080B586B0C6
:1047A00005908DF813108DF812200393059901914F
:1047B000212081F84800402081F849009DF812002E
:1047C00081F84A009DF8130081F84B000020029008
:1047D000FFE702989DF8121088420CDAFFE7019972
:1047E0000398029A805C114481F84C00FFE702981C
:1047F00001300290EDE7019800F14801262280F88F
:104800005C202A2280F85D20D0F88C0000231A4614
:1048100000F022FB40F6BC21C2F20001086001203A
:1048200006B080BD80B584B00390039900914868BC
:104830005E3100231A4600F02FFA20BBFFE700206C
:104840000290FFE7029840F27821C2F20001096865
:10485000884217DAFFE7009B029940F26820C2F213
:10486000000050F8210093F8602093F86110623343
:10487000D0F800C0DCF800C0E047FFE70298013044
:104880000290DFE7FFE70099D1F890007431002330
:104890001A4600F001FA20BBFFE700200190FFE775
:1048A000019840F27821C2F200010968884217DAC3
:1048B000FFE7009B019940F26820C2F2000050F827
:1048C000210093F8762093F877107833D0F800C061
:1048D000DCF800C0E047FFE7019801300190DFE716
:1048E000FFE704B080BD000080B58AB00990099848
:1048F0000090D0F88C000DF10E0100231A4600F054
:10490000CBF902900298002841D1FFE79DF80E00F4
:1049100040F21001C2F2000108709DF80F004870CB
:104920009DF81000C8709DF811008870002001905B
:10493000FFE701989DF81010884210DAFFE701990F
:104940000DF10E000844007940F21002C2F200029C
:1049500011440871FFE7019801300190E9E70098E0
:104960009DF810309DF8222040F21001C2F20001A3
:104970000B441A719DF810309DF823200B445A7196
:1049800080689DF810200632FDF7F0FFFFE70AB0BF
:1049900080BD000080B586B0059005980490052084
:1049A0000390162101910022029200F0D5F901999D
:1049B000029ADDF810C003460398CCF88C3000F062
:1049C000CBF90499C1F8900006B080BD80B584B0E1
:1049D00003900291039801900299FEF7BDFE0198A1
:1049E00047F67441C0F600010831016004B080BD93
:1049F00081B08DF803009DF9030000280ED4FFE775
:104A00009DF9031001F01F02012090404A094EF267
:104A10000011CEF2000141F82200FFE701B070471B
:104A20004EF60C50CEF200000068C0F30220704732
:104A300082B08DF8070000919DF9070000280AD484
:104A4000FFE7009800019DF907104EF20042CEF2F8
:104A5000000288540BE0009800019DF8071001F057
:104A60000F014EF61452CEF200028854FFE702B056
:104A70007047000082B08DF8070000919DF9070093
:104A800000280AD4FFE7009800019DF907104EF2B4
:104A90000042CEF2000288540BE0009800019DF81D
:104AA000071001F00F014EF61452CEF200028854A6
:104AB000FFE702B07047000083B00290029800F058
:104AC000070000904EF60C51CEF2000108680190EC
:104AD00001984FF6FF02104001900198009A40EAB9
:104AE00002200022C0F2FA5210430190019808609F
:104AF00003B0704701A001F04BFB00BF5075726519
:104B0000207669727475616C2066756E6374696F66
:104B10006E2063616C6C65642100000080B540F21A
:104B20002810C2F2000040F23C41C2F20001FFF73F
:104B30004DFF80BD80B540F2BC10C2F2000040F2D3
:104B4000F431C2F20001FFF741FF80BD80B540F2B1
:104B50008800C2F2000040F28441C2F20001FFF777
:104B600035FF80BD80B540F63820C2F20000FFF767
:104B700057FC80BD80B543F25840C2F20000FFF7F9
:104B800065FD80BD80B540F27C20C2F20000FEF7DA
:104B9000EBFE80BD80B582B000200190FCF7A2F949
:104BA000FEF760F9FDF7D4FFFDF75CFFFEF768F84C
:104BB000FEF746F8FEF784F800F020F8FDF782FFD4
:104BC00000F040F8FFE7FEE780B584B00290EFF315
:104BD00005800390039820B1FFE76FF00500019076
:104BE00009E000200190029820B1FFE7029801F04F
:104BF0000FFDFFE7FFE7019804B080BD82B0EFF33F
:104C000005800190019820B1FFE76FF0050000904A
:104C100014E040F22010C2F20000006848B9FFE73B
:104C200040F22011C2F20001012008600020009033
:104C300003E04FF0FF300090FFE7FFE7009802B07D
:104C40007047000080B582B0EFF3058001900198B5
:104C500020B1FFE76FF00500009019E040F220104E
:104C6000C2F20000006801280DD1FFE7FEF7DAF874
:104C700040F22011C2F200010220086001F066FD3E
:104C80000020009003E04FF0FF300090FFE7FFE7C7
:104C9000009802B080BD000080B588B006900591F4
:104CA000049203930698029000200190EFF3058090
:104CB0000790079868B3FFE7029830B1FFE70598BF
:104CC00018B1FFE7039820B1FFE76FF003000190F0
:104CD0001EE000200090029805996A4602F06EFAE4
:104CE000012804D0FFE76FF0020001900FE0009868
:104CF00060B1FFE74EF60451CEF200014FF0805054
:104D00000860BFF34F8FBFF36F8FFFE7FFE7FFE749
:104D10001FE0029818B1FFE7059820B9FFE76FF090
:104D20000300019014E002980599039A02F058F9E3
:104D300001280CD0FFE7039820B1FFE76FF00100D6
:104D4000019003E06FF002000190FFE7FFE7FFE74B
:104D5000FFE7019808B080BD80B588B00690059146
:104D6000049200200390EFF3058007900798002835
:104D70006ED1FFE7069800286AD0FFE70598002863
:104D800066D0FFE74FF0FF300290049868B3FFE76A
:104D900004988068A0B1FFE70498C06850280FD33A
:104DA000FFE70498006958B1FFE704984069069945
:104DB000059A5143884203D3FFE70120029013E094
:104DC0000498806878B9FFE70498C06858B9FFE78D
:104DD0000498006938B9FFE70498406918B9FFE7FB
:104DE00000200290FFE7FFE702E000200290FFE7CB
:104DF000029801280ED1FFE706980599049A936856
:104E00001269EE464FF0000CCEF800C001F046FEED
:104E100003900AE0029838B9FFE706980599002246
:104E200001F002FE0390FFE7FFE7039878B1FFE788
:104E3000049820B1FFE704980068019002E0002088
:104E40000190FFE70398019901F086FBFFE7FFE778
:104E5000039808B080BD000080B588B00690059129
:104E60008DF8132003930698029000200190EFF331
:104E700005800790079868B3FFE7029830B1FFE715
:104E8000059818B1FFE7039820B1FFE76FF0030022
:104E900001901EE000230093029805996A4601F0F4
:104EA000F9FF012804D0FFE76FF0020001900FE046
:104EB000009860B1FFE74EF60451CEF200014FF0CA
:104EC00080500860BFF34F8FBFF36F8FFFE7FFE79E
:104ED000FFE720E0029818B1FFE7059820B9FFE747
:104EE0006FF00300019015E002980599039A0023E2
:104EF00001F0BAFE01280CD0FFE7039820B1FFE7CC
:104F00006FF00100019003E06FF002000190FFE7F5
:104F1000FFE7FFE7FFE7019808B080BD80B584B0E8
:104F2000029002980190EFF305800390039820B15E
:104F3000FFE76FF0050000900DE0019820B9FFE752
:104F40006FF00300009005E000210091019801F04E
:104F50002DFEFFE7FFE7009804B080BDB0B58EB02E
:104F60000B900A91099200200690EFF305800D90B6
:104F70000D98002840F09980FFE70B98002800F07A
:104F80009480FFE78020079018200590002008906B
:104F90004FF0FF300490099800284DD0FFE70998A2
:104FA000006820B1FFE7099800680890FFE70998BA
:104FB000806920B1FFE7099880690590FFE70598AF
:104FC00048B1FFE70598382805D8FFE70998007928
:104FD000C00718B1FFE700200C9069E0099840690C
:104FE00028B1FFE70998406980080790FFE7099812
:104FF000806880B1FFE70998C0685C280BD3FFE7A1
:105000000998006938B1FFE70998406918B1FFE7CE
:10501000012004900FE00998806858B9FFE70998CB
:10502000C06838B9FFE70998006918B9FFE70020A0
:105030000490FFE7FFE702E000200490FFE70498F8
:10504000012817D1FFE70B980899079A0A9BDDF80A
:1050500014C0DDF824E0DEF80850DEF81040EE461B
:10506000CEF80850CEF80440CEF800C002F0E0F9C7
:10507000069019E00498B0B9FFE70B980899BDF8BD
:105080001C200A9BDDF814C0EE4606ACCEF80440A6
:10509000CEF800C002F07CF9012803D0FFE7002021
:1050A0000690FFE7FFE7FFE7FFE706980C90FFE7B2
:1050B0000C980EB0B0BD000080B584B00390029192
:1050C00043F2B450C2F200000068009040F2C050B9
:1050D000C2F200000068043001F05CF808B9FFE794
:1050E00000E0FFE70398013080B9FFE7029868B15C
:1050F000FFE740F2C050C2F200000068011D43F219
:105100008C50C2F2000001F0EBF83DE000980399EA
:1051100008440190019840F2C051C2F200010968B0
:1051200048600198009988420ED2FFE740F2D050C3
:10513000C2F20000006840F2C051C2F200010968EA
:10514000043101F097F81EE040F2C850C2F20000AE
:10515000006840F2C051C2F200010968043101F058
:1051600089F8019843F21851C2F200010968884297
:1051700007D2FFE7019843F21851C2F2000108601C
:1051800000E0FFE7FFE7FFE704B080BD80B582B035
:10519000019001F0C3F842F68C51C2F20001086898
:1051A0000130086040F2C050C2F20000006898B9B7
:1051B000FFE7019840F2C051C2F20001086042F6D8
:1051C0008C50C2F200000068012803D1FFE700F014
:1051D000F7FA00E0FFE71CE043F28050C2F2000063
:1051E0000068A0B9FFE740F2C050C2F200000068BA
:1051F000C06A0199C96A884207D8FFE7019840F25E
:10520000C051C2F20001086000E0FFE700E0FFE7E4
:10521000FFE742F69850C2F20000016801310160D8
:105220000068019948640198C06A42F69C51C2F234
:1052300000010968884208D9FFE70198C06A42F670
:105240009C51C2F200010860FFE70199C86A00EBB7
:10525000800240F2D850C2F2000000EB820004311C
:1052600001F03EF801F086F843F28050C2F20000EF
:105270000068C8B1FFE740F2C050C2F20000006809
:10528000C06A0199C96A88420CD2FFE74EF6045100
:10529000CEF200014FF080500860BFF34F8FBFF394
:1052A0006F8F00E0FFE700E0FFE702B080BD000085
:1052B00080B584B001F032F843F2B850C2F2000079
:1052C0000068002840D1FFE743F2B840C2F2000076
:1052D000029000F0AFFF43F2CC40C2F20000039016
:1052E00000F0A8FF0299039840F2C452C2F20002F3
:1052F000116040F2D451C2F20001086069460020FA
:10530000086040F2CC42C2F2000240F26C53C2F29A
:1053100000030A20102101F0C1FB014643F2B850FE
:10532000C2F200000160006860B1FFE743F2B850CC
:10533000C2F20000006847F6D441C0F6000101F057
:105340000BF900E0FFE700E0FFE701F013F804B01D
:1053500080BD000080B582B0FFE742F69050C2F2F7
:105360000000006808B3FFE700F0D8FF43F2A05048
:10537000C2F20000C068C06801900198043000F0DB
:1053800009FF42F68C51C2F200010868013808603A
:1053900042F69051C2F2000108680138086000F03E
:1053A000E9FF019800F08CF8D7E702B080BD00005B
:1053B00080B582B0019000910198006CB8B1FFE710
:1053C0000199C8680A6C1044C86001988168C06877
:1053D000884204D3FFE701990868C86000E0FFE74E
:1053E0000098019AD168126CFAF749FFFFE702B002
:1053F00080BD000080B586B0059004910392002026
:1054000002900598806B01900598006C78B9FFE7D1
:105410000598006848B9FFE70598806802F078F9B8
:10542000029005990020886000E0FFE741E00398C2
:10543000B8B9FFE7059A04995068126CFAF71FFF94
:10544000059948680A6C104448600599486889685D
:10545000884204D3FFE705990868486000E0FFE749
:1054600026E0059A0499D068126CFAF708FF0599AE
:10547000C8680A6C801AC86005980168C0688842CC
:1054800006D2FFE7059988680A6C801AC86000E0B8
:10549000FFE70398022809D1FFE7019820B1FFE751
:1054A00001980138019000E0FFE700E0FFE7FFE727
:1054B000FFE70198013005998863029806B080BD26
:1054C00080B582B00090009890F8590040B9FFE78D
:1054D0000098006B00F074FF009800F071FF1CE072
:1054E000009890F85900012804D1FFE7009800F0D7
:1054F00067FF11E0009890F8590002280BD0FFE7F1
:105500004FF0500080F31188BFF36F8FBFF34F8FC0
:105510000190FFE7FEE7FFE7FFE702B080BD000074
:1055200082B0019040F2C450C2F2000000680068EE
:10553000B0FA80F04009019908600198006848B904
:10554000FFE740F2C450C2F200000068C068006883
:10555000009002E000200090FFE7009802B0704742
:1055600084B042F2B820009040F6C820C2F2000099
:1055700001909DF80400400788B1FFE701980730CB
:105580000190019820F007000190019A40F6C8218F
:10559000C2F200010098891A08440090FFE70198C0
:1055A0000290029943F28450C2F20000016000218F
:1055B00041600298009A10440190019808380190C7
:1055C000019820F007000190019A40F2CC50C2F2FD
:1055D0000000026002685160026811600299039144
:1055E0000199039A891A5160006803990860039829
:1055F000406843F21451C2F2000108600398406809
:1056000043F20C51C2F20001086043F2E041C2F2E1
:1056100000014FF00040086004B0704780B582B0D0
:105620000190FFE7FFF796FE40F2D850C2F200006B
:10563000006802280CD3FFE74EF60451CEF20001B9
:105640004FF080500860BFF34F8FBFF36F8F00E0C3
:10565000FFE7E7E780B584B0DDF818C0039002915A
:1056600001928DF80330029818B9FFE706980060A0
:1056700003E0019806990860FFE703980699C8635C
:105680000298069908640698012101F08FFA9DF8A6
:105690000300069981F84C0004B080BD80B588B045
:1056A000DDF834C0DDF830C0DDF82CC0DDF828C0EE
:1056B00006900591049203930C98006B049989005D
:1056C000A522FAF721FE0C98006B049900EB8100EB
:1056D00004380290029820F0070002909DF808001C
:1056E000400758B1FFE74FF0500080F31188BFF337
:1056F0006F8FBFF34F8F0790FFE7FEE70598F8B174
:10570000FFE700200190FFE701980F2813D8FFE77B
:105710000598019A805C0C99114481F83400059831
:105720000199405C08B9FFE705E0FFE7FFE7019852
:1057300001300190E8E70C99002081F8430004E073
:105740000C99002081F83400FFE70A98382803D329
:10575000FFE737200A9000E0FFE70A980C99C8623B
:105760000A980C99C8640C990020009008650C9860
:10577000043000F077FD0C98183000F073FD0098AD
:105780000C9909610A99C1F138010C9A91610C993F
:1057900049620C9948650C9981F85800029806995D
:1057A000039A00F0CDFC0C9908600B9820B1FFE73C
:1057B0000C980B99086000E0FFE708B080BD00007E
:1057C00080B584B000200390FFE70398372810D8F5
:1057D000FFE7039800EB800140F2D850C2F20000CE
:1057E00000EB810000F026FDFFE7039801300390F5
:1057F000EBE743F2E440C2F20000019000F01AFD32
:1058000043F2F840C2F20000029000F013FD43F2B0
:105810002C50C2F2000000F00DFD43F2A050C2F285
:10582000000000F007FD43F28C50C2F2000000F0CF
:1058300001FD0199029840F2C852C2F200021160C3
:1058400040F2D051C2F20001086004B080BD0000F7
:1058500083B0029043F28450C2F200000190FFE74F
:10586000019800680299884205D2FFE7FFE7019896
:1058700000680190F4E70198009000980199496848
:1058800008440299884209D1FFE7029842680199C9
:105890004868104448600198029000E0FFE70298D1
:1058A0000090009802994968084401990968884263
:1058B00020D1FFE70198006840F2CC51C2F200010C
:1058C000096888420DD0FFE7019800684268029994
:1058D00048681044486001980068006802990860B0
:1058E00007E040F2CC50C2F2000000680299086064
:1058F000FFE704E00198006802990860FFE701985B
:105900000299884204D0FFE702980199086000E0FC
:10591000FFE703B07047000080B586B005900491A2
:10592000039202930020019004980599486005981D
:10593000006104980399884216D8FFE703980299FA
:10594000401A05998969884203D3FFE70120019035
:1059500009E040F2D450C2F2000000680599043119
:1059600000F088FCFFE717E003980299884208D20C
:10597000FFE704980299884203D3FFE701200190D2
:1059800009E040F2C450C2F20000006805990431F9
:1059900000F070FCFFE7FFE7019806B080BD000053
:1059A00080B582B0019000F0B9FC0198806B18B905
:1059B000FFE70120009002E000200090FFE700F0E8
:1059C000D9FC009802B080BD80B582B0019000F093
:1059D000A5FC0198806B0199C96B884203D1FFE750
:1059E0000120009002E000200090FFE700F0C2FCE0
:1059F000009802B080BD000006480068006880F38F
:105A0000088862B661B6BFF34F8FBFF36F8F00DFB8
:105A100000BF000008ED00E080B586B0049003915F
:105A200040F2C450C2F200000068C068C068019033
:105A30000198043000F0AEFB019890F82800400770
:105A4000002823D5FFE70198049B81691944039A34
:105A5000FFF762FFC0B1FFE70198049A694600238F
:105A60000B60194602F040F80290029858B9FFE71F
:105A70004FF0500080F31188BFF36F8FBFF34F8F4B
:105A80000590FFE7FEE700E0FFE707E0019991F8E6
:105A9000280000F0FE0081F82800FFE70198016A65
:105AA000884706B080BD000080B58EB0FFE743F2A6
:105AB000B850C2F20000006807A9002201F090FA75
:105AC000002800F0B880FFE70798B0F1FF3F17DC2F
:105AD000FFE707A804300290029858B9FFE74FF09B
