:020000040800F2
:1000000030400020650200089D4A0008BD460008F7
:10001000994A000839180008CD5300080000000074
:10002000000000000000000000000000914B0008EC
:10003000CD18000800000000114B0008D54B000847
:100040007F0200087F0200087F0200087F0200088C
:100050007F0200087F0200087F0200087F0200087C
:100060007F0200087F0200087F0200083D18000898
:100070004D1800087F0200085D1800087F02000884
:100080007F0200086D1800087F0200087F02000848
:100090007F0200087F0200087F0200087F0200083C
:1000A0007F020008894C00087F0200087F020008D8
:1000B0007F0200087F0200087F0200087F0200081C
:1000C0007F0200087F0200087F0200087F0200080C
:1000D0007F0200089D530008AD530008BD5300087F
:1000E0007F0200087F0200087F02000800F002F88B
:1000F00000F0A8F814A696E8000CB244B344DA4520
:1001000001D100F09FF8BAE80F000FA696E8300082
:10011000A5EB040504EB0607AAEB0704A7F101070A
:100120004FEA15154FEA3414A4F10104AC4201D38F
:1001300000F088F813F0010F18BFFB1A43F0010319
:1001400000F001F8DBE7184734B9000054B90000AB
:10015000103A24BF78C878C1FAD8520724BF30C8F3
:1001600030C144BF04680C60704700007047000055
:100170000023002400250026103A28BF78C1FBD8B0
:10018000520728BF30C148BF0B6070476E2900F08E
:100190000D82702900F04F8366290BF010836529CA
:1001A0000BF00D8367290BF00A8361290BF009839B
:1001B00003681B0A28BF41F08001692900F0BA8159
:1001C000642900F0B781752900F0B4816F2900F02F
:1001D000DD82782900F01B83E92900F07782E42989
:1001E00000F07482F52900F07182EF2900F0DA82C4
:1001F000F82900F01A830368DB0928BF41F0800169
:10020000632901F04D80732901F05280E32901F048
:100210005D80F32901F06280002070471FB501F076
:10022000C5F80400002000210AF02CFF401C60608B
:10023000002000210AF010FFE06000F003F91FBD6C
:1002400010B510BD01F084F81146FFF7E7FF07F085
:100250001BFB01F061F903B4FFF7F2FF03BC01F0EF
:1002600071F800000948804709480047FEE7FEE7AB
:10027000FEE7FEE7FEE7FEE7FEE7FEE7FEE7FEE756
:1002800004480549054A064B70470000854C0008A4
:10029000ED000008303A002030400020303C0020C3
:1002A000303C00200FB41CB5084B06AA7B446946BD
:1002B0000090059800F093F904460020694600F08C
:1002C000A1F920461CBC5DF814FB0000550300009A
:1002D00040EA0103024630B59B0710D14FF00134CC
:1002E00000E008C208C91D1B9D4315EAC41FF8D0D1
:1002F00013F0FF0102F8011B0DD01B0AF8E711F8FB
:10030000013B002B02F8013B05D011F8013B002B0B
:1003100002F8013BF3D130BD10B5431C02E010F8E8
:10032000011B71B18107FAD14FF0013202C88C1A5A
:100330008C4314EAC211F9D0C01A0A0603D0C01EB9
:1003400010BDC01A10BD0A0401D0801E10BD0902E4
:10035000FCD0401E10BD032A40F2308010F0030C88
:1003600000F0158011F8013BBCF1020F624498BF08
:1003700011F801CB00F8013B38BF11F8013BA2F1A5
:10038000040298BF00F801CB38BF00F8013B11F020
:10039000030300F01F83083AC0F0088051F8043BC3
:1003A000083A51F804CBA0E80810F5E7121D5CBF2D
:1003B00051F8043B40F8043BAFF30080D20724BF60
:1003C00011F8013B11F801CB48BF11F8012B24BFF4
:1003D00000F8013B00F801CB48BF00F8012B704743
:1003E00002F0FF0343EA032242EA024200F002B8AD
:1003F0004FF0000200B5134694469646203922BFBE
:10040000A0E80C50A0E80C50B1F12001BFF4F7AF08
:10041000090728BFA0E80C5048BF0CC05DF804EBEA
:10042000890028BF40F8042B08BF704748BF20F858
:10043000022B11F0804F18BF00F8012B7047704756
:100440007047704708487CB5784400900748784466
:10045000009C0546019004E020460168084480475E
:10046000241DAC42F8D17CBD7CB700008EB70000E3
:1004700070B5044685690068C10601D5302600E0E4
:100480002026C00707D070BDD4E90121304690472F
:10049000206A401C20626D1EF6D570BD70B5044602
:1004A00085690078C00707D170BDD4E901212020FB
:1004B0009047206A401C20626D1EF6D570BD096809
:1004C0004A0501D540B27047C905FCD500B2704756
:1004D00009684A0501D5C0B27047C905FCD580B28C
:1004E000704770B50C460546012A05D0287880066D
:1004F00000D5EA69002302E0012305E05B1C93427A
:1005000002D2E05C0028F9D1A869E618C01AA861F7
:10051000286A184428622846FFF7AAFF04E0D5E9B4
:10052000012114F8010B9047B442F8D32846FFF795
:10053000B5FF70BD2DE9F04106460024106875290D
:10054000314616A510D0FFF7BAFF002802DA404264
:1005500013A507E031688A0701D512A502E0490713
:1005600004D511A5012401E0FFF7B2FF00210A2202
:1005700006F1240709E0B0FBF2FCB0FBF2F302FB4A
:100580001C00303078541846491C0028F3D123460B
:100590002A463046BDE8F04100F093BA0000000062
:1005A0002D0000002B0000002000000011680268F0
:1005B000006A530501D508700AE0D30501D508800B
:1005C00006E0130603D5C217C1E9000200E0086087
:1005D0000120704701694A1C02610878704700B524
:1005E0008FB0CDE901310021059105497944CDE96C
:1005F00003101146684600F029F90FB000BD000055
:10060000E5FFFFFF0A6802F8010B0A60704700006F
:100610002DE9FF5F15468A460446DFF8AC80F844B2
:100620000027D8E900103E46CDE9001010E03AF866
:1006300016106A4602A800F055FE411C07D021782A
:10064000890603D5E269391891420DD80744761C12
:100650002078800602D5E069B84205DDAE42E6DBCF
:100660003AF816000028E2D1A069C01BA06120461C
:10067000FFF7FEFED8E90010CDE90010002017E0DA
:100680003AF818106A4602A800F02CFEB0F1FF3FBD
:1006900081460BD000250DF1080B05E0D4E90121BE
:1006A0001BF8050090476D1C4D45F7D308F101007C
:1006B000B0428046E4DB206A384420622046FFF7DF
:1006C000EDFEBDE8FF9F0000A6B100002DE9F0415E
:1006D0008046D21D22F007020025D2E90002F5294A
:1006E00015A614D0011E72F1000106DA0023D0EB2A
:1006F000030063EB020211A608E0D8F800108B0794
:1007000001D50FA602E0490701D50EA60125114625
:10071000002408F1240704E000F08EF930323A5545
:10072000641C50EA0102F7D12B463246214640466E
:10073000BDE8F04100F0C5B9000000002D00000048
:100740002B0000002000000030B4002100F1240440
:1007500008E002F00705D208303542EA4372DB08B0
:100760006554491C52EA0305F3D10468002310A222
:10077000250708D504F020040C4304D0C4690123E4
:100780000CA2641EC46130BC00F09BB910B50446D5
:1007900021461068FFF79CFE02462046BDE8104047
:1007A0000023D1E7D21D22F00701D1E90023CBE7D6
:1007B0000000000030000000F0B40D46018809057B
:1007C00002D5214C7C4402E01F4C7C440E340021B5
:1007D00000F1240608E002F00F071209E75D42EA83
:1007E00003721B097754491C52EA0307F3D10278BC
:1007F0000023120704D5702D06D009B1022311344D
:100800002246F0BC00F05DB901231034F8E770B562
:1008100004460D4621461068FFF75AFE0246294657
:100820002046BDE870400023C6E7D21D22F0070332
:10083000D3E90023C0E70368126843F02003036094
:100840000823C3610023B7E708B000002DE9F05F7B
:10085000894604464FF0000ADFF874B1FB44C0F843
:1008600020A02046E1688847002874D0252806D0BB
:10087000D4E901219047206A401C2062F1E700265C
:100880005F462046E16888472028054607DB312D72
:1008900005D2781910F8200C08B10643F1E7B0072B
:1008A00001D526F00406C4F81CA00027C4F818A03F
:1008B0002A2D09D028460AF0C7FB38B304EB870875
:1008C000303DC8F8185019E059F8041B204604EBD5
:1008D00087029161E1688847012F054618D1E069D8
:1008E000002820DA26F020061DE0D8F8180000EBDA
:1008F000800005EB40003038C8F818002046E16859
:10090000884705460AF0A0FB0028EED1012F0AD047
:100910002E2D08D12046E16888477F1C0546022F0E
:1009200046F02006C4DBA069002803DA404246F006
:100930000106A061F00701D026F010066C2D0BD047
:10094000682D09D04C2D39D06A2D35D0742D35D075
:100950007A2D33D016E038E0E1682F4620468847EC
:10096000B842054609D16C2F26D04FF48060E1686B
:10097000064320468847054604E06C2F1AD04FF402
:10098000807006430DB3A5F14100192802D8203527
:1009900046F400664A462946204626604E46FFF742
:1009A000F5FB80B101280BD0F61D26F0070000F101
:1009B000080956E74020E4E78020D8E70020D6E782
:1009C00006F104094DE7284652E7206ABDE8F09F8A
:1009D00098AF000010B5203AC0F00B80B1E8185075
:1009E000A0E81850B1E81850A0E81850203ABFF419
:1009F000F5AF5FEA027C24BFB1E81850A0E81850B8
:100A000044BF18C918C0BDE810405FEA827C24BF0B
:100A100051F8043B40F8043B08BF7047D20728BF99
:100A200031F8023B48BF11F8012B28BF20F8023BE8
:100A300048BF00F8012B704730B5B0F10A0271F1E0
:100A400000034FEA900E4EEA817EB0EB0E0061EBA0
:100A500091014FEA101E4EEA017E10EB0E0041EBB1
:100A600011114FEA102E4EEA016E10EB0E0041EB11
:100A700011214FEA104E4EEA014E10EB0E0041EBF1
:100A80001141401841F100014FEAD00040EA4170A5
:100A90004FEAD1014FEA810444EA907410EB8005DB
:100AA00044EB01046D1944EB0404521BA3414FF0C5
:100AB000000348BF0A3200D530BD401C41F100019F
:100AC00030BD2DE9F0470D4699469246044600F1A7
:100AD00024080168880604D5E06921F0100121602E
:100AE00000E00120A84201DD471B00E00027A169CA
:100AF0007A1902EB0900081AA0612078C00602D416
:100B00002046FFF7B5FC002608E0D4E901211AF8D9
:100B100006009047206A401C761C20624E45F4DB9C
:100B20002078C0060AD52046FFF7A2FC06E0D4E9EB
:100B3000012130209047206A401C2062381EA7F116
:100B40000107F4DC07E0D4E9012118F8050090471B
:100B5000206A401C2062281EA5F10105F3DC204616
:100B6000FFF79CFC2078000602D50220BDE8F08744
:100B70000120FBE72DE9FF4F0C461E464FF0FF37E3
:100B80008BB0D2E90001DDF860800A908A46C1F39B
:100B90000A5505B93D46002108464FF00000BAF15C
:100BA000000F00F4400005DA00EB80004FF4400134
:100BB00001EA50004FEA9059B9F1010F00DDB94642
:100BC0000A9850EA4A000ED044F61050A5F2FF35BC
:100BD00045432F14B8F1000F1ED07542291E1EDDAB
:100BE000C9F100021CE0B8F1010F4FF0000001D084
:100BF000302103E0F24305E02154401CB042FBDB0E
:100C000030460022002121540B99C1F80880C1E927
:100C100000200FB0BDE8F08FBD1B6D1CDEE74A461B
:100C200000DA694206A800F005FC06AB93E807006D
:100C300003AB83E8070050460A9909F029FE8DE8C6
:100C40000700A0F500501F3800900398002D0ADD22
:100C500042F21F014A460844002303A90390684654
:100C60000AF092F809E0A0F500504A461F38002328
:100C700003A9039068460AF09CF88DE80700000479
:100C8000000C03D04FF0FF30410800E01046B8F1EF
:100C9000000F03D00022009215461EE0751E05D4F9
:100CA000FFF7CAFE303262556D1EF9D5B3460122F8
:100CB000084302D000227F1C04E02078302801D1B4
:100CC00000227F1E002A099784D01DE0112D07DA2B
:100CD000FFF7B2FE303262556D1C50EA0102F5D1C9
:100CE000084302D00098C8B10EE00021681E05E05C
:100CF000235C625C63542254401E491C8142F7DB32
:100D0000AB46A81B401E0990002004F80B000B986E
:100D1000099AC0F80880C0E9002B7AE711264FF045
:100D2000000857E72DE9F04F88460446D21D22F00F
:100D3000070191B0D1E90001CDE90A010AF070F98B
:100D400002460B98C00F01D02D2007E020688107D4
:100D500001D52B2002E0202101EAC000032A0990DE
:100D600001D0072A05DB03464146204600F022FB5E
:100D70000BE12078800601D5E06900E00620B8F19B
:100D8000650F814606D0B8F1660F18D0B8F1670F2D
:100D900070D131E00020B9F1110F009001DB112377
:100DA00001E009F101030AAA01A90CA8FFF7E2FE7C
:100DB000DDE90C70002609F10105834647E00120BA
:100DC0004B4600904FF000470AAA01A90CA8FFF774
:100DD000D1FEDDE90DB00C995D46002610B909F190
:100DE00001000D18B9EB050003D4C0F1FF3609F17D
:100DF0000105A5EB09002BE0B9F1010F01DA4FF075
:100E000001090020B9F1110F0090484601DD1123BE
:100E100000E003460AAA01A90CA8FFF7ABFEDDE932
:100E20000C704D4600268346207800070AD4AB4557
:100E300000DA5D4601A8012D04DD411911F8011CFD
:100E4000302907D04F4502DA17F1040F04DA0120E8
:100E500082460FE06D1EEEE7002F02DCED1B3E44E4
:100E600003E0781CA84200DD7D1CB81B00F1010ADC
:100E70004FF000472078000703D4AA4501DB4FF06C
:100E8000FF3A0021B7F1004F0DF143088DF84310F0
:100E900024D002202B23002F01DA7F422D230A21A8
:100EA000021EA0F1010000DC5FB197FBF1FC97FB93
:100EB000F1F201FB1C7C17460CF1300C08F801CD57
:100EC000EEE7A8F1010003702188090501D545214D
:100ED00000E06521A0F1010800F8011C09980FA9A4
:100EE000A1EB0807FF1D00B10120411901EBEA70D9
:100EF000A1693844081A401EA0612078C00602D4B7
:100F00002046FFF7B5FA099828B1D4E901219047A6
:100F1000206A401C20622078C00622D52046FFF7B8
:100F2000A7FA1EE0002E04DBB34502DD01A8805DB8
:100F300000E03020D4E901219047206A401C206263
:100F4000761CAAF101005FEA000A0AD100F02EFA2D
:100F5000C0680168405CD4E901219047206A401CC8
:100F60002062281EA5F10105DCDC07E0D4E901219F
:100F700018F8010B9047206A401C2062381EA7F128
:100F80000107F3DC2046FFF789FA032011B041E6A0
:100F90002DE9F04F04460D46D21D22F0070089B01E
:100FA000D0E90097484639460AF03AF80246F80F69
:100FB00001D02D2307E02068810701D52B2302E013
:100FC000202101EAC0038DF820300BB1012000E0A0
:100FD0000020032A824601D0072A04DB2946204646
:100FE00000F0E8F93FE12078800601D40D2500E00B
:100FF000E569C7F30A560D2D49DA00214FEA175B60
:1010000008464FF00000002F00F4400007DA00EB24
:1010100080004FF4400100EBD07001EA60008115C0
:10102000012901DD4FF0FF3100224FEA850CBCF1B0
:10103000180F06D31346ACF118004FF08052C2408F
:1010400003E04FF4801323FA0CF30CF10C0CBCF109
:10105000200F04D3ACF1200C09FA0CF001E007FAE0
:101060000CF000294FF0004801DD18B90FE00ED157
:1010700040450CD319EB02095F4121B9404502D12B
:101080009F4329EA0209BBEB175F00D0761C20883A
:10109000000502D57B48784402E07A487844193844
:1010A00008AA302302F80A30037C0AF10101002E5D
:1010B0000AF1020A53546A4602DC4FF0300101E0A3
:1010C0004FF031014FF001088DF8001002D0A6F268
:1010D000FF3603E059EA470100D06B4E002D02DCD9
:1010E0002178090704D54FF002082E218DF8011050
:1010F000C44600210BE0C7F303433F01C35C491C16
:101100006D1E02F80830052908F1010801DA002DEA
:10111000F1DC00210CE000EB1973491C1B786D1EFB
:10112000082902F808304FEA091908F1010801DA24
:10113000002DF0DC21688B0602D516E0A8F101082D
:10114000E04505DD02EB080313F8013C302BF5D038
:10115000B8F1000F09DD02EB080313F8013C2E2B58
:1011600003D1090701D4A8F10108002D05DD3E21B6
:1011700002F808106D1E08F10108407C002E02F8EC
:10118000080008F1010804DA2D20764202F8080070
:1011900002E02B2002F808000A214FF47A70864200
:1011A00008F101080BDB96FBF0F3303302F808304E
:1011B00096FBF0F308F1010800FB136601E0642ED2
:1011C0000CDB642096FBF0F3303302F8083096FB1A
:1011D000F0F308F1010800FB136601E00A2E06DBBC
:1011E00096FBF1F0303002F8080008F1010896FB98
:1011F000F1F001FB1060303002F80800A16908F13D
:10120000010808EB050202EB0A00081AA061207829
:10121000C00602D42046FFF72BF9216A08AE01EB85
:101220000A00206204E0D4E9012116F8010B90477E
:10123000BAF1010AF7D22078C00602D52046FFF79E
:1012400017F96E4609E016F8010B3E280FD0D4E9D5
:1012500001219047206A401C2062B8F10108F2D2B7
:101260002046FFF71BF909B00320BDE8F08F206A84
:101270002844206203E0D4E90121302090476D1E0C
:10128000EBD3F8E782A7000002FCFFFF10B543692B
:1012900013B1AFF3008001E0FFF723F9012010BD87
:1012A000127800F124010A7000224A700122EDE751
:1012B00011684FF0FF32E9E710B5436913B1AFF39E
:1012C000008001E0FFF7A4F9012010BD128800F1B1
:1012D000240182840022C2840122EDE711684FF0CC
:1012E000FF32E9E72DE9F04116460C46054600F0CD
:1012F00055F8036893F80101012807D0FF2C12D894
:10130000185D80B101202C70BDE8F081D3F8070191
:101310003246214603F20713C7182846BC46BDE8EB
:10132000F041002360474FF0FF30EDE710B500209B
:1013300000F0FBF8FEF784FFBDE81040012000F04C
:1013400001B8000001491820ABBEFEE726000200EC
:10135000754600F0F1F8AE4605006946534620F0A8
:101360000700854618B020B5FEF78AFFBDE820408B
:101370004FF000064FF000074FF000084FF0000B51
:10138000AC46ACE8C009ACE8C009ACE8C009ACE8C0
:10139000C00921F007018D467047000010B500F02C
:1013A00005F8001D10BD00BFDD9C0000004870471F
:1013B000480000202DE9F0411F460446032601683D
:1013C000072A01F4006004DB08B116A505E016A5A4
:1013D00003E008B115A500E015A521F0100020607C
:1013E000A069C01EA0610FB1401EA0612046FFF79A
:1013F0003FF84FB1D4E9012138469047206A401C9C
:101400002062C01C206206E0206AFAE7D4E90121CC
:1014100015F8010B9047761EF8D22046FFF73EF8EC
:10142000BDE8F0814E414E006E616E00494E4600AF
:10143000696E66002DE9F047814616468AB0354848
:1014400078440DC88DE80D0032487844801C03AC08
:101450000DC884E80D0041F69B300844372190FB0D
:10146000F1F290FBF1F5A5F1800501FB12041B3CA4
:1014700002D56442012000E00020DFF898A08046F9
:101480000027FA44AAF1BE0A0EE0E0070AD032466D
:10149000684607EB470101230AEB810109F089FC4B
:1014A0008DE8070064107F1C002CEED1194F7F449B
:1014B000AE3F19E0E80715D007EB04100DF1180A4C
:1014C00090E80E008AE80E00C068F04201D1981939
:1014D00008903246012306A903A809F06AFC03AB71
:1014E00083E807006D10641C002DE3D14FF0010369
:1014F00032466946B8F1000F03A802D009F044FC57
:1015000001E009F056FCC9E90001C9F808200AB059
:10151000BDE8F08768A4000010B50446AFF3008072
:101520002046BDE81040FEF796BE10B500F00EF85C
:10153000BDE8104000F005B80048704728000020C2
:101540007047002801D0FFF7FDBE704710B500219D
:1015500002A000F053F8012010BD0000534947419C
:101560004252543A2041626E6F726D616C20746514
:10157000726D696E6174696F6E0000004FF0013C1E
:1015800050F8042B51F8043B9A4221D1A2EB0C03F2
:10159000934313EACC1317D150F8042B51F8043BB2
:1015A0009A4215D1A2EB0C03934313EACC130BD14F
:1015B00050F8042B51F8043B9A4209D1A2EB0C03DA
:1015C000934313EACC13DBD04FF00000704700BF09
:1015D000D01A01BAB1FA81F101F0180122FA01F032
:1015E000CB40DBB2C0B2C01AC1F120012CFA01F32A
:1015F000D11A914311EAC311E6D1704770B505467F
:101600000C460A2000E06D1C00F011F835B1287876
:101610000028F8D102E0641C00F009F814B1207829
:101620000028F8D1BDE870400A20AFF3008008B56B
:1016300069468DF800000320ABBE08BD80B584B0BC
:10164000029000200190029800688068C00770B383
:10165000FFE702980168886820F00100886001F0C7
:1016600077F90190FFE7029800688068C007E8B149
:10167000FFE701F06DF90199401A032815D3FFE740
:10168000029800688068C00770B1FFE70299886A15
:1016900040F0100088620299C86A40F00100C862F8
:1016A00001208DF80F0006E0FFE7DCE7FFE70020F0
:1016B0008DF80F00FFE79DF80F0004B080BD00001B
:1016C00080B582B001900198406A00900098806ACD
:1016D00010F0500F28D1FFE70099886A40F400709D
:1016E000886200980068806800F46020B0F5602F80
:1016F00016D1FFE70098007B90B9FFE70099886A50
:1017000020F4807088620098806AC004002806D4A3
:10171000FFE70099886A40F001008862FFE7FFE771
:10172000009800F0B7F905E00098006A016B019895
:101730008847FFE702B080BD80B582B00190019874
:10174000406A00900099886A40F0400088620099E1
:10175000C86A40F00400C862009800F0A3F902B023
:1017600080BD000080B582B001900198406A009071
:10177000009800F093F902B080BD000080B584B0FD
:101780000290002001900090029800688068C007D5
:10179000002849D1FFE702980168886840F00100FD
:1017A000886040F20000C2F2000000684DF68361DC
:1017B000C4F21B31A0FB0110800C0090FFE70098E1
:1017C00020B1FFE7009801380090F8E701F0C0F879
:1017D0000190FFE7029800688068C00718BBFFE728
:1017E00001F0B6F80199401A03281BD3FFE70298CD
:1017F00000688068C007A0B9FFE70299886A40F0D6
:10180000100088620299C86A40F00100C862FFE7D0
:101810000299002081F82400FFE701208DF80F00D5
:1018200006E0FFE7D6E7FFE700208DF80F00FFE7AF
:101830009DF80F0004B080BDFFE7FEE780B540F2E1
:10184000FC30C2F2000000F0D9FC80BD80B540F24F
:10185000C840C2F2000000F0D1FC80BD80B540F26B
:101860004040C2F2000000F0C9FC80BD80B540F2EB
:101870008440C2F2000000F0C1FC80BD84B003903F
:101880000291019200930398C16B026C0120904079
:1018900048600098039909684860039840681028D8
:1018A00009D1FFE7019803990968886002980399B4
:1018B0000968C86008E0029803990968886001987F
:1018C00003990968C860FFE704B0704770470000DB
:1018D00081B0EFF3108072B60090FFE7FEE70000E2
:1018E00085B00390029100208DF807000090FFE77B
:1018F000039890F82400012804D1FFE702208DF816
:101900001300C3E00399012081F82400FFE7FFE7FB
:1019100002984068062812D8FFE703980068406BD9
:10192000029A1168526802EB8202053A1F23934023
:1019300098439140084303990968486329E0029855
:1019400040680C2812D8FFE703980068006B029AE1
:101950001168526802EB8202233A1F239340984396
:101960009140084303990968086311E003980068EF
:10197000C06A029A1168526802EB8202413A1F2340
:10198000934098439140084303990968C862FFE770
:10199000FFE7029800680A2812D3FFE7039800685F
:1019A000C06802990A68896802EB42021E3A07235E
:1019B000934098439140084303990968C86010E038
:1019C00003980068006902990A68896802EB42027C
:1019D000072393409843914008430399096808619D
:1019E000FFE702980068102805D0FFE7029800681A
:1019F000112840D1FFE70398006842F20041C4F289
:101A0000010188422DD1FFE7039800688068000239
:101A1000002825D4FFE703980168886840F4000097
:101A2000886002980068102819D1FFE740F2000092
:101A3000C2F2000000684DF68361C4F21B31A0FBC6
:101A40000110800C00EB800040000090FFE7009840
:101A500020B1FFE7009801380090F8E7FFE7FFE7C3
:101A600008E00399886A40F02000886201208DF820
:101A70000700FFE7FFE7FFE70399002081F8240054
:101A8000FFE79DF807008DF81300FFE79DF81300AE
:101A900005B0704781B0009001B0704781B00090F0
:101AA00001B0704781B0009001B0704780B588B038
:101AB000069000208DF8170004900390029006987D
:101AC00020B9FFE701208DF81F00F4E00698806838
:101AD00030B1FFE70698007D08B1FFE7FFE7FFE7B9
:101AE0000698806A50B9FFE706990020C8620699F7
:101AF00081F82400069800F0E3F8FFE70698FFF766
:101B00009DFD8DF817000698806AC006002800F138
:101B1000C480FFE79DF81700002840F0BE80FFE773
:101B20000698806A40F0020020F488500699886286
:101B300006994868CA691043097B40EA4101039845
:101B400008430390069881680120B1F5807F0190D9
:101B500008D0FFE7069880680138B0FA80F04009A5
:101B60000190FFE701990498CA0740F48071002AA8
:101B700018BF084604900698007D01281ED1FFE793
:101B80000698007B70B9FFE7069881694EF2000065
:101B9000CFF6FF7000EB41300499084340F4006039
:101BA00004900AE00699886A40F02000886206994D
:101BB000C86A40F00100C862FFE7FFE706980068C6
:101BC000406820F469400499084306990968486010
:101BD0000698006880684FF2FD71CFF6E171084009
:101BE000039908430699096888600698816801206E
:101BF000B1F5807F009008D0FFE706988068013833
:101C0000B0FA80F040090090FFE7009800F0010072
:101C1000002818BF4FF48070B0F5807F09D1FFE72E
:101C2000069801690020CFF6F07000EB0150029099
:101C3000FFE706980068C06A20F470000299084324
:101C400006990968C86206980068806840F6FE61D7
:101C5000CFF61F710840039988420CD1FFE706991F
:101C60000020C8620698806A40F0010020F002005F
:101C70000699886210E00698806A40F0100020F013
:101C80000200069988620699C86A40F00100C8629D
:101C900001208DF81700FFE708E00699886A40F0F8
:101CA0001000886201208DF81700FFE79DF81700EB
:101CB0008DF81F00FFE79DF81F0008B080BD0000F1
:101CC00080B588B00790002006900590049003909E
:101CD0000798006842F20041C4F20101884252D1E3
:101CE000FFE7FFE741F21800C4F20200016841F487
:101CF00000710160006800F4007002900298FFE734
:101D0000FFE741F21800C4F20200016841F004014B
:101D10000160006800F0040001900198FFE7732063
:101D200003900320049040F60000C4F2010003A9D0
:101D300000F066FC40F2FC30C2F200000090082186
:101D4000C4F2020101600021416081608022C26012
:101D50004FF4807202614FF400624261202282617E
:101D6000C16100F08FFB18B1FFE7FFF7B1FDFFE79E
:101D7000FFE7079840F2FC31C2F2000101620798C8
:101D80004862FFE7FFE708B080BD000080B586B07D
:101D900004900391029200208DF8070004980068D7
:101DA00042F20041C4F20101884209D0FFE70498E1
:101DB000006842F60001C4F20101884209D1FFE740
:101DC00042F20440C4F20100006800F47020009068
:101DD00002E000200090FFE70098002840F0DC803F
:101DE000FFE7FFE7049890F82400012804D1FFE7FB
:101DF00002208DF81700D8E00499012081F8240012
:101E0000FFE7FFE70498FFF7B9FC8DF807009DF89E
:101E10000700002840F0B880FFE70498806A40F48B
:101E2000807040F6016188430499886204980068D4
:101E300042F60001C4F20101884209D1FFE742F2F3
:101E40000440C4F20100006810F4702F03D018E0C1
:101E50000020B0B9FFE70499886A20F480108862F6
:101E60000498006840684005002809D5FFE70498F9
:101E7000806A40F4805020F4005004998862FFE7A3
:101E80002CE00499886A40F4801088620498006805
:101E900042F20041C4F20101884209D0FFE70498F0
:101EA000006842F60001C4F20101884209D1FFE74F
:101EB00042F20440C4F2010000684005002803D447
:101EC0000BE0012048B9FFE70498806A40F4805095
:101ED00020F4005004998862FFE7FFE70498806AC5
:101EE000C004002806D5FFE70499C86A20F0060060
:101EF000C86203E004990020C862FFE7FFE7049985
:101F0000002081F82400FFE70498016A41F2C160D3
:101F1000C0F6000088620498016A41F26570C0F65C
:101F20000000C8620498016A41F23970C0F60000EE
:101F30000863049801686FF0020008600498016863
:101F4000886840F48070886004980168006A4C31A9
:101F5000039A029B00F0EEFA04980068806800F48F
:101F60006020B0F5602F07D1FFE70498016888680A
:101F700040F4A000886006E004980168886840F496
:101F800080108860FFE706E0FFE70499002081F8F1
:101F90002400FFE7FFE703E001208DF80700FFE7DB
:101FA0009DF807008DF81700FFE79DF8170006B0B1
:101FB00080BD000080B584B0029000208DF807003D
:101FC000FFE7029890F82400012804D1FFE70220DF
:101FD0008DF80F0041E00299012081F82400FFE70D
:101FE000FFE70298FFF72AFB8DF807009DF807002E
:101FF00040BBFFE702980168886820F48070886021
:102000000298006A90F8210002281AD1FFE702988E
:10201000006A00F027F88DF807009DF8070048B91E
:10202000FFE70298806A40F0010020F4885002998E
:10203000886205E00299886A40F040008862FFE704
:10204000FFE7FFE7FFE70299002081F82400FFE7A0
:102050009DF807008DF80F00FFE79DF80F0004B012
:1020600080BD000083B0019000208DF8030001982E
:1020700090F8210002280DD0FFE701990420886321
:10208000FFE70199002081F82000FFE701208DF88B
:102090000B0021E001980168086820F00E0008603C
:1020A00001980168086820F0010008600198C16B80
:1020B000026C012090404860FFE70199012081F8FF
:1020C0002100FFE70199002081F82000FFE79DF83B
:1020D00003008DF80B00FFE79DF80B0003B070477D
:1020E00080B588B0079000208DF81B00079890F805
:1020F0002100022807D0FFE7079904208863012008
:102100008DF81B0076E007980168086820F00E0043
:10211000086007980168086820F0010008600798C7
:1021200000680821C4F20201884203D1FFE70120C0
:10213000059047E0079800681C21C4F2020188421C
:1021400003D1FFE71020049039E0079800683021A0
:10215000C4F20201884204D1FFE74FF4807003907B
:102160002AE0079800684421C4F20201884204D1A1
:10217000FFE74FF4805002901BE007980068582159
:10218000C4F20201884204D1FFE74FF4803001908D
:102190000CE0079801686C22C4F202024FF08070D4
:1021A000914208BF4FF480100190FFE70198029020
:1021B000FFE702980390FFE703980490FFE7049875
:1021C0000590FFE705980421C4F202010860079911
:1021D000012081F82100FFE70799002081F8200005
:1021E000FFE70798406B20B1FFE70798416B8847EE
:1021F000FFE7FFE79DF81B0008B080BD80B58EB0FB
:102200000D900D98C06B00680C900D9800680068E8
:102210000B900C980D99096CC8404007002875D5A3
:10222000FFE79DF82C00400700286FD5FFE70D98C9
:10223000006800688006002807D4FFE70D98016851
:10224000086820F004000860FFE70D980068082186
:10225000C4F20201884203D1FFE704200A9047E05C
:102260000D9800681C21C4F20201884203D1FFE7E7
:102270004020099039E00D9800683021C4F2020135
:10228000884204D1FFE74FF4806008902AE00D985F
:1022900000684421C4F20201884204D1FFE74FF4F0
:1022A000804007901BE00D9800685821C4F202019D
:1022B000884204D1FFE74FF4802006900CE00D988F
:1022C00001686C22C4F202024FF08060914208BFA4
:1022D0004FF480000690FFE706980790FFE7079805
:1022E0000890FFE708980990FFE709980A90FFE730
:1022F0000A980421C4F2020108600D98C06A20B156
:10230000FFE70D98C16A8847FFE7B8E00C980D9980
:10231000096CC8408007002840F18080FFE79DF8E5
:102320002C008007002879D5FFE70D980068006829
:10233000800600280BD4FFE70D980168086820F09C
:102340000A0008600D99012081F82100FFE70D982F
:1023500000680821C4F20201884203D1FFE702208D
:10236000059047E00D9800681C21C4F202018842E4
:1023700003D1FFE72020049039E00D980068302158
:10238000C4F20201884204D1FFE74FF400700390C9
:102390002AE00D9800684421C4F20201884204D169
:1023A000FFE74FF4005002901BE00D9800685821A1
:1023B000C4F20201884204D1FFE74FF400300190DB
:1023C0000CE00D9801686C22C4F202024FF000701C
:1023D000914208BF4FF400100190FFE7019802906E
:1023E000FFE702980390FFE703980490FFE7049843
:1023F0000590FFE705980421C4F202010860FFE799
:102400000D99002081F82000FFE70D98806A20B127
:10241000FFE70D98816A8847FFE72FE00C980D9938
:10242000096CC8400007002827D5FFE79DF82C005D
:102430000007002821D5FFE70D980168086820F003
:102440000E0008600D98C26B016C012000FA01F1CA
:1024500051600D9988630D9981F82100FFE70D996E
:10246000002081F82000FFE70D98006B20B1FFE706
:102470000D98016B8847FFE7FFE7FFE7FFE70EB026
:1024800080BD000083B0019000200090019820B929
:10249000FFE701208DF80B0047E0019908684FF62F
:1024A000F872CBF6FD7210444CF6CD42CCF6CC421D
:1024B000A0FB02026FF0030000EA92000864019999
:1024C0000020C4F20200C8630199022081F82100B3
:1024D0000198006800680090009843F6F071884306
:1024E000009001994868D1F808C0CB680A6940EAB1
:1024F0000C00184310434A6910438A691043C969A4
:102500000143009808430090009801990968086009
:10251000019900208863019A012182F82110019914
:1025200081F820008DF80B00FFE79DF80B0003B049
:102530007047000080B586B0049003910292019329
:1025400000208DF80300FFE7049890F82000012890
:1025500004D1FFE702208DF817004CE00499012018
:1025600081F82000FFE7FFE7049890F82100012898
:1025700032D1FFE70499022081F82100049900205C
:10258000886304980168086820F0010008600498D6
:102590000399029A019BFFF771F90498C06A38B158
:1025A000FFE704980168086840F00E0008600CE03E
:1025B00004980168086820F0040008600498016825
:1025C000086840F00A000860FFE70498016808689E
:1025D00040F00100086009E0FFE70499002081F85D
:1025E0002000FFE702208DF80300FFE79DF80300BD
:1025F0008DF81700FFE79DF8170006B080BD0000BA
:1026000090B00F900E9100200D900990FFE70E986A
:1026100000680D99C840002800F07F81FFE70D9900
:10262000012088400C900E9800680C9908400B908F
:102630000B980C99884240F06C81FFE70E98406837
:102640000590002851D0FFE7059801283AD0FFE710
:10265000059802283FD0FFE7059803285FD0FFE7E1
:102660000598112832D0FFE70598122838D0FFE7E7
:1026700005980021C1F21101884236D0FFE7059884
:102680000021C1F2120188422FD0FFE705980021F6
:10269000C1F22101884228D0FFE705980021C1F24C
:1026A0002201884221D0FFE705980021C1F23101C3
:1026B00088421AD0FFE705980021C1F23201884212
:1026C00013D02FE00E98C06809902CE00E98C068D7
:1026D0000430099027E00E98C0680830099022E085
:1026E0000E98C0680C3009901DE00E98806818B9EB
:1026F000FFE70420099011E00E988068012806D1B8
:10270000FFE7082009900C980F99086105E0082060
:1027100009900C980F994861FFE7FFE703E000205C
:10272000099000E0FFE70B98FF2803D8FFE70F9818
:10273000049003E00F9804300490FFE70498089099
:102740000B98FF2804D8FFE70D988000039006E05F
:102750000D996FF01F0000EB81000390FFE70398D5
:10276000079008980068079A0F21914088430999BB
:1027700091400843089908600E98C079C006002867
:1027800040F1C680FFE7FFE741F21800C4F2020003
:10279000016841F001010160006800F0010006904D
:1027A0000698FFE70D9820F003000821C4F201010C
:1027B00040580A900D9800F0030081000F2000FAA5
:1027C00001F10A9888430A900F9840F60001C4F27C
:1027D0000101884203D1FFE70020029026E00F9814
:1027E00040F60041C4F20101884203D1FFE7012015
:1027F000019018E00F9841F20001C4F201018842F3
:1028000003D1FFE7022000900AE00F9941F2004255
:10281000C4F201020420914208BF03200090FFE7A8
:1028200000980190FFE701980290FFE702980D9948
:1028300001F00301890000FA01F10A9808430A90A7
:102840000A980D9921F003010822C4F20102885070
:102850000E988079C006002809D5FFE70B9A40F250
:102860000841C4F2010108681043086008E00B9AAF
:1028700040F20841C4F20101086890430860FFE794
:102880000E9880798006002809D5FFE70B9A40F260
:102890000C41C4F2010108681043086008E00B9A7B
:1028A00040F20C41C4F20101086890430860FFE760
:1028B0000E9880798007002809D5FFE70B9A40F22F
:1028C0000441C4F2010108681043086008E00B9A53
:1028D00040F20441C4F20101086890430860FFE738
:1028E0000E988079C00748B1FFE70B9A40F200418B
:1028F000C4F2010108681043086008E00B9A40F236
:102900000041C4F20101086890430860FFE7FFE757
:10291000FFE70D9801300D9079E610B07047000088
:1029200082B00190ADF802108DF801209DF80100F1
:1029300028B1FFE7BDF802000199086105E0BDF884
:102940000200000401990861FFE702B0704700002F
:1029500043F25C10C2F200000068704740F20400CD
:10296000C2F20000027843F25C11C2F20001086872
:10297000104408607047000080B542F20001C4F2C4
:102980000201086840F010000860032000F0D4F84D
:102990000F2000F005F800F071F8002080BD000065
:1029A00080B58CB00B900020059004908DF80B0042
:1029B000FFE741F21800C4F20200016841F400612F
:1029C0000160006800F4006001900198FFE706A82C
:1029D00003A900F0C9FA00F009FB059005984DF62F
:1029E0008361C4F21B31A0FB01014FF0FF3000EB0B
:1029F0009140049040F20C50C2F2000042F60041B7
:102A0000C4F20101016040F2E731C1600499416004
:102A1000002101618160816100F09EFE8DF80B0054
:102A20009DF80B0028BBFFE740F20C50C2F20000FB
:102A300000F0E4FE8DF80B009DF80B00C0B9FFE735
:102A4000192000F055F80B980F280CD8FFE70B99C8
:102A50001920002200F056F80B9840F20801C2F24B
:102A60000001086003E001208DF80B00FFE7FFE79D
:102A7000FFE79DF80B000CB080BD000080B584B06E
:102A8000FFE741F21800C4F20200016841F00101C1
:102A90000160006800F0010003900398FFE7FFE782
:102AA00041F21C00C4F20200016841F08051016053
:102AB000006800F0805002900298FFE76FF001007C
:102AC0000F21002200F01EF8FFE70421C4F20101EB
:102AD00008680190019820F0E0600190019840F0B2
:102AE0000070019001980860FFE704B080BD00000D
:102AF00080B582B08DF807009DF9070004F0C2FD93
:102B000002B080BD80B586B08DF8170004910392A5
:102B10000020029004F0CEFD02909DF91700019074
:102B200002980499039A01F0BBFF0146019804F052
:102B3000C9FD06B080BD000080B582B0019001984B
:102B400004F004FE02B080BD80B586B00490002081
:102B50000390029004980078C007002800F0AC8031
:102B6000FFE700208DF8070041F21C00C4F20200CC
:102B70000068C000002813D4FFE7FFE741F21C0003
:102B8000C4F20200016841F080510160006800F069
:102B9000805000900098FFE701208DF80700FFE7C4
:102BA00047F20000C4F200000068C005002822D4EB
:102BB000FFE747F20001C4F20001086840F48070AA
:102BC0000860FFF7C5FE0390FFE747F20000C4F27C
:102BD00000000068C00500280CD4FFE7FFF7B8FE2E
:102BE0000399401A652804D3FFE703208DF81700E6
:102BF0008AE0EAE7FFE741F22000C4F20200006841
:102C000000F4407002900298E0B3FFE70298049944
:102C1000496801F44071884234D0FFE741F2200155
:102C2000C4F20201086820F44070029040F2404271
:102C3000C4F2422201201060002010600298086057
:102C40009DF80800C007E0B1FFE7FFF781FE0390A1
:102C5000FFE741F22000C4F202000068800700286C
:102C60000ED4FFE7FFF774FE0399401A41F2893151
:102C7000884204D3FFE703208DF8170044E0E8E71B
:102C8000FFE7FFE741F22001C4F20201086820F4E7
:102C90004070049A5268104308609DF807000128AC
:102CA00009D1FFE741F21C01C4F20201086820F0DB
:102CB00080500860FFE7FFE704980078800700284D
:102CC0000CD5FFE741F20401C4F20201086820F4C8
:102CD0004040049A926810430860FFE70498007827
:102CE000C00600280CD5FFE741F20401C4F202013E
:102CF000086820F48000049AD26810430860FFE757
:102D000000208DF81700FFE79DF8170006B080BD82
:102D100080B584B002900191029820B9FFE70120AC
:102D20008DF80F001BE1019842F20001C4F202018C
:102D3000096801F00701884216D9FFE742F2000056
:102D4000C4F20200016821F00701019A11430160F9
:102D5000006800F007000199884204D0FFE70120D5
:102D60008DF80F00FBE0FFE702980078800700284D
:102D70002AD5FFE7029800784007002809D5FFE729
:102D800041F20401C4F20201086840F4E060086006
:102D9000FFE7029800780007002809D5FFE741F215
:102DA0000401C4F20201086840F460500860FFE7C3
:102DB00041F20401C4F20201086820F0F000029A16
:102DC000926810430860FFE702980078C007002867
:102DD00060D0FFE70298406801280ED1FFE741F27A
:102DE0000000C4F2020000688003002804D4FFE75A
:102DF00001208DF80F00B2E021E00298406802281F
:102E00000ED1FFE741F20000C4F202000068800129
:102E1000002804D4FFE701208DF80F009FE00DE0AB
:102E200041F20000C4F2020000688007002804D4C8
:102E3000FFE701208DF80F0091E0FFE7FFE741F287
:102E40000401C4F20201086820F00300029A5268EB
:102E500010430860FFF77CFD0090FFE741F204009B
:102E6000C4F20200006800F00C0002994968B0EB5F
:102E7000810F0ED0FFE7FFF76BFD0099401A41F27A
:102E80008931884204D3FFE703208DF80F0066E004
:102E9000E4E7FFE7019842F20001C4F20201096889
:102EA00001F00701884216D2FFE742F20000C4F2A7
:102EB0000200016821F00701019A114301600068D6
:102EC00000F007000199884204D0FFE701208DF847
:102ED0000F0044E0FFE702980078400700280CD577
:102EE000FFE741F20401C4F20201086820F4E06047
:102EF000029AD26810430860FFE702980078000742
:102F000000280DD5FFE741F20401C4F20201086870
:102F100020F46050029A126940EAC2000860FFE79C
:102F200000F076F841F20401C4F202010968C9B266
:102F30000A094BF6E801C0F60001895CC84040F27E
:102F40000001C2F20001086040F20800C2F2000075
:102F50000068FFF725FD00208DF80F00FFE79DF8C2
:102F60000F0004B080BD000082B001900091019973
:102F70000F20086041F20400C4F20200016801F071
:102F80000301019A5160016801F0F001019A91601A
:102F9000016801F4E061019AD160006800F46050BA
:102FA000C0080199086142F20000C4F20200006802
:102FB00000F007000099086002B0704740F200007E
:102FC000C2F200000068704780B5FFF7F7FF41F2DA
:102FD0000401C4F202010968C1F302224BF6F801B0
:102FE000C0F60001895CC84080BD000080B5FFF7D5
:102FF000E5FF41F20401C4F202010968C1F3C222F3
:103000004BF6F801C0F60001895CC84080BD0000A5
:1030100086B000200590049003900290019041F248
:103020000400C4F2020000680590059800F00C004E
:103030000146009100283FD0FFE70098042804D003
:10304000FFE70098082806D037E041F20020C0F2E0
:103050007A00019037E00598C0F383414BF62410C5
:10306000C0F60000405C02909DF81600C007C0B199
:10307000FFE741F20400C4F202000068C0F34041DF
:103080004BF63410C0F60000405C0490029841F208
:103090000021C0F27A0148430499B0FBF1F003909B
:1030A00007E0029840F60011C0F23D01484303904A
:1030B000FFE70398019006E0FFE741F20020C0F22D
:1030C0007A000190FFE7019806B0704780B586B09E
:1030D0000490049820B9FFE701208DF817002EE333
:1030E00004980078C007002800F0AE80FFE741F2A6
:1030F0000400C4F20200006800F00C00042813D0A1
:10310000FFE741F20400C4F20200006800F00C0086
:1031100008281BD1FFE741F20400C4F20200006856
:10312000C003002812D5FFE741F20000C4F20200FC
:1031300000688003002808D5FFE70498406820B99C
:10314000FFE701208DF81700F9E27CE0FFE7049823
:103150004068B0F5803F09D1FFE741F20001C4F2B9
:103160000201086840F48030086032E0049840684A
:1031700068B9FFE741F20001C4F20201086820F4D7
:1031800080300860086820F48020086020E00498FF
:103190004068B0F5A02F0DD1FFE741F20001C4F265
:1031A0000201086840F480200860086840F480301C
:1031B00008600CE041F20001C4F20201086820F44A
:1031C00080300860086820F480200860FFE7FFE78F
:1031D000FFE7FFE704984068D0B1FFE7FFF7B8FBCF
:1031E0000390FFE741F20000C4F202000068800390
:1031F00000280CD4FFE7FFF7ABFB0399401A6528C2
:1032000004D3FFE703208DF8170098E2EAE719E0FE
:10321000FFF79EFB0390FFE741F20000C4F20200BB
:103220000068800300280CD5FFE7FFF791FB0399A6
:10323000401A652804D3FFE703208DF817007EE2CB
:10324000EAE7FFE7FFE7FFE7049800788007002838
:1032500040F18D80FFE741F20400C4F202000068F3
:1032600010F00C0F13D0FFE741F20400C4F202008B
:10327000006800F00C00082829D1FFE741F20400A3
:10328000C4F202000068C003002820D4FFE741F226
:103290000000C4F2020000688007002809D5FFE79B
:1032A00004980069012804D0FFE701208DF8170079
:1032B00045E241F20001C4F20201086820F0F80082
:1032C000049A526940EAC2000860FFE74EE00498A1
:1032D000006958B3FFE70021C4F2422101200860D1
:1032E000FFF736FB0390FFE741F20000C4F2020053
:1032F0000068800700280CD4FFE7FFF729FB03993B
:10330000401A032804D3FFE703208DF8170016E2C4
:10331000EAE741F20001C4F20201086820F0F80077
:10332000049A526940EAC20008601EE00021C4F21B
:10333000422100200860FFF70BFB0390FFE741F2FA
:103340000000C4F202000068800700280CD5FFE7E7
:10335000FFF7FEFA0399401A032804D3FFE703207E
:103360008DF81700EBE1EAE7FFE7FFE7FFE70498D6
:1033700000780007002848D5FFE70498806918B353
:10338000FFE740F28041C4F2422101200860FFF7CC
:10339000DFFA0390FFE741F22400C4F20200006864
:1033A000800700280CD4FFE7FFF7D2FA0399401AF0
:1033B000032804D3FFE703208DF81700BFE1EAE7F5
:1033C000012001F0C7FB1FE040F28041C4F242211E
:1033D00000200860FFF7BCFA0390FFE741F22400E9
:1033E000C4F202000068800700280CD5FFE7FFF751
:1033F000AFFA0399401A032804D3FFE703208DF89E
:1034000017009CE1EAE7FFE7FFE704980078400730
:10341000002840F1D880FFE700208DF8070041F236
:103420001C00C4F202000068C000002813D4FFE7AB
:10343000FFE741F21C00C4F20200016841F0805134
:103440000160006800F0805000900098FFE70120C4
:103450008DF80700FFE747F20000C4F200000068A3
:10346000C005002822D4FFE747F20001C4F20001A2
:10347000086840F480700860FFF76AFA0390FFE77D
:1034800047F20000C4F200000068C00500280CD418
:10349000FFE7FFF75DFA0399401A652804D3FFE7B9
:1034A00003208DF817004AE1EAE7FFE7FFE70498F9
:1034B000C068012809D1FFE741F22001C4F20201EE
:1034C000086840F00100086031E00498C06868B9FD
:1034D000FFE741F22001C4F20201086820F0010078
:1034E0000860086820F0040008601FE00498C068C5
:1034F00005280DD1FFE741F22001C4F2020108685E
:1035000040F004000860086840F0010008600CE02A
:1035100041F22001C4F20201086820F001000860B5
:10352000086820F004000860FFE7FFE7FFE7FFE717
:103530000498C068E0B1FFE7FFF70AFA0390FFE7DD
:1035400041F22000C4F202000068800700280ED477
:10355000FFE7FFF7FDF90399401A41F289318842EC
:1035600004D3FFE703208DF81700E8E0E8E71BE04D
:10357000FFF7EEF90390FFE741F22000C4F20200EA
:103580000068800700280ED5FFE7FFF7E1F90399EF
:10359000401A41F28931884204D3FFE703208DF8B5
:1035A0001700CCE0E8E7FFE79DF80700012809D104
:1035B000FFE741F21C01C4F20201086820F08050CC
:1035C0000860FFE7FFE70498C069002800F0B380B7
:1035D000FFE741F20400C4F20200006800F00C00B2
:1035E000082800F08280FFE70498C06902285CD1B7
:1035F000FFE76021C4F2422100200860FFF7A8F92C
:103600000390FFE741F20000C4F20200006880016D
:1036100000280CD5FFE7FFF79BF90399401A032810
:1036200004D3FFE703208DF8170088E0EAE7049849
:10363000006AB0F5803F0CD1FFE741F20401C4F20B
:103640000201086820F40030049A92681043086070
:10365000FFE741F20401C4F20201086820F474108B
:10366000049B1A6A5B6A1A43104308606021C4F223
:10367000422101200860FFF76BF90390FFE741F258
:103680000000C4F202000068800100280CD4FFE7AB
:10369000FFF75EF90399401A032804D3FFE70320DC
:1036A0008DF817004BE0EAE71EE06021C4F24221EA
:1036B00000200860FFF74CF90390FFE741F200009B
:1036C000C4F202000068800100280CD5FFE7FFF774
:1036D0003FF90399401A032804D3FFE703208DF82C
:1036E00017002CE0EAE7FFE724E00498C06901280E
:1036F00004D1FFE701208DF8170020E041F204001B
:10370000C4F2020000680290029800F4803004992C
:10371000096A884208D1FFE7029800F47010049902
:10372000496A884204D0FFE701208DF8170006E0BF
:10373000FFE7FFE7FFE700208DF81700FFE79DF8A0
:10374000170006B080BD000081B0009001B0704746
:1037500081B0009001B0704780B582B000900098B1
:1037600020B9FFE701208DF807003FE0009890F8AE
:103770003D0040B9FFE70099002081F83C00009827
:1037800000F038F8FFE70099022081F83D00009929
:1037900051F8040B01F080FA0099012081F84600ED
:1037A000FFE70099012081F83E00009981F83F0071
:1037B000009981F84000009981F84100FFE7FFE798
:1037C0000099012081F84200009981F84300009996
:1037D00081F84400009981F84500FFE70099012035
:1037E00081F83D0000208DF80700FFE79DF80700F5
:1037F00002B080BD81B0009001B0704783B00190ED
:10380000019890F83D00012804D0FFE701208DF8D1
:103810000B0047E00199022081F83D000198016802
:10382000C86840F00100C8600198006842F6004195
:10383000C4F20101884218D0FFE701980068B0F196
:10384000804F12D0FFE70198006840F20041C4F2B7
:103850000001884209D0FFE70198006840F60001A6
:10386000C4F20001884212D1FFE701980068806825
:1038700000F0070000900098062807D0FFE70198A5
:103880000168086840F001000860FFE706E0019861
:103890000168086840F001000860FFE700208DF82B
:1038A0000B00FFE79DF80B0003B0704781B000905C
:1038B00001B0704780B584B0039003980068C06879
:1038C000029003980068006901909DF80400800749
:1038D000002824D5FFE79DF80800800700281DD5A3
:1038E000FFE7039801686FF0020008610399012067
:1038F0000877039800688069800720B1FFE7039884
:10390000FFF7D4FF06E0039800F0E2F8039800F018
:10391000E3F8FFE7039900200877FFE7FFE79DF84A
:1039200004004007002825D5FFE79DF80800400760
:1039300000281ED5FFE7039801686FF004000861B6
:1039400003990220087703980068806910F4407F8B
:1039500004D0FFE70398FFF7A9FF06E0039800F003
:10396000B7F8039800F0B8F8FFE70399002008774C
:10397000FFE7FFE79DF804000007002824D5FFE7D4
:103980009DF80800000700281DD5FFE7039801688F
:103990006FF0080008610399042008770398006815
:1039A000C069800720B1FFE70398FFF77FFF06E0BB
:1039B000039800F08DF8039800F08EF8FFE7039964
:1039C00000200877FFE7FFE79DF80400C006002805
:1039D00025D5FFE79DF80800C00600281ED5FFE7A3
:1039E000039801686FF010000861039908200877B8
:1039F00003980068C06910F4407F04D0FFE7039883
:103A0000FFF754FF06E0039800F062F8039800F017
:103A100063F8FFE7039900200877FFE7FFE79DF8C9
:103A20000400C00778B1FFE79DF80800C00748B15F
:103A3000FFE7039801686FF001000861039800F048
:103A40004FF8FFE7FFE79DF804000006002810D5B7
:103A5000FFE79DF808000006002809D5FFE7039856
:103A600001686FF0800008610398FFF76DFEFFE7C3
:103A7000FFE79DF804004006002810D5FFE79DF8F9
:103A800008004006002809D5FFE7039801686FF099
:103A900040000861039800F035F8FFE7FFE79DF864
:103AA00004008006002810D5FFE79DF80800800676
:103AB000002809D5FFE7039801686FF0200008612E
:103AC0000398FFF745FEFFE7FFE704B080BD000065
:103AD00081B0009001B0704781B0009001B0704794
:103AE00080B582B001900198006842F60041C4F2AE
:103AF0000101884203D1FFE7FEF730FFFFE702B084
:103B000080BD000081B0009001B0704782B001908C
:103B1000ADF8021002B0704781B0009001B070475C
:103B200080B592B0119011980068006810901198BB
:103B30000068C0680F901198006840690E900020DE
:103B40000D900C90109800F00F000D900D9888B912
:103B5000FFE79DF84000800600280AD5FFE79DF8A2
:103B60003C008006002804D5FFE7119801F086FA92
:103B7000E9E1FFE70D98002800F0C280FFE79DF81B
:103B80003800C00738B9FFE7BDF83C0010F4907F5B
:103B900000F0B680FFE79DF84000C00758B1FFE78E
:103BA0009DF83D00C00730B1FFE71199486C40F027
:103BB00001004864FFE79DF84000400700280BD54E
:103BC000FFE79DF83800C00730B1FFE71199486C56
:103BD00040F002004864FFE79DF84000800700289D
:103BE0000BD5FFE79DF83800C00730B1FFE711990A
:103BF000486C40F004004864FFE79DF8400000076F
:103C0000002811D5FFE79DF83C008006002805D468
:103C1000FFE79DF83800C00730B1FFE71199486C05
:103C200040F008004864FFE71198406C002866D017
:103C3000FFE79DF84000800600280AD5FFE79DF8C1
:103C40003C008006002804D5FFE7119801F016FA21
:103C5000FFE7119800684069C0F380100C9011983C
:103C6000406C0007002804D4FFE70C9800283ED0E1
:103C7000FFE7119801F088F9119800684069400643
:103C800000282FD5FFE7FFE7FFE71198006850E80D
:103C9000050F20F040000B90FFE70B991198026888
:103CA00042E805100028F0D1FFE7FFE71198C06B4C
:103CB00098B1FFE71198C16B44F65960C0F6000057
:103CC00048631198C06BFEF70BFA28B1FFE7119813
:103CD000C06B416B8847FFE703E01198FFF71CFFBB
:103CE000FFE703E01198FFF717FFFFE706E01198E1
:103CF000FFF712FF119900204864FFE7FFE722E178
:103D00001198006B012840F0FE80FFE79DF840000D
:103D1000C006002840F1F780FFE79DF83C00C00690
:103D2000002840F1F080FFE7FFE700200A9011989B
:103D3000006800680A901198006840680A900A9824
:103D4000FFE71198006840694006002840F1818033
:103D5000FFE71198C06B00684068ADF82600BDF819
:103D60002600002874D0FFE7BDF826001199898D40
:103D700088426DDAFFE7BDF826001199C8851198D1
:103D8000C06B8069202858D0FFE7FFE7FFE7119854
:103D9000006850E8030F20F480700890FFE708994E
:103DA0001198026842E803100028F0D1FFE7FFE70E
:103DB000FFE7FFE71198006850E8050F20F00100C9
:103DC0000790FFE707991198026842E8051000285C
:103DD000F0D1FFE7FFE7FFE7FFE71198006850E841
:103DE000050F20F040000690FFE706991198026841
:103DF00042E805100028F0D1FFE7FFE711992020E5
:103E000081F84200119900200863FFE7FFE711984D
:103E1000006850E8030F20F010000590FFE70599B7
:103E20001198026842E803100028F0D1FFE7FFE78D
:103E30001198C06BFEF716F9FFE71199022048634D
:103E40001198818DC28D891A89B2FFF75FFEFFE755
:103E500079E01199888DC98D401AADF8120011983A
:103E6000C08D00284ED0FFE7BDF81200002849D0D1
:103E7000FFE7FFE7FFE71198006850E8030F20F421
:103E800090700390FFE703991198026842E80310CD
:103E90000028F0D1FFE7FFE7FFE7FFE71198006890
:103EA00050E8050F20F001000290FFE702991198F9
:103EB000026842E805100028F0D1FFE7FFE71199FA
:103EC000202081F84200119900200863FFE7FFE7F6
:103ED0001198006850E8030F20F010000190FFE7F0
:103EE00001991198026842E803100028F0D1FFE719
:103EF000FFE71199022048631198BDF81210FFF7EF
:103F000005FEFFE71FE09DF84000000600280AD5E7
:103F1000FFE79DF83C000006002804D5FFE7119854
:103F200001F0F2F90FE09DF84000400600280AD5A4
:103F3000FFE79DF83C004006002804D5FFE71198F4
:103F400001F06CF8FFE712B080BD000080B582B0D0
:103F50000090009820B9FFE701208DF8070040E0AD
:103F60000098806908B1FFE700E0FFE7009890F84B
:103F7000410040B9FFE70099002081F84000009817
:103F800000F034F8FFE70099242081F84100009800
:103F90000168C86820F40050C860009801F024F956
:103FA00000980168086920F4904008610098016851
:103FB000486920F02A00486100980168C86840F408
:103FC0000050C860009900204864009A202182F8BF
:103FD0004110009A82F84210009948638DF807005A
:103FE000FFE79DF8070002B080BD000080B59AB0E1
:103FF0001990002018901790169015901998006845
:1040000043F60001C4F20101884267D1FFE7FFE7F0
:1040100041F21800C4F20200016841F480410160DD
:10402000006800F4804014901498FFE7FFE741F225
:104030001800C4F20200016841F004010160006848
:1040400000F0040013901398FFE74FF400701590F0
:10405000022016900320189040F60000C4F20100E0
:104060000B9015A90C91FEF7CBFA0B980C994FF415
:104070008062159200220D9216921792FEF7C0FAF6
:104080000D9940F24040C2F200000E904422C4F26A
:10409000020202601022426081608022C2600161DF
:1040A00041618161C161FEF7EDF918B1FFE7FDF7EC
:1040B0000FFCFFE7FFE7199840F24041C2F2000110
:1040C000816319984862FFE725200A9005210022A4
:1040D000FEF718FD0A98FEF70BFDDFE0199800685F
:1040E00044F20041C4F20001884265D1FFE7FFE7D6
:1040F00041F21C00C4F20200016841F40031016089
:10410000006800F4003012901298FFE7FFE741F2D8
:104110001800C4F20200016841F004010160006867
:1041200000F0040011901198FFE704201590022080
:1041300016900320189040F60000C4F2010006908B
:1041400015A90791FEF75CFA0698079908221592BF
:104150000022089216921792FEF752FA089940F23E
:104160008440C2F2000009908022C4F20202026080
:104170001022426081608022C260016141618161E0
:10418000C161FEF77FF918B1FFE7FDF7A1FBFFE77B
:10419000FFE7199840F28441C2F200018163199847
:1041A0004862FFE72620059005210022FEF7AAFCC1
:1041B0000598FEF79DFC70E01998006844F6000130
:1041C000C4F20001884267D1FFE7FFE741F21C001B
:1041D000C4F20200016841F480210160006800F42B
:1041E000802010901098FFE7FFE741F21800C4F21A
:1041F0000200016841F008010160006800F0080059
:104200000F900F98FFE74FF48060159002201690F2
:104210000320189040F60040C4F20100019015A957
:104220000291FEF7EDF9019802994FF400621592A0
:104230000022039216921792FEF7E2F9039940F2D8
:10424000C840C2F2000004901C22C4F202020260C4
:104250001022426081608022C260016141618161FF
:10426000C161FEF70FF918B1FFE7FDF731FBFFE77A
:10427000FFE7199840F2C841C2F200018163199822
:104280004862FFE72720009005210022FEF73AFC54
:104290000098FEF72DFCFFE7FFE7FFE71AB080BDAF
:1042A00080B584B002900191ADF80220029890F898
:1042B0004200202817D1FFE7019820B1FFE7BDF8A1
:1042C000020020B9FFE701208DF80F000FE00299EE
:1042D0000020086302980199BDF8022000F0E2FF77
:1042E0008DF80F0003E002208DF80F00FFE79DF826
:1042F0000F0004B080BD000080B58AB00990002096
:104300000890FFE7089840F20031C2F20001096806
:10431000884280F25781FFE7089940F2F020C2F20C
:10432000000050F8210080680999884240F04581DA
:10433000FFE7089940F2F020C2F2000050F8210097
:10434000806AD0B9FFE7089940F2F020C2F200007D
:1043500050F8210090F8220021280DD0FFE709989D
:10436000089A40F2F021C2F2000151F822102231E5
:104370000122FFF795FF25E1FFE7089940F2F020C1
:10438000C2F2000050F82100806A152821D8FFE70A
:10439000089940F2F020C2F2000050F8212092F873
:1043A0002210936A1A441173089950F8212092F848
:1043B000241082F82310089950F8212092F8221036
:1043C00082F82410089950F82110886A0130886218
:1043D00009E0089940F2F020C2F2000050F82100F4
:1043E00001F0B6F8FFE7089940F2F020C2F20000B1
:1043F00050F82100806A03282BD1FFE7089940F28A
:10440000F020C2F2000050F8210090F8230021288B
:104410001FD1FFE7089940F2F020C2F2000050F8E7
:10442000210090F82400402813D1FFE7089940F2BA
:10443000F020C2F2000050F82120916A1144C97A9C
:10444000D162089950F82110C86A063081F830000E
:10445000FFE7089940F2F020C2F2000050F8210076
:1044600090F82300262840F09A80FFE7089940F250
:10447000F020C2F2000050F8210090F824002A2811
:1044800040F08D80FFE7089940F2F020C2F2000072
:1044900050F82100806A012877DBFFE7089940F295
:1044A000F020C2F2000050F82110097B8DF80A10AC
:1044B000089950F82110497B8DF80B10089950F895
:1044C0002110C97B8DF80C10089950F82100807BD1
:1044D0008DF80D0000200190FFE701989DF80C1069
:1044E000884213DAFFE7089940F2F020C2F2000098
:1044F00050F82100019A1044007C0DF10A0111448A
:104500000871FFE7019801300190E6E7089940F251
:10451000F020C2F2000050F82120916A1144897AFB
:104520008DF81E10089950F82120916A1144C97A1B
:104530008DF81F10089950F8210040680DF10A010C
:1045400000231A4603F004FB014640F68860C2F2DD
:10455000000001600068B8B1FFE7089940F2F02060
:10456000C2F20000009050F82100406803F052FBB6
:104570000098089950F8210040680DF10A010023C5
:104580001A4603F0E5FAFFE7FFE7089940F2F0204A
:10459000C2F2000050F8210000F0DAFF0CE00998A8
:1045A000089A40F2F021C2F2000151F822102231A3
:1045B0000122FFF775FEFFE704E0FFE708980130EE
:1045C00008909FE60AB080BD80B586B00490039144
:1045D000ADF80A20049890F8410020285DD1FFE74B
:1045E000039820B1FFE7BDF80A0020B9FFE70120DA
:1045F0008DF8170055E0039804990862BDF80A0089
:1046000004998884BDF80A000499C884049900209C
:104610004864049A212182F8411004998A6B44F677
:10462000F561C0F60001916204998A6B44F67171DC
:10463000C0F60001D16204998A6B44F67961C0F634
:10464000000111630499896B486303A801900498E1
:104650000268806B019909680432BDF80A30FDF7E1
:1046600069FF049801686FF040000860FFE7FFE70A
:104670000498006850E8050F40F080000090FFE7C4
:1046800000990498026842E805100028F0D1FFE77D
:10469000FFE700208DF8170003E002208DF81700D7
:1046A000FFE79DF8170006B080BD000081B00090C4
:1046B00001B0704781B0009001B07047FFE7FEE79E
:1046C00080B584B0002103910291019140F2CC3079
:1046D000C2F20000009042F20042C4F20102026005
:1046E0004FF4807282600122027301754FF46022E0
:1046F000C261416006210161FDF7D8F918B1FFE7F9
:10470000FDF7E6F8FFE71120019001200290062056
:10471000039040F2CC30C2F2000001A9FDF7E0F8AE
:1047200018B1FFE7FDF7D4F8FFE70520019002205C
:10473000029040F2CC30C2F2000001A9FDF7D0F89F
:1047400018B1FFE7FDF7C4F8FFE70120019003204F
:10475000029040F2CC30C2F2000001A9FDF7C0F88F
:1047600018B1FFE7FDF7B4F8FFE7042001900290CD
:1047700040F2CC30C2F2000001A9FDF7B1F818B147
:10478000FFE7FDF7A5F8FFE705200190029040F252
:10479000CC30C2F2000001A9FDF7A2F818B1FFE782
:1047A000FDF796F8FFE706200190029040F2CC302A
:1047B000C2F2000001A9FDF793F818B1FFE7FDF779
:1047C00087F8FFE704B080BD80B588B0FFE741F20D
:1047D0001400C4F20200016841F0010101600068A8
:1047E00000F0010007900798FFE70B2001900521DA
:1047F000049100220592FEF785F90198FEF778F9F9
:104800000499059A0C200290FEF77CF90298FEF7B5
:104810006FF90499059A0E200390FEF773F9039837
:10482000FEF766F90499059A11200690FEF76AF9D9
:104830000698FEF75DF908B080BD000080B582B033
:1048400044F6C530C0F600004BF6F012C0F6000288
:104850000021019103F0FEF9019940F29832C2F271
:104860000002106044F60960C0F600004BF63812F2
:10487000C0F6000203F0EEF9019940F2BC12C2F258
:104880000002106044F63160C0F600004BF65C1286
:10489000C0F6000203F0DEF9019940F2E822C2F20C
:1048A0000002106044F6E150C0F600004BF6001222
:1048B000C0F6000203F0CEF9019940F22012C2F2D4
:1048C0000002106044F6A150C0F600004BF6C4028E
:1048D000C0F6000203F0BEF940F28801C2F2000106
:1048E000086002B080BD000080B590B000200F903D
:1048F0000E900D900C90FFE741F21800C4F20200F8
:10490000016841F010010160006800F010000B9098
:104910000B98FFE7FFE741F21800C4F202000168BC
:1049200041F020010160006800F020000A900A9820
:10493000FFE7FFE741F21800C4F20200016841F00E
:1049400004010160006800F0040009900998FFE785
:10495000FFE741F21800C4F20200016841F00801CB
:104960000160006800F0080008900898FFE741F235
:104970000000C4F2010002904FF4005101910022A6
:104980000492FDF7CDFF049A40F60040C4F2010006
:10499000069001210391FDF7C3FF019B0298039A42
:1049A00004990C930D920E91022105910F910CA97F
:1049B0000791FDF725FEDDF80CC0049B059A0698CB
:1049C0000799CDF830C0CDF834C00E930F92FDF7A3
:1049D00017FE10B080BD000080B582B040F2545088
:1049E000C2F20000019043F60001C4F2010101602F
:1049F0004FF41651416000218160C16001610C22B9
:104A000042618161C161FFF7A1FA18B1FFE7FCF7CC
:104A10005FFFFFE702B080BD80B582B040F29C50DE
:104A2000C2F20000019044F20041C4F200010160B2
:104A30004FF4E131416000218160C16001610C22CD
:104A400042618161C161FFF781FA18B1FFE7FCF7AC
:104A50003FFFFFE702B080BD80B582B040F2E45076
:104A6000C2F20000019044F60001C4F200010160AE
:104A70004FF4E131416000218160C16001610C228D
:104A800042618161C161FFF761FA18B1FFE7FCF78C
:104A90001FFFFFE702B080BDFFE7FEE7FFE7FEE78D
:104AA00088B0079006910592079800F007000490DF
:104AB0000498C0F10700052803D3FFE70420019004
:104AC00004E00498C0F107000190FFE7019803900B
:104AD00004980430062803D8FFE70020009003E084
:104AE000049803380090FFE7009802900698039915
:104AF000012202FA01F101390840029B9840059910
:104B00009A40013A1140084308B070470000000085
:104B1000EFF30980BFF36F8F0D4B1A6820E9F00F98
:104B200010602DE908404FF0500080F3118804F028
:104B300001FD4FF0000080F31188BDE808401968BE
:104B40000868B0E8F00F80F30988BFF36F8F7047F3
:104B50008C09002082B00190019840F20001C2F25D
:104B600000010968C90844F6D352C1F26202A1FBF0
:104B70000221890948430090FFE700BFFFE7009842
:104B8000411E00910028F8D1FFE702B070470000F5
:104B9000074B19680868B0E8F00F80F30988BFF385
:104BA0006F8F4FF0000080F311884EF00D0E7047AC
:104BB0008C09002080B56FF00400002102F0A4FDF4
:104BC00080BD000080B582B00190FFE7012002F0B7
:104BD00077FEFBE780B54EF21000CEF200000068D1
:104BE00005F00AFB012803D0FFE704F07BFDFFE797
:104BF00080BD000080B596B00CA801902821FBF77D
:104C0000F7FB0198002302930B930A9309930893EF
:104C10000793069305930493039301220C924FF498
:104C200080310D910E9310920222139214914FF441
:104C3000E0111591FEF74AFA18B1FFE7FCF748FEBC
:104C4000FFE70F20079002210891002009904FF400
:104C500080620A920B9007A8FEF75AF818B1FFE796
:104C6000FCF736FEFFE7022003904FF4004005906A
:104C700003A8FDF769FF18B1FFE7FCF729FEFFE77E
:104C800016B080BD7047000080B540F20C50C2F2F3
:104C90000000FEF70FFE80BD83B0029001910298E4
:104CA00000680090029842F60041C4F20101884277
:104CB00015D0FFE70298B0F1804F10D0FFE70298BF
:104CC00040F20041C4F20001884208D0FFE7029898
:104CD00040F60001C4F2000188420AD1FFE70098C3
:104CE00020F07000009001984168009808430090FF
:104CF000FFE7029842F60041C4F20101884215D054
:104D0000FFE70298B0F1804F10D0FFE7029840F221
:104D10000041C4F20001884208D0FFE7029840F643
:104D20000001C4F2000188420AD1FFE7009820F494
:104D3000407000900198C168009808430090FFE718
:104D4000009820F08000019949690843009000987C
:104D500002990860019880680299C8620198006809
:104D600002998862029842F60041C4F20101884229
:104D700005D1FFE70198006902990863FFE70299EE
:104D80000120486102980069C00730B1FFE702992D
:104D9000086920F001000861FFE703B070470000D8
:104DA00080B582B0019040F23830C2F2000002F0CB
:104DB0006BF840F26830C2F2000001F0FBF9FFE747
:104DC00040F23830C2F2000002F06CF840F2683075
:104DD000C2F2000001F004FA642002F071FDEFE776
:104DE00080B582B0019040F29C30C2F2000001F028
:104DF0003FFBFFE740F29C30C2F2000001F074FB81
:104E00000A2002F05DFDF5E780B582B0019040F622
:104E10000460C2F2000000F0DFFBFFE740F6046030
:104E2000C2F2000000F05CFC0A2002F049FDF5E748
:104E300080B582B0019043F6BC00C2F2000001F0E0
:104E40005FFDFFE743F6BC00C2F2000001F048FD41
:104E50000A2002F035FDF5E780B582B00190019897
:104E6000406A009000990020C8850099C884009885
:104E7000FEF752FE02B080BD80B584B003900020E2
:104E800002900398406A0190019800684069C0B29E
:104E9000C0090290019890F8410021280AD1FFE74B
:104EA000029838B1FFE701990020C884019800F00A
:104EB000C9F8FFE7019800684069C0F380100290CC
:104EC000019890F8420022280AD1FFE7029838B1F1
:104ED000FFE701990020C885019800F055F8FFE729
:104EE0000199486C40F0100048640198FEF714FEE8
:104EF00004B080BD80B584B003900398406A0290EE
:104F0000039800680068800600282AD4FFE7029909
:104F10000020C884FFE7FFE70298006850E8050F0B
:104F200020F080000190FFE701990298026842E8B2
:104F300005100028F0D1FFE7FFE7FFE7FFE7029841
:104F4000006850E8030F40F040000090FFE7009930
:104F50000298026842E803100028F0D1FFE7FFE75B
:104F600003E00298FFF7A2FBFFE704B080BD00005A
:104F700080B582B001900198406A00900098FFF7D8
:104F800099FB02B080BD000084B00390FFE7FFE70B
:104F90000398006850E8030F20F490700290FFE738
:104FA00002990398026842E803100028F0D1FFE755
:104FB000FFE7FFE7FFE70398006850E8050F20F0E0
:104FC00001000190FFE701990398026842E805108B
:104FD0000028F0D1FFE7FFE70398006B012814D108
:104FE000FFE7FFE7FFE70398006850E8030F20F0B2
:104FF00010000090FFE700990398026842E8031050
:105000000028F0D1FFE7FFE7FFE70399202081F8B0
:10501000420003990020086304B0704780B582B055
:10502000019001980168C86820F04000C8600199AB
:10503000202081F841000198FFF738FB002002B0E2
:1050400080BD000082B00190FFE7FFE70198006893
:1050500050E8030F20F0C0000090FFE7009901988E
:10506000026842E803100028F0D1FFE7FFE701994A
:10507000202081F8410002B07047000080B586B062
:105080000490049890F84200222840F0A480FFE7A2
:1050900004988068B0F5805F15D1FFE70498006937
:1050A00088B9FFE7002003900498806A0290049872
:1050B000006840686FF35F20029908800499886A4D
:1050C0000230886225E00498806A039000200290F4
:1050D00004988068B0F5805F08D0FFE70498806886
:1050E00050B9FFE70498006930B9FFE704980068F9
:1050F00040680399087007E004980068406800F071
:105100007F0003990870FFE70499886A013088627C
:10511000FFE70499C88D0138C8850004002856D1DE
:10512000FFE704980168C86820F02000C860049870
:105130000168C86820F48070C860049801684869F4
:1051400020F0010048610499202081F84200049970
:10515000002048630498006B012830D1FFE70499D0
:1051600000200863FFE7FFE70498006850E8030F9A
:1051700020F010000190FFE701990498026842E8CE
:1051800003100028F0D1FFE7FFE7049800680068EB
:10519000C00600280ED5FFE7FFE700200090049826
:1051A00000680068009004980068406800900098CB
:1051B000FFE7FFE70498818DFEF7A8FC03E0049861
:1051C000FFF79AF8FFE700208DF8170007E00020AE
:1051D0008DF8170003E002208DF81700FFE79DF817
:1051E000170006B080BD000080B584B0039003981E
:1051F0000068006920F44050039A1168D268104397
:105200000861039988680A69496910430843029054
:1052100003980068C06841F20C6188430299084312
:1052200003990968C86003980068406920F44070D9
:10523000039A11689269104348610398006843F625
:105240000001C4F20101884204D1FFE7FDF7CEFE60
:10525000019003E0FDF7B8FE0190FFE701981921E6
:105260004843039A116852689200B0FBF2FC48F27E
:105270001F52C5F2EB12ACFB02304309642003FB62
:1052800010CC322000EB0C10A0FB0202F02000EA50
:10529000521000EB0310C2F343121044886004B0B4
:1052A00080BD000083B002900191ADF8022001980A
:1052B00002998862BDF8020002998885BDF8020053
:1052C0000299C8850299002048640299222081F839
:1052D00042000298006938B1FFE702980168C86887
:1052E00040F48070C860FFE702980168486940F0A8
:1052F0000100486102980168C86840F02000C86059
:10530000002003B07047000083B00190019890F82E
:10531000410021283AD1FFE701988068B0F5805F0D
:1053200013D1FFE70198006978B9FFE70198006A97
:105330000090009800886FF35F2001990968486029
:105340000199086A0230086208E0019A106A411C5B
:1053500011620078019909684860FFE70199C88CDB
:105360000138C884000468B9FFE701980168C8687B
:1053700020F08000C86001980168C86840F04000D3
:10538000C860FFE700208DF80B0003E002208DF8D5
:105390000B00FFE79DF80B0003B0704780B540F2AB
:1053A0005450C2F20000FEF7BBFB80BD80B540F256
:1053B0009C50C2F20000FEF7B3FB80BD80B540F206
:1053C000E450C2F20000FEF7ABFB80BDFFE7FEE752
:1053D00080B502F019FA02F04FFA80BD80B502F0F4
:1053E000E7F902F025FA80BD80B502F0EDF902F090
:1053F00027FA80BD80B502F0FFF902F031FA80BDD6
:1054000080B502F0EDF902F023FA80BD80B502F01C
:1054100007FA80BD80B586B004908DF80F108DF826
:105420000E20029304980190806860B1FFE7019814
:1054300080689DF80F109DF80E20029B01F02EFB56
:105440008DF8170003E000208DF81700FFE79DF8A6
:10545000170006B080BD000083B002908DF80710E1
:105460008DF80620009303B07047000080B582B02D
:1054700001900091019900988860886801F05EFBB6
:1054800002B080BD82B0019001980090806850B158
:10549000FFE700988068806828B1FFE70099886876
:1054A00080684860FFE702B07047000080B586B0B2
:1054B00004908DF80F108DF80E200293049801903F
:1054C000806878B1FFE7019880689DF80F109DF81B
:1054D0000E20029BD0F800C0DCF804C0E0478DF835
:1054E000170003E000208DF81700FFE79DF8170074
:1054F00006B080BD81B0009000984BF68011C0F6D8
:1055000000010831016000214160816001B07047F5
:1055100080B582B0019001980090052016210022EC
:1055200002F096FA0099486002B080BD81B0009008
:10553000009840F20033C2F200031A68511C19604F
:1055400040F2F021C2F2000141F8220001B07047A0
:1055500080B584B00390039802908068B8B1FFE7EB
:1055600002990020019081F83000C862886281F8B9
:10557000230081F824000884C861886148610861BB
:10558000C860886822310122FEF78AFEFFE704B076
:1055900080BD000080B584B0029001910299009115
:1055A00003914BF68C10C0F600000830086001989B
:1055B0008860002081F8470040F20030C2F200000D
:1055C0000068032804DCFFE70098FFF7AFFFFFE760
:1055D000039804B080BD000080B586B005900598A2
:1055E000039040F60460C2F20000019040F2C01146
:1055F000C2F200010491FFF739FF0498FFF788FF1A
:10560000049801F0B9FB052014210022029202F057
:105610001FFA019A029903460398C36682F8731031
:1056200082F87210A2F87010916451641164D16311
:105630009163D165916551651165D164C2F880109F
:10564000D16791675167212180F82210402180F8AD
:105650002310262180F836102A2180F83710FFF712
:1056600011FF0498FFF774FF06B080BD80B586B0C7
:10567000059004918DF80F200293059801909DF8F4
:105680000F006E2815D1FFE70298007880B9FFE778
:1056900001983830049A02990B784978EC46CCF896
:1056A00000104BF66A21C0F60001FAF7FBFDFFE798
:1056B000FFE79DF80F006A2810D1FFE70198383006
:1056C000049A02990B784978EC46CCF800104BF616
:1056D0005921C0F60001FAF7E5FDFFE706B080BDED
:1056E00080B582B001900198009040F2C010C2F2E3
:1056F000000001F085FA009800F096F902B080BD34
:1057000080B586B0DDF820C005908DF813100392A7
:105710008DF80B3005980190039800784D2813D12F
:10572000FFE70398407841280ED1FFE7039880787F
:105730004A2809D1FFE701989DF813109DF80B2026
:10574000089B00F08FF931E0039800784D2813D1C1
:10575000FFE70398407849280ED1FFE70398807847
:105760004E2809D1FFE701989DF813109DF80B20F2
:10577000089B00F0BBFA18E003980078532813D177
:10578000FFE70398407845280ED1FFE7039880781B
:10579000542809D1FFE701989DF813109DF80B20BC
:1057A000089B00F005F8FFE7FFE7FFE706B080BDC4
:1057B00080B584B003908DF80B108DF80A2001930A
:1057C0000398532180F82610452180F82710542192
:1057D00080F8281060304BF65521C0F60001FAF72A
:1057E00077FD9DF80B00732840F0BB80FFE79DF824
:1057F0000A0053283FD1FFE70198007800060028EF
:1058000001D5FFE736E0019800784006002801D571
:10581000FFE72EE0019800788006002801D5FFE719
:1058200026E001980078C006002801D5FFE71EE0B9
:10583000019800780007002801D5FFE716E00198DD
:1058400000784007002801D5FFE70EE001980078B6
:105850008007002801D5FFE706E001980078C0071F
:1058600008B1FFE7FFE7FFE7FFE7FFE7FFE7FFE735
:10587000FFE7FFE7FFE79DF80A00422870D1FFE746
:1058800001980078012801D1FFE768E001980078CD
:10589000022801D1FFE761E001980078032801D1D7
:1058A000FFE75AE001980078042801D1FFE753E0B0
:1058B00001980078052801D1FFE74CE001980078B5
:1058C000062801D1FFE745E001980078072801D1BB
:1058D000FFE73EE001980078082801D1FFE737E0B4
:1058E00001980078092801D1FFE730E0019800789D
:1058F0000A2801D1FFE729E0019800780B2801D19F
:10590000FFE722E0019800780C2801D1FFE71BE0B7
:10591000019800780D2801D1FFE714E00198007884
:105920000E2801D1FFE70DE0019800780F2801D182
:10593000FFE706E001980078102801D1FFE7FFE7B4
:10594000FFE7FFE7FFE7FFE7FFE7FFE7FFE7FFE727
:10595000FFE7FFE7FFE7FFE7FFE7FFE7FFE7FFE717
:10596000FFE704B080BD000080B588B007908DF8D7
:105970001B108DF81A200593079802909DF81B00C4
:10598000732805D0FFE79DF81B0053284AD1FFE795
:1059900000200490FFE7049802280CDCFFE702993E
:1059A0000598049A805C114481F87000FFE7049820
:1059B00001300490EFE702990598C07881F87300F0
:1059C0009DF81A00052806D1FFE70299059800798D
:1059D00081F8740017E000200390FFE703989DF81A
:1059E0001A10043988420DDAFFE702990598039AE4
:1059F00010440079114481F87400FFE703980130E6
:105A00000390EBE7FFE702989DF81B1000F170028E
:105A100090F8733000F1740CEE46CEF800C0FFF73A
:105A20006FFEFFE708B080BD80B584B00390039996
:105A30000291C86E4C3100231A4601F0A9FF70B9DB
:105A4000FFE70298416801914C300090FAF764FC3E
:105A500000990246019892B2FEF7B6FDFFE704B046
:105A600080BD000080B584B003908DF80B108DF8D8
:105A70000A200193039800904D2180F826104121BF
:105A800080F827104A2180F8281060304BF64F210B
:105A9000C0F60001FAF71CFC9DF80B00532816D144
:105AA000FFE79DF80A006E2810D1FFE7009800F18B
:105AB00060019DF80A20019BFFF7D8FD0099C86E90
:105AC000383100231A4602F043F8FFE7FFE79DF85C
:105AD0000B00732840F00881FFE79DF80A00532867
