:020000040800F2
:1000000068080020CD010008971700085513000864
:1000100095170008D3020008611B000800000000CB
:100020000000000000000000000000009B17000816
:10003000D502000800000000991700089D1700086D
:10004000E7010008E7010008E7010008E7010008F0
:10005000E7010008E7010008E7010008E7010008E0
:10006000E7010008E7010008E7010008E7010008D0
:10007000E7010008E7010008E7010008E7010008C0
:10008000E7010008E7010008E7010008E7010008B0
:10009000E7010008E7010008E7010008E7010008A0
:1000A000E7010008E7010008E7010008E701000890
:1000B000E7010008E7010008E7010008E701000880
:1000C000E7010008E7010008E7010008E701000870
:1000D000E7010008E7010008E7010008E701000860
:1000E000E7010008E7010008E7010008E701000850
:1000F000E7010008E7010008E7010008E701000840
:10010000E7010008E7010008E7010008E70100082F
:10011000E7010008E7010008E7010008E70100081F
:10012000E7010008E7010008E7010008E70100080F
:1001300000F002F800F03AF80AA090E8000C8244BF
:100140008344AAF10107DA4501D100F02FF8AFF29C
:10015000090EBAE80F0013F0010F18BFFB1A43F0A5
:1001600001031847E81A0000081B0000103A24BFDA
:1001700078C878C1FAD8520724BF30C830C144BF0C
:1001800004680C607047000000230024002500264E
:10019000103A28BF78C1FBD8520728BF30C148BFEA
:1001A0000B6070471FB51FBD10B510BD00F058F8AB
:1001B0001146FFF7F7FF01F0E5FC00F076F803B415
:1001C000FFF7F2FF03BC00F07DF80000094880470C
:1001D00009480047FEE7FEE7FEE7FEE7FEE7FEE729
:1001E000FEE7FEE7FEE7FEE704480549054A064B41
:1001F00070470000FF170008310100086802002066
:100200006808002068040020680400204FF0000205
:1002100000B5134694469646203922BFA0E80C50FC
:10022000A0E80C50B1F12001BFF4F7AF090728BFD7
:10023000A0E80C5048BF0CC05DF804EB890028BF53
:1002400040F8042B08BF704748BF20F8022B11F07C
:10025000804F18BF00F8012B7047704770477047F8
:10026000754600F02BF8AE4605006946534620F06F
:100270000700854618B020B5FFF7B6FFBDE820405F
:100280004FF000064FF000074FF000084FF0000B52
:1002900021F00701AC46ACE8C009ACE8C009ACE805
:1002A000C009ACE8C0098D46704710B50446AFF3ED
:1002B00000802046BDE81040FFF781BF004870472E
:1002C0000802002001491820ABBEFEE7260002000C
:1002D0007047FEE7704772B6FEE700002DE9F84F61
:1002E000DFF8C8910024A9F1040B23460F2709F178
:1002F000040AABF1040ED1E00125A54006EA05028F
:10030000AA4276D1DFF8A8C14E68A6EB0C08664574
:100310002BD00DDC032E34D005DC36B3012E19D0E2
:10032000022E2FD11BE0112E16D0122E2AD119E049
:10033000B8F5881F19D006DCB8F5803F15D0B8F5A0
:10034000801F1FD111E0B8F5001F0ED0B8F5041FB3
:1003500018D10AE0CB6815E0CB681B1D12E0CB6812
:1003600008330FE0CB680C330CE08B682BB1012B0A
:100370004FF0080303D0456104E0042302E0056167
:1003800000E00023FF2A01D8064601E000F1040640
:100390004FEA840501D9A5F12005D6F8008007FAB7
:1003A00005FC28EA0C0803FA05F548EA0508C6F832
:1003B00000804D68ED0070D53E4DAE6946F00106F7
:1003C000AE61AD6924F0030605F0010500953A4DD4
:1003D00006EB050CDCF80850A607360F07FA06F8FE
:1003E00025EA0805DFF8D480404503D14FF0000826
:1003F00025E052E0DFF8C880404502D14FF0010807
:100400001DE0DFF8C080404502D14FF0020816E041
:10041000DFF8B480404502D14FF003080FE0DFF869
:10042000AC80404502D14FF0040808E0DFF8A0801E
:10043000404502D14FF0050801E04FF0060808FAE8
:1004400006F848EA0508CCF808804D68D9F800603D
:10045000ED024D4601D5164300E096432E604D68EF
:10046000DAF80060AD02554601D5164300E0964328
:100470002E604D68DBF80060AD035D4601D5164384
:1004800000E096432E604D68DEF80060ED0375468F
:1004900001D5164300E096432E60641C0A68164698
:1004A000E2407FF429AFBDE8F88F00000804014066
:1004B000000011100010024000000140000801403F
:1004C000000C0140001001400014014000180140E0
:1004D000001C01400AB1016170470904FBE70000FC
:1004E00001488068704700000000002002488168D1
:1004F000027811448160704700000020074810B561
:10050000016841F010010160032000F067F80F203E
:1005100000F006F800F024F8002010BD0020024092
:1005200070B50D4D04464FF47A712878B1FBF0F0A8
:100530000A490968B1FBF0F000F0CEFA48B9102C76
:1005400007D200222146501E00F028F800206C60DF
:1005500070BD012070BD0000000000200C000020D4
:100560000C4808B5816941F001018161816901F0A0
:1005700001010091C16941F08051C161C06900F081
:10058000805000900448416821F0E06141F0007122
:10059000416008BD0010024000000140F0B40E4B65
:1005A0001B680C46C3F30223C3F10705042D00D9D1
:1005B0000425191D072901D2002300E0DB1E0126B6
:1005C00006FA05F1491E214099409E40761E1640CC
:1005D0003143F0BC01F0C5BA0CED00E0064900F073
:1005E000070208684FF6FF03184040EA0220034A5A
:1005F00010430860704700000CED00E00000FA05B1
:100600002DE9F0470F46050061D0434E306800F0F9
:100610000700B84209D2306820F007003843306044
:10062000306800F00700B84251D128683B4C810780
:1006300012D5400703D5606840F4E0606060287818
:10064000000703D5606840F4605060606068A96886
:1006500020F0F000084360602878C00728D0686860
:10066000012810D02168022810D0890700292EDA2D
:10067000616821F0030101436160FFF731FF8046AB
:1006800041F288390DE021688903EFE78901EDE740
:10069000FFF726FFA0EB0801494502D90320BDE87A
:1006A000F0876068696800F00C00B0EB810FEFD153
:1006B000306800F00700B8420BD9306820F007001E
:1006C00038433060306800F00700B84201D00120A4
:1006D000E5E72878400705D56068E96820F4E06020
:1006E000084360602878000706D56068296920F40F
:1006F000605040EAC100606000F038F86168084A64
:10070000C1F30311515CC8400649086006480068FF
:10071000FFF706FF0020C2E7002002400010024061
:10072000321C00080C000020040000200448054989
:1007300000684968044AC1F30221515CC84070470F
:100740000C00002000100240421C0008044805492B
:1007500000684968044AC1F3C221515CC84070472F
:100760000C00002000100240421C00080E4A516894
:100770000E4801F00C03042B11D0082B0FD10C48AC
:10078000C1F38343C903C05C0AD55168084AC1F369
:100790004041921E515C054A5043B0FBF1F0704756
:1007A00004494843704700000010024000127A00DC
:1007B000221C000800093D002DE9F84F040070D00C
:1007C0002078C04DC00749D06868C0F38100012877
:1007D00007D06868C0F38100022809D16868C003A7
:1007E00006D52868800339D560680028E7D035E051
:1007F0006068B0F5803F0BD010B1B0F5A02F11D0DC
:10080000286820F480302860286820F4802002E0E6
:10081000286840F480302860606890B1FFF760FE7F
:1008200006460AE0286840F480202860F0E700BF10
:10083000FFF756FE801B642873D828688003F7D51D
:100840000CE0FFF74DFE064605E000BFFFF748FE4F
:10085000801B6428F0D828688003F7D420789A4E4B
:1008600080074FF001094FF0000839D5686810F093
:100870000C0F07D06868C0F38100022809D16868AE
:10088000C00306D42868800714D52069012808D140
:1008900010E02069B0B1C6F80090FFF721FE0746CE
:1008A00005E00AE1FFF71CFEC01B0228C4D8286837
:1008B0008007F7D52868616920F0F80040EAC10098
:1008C00028600DE0C6F80080FFF70AFE074604E046
:1008D000FFF706FEC01B022823D828688007F7D43C
:1008E000207800072CD57948A169D9B1C0F80090CB
:1008F000FFF7F6FD074604E0FFF7F2FDC01B0228F4
:100900000FD8686A8007F7D571484FF4FA5100682C
:10091000B0FBF1F0009000BF0098411E0091FAD2A8
:100920000EE080E0C0F80080FFF7DAFD074604E043
:10093000FFF7D6FDC01B022875D8686A8007F7D478
:100940002078400760D5E8690027C00008D4E8692E
:1009500040F08050E861E869012700F08050009085
:100960005C480168C90513D40168834641F480716D
:100970000160FFF7B5FD824606E000BFFFF7B0FD5E
:10098000A0EB0A0064284ED8DBF80000C005F5D5BE
:10099000E06801280AD008B1052813D0286A20F0A1
:1009A00001002862286A20F0040002E0286A40F072
:1009B00001002862E06841F2883B98B1FFF790FDA2
:1009C00082460BE0286A40F004002862EEE700BF90
:1009D000FFF786FDA0EB0A0159455AD8286A80071F
:1009E000F6D50CE0FFF77CFD824605E0FFF778FDC9
:1009F000A0EB0A0159454CD8286A8007F6D41FB1EC
:100A0000E86920F08050E861E06988B36968C1F363
:100A10008101022944D00228C6F8608004D0FFF783
:100A20005FFD044638E034E0FFF75AFD074604E076
:100A3000FFF756FDC01B02282BD828688001F7D489
:100A4000206AB0F5803F05D16868A16820F40030C5
:100A500008436860D4E908010843696821F4741107
:100A600008436860C6F86090FFF73AFD044606E068
:100A700025E000BFFFF734FD001B022809D82868D5
:100A80008001F7D51BE000BFFFF72AFD001B0228FD
:100A900002D90320BDE8F88F28688001F4D40EE065
:100AA0000128F7D06868226A00F48031914204D1AD
:100AB000616A00F47010884201D00120EAE700204A
:100AC000E8E7000000100240000042428004424279
:100AD0000C0000200070004010B5401EB0F1807F77
:100AE00001D3012010BD4FF0E02460610F21601799
:100AF00001F037F80020A06107202061002010BD20
:100B000010B590F83C20012A22D0012280F83C2028
:100B1000CA688C6822F4407222434C6822F48062D6
:100B200022430C6822F4006222430C6922F48052B2
:100B300022434C6922F400522243C969002322F463
:100B400080420A4301684A6480F83C30002010BDAE
:100B5000022010BD70B590F83C20012A2CD0012451
:100B600080F83C40022280F83D2003685A689D6866
:100B700022F070060A6832435A60104B02689A42AB
:100B80000ED00F4B9A420BD0B2F1804F08D00D4BD4
:100B90009A4205D00C4B9A4202D00C4B9A4204D197
:100BA000496825F080031943916080F83D40002199
:100BB00080F83C10084670BD022070BD002C01403A
:100BC000003401400004004000080040000C0040D8
:100BD00010B5040003D094F83D0010B107E00120E7
:100BE00010BD002084F83C00204600F01FF80220D1
:100BF00084F83D00211D206800F002FE012084F8E9
:100C0000460084F83E0084F83F0084F8400084F8F1
:100C1000410084F8420084F8430084F8440084F8DA
:100C2000450084F83D00002010BD000008B50068B4
:100C30000649884208D10648C16941F00801C161EE
:100C4000C06900F00800009008BD0000000C0040E2
:100C50000010024070B5044690F83C0000250128C1
:100C600017D0012684F83C60022084F83D002068FB
:100C7000826822F0770222F47F428260086850285E
:100C800038D00DDC20284FD005DC90B3102811D1CE
:100C90004AE0022070BD302846D040280AD13BE00F
:100CA00060282FD070280DD0B0F5805F03D0B0F54C
:100CB000005F12D0012584F83D60002084F83C00DC
:100CC000284670BDCB68D1E90121206800F0F3FD12
:100CD0002068816841F0770109E0CB68D1E9012102
:100CE000206800F0E8FD2068816841F4804181605F
:100CF000E1E719E0CA684968206800F0B1FE5021B8
:100D0000206806E0CA684968206800F0BAFE6021E1
:100D1000206800F0DAFDCEE7CA684968206800F074
:100D20009FFE40212068F4E7226801461046F0E764
:100D30002DE9F0410D46040003D094F83D0018B1B0
:100D400008E00120BDE8F081002084F83C00204646
:100D500000F040F8022084F83D002068816844F2E9
:100D6000070291438160211D206800F049FD22683F
:100D700090689169166A2B68AF69034340F20330AB
:100D8000814341EA0721A868EF6908434FF6FC4117
:100D90008843E96840EA0720014328692F6A000177
:100DA00040EA0730084369686D6926F0220646EA82
:100DB0000515294393602268906154F8460B01623F
:100DC000012004F81F09E0752076E0762077A075F1
:100DD0000020B7E700B585B0002100910191029194
:100DE000039102682B482C49824215D1886940F44E
:100DF00000608861886900F400600490886940F0B0
:100E0000040088618869694600F0040004904FF48A
:100E100040700090214839E0214B22489A421FD16E
:100E2000CA6942F00202CA61CA6902F0020204926F
:100E30008A6942F008028A61896901F00801049117
:100E4000302100916946FFF749FA1748416821F4BB
:100E5000406141F0E06141F40061416005B000BDD6
:100E6000124B9A42FAD1CA6942F00402CA61CA69B5
:100E700002F0040204928A6942F008028A618969D8
:100E800001F008010491C02100916946FFF726FA9C
:100E9000E4E70000002C014000100240000801407F
:100EA00000040040000C0140000001400008004028
:100EB00070B590F83E60044690F83F5090F842308C
:100EC00090F84320022021B104290ED0012E1BD11D
:100ED00014E0012E18D1012B16D184F83E0084F8BD
:100EE000420001220021206820E0012D0CD1012ABE
:100EF0000AD184F83F0084F8430014E0012D03D1A7
:100F0000012B01D1012A01D0012070BD84F83E00DF
:100F100084F83F0084F8420084F843000122002155
:100F2000206800F0BBFC01220421206800F0B6FC20
:100F30002068016841F001010160002070BD0000DF
:100F400000B585B0002100910191029103910268E2
:100F500023490220B2F1804F11D0224B9A422AD16C
:100F60008A6942F004028A618969039001F00401F0
:100F700004910321CDE9001069461B482DE08A69E0
:100F800042F008028A618969039001F00801049126
:100F90004FF40061CDE9001069461448FFF79EF94F
:100FA0001348416821F4407141F0E06141F440711F
:100FB000416005B000BD0F4B9A42FAD18A6942F0F8
:100FC00010028A618969039001F0100104914FF4C5
:100FD0007071CDE9001069460748FFF77FF9E8E72F
:100FE00000100240000C004000080140000C0140CD
:100FF00000000140003401400010014070B504467B
:1010000090F83C0000260D4601280FD0012084F8FE
:101010003C006AB1042A1DD0082A2FD00C2A3FD0E8
:101020000126002084F83C00304670BD022070BDCF
:10103000206800F053FC2068816941F0080181615B
:101040002068816921F004018161206881692A6931
:10105000114311E0206800F071FC2068816941F4BF
:10106000006181612068816921F48061816120686B
:1010700081692A6941EA02218161D2E7206800F092
:1010800093FC2068C16941F00801C1612068C16911
:1010900021F00401C1612068C1692A69114311E08E
:1010A000206800F0B5FC2068C16941F40061C161AD
:1010B0002068C16921F48061C1612068C1692A6921
:1010C00041EA0221C161ACE710B5040003D094F8F5
:1010D0003D0010B107E0012010BD002084F83C0065
:1010E000204600F01FF8022084F83D00211D2068F2
:1010F00000F086FB012084F8460084F83E0084F866
:101100003F0084F8400084F8410084F8420084F8ED
:10111000430084F8440084F8450084F83D00002032
:1011200010BD000010B586B0002400940194029414
:10113000039401682048B1F1804F0CD01F4A9142BE
:1011400007D1816941F400518161806900F4005048
:10115000049006B010BDC16941F00101C161C169CF
:1011600001F001010491816941F00401816181690B
:1011700001F004010491816941F0080181618069F5
:10118000694600F0080004904FF4004000900C48BD
:10119000FFF7A4F80820CDE9000469460948029445
:1011A000FFF79CF80849486820F4407040F0E06080
:1011B00040F440704860CCE7001002400034014029
:1011C00000080140000C01400000014010B5044639
:1011D000022249B104290ED0082913D094F8410005
:1011E000012816D0012010BD94F83E000128F9D145
:1011F00084F83E200FE094F83F000128F2D184F8F3
:101200003F2008E094F840000128EBD184F840200A
:1012100001E084F841200122206800F03FFB1349DF
:101220002068134A884201D0904203D1436C43F4B2
:1012300000434364206888420DD090420BD0B0F147
:10124000804F08D00B49884205D00B49884202D014
:101250000A49884204D1816801F00701062903D0B8
:10126000016841F001010160002010BD002C014027
:10127000003401400004004000080040000C004021
:1012800070B5040004D094F84100002510B106E0C8
:10129000012070BD84F84050204600F023F824203F
:1012A00084F841002068C16821F40051C1602046E3
:1012B00000F0FAFB2068016921F490410161206887
:1012C000416921F02A0141612068C16841F400515F
:1012D000C1606564202084F8410084F842006563A1
:1012E000002070BD30B585B00024009401940294B4
:1012F000039400681449884224D11448C16941F418
:101300000021C161C16901F400210491816941F0AA
:101310001001816180690E4D00F0100004904FF4BF
:1013200080600090022001900320039069462846C7
:10133000FEF7D4FFE814CDE900046946284602947C
:10134000FEF7CCFF05B030BD004C0040001002405D
:1013500000100140FEE700002DE9F04385B00024B5
:1013600025480094019402940394816941F020017E
:101370008161816901F020010491816941F01001CE
:101380008161816901F010010491816941F00401DA
:101390008161816901F004010491816941F00801D2
:1013A00081618069DFF8548000F008000490002219
:1013B0003F214046FFF78EF8DFF844904FF4A057E6
:1013C000002239464846FFF785F83F2001250226CE
:1013D000CDE90005CDE9024669464046FEF77EFFAD
:1013E00000970396CDE9015469464846FEF776FF1B
:1013F00005B0BDE8F083000000100240001001407D
:101400000008014010B58CB024216846FEF7FEFEAE
:1014100000241748099415490A94016040F2CF212D
:10142000C0E901146321C0E903144461846101200F
:10143000CDE90004CDE902040F210491CDE9054076
:10144000CDE9074169460A48FFF772FC08B1FEF78B
:1014500042FF099409A906480A94FFF77BFB00287C
:1014600001D0FEF738FF0CB010BD0000002C014089
:101470001000002010B592B024216846FEF7C6FE89
:10148000002410941C2109A81194FEF7BFFE1F48E8
:101490004FF08041016040F2CF21C0E9011440F2D9
:1014A000CF71C0E903148461FFF70EFE08B1FEF7A7
:1014B00012FF0120CDE90004CDE902040494CDE936
:1014C00005400794694611480894FFF731FC08B1BC
:1014D000FEF701FF109410A90C481194FFF73AFB96
:1014E00008B1FEF7F8FE6020CDE909040B940C2248
:1014F00009A906480D94FFF781FD08B1FEF7EBFE40
:101500000248FFF71DFD12B010BD0000580000207A
:1015100010B58CB024216846FEF778FE00241548EB
:10152000099413490A94C0E900144FF6FF71C0E909
:101530000241046184610120CDE90004CDE9020487
:101540000494CDE90540079469460A480894FFF7DA
:10155000EFFB08B1FEF7BFFE099409A905480A94FC
:10156000FFF7F8FA002801D0FEF7B5FE0CB010BD69
:1015700000040040A000002010B58CB02421684673
:10158000FEF744FE00241548099413490A94C0E963
:1015900000144FF6FF71C0E902410461846101202B
:1015A000CDE90004CDE902040494CDE90540079497
:1015B00069460A480894FFF7BBFB08B1FEF78BFEAB
:1015C000099409A905480A94FFF7C4FA002801D034
:1015D000FEF781FE0CB010BD00080040E8000020BE
:1015E00010B58EB000240794089409940A940B94C3
:1015F0001C2168460C94FEF709FE2348214901602E
:1016000040F2CF21C0E9011440F2CF71C0E90314C8
:101610008461FFF7DDFA08B1FEF75DFE4FF48050FC
:10162000079007A91848FFF715FB08B1FEF753FE0E
:101630001548FFF749FD08B1FEF74DFE0B940BA9C5
:1016400011480C94FFF786FA08B1FEF744FE6020BB
:10165000CDE900040294002269460B480494FFF788
:10166000CDFC08B1FEF737FE042269460648FFF7B5
:10167000C5FC08B1FEF72FFE0348FFF761FC0EB072
:1016800010BD0000000C00403001002010B592B0E9
:1016900000240F941C2168461094FEF7B7FD20210A
:1016A00007A8FEF7B3FD2C482A49C0E900144FF6FD
:1016B000FF71C0E90241046144618461FFF704FDE8
:1016C00008B1FEF708FE0F940FA923481094FFF706
:1016D00041FA08B1FEF7FFFD6020CDE90004029455
:1016E000039404940594002269461B480694FFF76E
:1016F00085FC08B1FEF7EFFD042269461648FFF7A6
:101700007DFC08B1FEF7E7FD082269461248FFF7A5
:1017100075FC08B1FEF7DFFD0C2269460E48FFF7A5
:101720006DFC08B1FEF7D7FD0794089409944FF4B7
:1017300000500A94CDE90B4007A907480E94FFF723
:10174000DFF908B1FEF7C7FD0348FFF7F9FB12B058
:1017500010BD000000340140780100200C4810B595
:101760000A4901604FF4E1314160002181600C229F
:10177000C160C0E904128161C161FFF781FD0028E9
:1017800003D0BDE81040FEF7A6BD10BD004C0040E0
:10179000C0010020FEE7FEE770477047FEF7A6BED7
:1017A00030B58FB028216846FEF730FD14210AA815
:1017B000FEF72CFD01210804CDE90010002402945D
:1017C00002250491CDE907504FF4E01009906846D6
:1017D000FEF7F2FF08B172B6FEE70F20CDE90A0569
:1017E0004FF48060CDE90C4002210AA80E94FEF768
:1017F00007FF002801D072B6FEE70FB030BD70477A
:10180000F0B50268204C214D214E224F224B4FF063
:10181000804CA04209D0984207D0604505D0A8422C
:1018200003D0B04201D0B84204D122F0700E4A6811
:1018300042EA0E02A04209D0984207D0604505D086
:10184000A84203D0B04201D0B84203D122F440757F
:10185000CA682A434D6922F080022A4302608A68DE
:10186000C2620A688262A04201D0984201D109692D
:101870000163012141610169C90703D0016921F0B8
:1018800001010161F0BD0000002C01400004004096
:1018900000080040000C00400034014010B501F089
:1018A0001F030121046A99408C430462016A9A4033
:1018B0001143016210BD10B5846842EA032224F48A
:1018C0007F440A432243826010BD826822F0700286
:1018D0000A4342F00701816070470000F0B5036AD7
:1018E000026A22F00102026242688469124E24F008
:1018F00073050C682C4323F002058B682B430D4DB8
:10190000A84201D0B04205D123F00807CB683B4381
:1019100023F00403A84201D0B04205D14D6922F45E
:10192000407215438A692A43426084614968416371
:101930000362F0BD002C014000340140F0B5026AA2
:10194000036A23F010030362436884690D6824F47A
:10195000E64444EA05248D6822F0200242EA05129A
:101960000F4D104EA84201D0B04206D1CF6822F0F0
:10197000800242EA071222F04002A84201D0B0429F
:1019800007D14D6923F4406343EA85038D6943EA37
:10199000850343608461496881630262F0BD000091
:1019A000002C014000340140F0B5026A036A23F4C0
:1019B000807303624368C46922F4007224F07305E3
:1019C0000C68124E2C438D6842EA05220E4DA84247
:1019D00001D0B04206D1CF6822F4006242EA072269
:1019E00022F48062A84201D0B04207D14D6923F4AD
:1019F000405343EA05138D6943EA05134360C4610C
:101A00004968C1630262F0BD002C0140003401400E
:101A100030B5046A026A22F4805202624268C369E5
:101A20000D6823F4E64343EA05238D6824F400544B
:101A300044EA0534084DA84202D0084DA84204D11A
:101A40004D6922F4804242EA85124260C3614968CE
:101A50000164046230BD0000002C014000340140EC
:101A600010B5036A046A24F001040462846924F056
:101A7000F00444EA021423F00A020A438461026279
:101A800010BD10B5036A046A24F01004046284696E
:101A900023F0A00324F4704444EA023243EA011123
:101AA0008261016210BD000070B5044600680169E2
:101AB000E26821F44051114301612169A0680843A3
:101AC000616908432168CA6841F20C639A43024382
:101AD000CA6020684169A26921F4407111434161E3
:101AE0001E492068884202D1FEF730FE01E0FEF771
:101AF0001DFE00EBC00101EB001260686421800054
:101B0000B2FBF0F3B3FBF1F36FF018067343B2FBD3
:101B1000F0F5B2FBF0F605EB8305322303EB051578
:101B2000B5FBF1F5B6FBF1F605F0F00505EB061592
:101B3000B2FBF0F6B2FBF0F0B0FBF1F06FF0180280
:101B4000504306EB800003EB0010B0FBF1F021687E
:101B500000F00F002844886070BD0000003801408C
:101B6000FEE70907090E002804DB00F1E02080F8F9
:101B70000014704700F00F0000F1E02080F8141D01
:101B800070470000FEF7BAFCFFF70AFEFFF7E4FB20
:101B9000FFF738FCFFF76EFCFFF7BAFCFFF7ECFC31
:101BA000FFF774FDFFF71CFDFFF7D8FD3C21164839
:101BB000FFF77EF93C211548FFF77AF93C211448DC
:101BC000FFF776F93C211348FFF772F90C210F4813
:101BD000FFF7FCFA00211048FFF7F8FA04210E483D
:101BE000FFF7F4FA00210D48FFF7F0FA04210B4843
:101BF000FFF7ECFA08210948FFF7E8FA0C2107483B
:101C0000FFF7E4FAFEE70000100000205800002073
:101C1000A0000020E8000020300100207801002012
:101C2000010202030405060708090A0B0C0D0E0F3A
:101C3000101000000000000000000102030406076D
:101C40000809000000000102030400006C1C0008E9
:101C500000000020100000006C0100087C1C00083F
:101C60001000002058080000880100080100000052
:0C1C7000100000000000000000127A00CC
:0400000508000131BD
:00000001FF
