:020000040800F2
:10000000980B00205502000835440008CD3B00083D
:10001000B14200086D0400084151000800000000D2
:10002000000000000000000000000000F947000888
:10003000411B0008000000008D460008054B000829
:100040006F0200086F0200086F0200086F020008CC
:100050006F0200086F0200086F0200086F020008BC
:100060006F0200086F0200086F0200086F020008AC
:100070006F0200086F0200086F0200086F0200089C
:100080006F0200086F0200086F0200086F0200088C
:100090006F0200086F0200086F0200086F0200087C
:1000A0006F0200086F0200086F0200086F0200086C
:1000B0006F0200086F0200086F0200086F0200085C
:1000C0006F0200086F0200086F0200086F0200084C
:1000D0006F0200086F0200086F0200086F0200083C
:1000E0006F0200086F0200086F0200086F0200082C
:1000F0006F0200086F0200086F0200086F0200081C
:100100006F0200086F0200086F0200086F0200080B
:100110006F0200086F020008DD4B00086F02000844
:100120006F0200086F0200086F0200086F020008EB
:100130006F0200086F0200086F0200086F020008DB
:100140006F0200086F0200086F0200086F020008CB
:100150006F0200086F0200086F0200086F020008BB
:100160006F0200086F0200086F0200086F020008AB
:100170006F0200086F0200086F0200080000000014
:100180006F0200086F02000800F002F800F052F859
:1001900014A696E8000CB244B344DA4501D100F04D
:1001A00049F8BAE80F000FA696E83000A5EB040561
:1001B00004EB0607AAEB0704A7F101074FEA1515A0
:1001C0004FEA3414A4F10104AC4201D300F032F838
:1001D00013F0010F18BFFB1A43F0010300F001F800
:1001E000DBE71847345F0000545F0000103A24BF7B
:1001F00078C878C1FAD8520724BF30C830C144BF8C
:1002000004680C6070470000704700000023002461
:1002100000250026103A28BF78C1FBD8520728BF16
:1002200030C148BF0B6070471FB505F05AFF1FBDB6
:1002300010B510BD00F0E4F81146FFF7F5FF04F02B
:10024000E1FF00F002F903B4FFF7F2FF03BC00F096
:1002500005F900000948804709480047FEE7FEE726
:10026000FEE7FEE7FEE7FEE7FEE7FEE7FEE7FEE766
:1002700004480549054A064B70470000C94B000871
:100280008901000898050020980B0020980700209D
:100290009807002053EA020C00F069802DE9F04B2A
:1002A0004FF00006002B1FBFB3FA83F503FA05F4E5
:1002B00024FA05F65E4012BF1643B2FA82F502FA3E
:1002C00005F4C5F120051EBF22FA05FC44EA0C0422
:1002D000203556EA044C4FEA144418BF641C4FF012
:1002E00000084FF00009904271EB030C39D300294C
:1002F00019BFB1FA81F701FA07F6B0FA80F700FAF0
:1003000007F6C7F120071EBF20FA07FC46EA0C06D5
:100310002037B6FBF4FCA7EB0507103F07F01F0BD7
:10032000CBF120062CFA06F60CFA0BFB44BFB346C1
:100330000026202FA4BF5E464FF0000B5BEA060CA0
:1003400008BF4FF0010B19EB0B0948EB0608ABFB9C
:10035000027C06FB02CC0BFB03CCC01B71EB0C0137
:10036000C1E70B46024641464846BDE8F08B13B54F
:10037000084318BF4FF0FF300146AFF30080BDE8DF
:100380001C4070474FF0000200B513469446964655
:10039000203922BFA0E80C50A0E80C50B1F1200198
:1003A000BFF4F7AF090728BFA0E80C5048BF0CC046
:1003B0005DF804EB890028BF40F8042B08BF7047A4
:1003C00048BF20F8022B11F0804F18BF00F8012B16
:1003D000704770477047704710B500F009F8006823
:1003E00010BD10B5044600F003F8046010BD000015
:1003F000004870474800002000487047480000202F
:100400007546FFF7F9FFAE4605006946534620F0F2
:100410000700854618B020B5FFF72AFFBDE8204049
:100420004FF000064FF000074FF000084FF0000BB0
:10043000AC46ACE8C009ACE8C009ACE8C009ACE81F
:10044000C00921F007018D46704710B50446AFF38F
:1004500000802046BDE81040FFF7F5BE0149182096
:10046000ABBEFEE72600020070470000FFE7FEE794
:1004700080B5ACB08DED2B0ACDED2A0A29909DED0B
:100480002B0A40F2A801C2F2000191F9C42001F147
:10049000C80000EB820212ED011A20EE010A8DED78
:1004A0002B0A9DED2A0A91F9C41000EB810010ED92
:1004B000011A20EE010A8DED2A0A9FEDE90B8DED60
:1004C000180B04F042FF51EC100B9FEDE70B53ECBF
:1004D000102B1B931A9205F0B1FA41EC100B8DED25
:1004E000020B2B9805F062FD9DED180B41EC110BF2
:1004F0008DED041B04F029FF1A9A1B9B51EC100B85
:1005000005F09CFA41EC100B8DED000B2A9805F0DC
:100510004DFD9DED001B41EC100B51EC110B53EC0C
:10052000102B05F08BFA9DED021B9DED040B41ECA9
:10053000120B8DED062B51EC110B53EC102B05F02B
:100540007DFA9DED060B41EC110B53EC112B51EC98
:10055000100B05F03DFC41EC100B51EC100B9FED26
:10056000D20B53EC102B2593249205F011F841EC9B
:10057000100B51EC100B04F025FF9DED180B299981
:10058000086004F0E2FE1A9A1B9B51EC100B05F078
:1005900055FA41EC100B8DED0A0B2B9805F006FD7A
:1005A0009DED180B41EC110B8DED0C1B04F0CDFEF5
:1005B0001A9A1B9B51EC100B05F040FA41EC100B02
:1005C0008DED080B2A9805F0F1FC9DED081B41EC20
:1005D000100B51EC110B53EC102B05F02FFA9DED85
:1005E0000A1B9DED0C0B41EC120B8DED0E2B51EC0B
:1005F000110B53EC102B05F021FA9DED0E0B41EC85
:10060000110B53EC112B51EC100B04F00DFF249A3D
:10061000259B41EC100B51EC100B04F0B9FF41ECA1
:10062000100B51EC100B04F0CDFE9DED180B299929
:10063000C86004F08AFE1A9A1B9B51EC100B05F05F
:10064000FDF941EC100B8DED120B2B9805F0AEFC73
:100650009DED180B41EC110B8DED141B04F075FE94
:100660001A9A1B9B51EC100B05F0E8F941EC100BAA
:100670008DED100B2A9805F099FC9DED101B41ECB7
:10068000100B51EC110B53EC102B05F0D7F99DED2D
:10069000121B9DED140B41EC120B8DED162B51EC42
:1006A000110B53EC102B05F0C9F99DED160B41EC25
:1006B000110B51EC110B53EC102B05F089FB249A14
:1006C000259B41EC100B51EC100B04F061FF41EC49
:1006D000100B51EC100B04F075FE9DED180B2999D1
:1006E000886104F032FE1A9A1B9B51EC100B05F046
:1006F000A5F941EC100B8DED1E0B2B9805F056FC67
:100700009DED180B41EC110B8DED201B04F01DFE2F
:100710001A9A1B9B51EC100B05F090F941EC100B51
:100720008DED1C0B2A9805F041FC9DED1C1B41EC46
:10073000100B51EC110B53EC102B05F07FF99DEDD4
:100740001E1B9DED200B41EC120B8DED222B51EC6D
:10075000110B53EC102B05F071F99DED220B41ECC0
:10076000110B51EC110B53EC102B04F05DFE249A8D
:10077000259B41EC100B8DED260B9DF89F0080F022
:1007800080008DF89F002698279904F001FF41EC26
:10079000100B51EC100B04F015FE29994862002053
:1007A0002890FFE7289803287BDCFFE72998289901
:1007B00001EB410100EB810090ED000AB5EE400A2B
:1007C000F1EE10FA26DDFFE72998289901EB4102A6
:1007D00000EB820090ED000A40F2A800C2F2000097
:1007E00000EB810090ED261AB4EE410AF1EE10FA0A
:1007F0000FDDFFE7289A40F2A800C2F2000000EBEC
:100800008200D0F89800299902EB420241F82200B8
:10081000FFE7FFE72998289901EB410100EB8100F0
:1008200090ED000AB5EE400AF1EE10FA34DAFFE777
:100830002998289901EB410200EB820090ED000A13
:1008400040F2A800C2F2000000EB810090ED2A1AED
:10085000B1EE411AB4EE410AF1EE10FA1BDA07E0EC
:100860000000000000000040000000000000E03F29
:10087000289940F2A800C2F2000000EB810090ED40
:100880002A0AB1EE400A299801EB410100EB8100F0
:1008900080ED000AFFE7FFE7FFE728980130289086
:1008A00080E72CB080BD00BF00000080DB8F674078
:1008B00080B58AB009900998007801460891062809
:1008C00000F2F0820899DFE811F007009C00D100E7
:1008D0000C01DB016802E40240F2E73001F036F976
:1008E00040F2ED21C2F200010320087040F28C5169
:1008F000C2F200010020086040F29030C2F2000015
:1009000001684FF4C870486340F2D831C2F2000168
:100910000968486340F28951C2F200010220087060
:10092000FFE740F28950C2F20000007802280BD1A4
:10093000FFE740F2F020C2F2000003F0BBFC01F040
:1009400041F800F04DFFECE740F28950C2F20000A0
:100950000078E0B9FFE741F60000C4F202004FF46E
:100960008041012201F008FB40F29030C2F2000009
:10097000079001684FF4FA60486340F6B73001F021
:10098000E5F8079801684FF4C870486324E040F226
:100990008950C2F20000007801281CD1FFE741F61F
:1009A0000000C4F202004FF40071012201F0E4FAE9
:1009B00040F2D830C2F20000069001684FF4AF60F8
:1009C000486340F6B73001F0C1F8069801684FF46B
:1009D000C8704863FFE7FFE741F60000C4F2020079
:1009E00004904FF480410022059201F0C5FA04986A
:1009F000059A4FF4007101F0BFFA099901200870BF
:100A000050E240F2ED21C2F200010A20087040F2EB
:100A10008C51C2F2000100200860FFE740F28C50C8
:100A2000C2F200000068B0F5C87F03DCFFE700F009
:100A3000D7FEF3E740F28C51C2F2000100200860BB
:100A400040F2ED21C2F2000103200870FFE740F2FE
:100A50008C50C2F200000068322803DCFFE700F08F
:100A6000BFFEF4E70999022008701BE240F2ED2175
:100A7000C2F2000103200870FFE740F28C50C2F27E
:100A800000000068642803DCFFE700F0A9FEF4E73B
:100A900040F28C51C2F200010020086040F2EC22CA
:100AA000C2F200020521117040F2F021C2F20001F1
:100AB0000860FFE740F2EC20C2F200000078042852
:100AC0000BD0FFE740F2F020C2F2000003F0F2FB8F
:100AD00000F078FF00F084FEECE70999032008702D
:100AE000E0E140F29030C2F2000001684FF4C870BB
:100AF000486340F2D831C2F200010968486340F20D
:100B00008850C2F20000007800284AD1FFE740F286
:100B1000ED21C2F200010A20087040F28C51C2F2AD
:100B2000000100200860FFE740F28C50C2F2000094
:100B300000688C2803DCFFE700F052FEF4E740F287
:100B40008C51C2F200010020086040F2ED21C2F297
:100B5000000103200870FFE740F28C50C2F2000051
:100B60000068322803DCFFE700F03AFEF4E740F2C9
:100B7000ED21C2F200010B200870FFE740F28C501B
:100B8000C2F200000068B0F5917F03DCFFE700F0DF
:100B900027FEF3E740F28C51C2F20001002008600A
:100BA00058E040F28850C2F200000078012850D18D
:100BB000FFE740F2ED21C2F200010A20087040F286
:100BC0008C51C2F2000100200860FFE740F28C5017
:100BD000C2F200000068782803DCFFE700F000FEA6
:100BE000F4E740F28C51C2F200010020086040F2AC
:100BF000ED21C2F2000103200870FFE740F28C50A3
:100C0000C2F200000068322803DCFFE700F0E8FDD4
:100C1000F4E740F28C51C2F200010020086040F27B
:100C2000ED21C2F200010C200870FFE740F28C5069
:100C3000C2F200000068B0F5917F03DCFFE700F02E
:100C4000CFFDF3E740F28C51C2F2000100200860B2
:100C5000FFE7FFE740F2ED21C2F200010320087038
:100C6000FFE740F28C50C2F200000068642803DC09
:100C7000FFE700F0B5FDF4E709990420087011E1E1
:100C800040F2F31000F062FF40F28C51C2F200011A
:100C90000020086040F28951C2F200010220087071
:100CA00040F2F020C2F2000003F004FBFFE740F244
:100CB0008950C2F20000007802280BD1FFE740F211
:100CC000F020C2F2000003F0F5FA00F07BFE00F025
:100CD00087FDECE740F28950C2F200000078E0B9ED
:100CE000FFE740F29030C2F20000039001684FF439
:100CF000FA60486340F6B73000F028FF03980168B7
:100D00004FF4C870486341F60000C4F202004FF48B
:100D10008041012201F030F924E040F28950C2F212
:100D20000000007801281CD1FFE740F2D830C2F261
:100D30000000029001684FF4AF60486340F6B7309E
:100D400000F004FF029801684FF4C870486341F650
:100D50000000C4F202004FF40071012201F00CF90E
:100D6000FFE7FFE741F60000C4F2020000904FF4F5
:100D700080410022019201F0FFF80098019A4FF49F
:100D8000007101F0F9F8019840F28C51C2F20001B3
:100D9000086009990520087084E040F28850C2F28A
:100DA00000000078012833D1FFE740F2ED21C2F2C4
:100DB00000010B200870FFE740F28C50C2F20000E7
:100DC0000068B0F5A57F03DCFFE700F009FDF3E75D
:100DD00040F28C51C2F200010020086040F2ED2187
:100DE000C2F200010D200870FFE740F28C50C2F201
:100DF00000000068B0F5077F03DCFFE700F0F0FCBF
:100E0000F3E740F28C51C2F20001002008603CE0A0
:100E100040F28850C2F200000078A8BBFFE740F221
:100E2000ED21C2F200010C200870FFE740F28C5067
:100E3000C2F200000068B0F5877F03DCFFE700F036
:100E4000CFFCF3E740F28C51C2F2000100200860B1
:100E5000086040F2ED21C2F200010D200870FFE7AA
:100E600040F28C50C2F20000006840F23A21884201
:100E700003DCFFE700F0B4FCF2E740F28C51C2F271
:100E8000000100200860FFE7FFE7099906200870CD
:100E900008E040F2ED21C2F200010320087000F0EA
:100EA0009FFCFFE70AB080BD80B5A2B021902199D8
:100EB00040F60040C4F20200086521998865219A35
:100EC00040F60001C4F20201116621998866219959
:100ED0004FF48060A1F8540021994FF40070A1F8FC
:100EE0005C0021994FF40050A1F8640021994FF45F
:100EF0008040A1F86C0021994FF48070A1F8560051
:100F000021994FF40060A1F85E0021991020A1F80A
:100F1000660021994FF40040A1F86E00FFE7002021
:100F2000209043F63000C4F20200016841F008014D
:100F30000160006800F0080020902098FFE7FFE7BC
:100F400000201F9043F63000C4F20200016841F017
:100F500004010160006800F004001F901F98FFE783
:100F6000FFE700201E9043F63000C4F20200016843
:100F700041F010010160006800F010001E901E9802
:100F8000FFE7012002901A90002004901B9002209D
:100F900003901C902199B1F85400B1F85610084301
:100FA00019902198006D19A900F0F2FD049A219B77
:100FB000186DB3F85410B3F85630194300F0DCFF45
:100FC000029A039804991592169117902199B1F8F5
:100FD0005C00B1F85E10084314902198806D14A94C
:100FE00000F0D6FD049A219B986DB3F85C10B3F81D
:100FF0005E30194300F0C0FF029A039804991092E2
:10100000119112902198B0F864000F902198006E11
:101010000FA900F0BDFD049A2199086EB1F8641083
:1010200000F0AAFF029A039804990B920C910D907C
:101030002198B0F866000A9041F20000C4F2020064
:1010400001900AA900F0A4FD0198049A2199B1F831
:10105000661000F091FF029A039804990692079196
:1010600008902199B1F86C00B1F86E100843059012
:101070002198806E05A900F08BFD049A219B986E43
:10108000B3F86C10B3F86E30194300F075FF22B05E
:1010900080BD000080B582B040F2A801C2F200011C
:1010A000019144F61A40C4F29A70C1F8B800C1F830
:1010B000BC0048F20000C4F29930C1F89800002347
:1010C000C4F2B433C1F89C300022C4F2AF32C1F88C
:1010D000A02048F20000C4F2AC30C1F8A40040F2F5
:1010E000000CC4F2A53CC1F8A8C0C1F8AC30C1F8EE
:1010F000B020C1F8B400012081F8C40049F69A106C
:10110000C3F69960C1F8C8004FF07C50C1F8CC001C
:101110004FF07E50C1F8D0000020C1F8C000086731
:1011200048678867C867C1F89000C1F8940040F22A
:101130009030C2F2000001684FF4C870486340F27A
:10114000D831C2F200010968486303F0F1F8019850
:10115000FFF7AAFE02B080BD80B586B005900020E2
:101160000490FFE70498032800F3B482FFE7049893
:10117000022840F03C81FFE70598049901EB410209
:1011800000EB820292ED000A00EBC10090ED0C1A18
:10119000B4EE410AF1EE10FA00F02881FFE7049A5C
:1011A00002EBC20140F28410C2F2000000EBC10069
:1011B000059901EBC20393ED0C0A02EB420201EB2D
:1011C0008201D1ED000A03F06DF90598049901EB55
:1011D000410100EB810080ED010A0598049901EBC3
:1011E000410100EB810090ED000ABDEEC00A10EE57
:1011F000100A04F099F804F092FB41EC100B51EC4A
:10120000100B9FEDE10B53EC102B04F00FFF48B9CE
:10121000FFE70598049901EB410100EB81010020F3
:101220004860FFE70598049901EB410100EB81005C
:1012300090ED010AB5EE400AF1EE10FA28DDFFE765
:101240000598049901EB410200EB820090ED010A40
:10125000B0EEC00A40F2A800C2F2000000EB81002C
:1012600090ED261A80EE010A8DED030A9DED030A2A
:101270009FEDC71A20EE010ABDEEC00A10EE100A5B
:101280000599049A02EB420201EB8201088136E0E3
:101290000598049901EB410100EB810090ED010AF2
:1012A000B5EE400AF1EE10FA28DAFFE70598049946
:1012B00001EB410200EB820090ED010AB0EEC00AA2
:1012C00040F2A800C2F2000000EB810090ED2A1A63
:1012D00080EE010A8DED030A9DED030A9FEDAC1A25
:1012E00020EE010ABDEEC00A10EE100A0599049A1C
:1012F00002EB420201EB82010881FFE7FFE705985C
:10130000049901EB410100EB81000089652809DBAC
:10131000FFE70598049901EB410100EB810164208E
:101320000881FFE70598049901EB410100EB81007A
:1013300090ED010AB5EE400AF1EE10FA12DDFFE77A
:1013400040F60000C4F202004FF40051002200F009
:1013500013FE41F20000C4F202001021012200F04D
:101360000BFE42E00598049901EB410100EB81007E
:1013700090ED010AB5EE400AF1EE10FA12DAFFE73D
:1013800040F60000C4F202004FF40051012200F0C8
:10139000F3FD41F20000C4F202001021002200F02F
:1013A000EBFD21E00598049901EB410100EB810080
:1013B00090ED010AB5EE400AF1EE10FA13D1FFE705
:1013C00041F20000C4F2020010210122019200F05B
:1013D000D3FD019A40F60000C4F202004FF4005120
:1013E00000F0CAFDFFE7FFE7FFE7FFE76DE10598C3
:1013F000049901EB410200EB820292ED000A00EB3E
:10140000C10090ED0C1AB4EE410AF1EE10FA00F0B2
:101410003781FFE7049A02EBC20140F28410C2F266
:10142000000000EBC100059901EBC20393ED0C0A2B
:1014300002EB420201EB8201D1ED000A03F032F827
:101440000598049901EB410100EB810080ED010A50
:101450000598049901EB410100EB810090ED000A31
:10146000BDEEC00A10EE100A03F05EFF04F057FA5A
:1014700041EC100B51EC100B9FED970B53EC102B24
:1014800004F0D4FD48B9FFE70598049901EB410148
:1014900000EB810100204860FFE70598049901EB0B
:1014A000410100EB810090ED010AB5EE400AF1EE3A
:1014B00010FA28DDFFE70598049901EB410200EBE3
:1014C000820090ED010AB0EEC00A40F2A800C2F21C
:1014D000000000EB810090ED261A80EE010A8DEDF0
:1014E000020A9DED020A9FED7E1A20EE010ABDEE72
:1014F000C00A10EE100A0599049A02EB420201EBB1
:101500008201088136E00598049901EB410100EB66
:10151000810090ED010AB5EE400AF1EE10FA28DAEA
:10152000FFE70598049901EB410200EB820090ED82
:10153000010AB0EEC00A40F2A800C2F2000000EBBF
:10154000810090ED2A1A80EE010A8DED020A9DEDD0
:10155000020A9FED631A20EE010ABDEEC00A10EEEA
:10156000100A0599049A02EB420201EB82010881FC
:10157000FFE7FFE70598049901EB410100EB8100CB
:10158000008965280FDB05E09A9999999999B93FE7
:101590000000C8420598049901EB410100EB81016C
:1015A00064200881FFE70598049901EB410100EBF5
:1015B000810090ED010AB5EE400AF1EE10FA15DD5A
:1015C000FFE70598049900EBC101086DB1F85610CA
:1015D000002200F0D1FC0598049900EBC101086DD0
:1015E000B1F85410012200F0C7FC48E005980499B6
:1015F00001EB410100EB810090ED010AB5EE400ADC
:10160000F1EE10FA15DAFFE70598049900EBC10135
:10161000086DB1F85410002200F0AEFC0598049952
:1016200000EBC101086DB1F85610012200F0A4FCD6
:1016300024E00598049901EB410100EB810090ED55
:10164000010AB5EE400AF1EE10FA16D1FFE705984F
:10165000049900EBC101086DB1F854100122009209
:1016600000F08AFC009A0598049900EBC101086D0E
:10167000B1F8561000F080FCFFE7FFE7FFE723E03A
:101680000598049901EB410100EB810090ED000AFF
:10169000B5EE400AF1EE10FA15D1FFE7059804996E
:1016A00000EBC10090ED0C0AB5EE400AF1EE10FA25
:1016B00009D1FFE70598049901EB410100EB810195
:1016C00000204860FFE7FFE7FFE7FFE704980130ED
:1016D000049047E506B080BD9A9999999999B93FC8
:1016E0000000C8420000000080B586B08DF81700E9
:1016F0009DF81700013801460391032864D8039927
:10170000DFE801F0022C3E5040F26840C2F20000D7
:1017100001900068406A4042ADF81200BDF9120025
:1017200047F6FF710291401A04F0F9F841EC100BF2
:1017300051EC100B9FED280B53EC102B03F074FEB3
:1017400041EC100B51EC100B04F0BAF80199024671
:101750000298ADF814200968486239E040F200317F
:10176000C2F200010868406AADF81200BDF812200C
:1017700047F6FF70121AADF814200968486227E096
:1017800040F2F841C2F200010868406AADF8120068
:10179000BDF8122047F6FF70121AADF81420096840
:1017A000486215E040F22041C2F200010868406A38
:1017B000ADF81200BDF8122047F6FF70121AADF80E
:1017C00014200968486203E00020ADF81400FFE728
:1017D000BDF9140006B080BD00000000000004C088
:1017E00080B582B040F2ED20C2F2000000780328FC
:1017F00008D1FFE740F2A801C2F20001002008670B
:10180000486767E040F2ED20C2F2000000780A2845
:101810000FD1FFE740F2A800C2F2000000210167EB
:1018200090ED2F0ABEEE001A20EE010A80ED1D0A8F
:101830004FE040F2ED20C2F2000000780B280FD1FB
:10184000FFE740F2A801C2F2000191ED2E0ABEEEC0
:10185000001A20EE010A81ED1C0A0020486737E0DB
:1018600040F2ED20C2F2000000780C280FD1FFE713
:1018700040F2A801C2F2000191ED2E0AB6EE001A64
:1018800020EE010A81ED1C0A002048671FE040F2AB
:10189000ED20C2F2000000780D280FD1FFE740F2E2
:1018A000A800C2F200000021016790ED2F0AB6EEF9
:1018B000001A20EE010A80ED1D0A07E040F2A8019F
:1018C000C2F20001002008674867FFE7FFE7FFE773
:1018D000FFE7FFE740F2A800C2F20000019090EDA0
:1018E0001E0AD0ED1F0AFEF7C3FD019BB3F90800E5
:1018F000B3F91410B3F92020B3F92C3002F076FDBF
:1019000002B080BD80B582B00190002000900090B0
:10191000FFE7009803283CDCFFE700980130C0B2E5
:10192000FFF7E2FE0199009A01EBC2018886019857
:10193000009900EBC100B0F9341064224A439108C9
:101940000901A1EB9201890000EE101AB8EEC00A5D
:101950009FED141A80EE010A80ED0C0A019800999F
:1019600000EBC10090ED0C0ABDEEC00A10EE100AAB
:1019700003F0DAFC002807DCFFE70198009900EB90
:10198000C10100200863FFE7FFE7009801300090E5
:10199000BFE7019890ED0C0AB1EE400A80ED0C0A09
:1019A00002B080BD0000C34340F28951C2F2000181
:1019B0000220087040F2EC21C2F2000103200870FE
:1019C0007047000080B582B040F2F020C2F2000003
:1019D000019002F06FFC0198006801281CD1FFE71C
:1019E00040F2F020C2F200004068012814D1FFE765
:1019F00040F2F020C2F20000806801280CD1FFE71D
:101A000040F28951C2F200010020087040F2885172
:101A1000C2F2000108706CE040F2F020C2F2000057
:101A2000006801281CD1FFE740F2F020C2F200005C
:101A30004068012814D1FFE740F2F020C2F2000014
:101A4000806868B9FFE740F28951C2F200010020C6
:101A5000087040F28851C2F200010120087047E08E
:101A600040F2F020C2F20000006801281CD1FFE71C
:101A700040F2F020C2F200004068A8B9FFE740F24F
:101A8000F020C2F20000806801280DD1FFE740F28B
:101A90008951C2F200010120087040F28851C2F25F
:101AA00000010020087022E040F2F020C2F20000A5
:101AB000006801281AD1FFE740F2F020C2F20000CE
:101AC000406898B9FFE740F2F020C2F20000806859
:101AD00060B9FFE740F28951C2F2000101200870AD
:101AE00040F28851C2F200010870FFE7FFE7FFE70C
:101AF000FFE740F2F020C2F200000068B8B9FFE74B
:101B000040F2F020C2F20000406801280FD1FFE748
:101B100040F2F020C2F200008068012807D1FFE700
:101B200040F2EC21C2F200010420087006E040F20D
:101B3000EC21C2F2000103200870FFE702B080BD73
:101B40007047000072B6FFE7FEE7000080B584B082
:101B5000039000F029FA0290039801900198013057
:101B600048B1FFE740F24000C2F20000017801985E
:101B700008440190FFE7FFE700F016FA0299401AC7
:101B80000199884201D2FFE7F6E704B080BD00006A
:101B90008EB00D900C9100200A90099008900B9047
:101BA000FFE70B980F2800F2CC81FFE70B9901208B
:101BB00088400A900C9800680A9908400990099892
:101BC0000A99884240F0B881FFE70C98406800F01D
:101BD0000300012807D0FFE70C98406800F00300DD
:101BE00002282FD1FFE70D98806808900B984100DC
:101BF000032000FA01F10898884308900C98C06807
:101C00000B99490000FA01F10898084308900898D8
:101C10000D9988600D98406808900B99012000FA92
:101C200001F10898884308900C984068C0F30010B0
:101C30000B9900FA01F108980843089008980D994B
:101C40004860FFE70C98406800F00300032818D0B4
:101C5000FFE70D98C06808900B984100032000FA38
:101C600001F10898884308900C9880680B99490006
:101C700000FA01F108980843089008980D99C86087
:101C8000FFE70C98406800F00300022826D1FFE728
:101C90000D980B996FF0030202EA51010844006AA3
:101CA00008900B9800F0070081000F2000FA01F166
:101CB0000898884308900C9800690B9901F0070177
:101CC000890000FA01F108980843089008980D99D6
:101CD0000B9B02EA530211440862FFE70D9800686B
:101CE00008900B984100032000FA01F108988843FE
:101CF00008900C98406800F003000B99490000FA26
:101D000001F108980843089008980D9908600C980C
:101D100080798007002800F00E81FFE7FFE70020B0
:101D2000079043F64400C4F20200016841F4804188
:101D30000160006800F4804007900798FFE70B9867
:101D400020F0030043F60801C4F201014058089056
:101D50000B9800F0030081000F2000FA01F10898B1
:101D6000884308900D980021C4F20201884203D1F3
:101D7000FFE7002006905EE00D9840F20041C4F2BB
:101D80000201884203D1FFE70120059050E00D9841
:101D900040F60001C4F20201884203D1FFE70220AD
:101DA000049042E00D9840F60041C4F202018842DE
:101DB00003D1FFE70320039034E00D9841F20001C6
:101DC000C4F20201884203D1FFE70420029026E01A
:101DD0000D9841F20041C4F20201884203D1FFE7AD
:101DE0000520019018E00D9841F60001C4F20201AF
:101DF000884203D1FFE7062000900AE00D9941F6E2
:101E00000042C4F202020820914208BF072000905D
:101E1000FFE700980190FFE701980290FFE7029822
:101E20000390FFE703980490FFE704980590FFE70D
:101E300005980690FFE70698C0B20B9901F00301E0
:101E4000890000FA01F108980843089008980B9956
:101E500021F0030143F60802C4F20102885043F660
:101E60000840C4F201000068089009990898884366
:101E700008900C988079C006002805D5FFE70999DD
:101E8000089808430890FFE7089843F60841C4F211
:101E90000101086043F60C40C4F20100006808909C
:101EA00009990898884308900C9880798006002842
:101EB00005D5FFE70999089808430890FFE70898B7
:101EC00043F60C41C4F20101086043F60440C4F239
:101ED00001000068089009990898884308900C98B8
:101EE00080798007002805D5FFE7099908980843FD
:101EF0000890FFE7089843F60441C4F20101086026
:101F000043F60040C4F2010000680890099908985F
:101F1000884308900C988079C00728B1FFE7099999
:101F2000089808430890FFE7089843F60041C4F278
:101F300001010860FFE7FFE7FFE70B9801300B9016
:101F40002FE60EB07047000082B00190ADF802108D
:101F500001980069BDF80210084204D0FFE7012093
:101F60008DF8010003E000208DF80100FFE79DF8E7
:101F7000010002B07047000082B00190ADF802107D
:101F80008DF801209DF8010028B1FFE7BDF802009F
:101F90000199886105E0BDF802000004019988619B
:101FA000FFE702B07047000040F29050C2F200001C
:101FB0000068704740F24000C2F20000027840F230
:101FC0009051C2F200010868104408607047000098
:101FD00080B543F60041C4F20201086840F4007085
:101FE0000860086840F480600860086840F4807009
:101FF0000860032000F08AF80F2000F005F800F0D8
:102000003BF8002080BD000080B582B0009040F217
:102010003C00C2F20000006840F24001C2F2000140
:102020000A784FF47A71B1FBF2F1B0FBF1F000F0F5
:102030007BFD20B1FFE701208DF8070018E0009834
:102040000F280DD8FFE700994FF0FF30002200F075
:1020500043F8009840F24401C2F20001086003E036
:1020600001208DF8070003E000208DF80700FFE74E
:102070009DF8070002B080BD82B0FFE7002001900C
:1020800043F64400C4F20200016841F4804101605B
:10209000006800F4804001900198FFE7FFE700200E
:1020A000009043F64000C4F20200016841F0805104
:1020B0000160006800F0805000900098FFE702B0D7
:1020C0007047000080B582B08DF807009DF90700C9
:1020D00003F038F802B080BD80B586B08DF81700E7
:1020E000049103920020029003F044F802909DF9BD
:1020F0001700019002980499039A02F09DF9014695
:10210000019803F03FF806B080BD000080B582B0B2
:102110000190019803F058F802B080BD80B584B0FA
:1021200002900191029820B9FFE701208DF80F007D
:1021300021E1019843F60041C4F20201096801F06F
:102140000701884212D9FFE7019943F60040C4F223
:1021500002000170006800F007000199884204D075
:10216000FFE701208DF80F0005E1FFE702980078F6
:10217000800700282AD5FFE702980078400700284A
:1021800009D5FFE743F60801C4F20201086840F4EC
:10219000E0500860FFE7029800780007002809D5A2
:1021A000FFE743F60801C4F20201086840F460400A
:1021B0000860FFE743F60801C4F20201086820F056
:1021C000F000029A926810430860FFE702980078D6
:1021D000C00700286ED0FFE702984068012811D19F
:1021E000FFE743F60000C4F20200006800F400318B
:1021F0000020B0EB514F04D1FFE701208DF80F0014
:10220000B9E02CE002984068022805D0FFE7029868
:102210004068032811D1FFE743F60000C4F2020032
:10222000006800F000710020B0EB516F04D1FFE7AF
:1022300001208DF80F009EE010E043F60000C4F28C
:102240000200006800F002010020B0EB510F04D141
:10225000FFE701208DF80F008DE0FFE7FFE743F671
:102260000801C4F20201086820F00300029A5268D3
:1022700010430860FFF798FE0090FFE743F6080060
:10228000C4F20200006800F00C0002994968B0EB4B
:10229000810F0ED0FFE7FFF787FE0099401A41F249
:1022A0008931884204D3FFE703208DF80F0062E0F4
:1022B000E4E7FFE7019843F60041C4F20201096830
:1022C00001F00701884212D2FFE7019943F600406E
:1022D000C4F202000170006800F007000199884212
:1022E00004D0FFE701208DF80F0044E0FFE70298DB
:1022F0000078400700280CD5FFE743F60801C4F238
:102300000201086820F4E050029AD2681043086085
:10231000FFE702980078000700280DD5FFE743F695
:102320000801C4F20201086820F46040029A1269B0
:1023300040EAC2000860FFE700F022F843F6080117
:10234000C4F202010968C9B20A0946F20611C0F6D0
:102350000001895CC84040F23C01C2F20001086003
:1023600040F24400C2F200000068FFF74DFE00207A
:102370008DF80F00FFE79DF80F0004B080BD00004E
:1023800080B586B00020059004900390029043F63B
:102390000800C4F20200006800F00C000146019140
:1023A00040B1FFE7019804280AD0FFE70198082808
:1023B0000CD04FE042F20040C0F2F40002904FE037
:1023C00047F64000C0F27D10029049E043F6040059
:1023D000C4F20200016801F03F010591006840026B
:1023E000002813D5FFE743F60400C4F2020000689A
:1023F000C0F3881047F64001C0F27D11A0FB010137
:10240000059A0023FDF746FF049012E043F604000E
:10241000C4F202000068C0F3881042F20041C0F22A
:10242000F401A0FB0101059A0023FDF733FF04909E
:10243000FFE743F60400C4F20200006800F44031F4
:10244000022000EBD130039004980399B0FBF1F027
:10245000029005E042F20040C0F2F4000290FFE773
:10246000029806B080BD000080B586B00490049844
:1024700020B9FFE701208DF8170050E30498007899
:10248000C007002800F0A580FFE743F60800C4F26B
:102490000200006800F00C00042813D0FFE743F6A8
:1024A0000800C4F20200006800F00C0008281ED1E9
:1024B000FFE743F60400C4F202000068400200286F
:1024C00015D5FFE743F60000C4F20200006800F4EF
:1024D00000310020B0EB514F08D0FFE7049840686E
:1024E00020B9FFE701208DF8170018E370E0FFE73F
:1024F00004984068B0F5803F09D1FFE743F600013A
:10250000C4F20201086840F48030086020E00498BA
:102510004068B0F5A02F0DD1FFE743F60001C4F2EB
:102520000201086840F480200860086840F48030A8
:1025300008600CE043F60001C4F20201086820F4D0
:1025400080300860086820F480200860FFE7FFE71B
:10255000FFE704984068E8B1FFE7FFF725FD039027
:10256000FFE743F60000C4F20200006800F4003107
:102570000020B0EB514F0CD1FFE7FFF715FD039999
:10258000401A652804D3FFE703208DF81700C6E240
:10259000E7E71CE0FFF708FD0390FFE743F60000C4
:1025A000C4F20200006800F400310020B0EB514F8B
:1025B0000CD0FFE7FFF7F8FC0399401A652804D315
:1025C000FFE703208DF81700A9E2E7E7FFE7FFE741
:1025D000FFE7049800788007002840F19680FFE725
:1025E00043F60800C4F20200006810F00C0F13D08C
:1025F000FFE743F60800C4F20200006800F00C0098
:1026000008282CD1FFE743F60400C4F2020000685A
:102610004002002823D4FFE743F60000C4F2020082
:10262000006800F002010020B0EB510F09D0FFE775
:102630000498C068012804D0FFE701208DF8170036
:102640006DE243F60001C4F20201086820F0F800D0
:10265000049A126940EAC2000860FFE754E0049857
:10266000C06870B3FFE70021C4F247210120086071
:10267000FFF79AFC0390FFE743F60000C4F2020064
:10268000006800F002010020B0EB510F0CD1FFE711
:10269000FFF78AFC0399401A032804D3FFE70320BD
:1026A0008DF817003BE2E7E743F60001C4F20201B0
:1026B000086820F0F800049A126940EAC200086035
:1026C00021E00021C4F2472100200860FFF76CFCE4
:1026D0000390FFE743F60000C4F20200006800F038
:1026E00002010020B0EB510F0CD0FFE7FFF75CFCBC
:1026F0000399401A032804D3FFE703208DF817003D
:102700000DE2E7E7FFE7FFE7FFE70498007800073F
:1027100000284BD5FFE70498406918B3FFE740F65F
:102720008061C4F2472101200860FFF73DFC03905F
:10273000FFE743F67400C4F20200006800F00201F3
:102740000020B0EB510F0CD1FFE7FFF72DFC0399F0
:10275000401A032804D3FFE703208DF81700DEE1B9
:10276000E7E722E040F68061C4F2472100200860DC
:10277000FFF71AFC0390FFE743F67400C4F202006F
:10278000006800F002010020B0EB510F0CD0FFE711
:10279000FFF70AFC0399401A032804D3FFE703203C
:1027A0008DF81700BBE1E7E7FFE7FFE70498007843
:1027B0004007002840F1CE80FFE700208DF8070099
:1027C00043F64000C4F202000068C000002815D49F
:1027D000FFE7FFE70020009043F64000C4F202004C
:1027E000016841F080510160006800F08050009065
:1027F0000098FFE701208DF80700FFE747F200008F
:10280000C4F200000068C005002822D4FFE747F2A8
:102810000001C4F20001086840F480700860FFF70E
:10282000C3FB0390FFE747F20000C4F2000000681A
:10283000C00500280CD4FFE7FFF7B6FB0399401A48
:10284000032804D3FFE703208DF8170067E1EAE7C8
:10285000FFE7FFE704988068012809D1FFE743F606
:102860007001C4F20201086840F0010008601FE036
:102870000498806805280DD1FFE743F67001C4F283
:102880000201086840F004000860086840F0010098
:1028900008600CE043F67001C4F20201086820F001
:1028A00001000860086820F004000860FFE7FFE707
:1028B000FFE704988068F8B1FFE7FFF775FB039026
:1028C000FFE743F67000C4F20200006800F0020166
:1028D0000020B0EB510F0ED1FFE7FFF765FB039926
:1028E000401A41F28931884204D3FFE703208DF872
:1028F000170014E1E5E71EE0FFF756FB0390FFE742
:1029000043F67000C4F20200006800F002010020EB
:10291000B0EB510F0ED0FFE7FFF746FB0399401ACB
:1029200041F28931884204D3FFE703208DF8170074
:10293000F5E0E5E7FFE79DF80700012809D1FFE78B
:1029400043F64001C4F20201086820F0805008609C
:10295000FFE7FFE704988069002800F0DC80FFE7CC
:1029600043F60800C4F20200006800F00C000828DA
:1029700000F08580FFE70498806902285CD1FFE7BA
:102980006021C4F2472100200860FFF70DFB03908F
:10299000FFE743F60000C4F20200006800F0007197
:1029A0000020B0EB516F0CD0FFE7FFF7FDFA039961
:1029B000401A032804D3FFE703208DF81700AEE088
:1029C000E7E70499C869D1F820C04B6A8A6A40EAEF
:1029D0000C0040EA8310D2034FF6FF739A43A2F52E
:1029E00080321043C96A40EA016043F60401C4F230
:1029F000020108606021C4F2472101200860FFF74E
:102A0000D3FA0390FFE743F60000C4F20200006827
:102A100000F000710020B0EB516F0CD1FFE7FFF721
:102A2000C3FA0399401A032804D3FFE703208DF863
:102A3000170074E0E7E721E06021C4F2472100209D
:102A40000860FFF7B1FA0390FFE743F60000C4F215
:102A50000200006800F000710020B0EB516F0CD054
:102A6000FFE7FFF7A1FA0399401A032804D3FFE711
:102A700003208DF8170052E0E7E7FFE74AE00498EB
:102A80008069012804D1FFE701208DF8170046E096
:102A900043F60400C4F202000068029004988069C2
:102AA000012831D0FFE7029800F480000499C96939
:102AB000884229D1FFE7029800F03F000499096A93
:102AC000884221D1FFE7029847F6C0710840049977
:102AD000496AB0EB811F17D1FFE7029800F440303C
:102AE0000499896AC9034FF6FF729143A1F58031B9
:102AF000884209D1FFE7029800F070600499C96A22
:102B0000B0EB016F04D0FFE701208DF8170006E05D
:102B1000FFE7FFE7FFE700208DF81700FFE79DF8CC
:102B2000170006B080BD000080B582B0019001980A
:102B300001F0BEFF02B080BD81B0009001B07047CF
:102B400081B0009001B0704785B003900291FFE71B
:102B5000039890F83C00012804D1FFE702208DF88B
:102B600013007EE00399012081F83C00FFE7FFE7B6
:102B70000399022081F83D000398006840680190A5
:102B80000398006880680090019820F07000019020
:102B90000298016801980843019001980399096817
:102BA0004860039800680021C4F2010188423CD0CB
:102BB000FFE703980068B0F1804F36D0FFE7039835
:102BC000006840F20041C4F2000188422DD0FFE7C6
:102BD0000398006840F60001C4F20001884224D046
:102BE000FFE70398006840F60041C4F20001884204
:102BF0001BD0FFE70398006840F20041C4F20101D6
:102C0000884212D0FFE70398006844F20001C4F242
:102C10000101884209D0FFE70398006841F60001EE
:102C2000C4F2000188420ED1FFE7009820F0800036
:102C3000009002984168009808430090009803991A
:102C400009688860FFE70399012081F83D00FFE7EC
:102C50000399002081F83C00FFE700208DF8130065
:102C6000FFE79DF8130005B07047000080B582B003
:102C70000090009820B9FFE701208DF807003FE0A1
:102C8000009890F83D0040B9FFE70099002081F8D6
:102C90003C00009800F038F8FFE70099022081F826
:102CA0003D00009951F8040B01F0A0FF00990120AC
:102CB00081F84600FFE70099012081F83E00009965
:102CC00081F83F00009981F84000009981F84100A7
:102CD000FFE7FFE70099012081F84200009981F8A1
:102CE0004300009981F84400009981F84500FFE70E
:102CF0000099012081F83D0000208DF80700FFE7D2
:102D00009DF8070002B080BD80B586B0059005989B
:102D1000006841F20001C4F2000188421BD1FFE7C4
:102D2000FFE70020049043F64000C4F2020001686F
:102D300041F010010160006800F010000490049858
:102D4000FFE73620019000221146FFF7C5F90198F0
:102D5000FFF7B8F937E00598006841F60041C4F282
:102D60000001884212D1FFE7FFE70020039043F6FD
:102D70004000C4F20200016841F080010160006877
:102D800000F0800003900398FFE71BE005980068BF
:102D900042F20001C4F20001884212D1FFE7FFE7CE
:102DA0000020029043F64000C4F20200016841F4A2
:102DB00080710160006800F4807002900298FFE763
:102DC000FFE7FFE7FFE706B080BD000083B001909A
:102DD000019890F83D00012804D0FFE701208DF80C
:102DE0000B006AE00199022081F83D00019801681A
:102DF000C86840F00100C860019800680021C4F272
:102E0000010188423CD0FFE701980068B0F1804F93
:102E100036D0FFE70198006840F20041C4F200019B
:102E200088422DD0FFE70198006840F60001C4F207
:102E30000001884224D0FFE70198006840F6004175
:102E4000C4F2000188421BD0FFE70198006840F2FD
:102E50000041C4F20101884212D0FFE701980068E6
:102E600044F20001C4F20101884209D0FFE7019851
:102E7000006841F60001C4F20001884212D1FFE768
:102E800001980068806800F007000090009806280C
:102E900007D0FFE701980168086840F0010008606A
:102EA000FFE706E001980168086840F0010008604B
:102EB000FFE700208DF80B00FFE79DF80B0003B043
:102EC0007047000080B586B004900391049820B943
:102ED000FFE701208DF8170088E0049890F83D0086
:102EE00040B9FFE70499002081F83C00049800F005
:102EF00081F8FFE70499022081F83D0004980168F9
:102F0000886844F2070290438860049951F8040BE2
:102F100001F06CFE049800688068029004980068D4
:102F20008069019004980068006A00900398016825
:102F3000029808430290019840F2033188430190BF
:102F400003998868896940EA012101980843019042
:102F5000019840F60C418843019001984FF2F0012E
:102F6000884301900399C868C96940EA0121019822
:102F70000843019003990869096A000140EA013198
:102F8000019808430190009820F0220000900098DA
:102F900020F08800009003994868496940EA0111CF
:102FA0000098084300900298049909688860019885
:102FB000049909688861009804990968086204996D
:102FC000012081F84600049981F83E00049981F8B7
:102FD0003F00049981F84200049981F84300049964
:102FE00081F83D0000208DF81700FFE79DF81700DD
:102FF00006B080BD80B594B013900020129011905F
:1030000010900F900E90139800680021C4F20101F7
:1030100088425AD1FFE7FFE700200D9043F64400B5
:10302000C4F20200016841F001010160006800F093
:1030300001000D900D98FFE7FFE700200C9043F68C
:103040003000C4F20200016841F010010160006824
:1030500000F010000C900C98FFE7FFE700200B90A9
:1030600043F63000C4F20200016841F00101016042
:10307000006800F001000B900B98FFE74FF4006030
:103080000E90022001900F9000200290109011905D
:1030900001200390129041F20000C4F202000EA938
:1030A0000491FEF775FD019B029A039804994FF471
:1030B000807CCDF838C00F931092119212900020AE
:1030C000C4F20200FEF764FDB3E01398006840F21A
:1030D0000041C4F20001884231D1FFE7FFE7002040
:1030E0000A9043F64000C4F20200016841F0020178
:1030F0000160006800F002000A900A98FFE7FFE70D
:103100000020099043F63000C4F20200016841F04B
:1031100001010160006800F0010009900998FFE7D3
:10312000C0200E9002200F9000211091119112905A
:103130000020C4F202000EA9FEF72AFD78E01398E1
:10314000006840F60001C4F20001884232D1FFE776
:10315000FFE70020089043F64000C4F20200016837
:1031600041F004010160006800F004000890089834
:10317000FFE7FFE70020079043F63000C4F20200AB
:10318000016841F002010160006800F00200079050
:103190000798FFE7C0200E9002200F9000211091A9
:1031A0001191129040F20040C4F202000EA9FEF705
:1031B000EFFC3CE01398006840F20041C4F20101CA
:1031C000884233D1FFE7FFE70020069043F6440032
:1031D000C4F20200016841F002010160006800F0E1
:1031E000020006900698FFE7FFE70020059043F6EF
:1031F0003000C4F20200016841F00401016000687F
:1032000000F0040005900598FFE7C0200E90022012
:103210000F900020109011900320129040F60000B3
:10322000C4F202000EA9FEF7B3FCFFE7FFE7FFE7D9
:10323000FFE714B080BD000080B586B00490039114
:10324000049890F83E008DF80B00049890F83F0029
:103250008DF80A00049890F842008DF8090004984F
:1032600090F843008DF808000398B8B9FFE79DF87F
:103270000B00012805D1FFE79DF80900012804D0C3
:10328000FFE701208DF8170079E00499022081F80A
:103290003E00049981F84200FFE742E003980428C9
:1032A00017D1FFE79DF80A00012805D1FFE79DF837
:1032B0000800012804D0FFE701208DF817005EE028
:1032C0000499022081F83F00049981F84300FFE748
:1032D00026E09DF80B0001280FD1FFE79DF80A00BA
:1032E00001280AD1FFE79DF80900012805D1FFE771
:1032F0009DF80800012804D0FFE701208DF8170091
:103300003DE00499022081F83E00049981F83F00D5
:10331000049981F84200049981F84300FFE7FFE730
:10332000FFE70398019020B1FFE70198042807D038
:103330000DE0049800680021012201F029FD14E04D
:10334000049800680421012201F022FD0DE0049898
:10335000006800210122009201F01AFD009A0498F1
:103360000068042101F014FDFFE704980168086873
:1033700040F00100086000208DF81700FFE79DF87D
:10338000170006B080BD000081B0009001B070470A
:1033900080B584B0039003980068C06802900398D9
:1033A0000068006901909DF804008007002824D57A
:1033B000FFE79DF80800800700281DD5FFE7039868
:1033C00001686FF0020008610399012008770398F3
:1033D00000688069800720B1FFE70398FFF7D4FFFA
:1033E00006E0039800F0A0F9039800F0CDFAFFE79B
:1033F000039900200877FFE7FFE79DF804004007E6
:10340000002825D5FFE79DF80800400700281ED5B5
:10341000FFE7039801686FF0040008610399022038
:10342000087703980068806910F4407F04D0FFE7B4
:103430000398FFF7A9FF06E0039800F075F90398D9
:1034400000F0A2FAFFE7039900200877FFE7FFE703
:103450009DF804000007002824D5FFE79DF8080028
:10346000000700281DD5FFE7039801686FF00800EA
:10347000086103990420087703980068C0698007F1
:1034800020B1FFE70398FFF77FFF06E0039800F005
:103490004BF9039800F078FAFFE7039900200877CA
:1034A000FFE7FFE79DF80400C006002825D5FFE7E9
:1034B0009DF80800C00600281ED5FFE703980168A4
:1034C0006FF01000086103990820087703980068DE
:1034D000C06910F4407F04D0FFE70398FFF754FF62
:1034E00006E0039800F020F9039800F04DFAFFE79A
:1034F000039900200877FFE7FFE79DF80400C00765
:1035000078B1FFE79DF80800C00748B1FFE70398CE
:1035100001686FF001000861039800F01FFBFFE7EE
:10352000FFE79DF804000006002810D5FFE79DF88E
:1035300008000006002809D5FFE7039801686FF02E
:10354000800008610398FFF7F7FAFFE7FFE79DF8AF
:1035500004004006002810D5FFE79DF8080040064B
:10356000002809D5FFE7039801686FF04000086163
:10357000039800F027FBFFE7FFE79DF804008006B3
:10358000002810D5FFE79DF808008006002809D51F
:10359000FFE7039801686FF0200008610398FFF7C8
:1035A000CFFAFFE7FFE704B080BD000080B58AB026
:1035B00009900020089007900690059004900998C3
:1035C000006844F20001C4F20101884222D1FFE701
:1035D000FFE70020039043F63000C4F202000168C8
:1035E00041F010010160006800F0100003900398A2
:1035F000FFE76020049002200590002006900790CD
:103600000320089041F20000C4F2020004A9FEF772
:10361000BFFA86E00998006841F60001C4F2000193
:10362000884223D1FFE7FFE70020029043F63000F5
:10363000C4F20200016841F002010160006800F07C
:10364000020002900298FFE74FF4404004900220ED
:1036500005900020069007900920089040F2004055
:10366000C4F2020004A9FEF793FA59E00998006831
:1036700041F60041C4F20001884223D1FFE7FFE791
:103680000020019043F63000C4F20200016841F0CE
:1036900020010160006800F0200001900198FFE720
:1036A0004FF480700490022005900020069007904F
:1036B0000920089041F20040C4F2020004A9FEF77C
:1036C00067FA2CE00998006842F20001C4F2000198
:1036D000884223D1FFE7FFE70020009043F6300047
:1036E000C4F20200016841F020010160006800F0AE
:1036F000200000900098FFE74FF400700490022033
:1037000005900020069007900920089041F20040A3
:10371000C4F2020004A9FEF73BFAFFE7FFE7FFE768
:10372000FFE70AB080BD000081B0009001B0704793
:1037300080B586B004900391029200208DF80700B6
:10374000FFE7049890F83C00012804D1FFE702202D
:103750008DF8170089E00499012081F83C00FFE70B
:10376000FFE7029800900C2800F270800099DFE8D3
:1037700001F0076D6D6D206D6D6D3A6D6D6D5300CF
:1037800004980068039901F01FFB04980168886998
:1037900040F00800886104980168886920F00400FE
:1037A00088610398026904980168886910438861F8
:1037B00050E004980068039901F07CFB04980168CC
:1037C000886940F40060886104980168886920F481
:1037D000806088610398026904980168886940EAFA
:1037E0000220886136E004980068039901F0DCFB50
:1037F00004980168C86940F00800C861049801682D
:10380000C86920F00400C86103980269049801683F
:10381000C8691043C8611DE004980068039901F06D
:103820003DFC04980168C86940F40060C8610498D0
:103830000168C86920F48060C8610398026904982F
:103840000168C86940EA0220C86103E001208DF8E0
:103850000700FFE7FFE70499002081F83C00FFE73D
:103860009DF807008DF81700FFE79DF8170006B0D8
:1038700080BD000080B582B00090009820B9FFE7BD
:1038800001208DF807003FE0009890F83D0040B916
:10389000FFE70099002081F83C00009800F038F81C
:1038A000FFE70099022081F83D00009951F8040BD0
:1038B00001F09CF90099012081F84600FFE700998A
:1038C000012081F83E00009981F83F00009981F8BD
:1038D0004000009981F84100FFE7FFE700990120CF
:1038E00081F84200009981F84300009981F8440072
:1038F000009981F84500FFE70099012081F83D001B
:1039000000208DF80700FFE79DF8070002B080BD9A
:1039100083B002900298006844F20001C4F20101F1
:10392000884212D1FFE7FFE70020019043F64400F0
:10393000C4F20200016841F480310160006800F4C3
:10394000803001900198FFE71BE00298006841F683
:103950000001C4F20001884212D1FFE7FFE7002016
:10396000009043F64000C4F20200016841F04001BB
:103970000160006800F0400000900098FFE7FFE75A
:10398000FFE703B07047000081B0009001B07047BE
:1039900080B58CB00A900991099828B9FFE70A9878
:1039A00090F83E0007901CE00998042805D1FFE735
:1039B0000A9890F83F00069010E00998082805D171
:1039C000FFE70A9890F84000059004E00A9890F804
:1039D00041000590FFE705980690FFE706980790DD
:1039E000FFE70798012804D0FFE701208DF82F009A
:1039F000AFE0099828B9FFE70A99022081F83E0054
:103A00001EE00998042806D1FFE70A99022081F8F0
:103A10003F00049012E00998082806D1FFE70A99B0
:103A2000022081F84000039005E00A99022081F805
:103A300041000390FFE703980490FFE70498FFE735
:103A40000A98006809990122019201F0A1F90198F0
:103A50000A9909680022C4F20102914202900CD036
:103A6000FFE70A9800684FF60041CBF6FE71084464
:103A7000B0FA80F040090290FFE70298C00738B121
:103A8000FFE70A980168486C40F400404864FFE78B
:103A90000A9800680021C4F2010188423CD0FFE787
:103AA0000A980068B0F1804F36D0FFE70A980068A6
:103AB00040F20041C4F2000188422DD0FFE70A988D
:103AC000006840F60001C4F20001884224D0FFE7FC
:103AD0000A98006840F60041C4F2000188421BD0F9
:103AE000FFE70A98006840F20041C4F201018842F1
:103AF00012D0FFE70A98006844F20001C4F2010105
:103B0000884209D0FFE70A98006841F60001C4F234
:103B10000001884212D1FFE70A980068806800F02F
:103B2000070008900898062807D0FFE70A98016860
:103B3000086840F001000860FFE706E00A980168A5
:103B4000086840F001000860FFE700208DF82F00B2
:103B5000FFE79DF82F000CB080BD000080B582B05B
:103B600001900198006841F20001C4F2000188420E
:103B700026D1FFE740F28C51C2F200010868013003
:103B8000086040F2FC21C2F2000100910868013097
:103B9000086040F2A800C2F20000FDF7B3FE00F09A
:103BA00077FD009800680A2809DBFFE700F026FE91
:103BB00040F2A800C2F20000FDF7CEFAFFE7FFE7EF
:103BC00002B080BD81B0009001B07047FFE7FEE712
:103BD00080B598B00020179016901590149013900F
:103BE000FFE70020129043F63000C4F202000168A3
:103BF00041F010010160006800F01000129012986E
:103C0000FFE7FFE70020119043F63000C4F2020006
:103C1000016841F004010160006800F004001190A7
:103C20001198FFE7FFE70020109043F63000C4F240
:103C30000200016841F020010160006800F02000EE
:103C400010901098FFE7FFE700200F9043F6300038
:103C5000C4F20200016841F080010160006800F0D8
:103C600080000F900F98FFE7FFE700200E9043F6CB
:103C70003000C4F20200016841F0010101600068F7
:103C800000F001000E900E98FFE7FFE700200D9076
:103C900043F63000C4F20200016841F00201016005
:103CA000006800F002000D900D98FFE7FFE700208C
:103CB0000C9043F63000C4F20200016841F00801A4
:103CC0000160006800F008000C900C98FFE7FFE727
:103CD00000200B9043F63000C4F20200016841F06E
:103CE00040010160006800F040000B900B98FFE776
:103CF00041F20000C4F20200019010210091002264
:103D00000892FEF739F9089A40F60000C4F2020062
:103D100003904FF400510291FEF72EF9089A40F6F5
:103D20000040C4F2020005904FF44F410491FEF7A9
:103D300023F9089A41F60000C4F2020009904FF4FA
:103D400084410691FEF718F9009A01980899139298
:103D50000122079214921591169113A90A91FDF769
:103D600017FFDDF808C00398079B089A0A99CDF859
:103D70004CC0149315921692FDF70AFF08980A9901
:103D80004FF4406213921490159040F20040C4F238
:103D90000200FDF7FDFEDDF810C00598079B089AAC
:103DA0000A99CDF84CC0149315921692FDF7F0FEC7
:103DB00008980A994FF400721392149015900020FD
:103DC000C4F20200FDF7E4FEDDF818C0079B089A74
:103DD00009980A99CDF84CC0149315921692FDF7E4
:103DE000D7FE18B080BD000080B588B000210091DA
:103DF000079106910591049103910291019140F27E
:103E00004830C2F2000041F60002C4F20002026033
:103E100040F28F62426081606322C2600161816111
:103E2000FFF728FD18B1FFE7FDF78CFEFFE76020E4
:103E30000190002202920392059240F24830C2F2B1
:103E4000000001A9FFF774FC18B1FFE7FDF77AFE47
:103E5000FFE740F24830C2F2000001A90422FFF758
:103E600067FC18B1FFE7FDF76DFEFFE740F2483051
:103E7000C2F20000FFF79AFB08B080BD80B588B0A1
:103E800000210091079106910591049103910291FF
:103E9000019140F29030C2F2000041F60042C4F2BB
:103EA0000002026053224260816044F61F62C260D9
:103EB00001618161FEF7DAFE18B1FFE7FDF742FE0E
:103EC000FFE740F29030C2F20000FFF7D3FC18B1D8
:103ED000FFE7FDF737FEFFE7602001900022029226
:103EE0000392059240F29030C2F2000001A9FFF760
:103EF0001FFC18B1FFE7FDF725FEFFE740F2903009
:103F0000C2F20000FFF752FB08B080BD80B588B058
:103F1000002100910791069105910491039102916E
:103F2000019140F2D830C2F2000042F20002C4F225
:103F30000002026053224260816044F61F62C26048
:103F400001618161FEF792FE18B1FFE7FDF7FAFD0E
:103F5000FFE740F2D830C2F20000FFF78BFC18B147
:103F6000FFE7FDF7EFFDFFE76020019000220292DE
:103F70000392059240F2D830C2F2000001A9FFF787
:103F8000D7FB18B1FFE7FDF7DDFDFFE740F2D830C2
:103F9000C2F20000FFF70AFB08B080BD80B58EB00A
:103FA00005A800902421FCF7EDF900990023019366
:103FB0000493039340F20030C2F20000029000220A
:103FC000C4F201020260436083604FF6FF72C26078
:103FD0000361436183614FF0010CCDF814C0069377
:103FE000CDF81CC008930F2209920A93CDF82CC07B
:103FF0000C930D92FEF766FF18B1FFE7FDF7A2FDE7
:10400000FFE700200390049040F20030C2F200006D
:1040100003A9FEF799FD18B1FFE7FDF793FDFFE750
:104020000EB080BD80B58EB005A801902421FCF7AC
:10403000A9F90199002302930493039340F22040CD
:10404000C2F2000040F20042C4F20002026043608B
:1040500083604FF6FF72C260036183614FF0010C11
:10406000CDF814C00693CDF81CC008930F22099216
:104070000A93CDF82CC00C930D92FEF723FF18B1D4
:10408000FFE7FDF75FFDFFE700200390049040F29B
:104090002040C2F2000003A9FEF756FD18B1FFE769
:1040A000FDF750FDFFE70EB080BD000080B58EB07B
:1040B00005A801902421FCF765F9019900230293DA
:1040C0000493039340F26840C2F2000040F60002FD
:1040D000C4F200020260436083604FF6FF72C26068
:1040E000036183614FF0010CCDF814C00693CDF845
:1040F0001CC008930F2209920A93CDF82CC00C9390
:104100000D92FEF7DFFE18B1FFE7FDF71BFDFFE79D
:1041100000200390049040F26840C2F2000003A91E
:10412000FEF712FD18B1FFE7FDF70CFDFFE70EB03B
:1041300080BD000080B582B000210191009140F265
:10414000B040C2F2000041F20002C4F2000202607C
:1041500042F2CF02426081606322C2608161FEF759
:1041600085FD18B1FFE7FDF7EDFCFFE700200090AB
:10417000019040F2B040C2F200006946FEF7E4FC54
:1041800018B1FFE7FDF7DEFCFFE702B080BD0000DD
:1041900080B58EB005A800902421FCF7F3F80099B3
:1041A000002301930493039340F2F840C2F200000D
:1041B000029040F20042C4F2010202604360836058
:1041C0004FF6FF72C2600361436183614FF0010CDF
:1041D000CDF814C00693CDF81CC008930F220992A5
:1041E0000A93CDF82CC00C930D92FEF76BFE18B11C
:1041F000FFE7FDF7A7FCFFE700200390049040F2E3
:10420000F840C2F2000003A9FEF79EFC18B1FFE7D8
:10421000FDF798FCFFE70EB080BD000080B588B0C8
:10422000002100910791069105910491039102915B
:10423000019140F24050C2F2000044F20002C4F288
:104240000102026040F28F62426081606322C260BC
:1042500001618161FFF70EFB18B1FFE7FDF772FC0A
:10426000FFE760200190002202920392059240F243
:104270004050C2F2000001A9FFF75AFA18B1FFE757
:10428000FDF760FCFFE740F24050C2F2000001A9D8
:104290000422FFF74DFA18B1FFE7FDF753FCFFE7E3
:1042A00040F24050C2F20000FFF780F908B080BD34
:1042B000FFE7FEE780B582B001900020C4F2020063
:1042C0004FF40071FDF740FE012804D1FFE701998A
:1042D0000120086003E0019900200860FFE740F238
:1042E0000040C4F202004FF48061FDF72DFE01286A
:1042F00004D1FFE701990120486003E00199002003
:104300004860FFE740F20040C4F202004FF4006151
:10431000FDF71AFE012804D1FFE70199012088600A
:1043200003E0019900208860FFE702B080BD000033
:1043300081B000200090FFE70098032854DCFFE7DD
:10434000009940F22800C2F2000050F8210001EB71
:10435000C10140F28412C2F2000202EBC1014860C6
:10436000009940F20000C2F2000050F8210001EB79
:10437000C10102EBC101C860009940F21400C2F211
:10438000000050F8210001EBC10102EBC10188607F
:10439000009800EBC00002EBC0010020C4F27A30AC
:1043A0004861009800EBC00002EBC0010020C4F29D
:1043B0009630086140F2A801C2F2000191ED300A86
:1043C000BDEEC00A10EE100A009B03EBC30302F817
:1043D0003300009800EB4002002041F82200FFE784
:1043E000009801300090A7E701B0704782B0ADF8A7
:1043F0000600ADF80410ADF80220ADF80030BDF9AC
:10440000060040F24831C2F200010A685063BDF96B
:10441000040009688863BDF9020040F24051C2F20D
:1044200000010A685063BDF900000968886302B0A2
:1044300070470000FFE7FEE788B0079006910592FD
:10444000079800F0070004900498C0F107000528C1
:1044500003D3FFE70420019004E00498C0F10700B3
:104460000190FFE70198039004980430062803D8D0
:10447000FFE70020009003E0049803380090FFE776
:104480000098029006980399012202FA01F101397D
:104490000840029B984005999A40013A1140084310
:1044A00008B0704780B584B002908DED010ACDED63
:1044B000000A029818B9FFE70020039093E00299E0
:1044C000086C48640299C86B08649DED000A9DED74
:1044D000011A30EE410A029880ED0F0A0298007826
:1044E000012838D1FFE7029890ED010A90ED0F1AEC
:1044F00090ED102A31EE421A20EE010A80ED090AF1
:10450000029890ED020A90ED0F1A20EE010A80ED5C
:104510000A0A0299486B88630299086B48630298FB
:1045200090ED0F0A90ED102A90ED111A32EE022A4A
:1045300030EE420A30EE010A80ED0C0A029890ED4E
:10454000030A90ED0C1A20EE010A80ED0B0A029886
:1045500000F04EF836E00298007890BBFFE7029832
:1045600090ED010A90ED0F1A20EE010A80ED090A84
:10457000029890ED020A90ED0A1A90ED0F2A20EEB3
:10458000020A30EE010A80ED0A0A0299486B88633C
:104590000299086B4863029890ED0F0A90ED101A8B
:1045A00030EE410A80ED0C0A029890ED030A90ED7E
:1045B0000C1A20EE010A80ED0B0A029800F018F8A0
:1045C000FFE7FFE7029890ED090A90ED0A2A90EDC7
:1045D0000B1A30EE020A30EE010A80ED080A02984A
:1045E000006A0390FFE79DED030A04B080BD000060
:1045F00081B00090009890ED051A90ED0A0AB4EE93
:10460000410AF1EE10FA04DDFFE70099486988627B
:1046100015E0009890ED051A90ED0A0AB1EE411AE6
:10462000B4EE410AF1EE10FA08DAFFE7009890EDD7
:10463000050AB1EE400A80ED0A0AFFE7FFE700989D
:1046400090ED041A90ED080AB4EE410AF1EE10FA6A
:1046500004DDFFE700990869086215E0009890ED15
:10466000041A90ED080AB1EE411AB4EE410AF1EED7
:1046700010FA08DAFFE7009890ED040AB1EE400A5C
:1046800080ED080AFFE7FFE701B0704770470000C0
:1046900080B594B040F2A800C2F20000119090EDF5
:1046A0000C0A30EE000A9FED522A20EE020A9FED1E
:1046B000511A80EE010A8DED130A90ED0E0A30EECC
:1046C000000A20EE020A80EE010A8DED120A9DED2D
:1046D000130A9DED121A30EE010A10EE100A01F0D5
:1046E00065FC41EC100B51EC100B9FED3D0B53ECB6
:1046F000102B0893079200F04BFF0246119801928D
:104700000A46019942EC101B8DED020BD0F8900087
:1047100001F04CFC9DED020B41EC110B8DED041BE7
:1047200051EC100B9FED300B53EC102B0D930C92B2
:1047300001F084F99DED040B41EC110B51EC110BD0
:1047400053EC102B00F070FE41EC100B51EC100BF1
:1047500000F038FE1199C1F890009DED130A9DED0F
:10476000121A30EE410A10EE100A01F01FFC079AEF
:10477000089B41EC100B51EC100B00F009FF0246B6
:10478000119809920A46099942EC101B8DED0A0B0B
:10479000D0F8940001F00AFC9DED0A0B0C9A0D9BD9
:1047A00041EC110B8DED0E1B51EC100B01F046F995
:1047B0009DED0E0B41EC110B51EC110B53EC102B3A
:1047C00000F032FE41EC100B51EC100B00F0FAFD42
:1047D0001199C1F8940014B080BD00BF00BF00BFA4
:1047E0008FC2F5285C8F06400000000000002440C6
:1047F000DA0F4940000070427047000040F2A80004
:10480000C2F2000090ED1C0AB5EE400AF1EE10FA7B
:1048100000F09780FFE740F2A800C2F2000090EDA0
:104820001C0A90ED1E1AB4EE410AF1EE10FA19DBE3
:10483000FFE740F2A800C2F2000090ED1C0AB5EEBE
:10484000400AF1EE10FA0DDDFFE740F2A800C2F2D7
:10485000000090ED200A9FED951A30EE010A80EDE0
:104860001E0A27E040F2A800C2F2000090ED1C0AE8
:1048700090ED1E1AB4EE410AF1EE10FA19DCFFE7D2
:1048800040F2A800C2F2000090ED1C0AB5EE400A0A
:10489000F1EE10FA0DDAFFE740F2A800C2F20000D4
:1048A00090ED200A9FED801A30EE010A80ED1E0A7D
:1048B000FFE7FFE740F2A800C2F2000090ED1E0AF9
:1048C00090ED2E1AB6EE002A21EE021AB4EE410A3D
:1048D000F1EE10FA0DDBFFE740F2A800C2F2000093
:1048E00090ED2E0AB6EE001A20EE010A80ED1E0AA7
:1048F0001FE040F2A800C2F2000090ED1E0A90ED09
:104900002E1ABEEE002A21EE021AB4EE410AF1EE92
:1049100010FA0DDCFFE740F2A800C2F2000090EDB3
:104920002E0ABEEE001A20EE010A80ED1E0AFFE7F5
:10493000FFE740F2A801C2F20001886FC1F88000D1
:1049400006E040F2A801C2F2000100208867FFE7FC
:1049500040F2A800C2F2000090ED1D0AB5EE400A38
:10496000F1EE10FA00F09780FFE740F2A800C2F2E3
:10497000000090ED1D0A90ED1F1AB4EE410AF1EE11
:1049800010FA19DBFFE740F2A800C2F2000090ED38
:104990001D0AB5EE400AF1EE10FA0DDDFFE740F218
:1049A000A800C2F2000090ED210A9FED401A30EEFF
:1049B000010A80ED1F0A27E040F2A800C2F20000C1
:1049C00090ED1D0A90ED1F1AB4EE410AF1EE10FAB7
:1049D00019DCFFE740F2A800C2F2000090ED1D0ACA
:1049E000B5EE400AF1EE10FA0DDAFFE740F2A8004A
:1049F000C2F2000090ED210A9FED2B1A30EE010A61
:104A000080ED1F0AFFE7FFE740F2A800C2F20000B6
:104A100090ED1F0A90ED2F1AB6EE002A21EE021A31
:104A2000B4EE410AF1EE10FA0DDBFFE740F2A80008
:104A3000C2F2000090ED2F0AB6EE001A20EE010A35
:104A400080ED1F0A1FE040F2A800C2F2000090EDC6
:104A50001F0A90ED2F1ABEEE002A21EE021AB4EEC4
:104A6000410AF1EE10FA0DDCFFE740F2A800C2F2B5
:104A7000000090ED2F0ABEEE001A20EE010A80ED34
:104A80001F0AFFE7FFE740F2A801C2F20001C86F6A
:104A9000C1F8840006E040F2A801C2F20001002043
:104AA000C867FFE7704700BF002014C50020144509
:104AB00080B582B0009000980138B0F1807F03D3B8
:104AC000FFE70120019019E0009801384EF214012F
:104AD000CEF2000108604FF0FF300F2100F052FBD2
:104AE0004EF21801CEF20001002008604EF21002D2
:104AF000CEF20002072111600190FFE7019802B099
:104B000080BD000080B5FDF755FA80BD80B594B03A
:104B100008A83021FBF736FC00200790069005908E
:104B200004900390FFE70020029043F64000C4F297
:104B30000200016841F080510160006800F080507F
:104B400002900298FFE7FFE70020019047F2000083
:104B5000C4F20000016841F480410160006800F483
:104B6000804001900198FFE70220089001210B91FD
:104B700010210C910E9000210F9108211091A82175
:104B8000119112900420139008A8FDF76DFC18B144
:104B9000FFE7FCF7D7FFFFE70F2003900220049008
:104BA000002005904FF4A05006904FF480500790DD
:104BB00003A80521FDF7B2FA18B1FFE7FCF7C2FF21
:104BC000FFE714B080BD00004EF68851CEF2000120
:104BD000086840F4700008607047000080B540F23B
:104BE000B040C2F20000FEF7D3FB80BD83B002905C
:104BF000019102980068009002980021C4F201011E
:104C0000884225D0FFE70298B0F1804F20D0FFE71F
:104C1000029840F20041C4F20001884218D0FFE738
:104C2000029840F60001C4F20001884210D0FFE76C
:104C3000029840F60041C4F20001884208D0FFE724
:104C4000029840F20041C4F2010188420AD1FFE714
:104C5000009820F070000090019841680098084387
:104C60000090FFE702980021C4F20101884255D06C
:104C7000FFE70298B0F1804F50D0FFE7029840F272
:104C80000041C4F20001884248D0FFE7029840F694
:104C90000001C4F20001884240D0FFE7029840F6CC
:104CA0000041C4F20001884238D0FFE7029840F288
:104CB0000041C4F20101884230D0FFE7029844F27B
:104CC0000001C4F20101884228D0FFE7029844F2B3
:104CD0000041C4F20101884220D0FFE7029844F667
:104CE0000001C4F20101884218D0FFE7029841F6A2
:104CF0000001C4F20001884210D0FFE7029841F69B
:104D00000041C4F20001884208D0FFE7029842F255
:104D10000001C4F2000188420AD1FFE7009820F4A4
:104D2000407000900198C168009808430090FFE728
:104D3000009820F08000019949690843009001988B
:104D400080680299C8620198006802998862029896
:104D50000021C4F20101884208D0FFE7029840F226
:104D60000041C4F20101884205D1FFE701980069C2
:104D700002990863FFE70299086840F004000860A0
:104D800002990120486100980299086003B07047B9
:104D900084B0039002910192029800F01F0101205B
:104DA00088400090009A0399086A9043086201982D
:104DB000029901F01F0100FA01F20399086A1043F9
:104DC000086204B07047000085B004900391049815
:104DD000006A01900499086A20F0010008620498B2
:104DE00040680090049880690290029820F070005A
:104DF0000290029820F00300029003980168029844
:104E000008430290019820F0020001900398816805
:104E100001980843019004980021C4F201018842DE
:104E200008D0FFE7049840F20041C4F20101884233
:104E30000ED1FFE7019820F0080001900398C168A7
:104E4000019808430190019820F004000190FFE7C9
:104E500004980021C4F20101884208D0FFE70498B9
:104E600040F20041C4F20101884213D1FFE70098EB
:104E700020F480700090009820F400700090039857
:104E8000416900980843009003988169009808439D
:104E90000090FFE70098049948600298049988619F
:104EA000039840680499486301980499086205B022
:104EB0007047000085B0049003910498006A019047
:104EC0000499086A20F01000086204984068009075
:104ED000049880690290029820F4E04002900298C1
:104EE00020F44070029003980168029840EA012083
:104EF0000290019820F020000190039881680198A9
:104F000040EA0110019004980021C4F20101884296
:104F100008D0FFE7049840F20041C4F20101884242
:104F20000FD1FFE7019820F0800001900398C1683D
:104F3000019840EA01100190019820F04000019092
:104F4000FFE704980021C4F20101884208D0FFE77E
:104F5000049840F20041C4F20101884215D1FFE7F4
:104F6000009820F480600090009820F40060009089
:104F700003984169009840EA810000900398816994
:104F8000009840EA81000090FFE70098049948608B
:104F9000029804998861039840680499886301988D
:104FA0000499086205B0704785B004900391049895
:104FB000006A01900499086A20F4807008620498DD
:104FC000406800900498C0690290029820F0700038
:104FD0000290029820F00300029003980168029862
:104FE00008430290019820F40070019003988168B2
:104FF000019840EA0120019004980021C4F20101C7
:10500000884208D0FFE7049840F20041C4F2010151
:1050100088420FD1FFE7019820F4006001900398C7
:10502000C168019840EA01200190019820F4806055
:105030000190FFE704980021C4F20101884208D0E2
:10504000FFE7049840F20041C4F20101884215D103
:10505000FFE7009820F480500090009820F4005062
:10506000009003984169009840EA0110009003986D
:105070008169009840EA01100090FFE700980499C8
:10508000486002980499C861039840680499C8630D
:1050900001980499086205B07047000085B004903B
:1050A00003910498006A01900499086A20F48050E2
:1050B00008620498406800900498C06902900298C1
:1050C00020F4E0400290029820F44070029003988F
:1050D0000168029840EA01200290019820F40050F3
:1050E000019003988168019840EA0130019004988A
:1050F0000021C4F20101884208D0FFE7049840F281
:105100000041C4F2010188420BD1FFE7009820F46E
:105110008040009003984169009840EA8110009017
:10512000FFE700980499486002980499C8610398C1
:1051300040680499086401980499086205B07047B2
:10514000FFE7FEE781B08DF803009DF9030000281A
:105150000ED4FFE79DF9031001F01F0201209040DB
:105160004A094EF20011CEF2000141F82200FFE799
:1051700001B070474EF60C50CEF200000068C0F34C
:105180000220704782B08DF8070000919DF907005A
:1051900000280AD4FFE7009800019DF907104EF29D
:1051A0000042CEF2000288540BE0009800019DF806
:1051B000071001F00F014EF61452CEF2000288548F
:1051C000FFE702B07047000083B00290029800F041
:1051D000070000904EF60C51CEF2000108680190D5
:1051E00001984FF6FF02104001900198009A40EAA2
:1051F00002200022C0F2FA52104301900198086088
:1052000003B0704780B5C2B0002005904190FCF714
:10521000DFFEFBF73FFF40F2E7300690FCF796FC1D
:10522000FFF774FCFEF7D4FCFEF7F8FFFEF7DCFD99
:10523000FEF7B4FEFEF7F6FEFEF738FFFEF7A8FF16
:10524000FEF778FFFEF71AFEFEF760FE40F2003030
:10525000C2F200003C210191FDF7EEFF019940F2FE
:105260002040C2F20000FDF7E7FF019940F26840DC
:10527000C2F20000FDF7E0FF019940F2F840C2F2EF
:105280000000FDF7D9FF059940F24050C2F200003E
:105290000290FEF77DFB029804210391FEF778FB54
:1052A000059940F24830C2F200000490FEF770FB0E
:1052B00003990498FEF76CFB059940F29030C2F216
:1052C00000000790FEF764FB059940F2D830C2F267
:1052D00000000890FEF75CFB40F2B040C2F2000014
:1052E000FDF774FD0698FCF731FCFCF75DFB0798B1
:1052F000089902684FF4C870506309684863FFE773
:1053000040F29030C2F2000001684FF4C870486368
:1053100040F2D831C2F20001096848630DF127005C
:10532000FBF7C6FAECE7000082B001900198B0F1FB
:10533000FF3F04DCFFE701984042009002E0019843
:105340000090FFE7009802B0704700B52DED048B88
:10535000B0EE409AF0EE609A83B051EC190B00F079
:105360006BFC41EC180B18EE100A18EE901A8DED3C
:10537000008B002818BF0120084320F00040C0F136
:105380007F6000F1E040C00F14D019EE101A19EE42
:10539000900A8DED009B002918BF0121084320F0E1
:1053A0000040C0F17F6000F1E040C00F04BF012069
:1053B000FBF717F8B0EE480A03B0F0EE680ABDEC50
:1053C000048B00BD21F0004201F00043A2F16052C5
:1053D000B2F5801F28BFD2F17F6C0BD95FEA001CA9
:1053E00043EAC20242EB507018BF704728BF20F05A
:1053F00001007047B2F5801FBCBF184670474FEAE6
:10540000410C1CF5001F02D2084600F077BE70B5B3
:1054100000F0BEFB00000089FFF7F6BF4FF0004030
:10542000A0F580007047000010B591EA030F48BF57
:1054300083F0004300F1D484841A71EB030C05D28D
:10544000121943EB0C03001B61EB0C014FEA1154E2
:10545000A4EB135CDFF81CE11EEA430F18BF9EEAC1
:10546000445F00F0748021EA045123EA0E0343F400
:105470008013DCF1200E32D322FA0CFE10EB0E006A
:1054800023FA0CFE41EB0E01CCF1200E03FA0EFEC6
:1054900010EB0E00CCF1200E51F10001B1F5801F90
:1054A00032D201EB045112FA0EF2BDE8104058BF9F
:1054B0007047401C38BF5FEA420218BF704700289F
:1054C00014BF20F0010041F100014FEA410313F540
:1054D000001F38BF7047A1F1C04100F0A7BB012AEF
:1054E00043EB0302ACF1200CDCF11F0E32BF4FF096
:1054F000000E23FA0CF310EB030041EB0451B4EB64
:10550000115FD0D0A1EB045101F58011490801EBE6
:1055100004515FEA30000ED350F1000038BF12FA98
:105520000EFE08D1BDE81040C9E7401C38BF5FEA55
:105530004202CAD1C3E7BDE810404FEA410313F568
:10554000001F38BF7047A1F1C04100F06FBB9EEA59
:10555000445F08D011EA5E0FBDE8104004BF01F0BF
:10556000004100207047BDE8104070B500F010FB0E
:1055700064FBBE3E0000E0FF491058BFC1F140414E
:105580005B1058BFC3F140438B42EFF3008070477C
:105590002DE9C04130B4DFF8A8C23CEA111418BFAD
:1055A0003CEA131400F0F0801CEA111481EA0305B0
:1055B00044EAD57418BF1CEA131500F0CB80A4EBA5
:1055C000050404F17F7404F500344FF0004545EA0A
:1055D000C12145EAC32341EA505143EA52534FEAFD
:1055E000C0204FEAC222994208BF904200F0A0803A
:1055F0004FEA13650FF24816765D4FEA134506FB36
:1056000005F7C7F1807706FB07F74FEAD737A7FB07
:1056100003687642A7FB06CEC8F5803838BFA8F1EC
:10562000010807FB08E6A6FB028C4FF0000EE6FB24
:1056300003CED8F100086FEA0C0C5CF1000C6FEAA5
:105640000E0E4EF1004EA6FB0C584FF00007E6FB85
:105650000E87A1FB08C6A0FB07CE16EB0E064FF087
:10566000000545F10005E1FB076515F1E04E7EBF41
:10567000A4F580345FEA46066D4116F1800745F1D6
:1056800000054FEA172747EA05674FEA15254FEA55
:105690000666A6F1DE46B6F1805F20D9384605EBF6
:1056A000C47124F0010C01EB0C11BCF1FE6F02D8A7
:1056B000F0BCBDE8008124425CBF01F5801E9EEA7B
:1056C000C47F02D4F0BCBDE80081244200F13980DF
:1056D000A1F1C041F0BCBDE8004100F0A7BA4FEA1B
:1056E000D02040EA41504FEAD1214FEAD22242EA8B
:1056F00043524FEAD323A7FB028607FB036605FB51
:1057000002661EEA0E0F58BFA6EB0056B6EB005617
:105710004FEA520E4EEAC37E18EB0E0E56EB530EB6
:10572000BCD518EB02085E417F1C55F10005B5E7BA
:105730004FF480154FF000074FF000064FF00008BF
:10574000ACE701F1C04101F000414FF00000F0BCB6
:10575000BDE800810CEA131511EA0C1F00D00CE023
:1057600013EA0C1F00F025804FF0000081EA0301CE
:1057700001F00041F0BCBDE80081F0BCBDE8004193
:1057800081EA030100F052BAF0BCBDE8004170B5F7
:1057900000F0FEF9097EFC3E00F007B84FF0000073
:1057A00081EA030101F00041704781EA030100F042
:1057B0003DBAF0BCBDE8004122494FF000007047FF
:1057C000FFFDFBF9F7F5F4F2F0EEEDEBE9E8E6E4C6
:1057D000E3E1E0DEDDDBDAD8D7D5D4D3D1D0CFCD4D
:1057E000CCCBCAC8C7C6C5C4C2C1C0BFBEBDBCBB86
:1057F000BAB9B8B7B6B5B4B3B2B1B0AFAEADACAB81
:10580000AAA9A8A8A7A6A5A4A3A3A2A1A09F9F9E5A
:105810009D9C9C9B9A99999897979695959493930C
:10582000929191908F8F8E8E8D8C8C8B8B8A8989A3
:105830008888878786858584848383828281818026
:105840000000FF070000F87F51EA030C17D41CF595
:10585000801F58BFBCF5801F00F10680994218BF19
:10586000704708BF9042704707D711F5801F58BF97
:1058700013F5801F19D499427047894270471CF56F
:10588000801F08D5BCF5801FF7D58B4218BF704725
:1058900008BF824270474FF4001C1CEB410F38BF19
:1058A0001CEB430F01D28B42704770B500F070F9CA
:1058B000922449004FF000514FF08053FFF75CBE37
:1058C0004FEA41034FEA5353A3F58063D3F11E031C
:1058D000C8BFD3F1210C0CDD4FF0004242EAC122D7
:1058E00042EA505232FA03FC8CEAE17CACEBE17004
:1058F0007047102BC4BF0020704703F5787CBCF1C3
:10590000FF3F04D06FF0004282EA2100704770B57B
:1059100000F03EF94992248000207047F2E710F031
:10592000004248BF4042B0FA80F310FA03F10AD0B7
:10593000C3F11D0303F5806302EB03524FEA4150AC
:1059400002EBD12170474FF00000704751EA030C81
:1059500017D41CF5801F58BFBCF5801F00F10680CE
:10596000994218BF704708BF9042704707D711F59A
:10597000801F58BF13F5801F19D499427047894280
:1059800070471CF5801F08D5BCF5801FF7D58B42EA
:1059900018BF704708BF824270474FF4001C1CEBD1
:1059A000410F38BF1CEB430F01D28B42704770B5DB
:1059B00000F0EEF8922449004FF080514FF0005370
:1059C000FFF7DABD51EA030C17D41CF5801F58BF4E
:1059D000BCF5801F00F10680994218BF704708BFD0
:1059E0009042704707D711F5801F58BF13F5801FED
:1059F00019D499427047894270471CF5801F08D519
:105A0000BCF5801FF7D58B4218BF704708BF824294
:105A100070474FF4001C1CEB410F38BF1CEB430FC9
:105A200001D28B42704770B500F0B2F89224490061
:105A30004FF000514FF08053FFF79EBD70B5DFF877
:105A400048C11CEA111E1EBF1CEA13159EEA0C0F6A
:105A500095EA0C0F00F06F8081EA03044EEAD47ED1
:105A6000AE4421EA4C1123EA4C1341F4801143F473
:105A70008013AEF17F7EA1FB024CA0FB03653619BB
:105A800055EB0C05A1FB034C4CF10003A0FB021CE1
:105A900016EB0C06654153F10003094218BF46F0AE
:105AA000010613F4007F0BD14FEA03314FEA0530B2
:105AB00041EA155140EA165034036FF003020AE040
:105AC0004FEAC3214FEAC52041EA555140EA5650FA
:105AD000F4026FF0020202EB2E4201EB025585EA5E
