:020000040800F2
:10000000A00C0020550200083D5100089948000846
:10001000B94F00086D040008696200080000000084
:100020000000000000000000000000000155000872
:10003000351B000800000000955300080D5800080B
:100040006F0200086F0200086F0200086F020008CC
:100050006F0200086F0200086F0200086F020008BC
:100060006F0200086F0200086F020008CD19000837
:100070006F0200086F0200086F0200086F0200089C
:100080006F0200086F0200086F0200086F0200088C
:100090006F0200086F0200086F0200086F0200087C
:1000A0006F0200086F0200086F0200086F0200086C
:1000B0006F0200086F0200086F0200086F0200085C
:1000C0006F0200086F0200086F0200086F0200084C
:1000D0006F0200086F0200086F0200086F0200083C
:1000E0006F0200086F0200086F0200086F0200082C
:1000F0006F0200086F0200086F020008DD19000897
:100100006F0200086F0200086F0200086F0200080B
:100110006F020008495E0008E55800086F020008F9
:100120006F0200086F0200086F0200086F020008EB
:100130006F0200086F0200086F0200086F020008DB
:100140006F0200086F0200086F0200086F020008CB
:100150006F0200086F0200086F0200086F020008BB
:100160006F0200086F0200086F0200086F020008AB
:100170006F0200086F0200086F0200080000000014
:100180006F0200086F02000800F002F800F052F859
:1001900014A696E8000CB244B344DA4501D100F04D
:1001A00049F8BAE80F000FA696E83000A5EB040561
:1001B00004EB0607AAEB0704A7F101074FEA1515A0
:1001C0004FEA3414A4F10104AC4201D300F032F838
:1001D00013F0010F18BFFB1A43F0010300F001F800
:1001E000DBE718473870000058700000103A24BF51
:1001F00078C878C1FAD8520724BF30C830C144BF8C
:1002000004680C6070470000704700000023002461
:1002100000250026103A28BF78C1FBD8520728BF16
:1002200030C148BF0B6070471FB506F0D4FF1FBD3B
:1002300010B510BD00F0E4F81146FFF7F5FF06F029
:1002400075F800F002F903B4FFF7F2FF03BC00F009
:1002500005F900000948804709480047FEE7FEE726
:10026000FEE7FEE7FEE7FEE7FEE7FEE7FEE7FEE766
:1002700004480549054A064B70470000D15800085C
:1002800089010008A0060020A00C0020A008002082
:10029000A008002053EA020C00F069802DE9F04B21
:1002A0004FF00006002B1FBFB3FA83F503FA05F4E5
:1002B00024FA05F65E4012BF1643B2FA82F502FA3E
:1002C00005F4C5F120051EBF22FA05FC44EA0C0422
:1002D000203556EA044C4FEA144418BF641C4FF012
:1002E00000084FF00009904271EB030C39D300294C
:1002F00019BFB1FA81F701FA07F6B0FA80F700FAF0
:1003000007F6C7F120071EBF20FA07FC46EA0C06D5
:100310002037B6FBF4FCA7EB0507103F07F01F0BD7
:10032000CBF120062CFA06F60CFA0BFB44BFB346C1
:100330000026202FA4BF5E464FF0000B5BEA060CA0
:1003400008BF4FF0010B19EB0B0948EB0608ABFB9C
:10035000027C06FB02CC0BFB03CCC01B71EB0C0137
:10036000C1E70B46024641464846BDE8F08B13B54F
:10037000084318BF4FF0FF300146AFF30080BDE8DF
:100380001C4070474FF0000200B513469446964655
:10039000203922BFA0E80C50A0E80C50B1F1200198
:1003A000BFF4F7AF090728BFA0E80C5048BF0CC046
:1003B0005DF804EB890028BF40F8042B08BF7047A4
:1003C00048BF20F8022B11F0804F18BF00F8012B16
:1003D000704770477047704710B500F009F8006823
:1003E00010BD10B5044600F003F8046010BD000015
:1003F000004870474800002000487047480000202F
:100400007546FFF7F9FFAE4605006946534620F0F2
:100410000700854618B020B5FFF72AFFBDE8204049
:100420004FF000064FF000074FF000084FF0000BB0
:10043000AC46ACE8C009ACE8C009ACE8C009ACE81F
:10044000C00921F007018D46704710B50446AFF38F
:1004500000802046BDE81040FFF7F5BE0149182096
:10046000ABBEFEE72600020070470000FFE7FEE794
:1004700080B5ACB08DED2B0ACDED2A0A29909DED0B
:100480002B0A40F2A801C2F2000191F9C42001F147
:10049000C80000EB820212ED011A20EE010A8DED78
:1004A0002B0A9DED2A0A91F9C41000EB810010ED92
:1004B000011A20EE010A8DED2A0A9FEDE90B8DED60
:1004C000180B05F0BCFF51EC100B9FEDE70B53EC44
:1004D000102B1B931A9206F02BFB41EC100B8DEDA9
:1004E000020B2B9806F0DCFD9DED180B41EC110B77
:1004F0008DED041B05F0A3FF1A9A1B9B51EC100B0A
:1005000006F016FB41EC100B8DED000B2A9806F05F
:10051000C7FD9DED001B41EC100B51EC110B53EC92
:10052000102B06F005FB9DED021B9DED040B41EC2D
:10053000120B8DED062B51EC110B53EC102B06F02A
:10054000F7FA9DED060B41EC110B53EC112B51EC1E
:10055000100B06F0B7FC41EC100B51EC100B9FEDAB
:10056000D20B53EC102B2593249206F08BF841EC20
:10057000100B51EC100B05F09FFF9DED180B299906
:10058000086005F05CFF1A9A1B9B51EC100B06F0FB
:10059000CFFA41EC100B8DED0A0B2B9806F080FD85
:1005A0009DED180B41EC110B8DED0C1B05F047FF79
:1005B0001A9A1B9B51EC100B06F0BAFA41EC100B87
:1005C0008DED080B2A9806F06BFD9DED081B41ECA4
:1005D000100B51EC110B53EC102B06F0A9FA9DED0A
:1005E0000A1B9DED0C0B41EC120B8DED0E2B51EC0B
:1005F000110B53EC102B06F09BFA9DED0E0B41EC0A
:10060000110B53EC112B51EC100B05F087FF249AC2
:10061000259B41EC100B51EC100B06F033F841EC2C
:10062000100B51EC100B05F047FF9DED180B2999AD
:10063000C86005F004FF1A9A1B9B51EC100B06F0E2
:1006400077FA41EC100B8DED120B2B9806F028FD7C
:100650009DED180B41EC110B8DED141B05F0EFFE19
:100660001A9A1B9B51EC100B06F062FA41EC100B2E
:100670008DED100B2A9806F013FD9DED101B41EC3B
:10068000100B51EC110B53EC102B06F051FA9DEDB1
:10069000121B9DED140B41EC120B8DED162B51EC42
:1006A000110B53EC102B06F043FA9DED160B41ECA9
:1006B000110B51EC110B53EC102B06F003FC249A98
:1006C000259B41EC100B51EC100B05F0DBFF41ECCE
:1006D000100B51EC100B05F0EFFE9DED180B299956
:1006E000886105F0ACFE1A9A1B9B51EC100B06F0CA
:1006F0001FFA41EC100B8DED1E0B2B9806F0D0FC71
:100700009DED180B41EC110B8DED201B05F097FEB4
:100710001A9A1B9B51EC100B06F00AFA41EC100BD5
:100720008DED1C0B2A9806F0BBFC9DED1C1B41ECCB
:10073000100B51EC110B53EC102B06F0F9F99DED59
:100740001E1B9DED200B41EC120B8DED222B51EC6D
:10075000110B53EC102B06F0EBF99DED220B41EC45
:10076000110B51EC110B53EC102B05F0D7FE249A12
:10077000259B41EC100B8DED260B9DF89F0080F022
:1007800080008DF89F002698279905F07BFF41ECAB
:10079000100B51EC100B05F08FFE299948620020D8
:1007A0002890FFE7289803287BDCFFE72998289901
:1007B00001EB410100EB810090ED000AB5EE400A2B
:1007C000F1EE10FA26DDFFE72998289901EB4102A6
:1007D00000EB820090ED000A40F2A800C2F2000097
:1007E00000EB810090ED261AB4EE410AF1EE10FA0A
:1007F0000FDDFFE7289A40F2A800C2F2000000EBEC
:100800008200D0F89800299902EB420241F82200B8
:10081000FFE7FFE72998289901EB410100EB8100F0
:1008200090ED000AB5EE400AF1EE10FA34DAFFE777
:100830002998289901EB410200EB820090ED000A13
:1008400040F2A800C2F2000000EB810090ED2A1AED
:10085000B1EE411AB4EE410AF1EE10FA1BDA07E0EC
:100860000000000000000040000000000000E03F29
:10087000289940F2A800C2F2000000EB810090ED40
:100880002A0AB1EE400A299801EB410100EB8100F0
:1008900080ED000AFFE7FFE7FFE728980130289086
:1008A00080E72CB080BD00BF00000080DB8F674078
:1008B00080B586B005900598007801460491062819
:1008C00000F251820499DFE811F007005F00940004
:1008D000BD007E01C801450240F2E73001F010FC86
:1008E00040F2ED21C2F200010320087040F2946151
:1008F000C2F2000100200860FFE740F29460C2F2FB
:1009000000000068C82805DCFFE700F0B1FF00F038
:10091000CBFEF2E740F29160C2F20000007898B995
:10092000FFE740F25040C2F20000039001684FF42C
:10093000AF60486340F2E73001F0E2FB03980168E2
:100940004FF4C87048631BE040F29160C2F20000AF
:100950000078012813D1FFE740F29840C2F200006E
:10096000029001684FF4AF60486340F2E73001F055
:10097000C7FB029801684FF4C8704863FFE7FFE7C0
:10098000059901200870EEE140F2ED21C2F200016C
:100990000A20087040F29461C2F200010020086051
:1009A000FFE740F29460C2F200000068B0F5C87F33
:1009B00003DCFFE700F078FEF3E740F29461C2F257
:1009C00000010020086040F2ED21C2F20001032086
:1009D0000870FFE740F29460C2F20000006832281D
:1009E00003DCFFE700F060FEF4E7059902200870E1
:1009F000B9E140F2ED21C2F2000103200870FFE7E7
:100A000040F29460C2F200000068642803DCFFE753
:100A100000F04AFEF4E740F29461C2F200010020C7
:100A20000860FFE740F2F020C2F20000006828B141
:100A3000FFE700F01DFF00F037FEF3E70599032004
:100A4000087090E140F29060C2F200000078002847
:100A50004AD1FFE740F2ED21C2F200010A200870FE
:100A600040F29461C2F2000100200860FFE740F20A
:100A70009460C2F2000000688C2803DCFFE700F0FD
:100A800013FEF4E740F29461C2F200010020086016
:100A900040F2ED21C2F2000103200870FFE740F2AE
:100AA0009460C2F200000068322803DCFFE700F027
:100AB000FBFDF4E740F2ED21C2F200010B200870CB
:100AC000FFE740F29460C2F200000068B0F5877F53
:100AD00003DCFFE700F0E8FDF3E740F29461C2F2C7
:100AE00000010020086058E040F29060C2F200006F
:100AF0000078012850D1FFE740F2ED21C2F2000159
:100B00000A20087040F29461C2F2000100200860DF
:100B1000FFE740F29460C2F200000068782803DC2E
:100B2000FFE700F0C1FDF4E740F29461C2F200017A
:100B30000020086040F2ED21C2F20001032008709D
:100B4000FFE740F29460C2F200000068322803DC44
:100B5000FFE700F0A9FDF4E740F29461C2F2000162
:100B60000020086040F2ED21C2F200010C20087064
:100B7000FFE740F29460C2F200000068B0F58C7F9D
:100B800003DCFFE700F090FDF3E740F29461C2F26E
:100B9000000100200860FFE7FFE740F2ED21C2F20C
:100BA000000103200870FFE740F29460C2F20000E9
:100BB0000068642803DCFFE700F076FDF4E70599A0
:100BC00004200870CFE040F2F31001F099FA40F2EF
:100BD0009461C2F200010020086040F29160C2F20C
:100BE0000000007898B9FFE740F25040C2F20000E0
:100BF000019001684FF4AF60486340F2E73001F0C4
:100C00007FFA019801684FF4C87048631BE040F216
:100C10009160C2F200000078012813D1FFE740F292
:100C20009840C2F20000009001684FF4AF60486342
:100C300040F2E73001F064FA009801684FF4C870A0
:100C40004863FFE7FFE740F29461C2F20001002031
:100C5000086005990520087085E040F29060C2F2B6
:100C600000000078012834D1FFE740F2ED21C2F204
:100C700000010B200870FFE740F29460C2F2000010
:100C80000068B0F5A57F03DCFFE700F00DFDF3E79A
:100C900040F29461C2F2000100200860086040F256
:100CA000ED21C2F200010D200870FFE740F29460D0
:100CB000C2F200000068B0F5077F03DCFFE700F038
:100CC000F3FCF3E740F29461C2F2000100200860F7
:100CD0003CE040F29060C2F200000078A8BBFFE761
:100CE00040F2ED21C2F200010C200870FFE740F253
:100CF0009460C2F200000068B0F5877F03DCFFE774
:100D000000F0D2FCF3E740F29461C2F2000100204F
:100D10000860086040F2ED21C2F200010D20087069
:100D2000FFE740F29460C2F20000006840F23A210E
:100D3000884203DCFFE700F0B7FCF2E740F2946181
:100D4000C2F2000100200860FFE7FFE705990620D6
:100D5000087008E040F2ED21C2F2000103200870A3
:100D600000F0A2FCFFE706B080BD000080B5A2B095
:100D70002190219940F60040C4F2020008652199B3
:100D80008865219A40F60001C4F20201116621999A
:100D9000886621994FF48060A1F8540021994FF49E
:100DA0000070A1F85C0021994FF40050A1F8640094
:100DB00021994FF48040A1F86C0021994FF4807084
:100DC000A1F8560021994FF40060A1F85E00219926
:100DD0001020A1F8660021994FF40040A1F86E00A0
:100DE000FFE70020209043F63000C4F202000168C3
:100DF00041F008010160006800F008002090209890
:100E0000FFE7FFE700201F9043F63000C4F2020026
:100E1000016841F004010160006800F004001F90C7
:100E20001F98FFE7FFE700201E9043F63000C4F252
:100E30000200016841F010010160006800F010003C
:100E40001E901E98FFE7012002901A900020049047
:100E50001B90022003901C902199B1F85400B1F826
:100E60005610084319902198006D19A901F06AF9EC
:100E7000049A219B186DB3F85410B3F856301943F7
:100E800001F054FB029A0398049915921691179059
:100E90002199B1F85C00B1F85E10084314902198D4
:100EA000806D14A901F04EF9049A219B986DB3F856
:100EB0005C10B3F85E30194301F038FB029A0398D6
:100EC00004991092119112902198B0F864000F903B
:100ED0002198006E0FA901F035F9049A2199086E46
:100EE000B1F8641001F022FB029A039804990B9266
:100EF0000C910D902198B0F866000A9041F2000024
:100F0000C4F2020001900AA901F01CF90198049AA8
:100F10002199B1F8661001F009FB029A039804992F
:100F20000692079108902199B1F86C00B1F86E1003
:100F3000084305902198806E05A901F003F9049AF1
:100F4000219B986EB3F86C10B3F86E30194301F022
:100F5000EDFA22B080BD000080B582B040F2A80159
:100F6000C2F20001019144F61A40C4F29A70C1F82D
:100F7000B800C1F8BC0048F20000C4F29930C1F8D2
:100F800098000023C4F2B433C1F89C300022C4F2AC
:100F9000AF32C1F8A02048F20000C4F2AC30C1F872
:100FA000A40040F2000CC4F2A53CC1F8A8C0C1F8EE
:100FB000AC30C1F8B020C1F8B400012081F8C40001
:100FC00049F69A10C3F69960C1F8C8004FF07C50FA
:100FD000C1F8CC004FF07E50C1F8D0000020C1F81D
:100FE000C000086748678867C867C1F89000C1F803
:100FF000940040F25040C2F2000001684FF4C87003
:10100000486340F29841C2F200010968486304F065
:1010100013F80198FFF7AAFE02B080BD000000009F
:1010200080B586B0059000200490FFE7049803285F
:1010300000F3B482FFE70498022840F03C81FFE708
:101040000598049901EB410200EB820292ED000A3F
:1010500000EBC10090ED0C1AB4EE410AF1EE10FA6B
:1010600000F02881FFE7049A02EBC20140F28410ED
:10107000C2F2000000EBC100059901EBC20393ED41
:101080000C0A02EB420201EB8201D1ED000A04F0EE
:101090008DF80598049901EB410100EB810080ED8A
:1010A000010A0598049901EB410100EB810090EDE4
:1010B000000ABDEEC00A10EE100A05F0AFF905F007
:1010C000A8FC41EC100B51EC100B9FEDE10B53EC25
:1010D000102B06F025F848B9FFE70598049901EBB5
:1010E000410100EB810100204860FFE70598049969
:1010F00001EB410100EB810090ED010AB5EE400AE1
:10110000F1EE10FA28DDFFE70598049901EB4102A2
:1011100000EB820090ED010AB0EEC00A40F2A80098
:10112000C2F2000000EB810090ED261A80EE010A69
:101130008DED030A9DED030A9FEDC71A20EE010A0B
:10114000BDEEC00A10EE100A0599049A02EB4202A5
:1011500001EB8201088136E00598049901EB410119
:1011600000EB810090ED010AB5EE400AF1EE10FAB5
:1011700028DAFFE70598049901EB410200EB8200B1
:1011800090ED010AB0EEC00A40F2A800C2F20000E1
:1011900000EB810090ED2A1A80EE010A8DED030A22
:1011A0009DED030A9FEDAC1A20EE010ABDEEC00AC8
:1011B00010EE100A0599049A02EB420201EB82013B
:1011C0000881FFE7FFE70598049901EB410100EB77
:1011D00081000089652809DBFFE70598049901EB88
:1011E000410100EB810164200881FFE70598049923
:1011F00001EB410100EB810090ED010AB5EE400AE0
:10120000F1EE10FA12DDFFE740F60000C4F2020032
:101210004FF40051002201F089F941F20000C4F2BC
:1012200002001021012201F081F942E005980499A1
:1012300001EB410100EB810090ED010AB5EE400A9F
:10124000F1EE10FA12DAFFE740F60000C4F20200F5
:101250004FF40051012201F069F941F20000C4F29B
:1012600002001021002201F061F921E005980499A3
:1012700001EB410100EB810090ED010AB5EE400A5F
:10128000F1EE10FA13D1FFE741F20000C4F20200C0
:1012900010210122019201F049F9019A40F6000063
:1012A000C4F202004FF4005101F040F9FFE7FFE7FC
:1012B000FFE7FFE76DE10598049901EB410200EBC0
:1012C000820292ED000A00EBC10090ED0C1AB4EE20
:1012D000410AF1EE10FA00F03781FFE7049A02EBC1
:1012E000C20140F28410C2F2000000EBC100059977
:1012F00001EBC20393ED0C0A02EB420201EB820107
:10130000D1ED000A03F052FF0598049901EB410169
:1013100000EB810080ED010A0598049901EB410181
:1013200000EB810090ED000ABDEEC00A10EE100A3D
:1013300005F074F805F06DFB41EC100B51EC100B4F
:101340009FED970B53EC102B05F0EAFE48B9FFE731
:101350000598049901EB410100EB810100204860F0
:10136000FFE70598049901EB410100EB810090ED46
:10137000010AB5EE400AF1EE10FA28DDFFE7059804
:10138000049901EB410200EB820090ED010AB0EEFE
:10139000C00A40F2A800C2F2000000EB810090ED0C
:1013A000261A80EE010A8DED020A9DED020A9FEDDC
:1013B0007E1A20EE010ABDEEC00A10EE100A059951
:1013C000049A02EB420201EB8201088136E00598A3
:1013D000049901EB410100EB810090ED010AB5EEAB
:1013E000400AF1EE10FA28DAFFE70598049901EBBC
:1013F000410200EB820090ED010AB0EEC00A40F21B
:10140000A800C2F2000000EB810090ED2A1A80EEE5
:10141000010A8DED020A9DED020A9FED631A20EE8E
:10142000010ABDEEC00A10EE100A0599049A02EBFB
:10143000420201EB82010881FFE7FFE7059804996A
:1014400001EB410100EB8100008965280FDB05E01D
:101450009A9999999999B93F0000C84205980499B9
:1014600001EB410100EB810164200881FFE7059851
:10147000049901EB410100EB810090ED010AB5EE0A
:10148000400AF1EE10FA15DDFFE70598049900EB2C
:10149000C101086DB1F85610002201F047F8059817
:1014A000049900EBC101086DB1F85410012201F05C
:1014B0003DF848E00598049901EB410100EB8100FB
:1014C00090ED010AB5EE400AF1EE10FA15DAFFE7E9
:1014D0000598049900EBC101086DB1F85410002281
:1014E00001F024F80598049900EBC101086DB1F8EA
:1014F0005610012201F01AF824E00598049901EB36
:10150000410100EB810090ED010AB5EE400AF1EED9
:1015100010FA16D1FFE70598049900EBC101086D98
:10152000B1F854100122009201F000F8009A0598D9
:10153000049900EBC101086DB1F8561000F0F6FFF8
:10154000FFE7FFE7FFE723E00598049901EB41017E
:1015500000EB810090ED000AB5EE400AF1EE10FAC2
:1015600015D1FFE70598049900EBC10090ED0C0A36
:10157000B5EE400AF1EE10FA09D1FFE7059804999B
:1015800001EB410100EB810100204860FFE7FFE72C
:10159000FFE7FFE704980130049047E506B080BDFF
:1015A0009A9999999999B93F0000C84200000000A2
:1015B00080B586B08DF817009DF8170001380146F8
:1015C0000391032864D80399DFE801F0022C3E5010
:1015D00040F22850C2F2000001900068406A404288
:1015E000ADF81200BDF9120047F6FF710291401AE2
:1015F00005F00FFA41EC100B51EC100B9FED280B8E
:1016000053EC102B04F08AFF41EC100B51EC100B43
:1016100005F0D0F9019902460298ADF81420096846
:10162000486239E040F2C031C2F200010868406A05
:10163000ADF81200BDF8122047F6FF70121AADF88F
:1016400014200968486227E040F2B851C2F2000154
:101650000868406AADF81200BDF8122047F6FF7026
:10166000121AADF814200968486215E040F2E04112
:10167000C2F200010868406AADF81200BDF81220FD
:1016800047F6FF70121AADF814200968486203E0AB
:101690000020ADF81400FFE7BDF9140006B080BDCE
:1016A0009A999999999905C080B582B040F2ED2038
:1016B000C2F200000078032808D1FFE740F2A80139
:1016C000C2F2000100200867486767E040F2ED20A1
:1016D000C2F2000000780A280FD1FFE740F2A8000C
:1016E000C2F200000021016790ED2F0ABEEE001A41
:1016F00020EE010A80ED1D0A4FE040F2ED20C2F21B
:10170000000000780B280FD1FFE740F2A801C2F2D9
:10171000000191ED2E0ABEEE001A20EE010A81EDC5
:101720001C0A0020486737E040F2ED20C2F20000BA
:1017300000780C280FD1FFE740F2A801C2F20001A7
:1017400091ED2E0AB6EE001A20EE010A81ED1C0A78
:10175000002048671FE040F2ED20C2F20000007850
:101760000D280FD1FFE740F2A800C2F200000021CF
:10177000016790ED2F0AB6EE001A20EE010A80ED07
:101780001D0A07E040F2A801C2F20001002008672C
:101790004867FFE7FFE7FFE7FFE7FFE740F2A80042
:1017A000C2F20000019090ED1E0AD0ED1F0AFEF774
:1017B0005FFE019BB3F90800B3F91410B3F92020C0
:1017C000B3F92C3003F096FC02B080BD80B582B036
:1017D0000190002000900090FFE7009803283CDC77
:1017E000FFE700980130C0B2FFF7E2FE0199009ACE
:1017F00001EBC20188860198009900EBC100B0F9A5
:10180000341064224A4391080901A1EB9201890036
:1018100000EE101AB8EEC00A9FED141A80EE010A0D
:1018200080ED0C0A0198009900EBC10090ED0C0AC4
:10183000BDEEC00A10EE100A04F0F0FD002807DC2F
:10184000FFE70198009900EBC10100200863FFE762
:10185000FFE7009801300090BFE7019890ED0C0A77
:10186000B1EE400A80ED0C0A02B080BD0000C34317
:1018700080B582B040F2F020C2F20000019003F087
:101880009DFB0198006801281CD1FFE740F2F02081
:10189000C2F200004068012814D1FFE740F2F020B6
:1018A000C2F20000806801280CD1FFE740F291618C
:1018B000C2F200010020087040F29061C2F2000103
:1018C00008706CE040F2F020C2F2000000680128CD
:1018D0001CD1FFE740F2F020C2F20000406801286E
:1018E00014D1FFE740F2F020C2F20000806868B92E
:1018F000FFE740F29161C2F200010020087040F25F
:101900009061C2F200010120087047E040F2F0202F
:10191000C2F20000006801281CD1FFE740F2F0206D
:10192000C2F200004068A8B9FFE740F2F020C2F21E
:101930000000806801280DD1FFE740F29161C2F2FA
:1019400000010120087040F29061C2F20001002005
:10195000087022E040F2F020C2F200000068012886
:101960001AD1FFE740F2F020C2F20000406898B9B7
:10197000FFE740F2F020C2F20000806860B9FFE7A4
:1019800040F29161C2F200010120087040F29061C2
:10199000C2F200010870FFE7FFE7FFE7FFE740F250
:1019A000F020C2F20000006838B9FFE740F2EC21F5
:1019B000C2F200010420087006E040F2EC21C2F2FD
:1019C000000103200870FFE702B080BD80B540F23F
:1019D0000030C2F2000000F04BF980BD80B540F24B
:1019E0006030C2F2000000F043F980BD82B0019087
:1019F0000198007810384AF6AB21CAF6AA21A0FB5C
:101A0000011000090090009947F21220C0F6000072
:101A1000405C0199C8650098042807D3FFE7019945
:101A20000868042262F30900886506E001990868E5
:101A300040F2FF3290438865FFE70198806D02B065
:101A40007047000086B0059000208DF813000598BF
:101A5000806A03900598806910BBFFE703980290A5
:101A600003281BD80299DFE801F0020D021805983F
:101A700090F82F00C00720B1FFE701208DF8130078
:101A8000FFE70CE00598C06AB0F1C07F04D1FFE722
:101A900001208DF81300FFE701E000E0FFE745E0DB
:101AA00005988069B0F5005F25D1FFE703980190A4
:101AB00003281ED80199DFE801F002060211012077
:101AC0008DF8130016E0059890F82F00C00720B19C
:101AD000FFE701208DF81300FFE70BE00598C06ACF
:101AE000B0F1C07F04D1FFE701208DF81300FFE7BC
:101AF00000E0FFE719E003980090032804D3FFE714
:101B00000098032804D00EE001208DF813000BE0AC
:101B1000059890F82F00C00720B1FFE701208DF84D
:101B20001300FFE700E0FFE7FFE7FFE79DF8130082
:101B300006B070477047000072B6FFE7FEE700008E
:101B400080B584B002900298806D019000F006FD8F
:101B50000090029890F8350002280DD0FFE7029916
:101B600080204865FFE70299002081F83400FFE7F4
:101B700001208DF80F0055E002980168086820F0F8
:101B80001600086002980168486920F080004861EA
:101B90000298006C20B9FFE70298806C38B1FFE72B
:101BA00002980168086820F008000860FFE70298C2
:101BB0000168086820F001000860FFE702980068EB
:101BC0000068C007C8B1FFE700F0C8FC0099401AE0
:101BD000062811D3FFE702992020486502990320C7
:101BE00081F83500FFE70299002081F83400FFE713
:101BF00003208DF80F0015E0E0E70298C16D3F204B
:101C00008840019988600299012081F83500FFE73A
:101C10000299002081F83400FFE7FFE700208DF8EB
:101C20000F00FFE79DF80F0004B080BD82B0009068
:101C3000009890F83500022807D0FFE7009980202F
:101C4000486501208DF807000EE00099052081F815
:101C5000350000980168086820F001000860FFE77F
:101C600000208DF80700FFE79DF8070002B07047DD
:101C700080B586B005900020039040F23C00C2F28F
:101C80000000006848F2B511C1F64E31A0FB01100A
:101C9000800A02900598806D019001980068049078
:101CA00004980599C96DC840000700281AD5FFE7B8
:101CB0000598006800684007002812D5FFE70598DE
:101CC0000168086820F0040008600598C16D0820CC
:101CD0008840019988600599486D40F00100486589
:101CE000FFE7FFE704980599C96DC840C007A0B198
:101CF000FFE7059800684069000600280CD5FFE75B
:101D00000598C16D01208840019988600599486D4A
:101D100040F002004865FFE7FFE704980599C96DA8
:101D2000C8404007002814D5FFE705980068006800
:101D3000800700280CD5FFE70598C16D0420884076
:101D4000019988600599486D40F004004865FFE7F7
:101D5000FFE704980599C96DC840C006002847D51B
:101D6000FFE7059800680068000700283FD5FFE7F7
:101D70000598C16D10208840019988600598006819
:101D80000068400300281AD5FFE70598006800683E
:101D90000003002809D4FFE70598006C20B1FFE795
:101DA0000598016C8847FFE708E00598806C20B132
:101DB000FFE70598816C8847FFE7FFE716E0059885
:101DC00000680068C005002807D4FFE7059801688F
:101DD000086820F008000860FFE70598006C20B153
:101DE000FFE70598016C8847FFE7FFE7FFE7FFE79C
:101DF00004980599C96DC8408006002840F18D807F
:101E0000FFE7059800680068C006002840F184805C
:101E1000FFE70598C16D20208840019988600598EA
:101E200090F83500052834D1FFE705980168086867
:101E300020F01600086005980168486920F08000CD
:101E400048610598006C20B9FFE70598806C38B1AF
:101E5000FFE705980168086820F008000860FFE7C0
:101E60000598C16D3F20884001998860059901203F
:101E700081F83500FFE70599002081F83400FFE77D
:101E80000598006D20B1FFE70598016D8847FFE7D1
:101E90007BE0059800680068400300281AD5FFE73A
:101EA0000598006800680003002809D4FFE705983A
:101EB000406C20B1FFE70598416C8847FFE708E0D8
:101EC0000598C06B20B1FFE70598C16B8847FFE715
:101ED000FFE720E0059800680068C005002811D4DD
:101EE000FFE705980168086820F010000860059970
:101EF000012081F83500FFE70599002081F83400C2
:101F0000FFE7FFE70598C06B20B1FFE70598C16BBD
:101F10008847FFE7FFE7FFE7FFE70598406DA0B3BD
:101F2000FFE70598406DC00730B3FFE7059905202E
:101F300081F8350005980168086820F00100086004
:101F4000FFE70398013003900299884201D9FFE727
:101F500007E0FFE7059800680068C0070028F0D197
:101F6000FFE70599012081F83500FFE7059900207A
:101F700081F83400FFE7FFE70598C06C20B1FFE768
:101F80000598C16C8847FFE7FFE706B080BD0000F9
:101F900080B586B004900020039000F0DFFA029034
:101FA000049820B9FFE701208DF81700A3E00498FA
:101FB000406A08B1FFE7FFE70499022081F8350085
:101FC000FFE70499002081F83400FFE704980168D6
:101FD000086820F001000860FFE7049800680068C6
:101FE000C00790B1FFE700F0B9FA0299401A06283D
:101FF0000AD3FFE70499202048650499032081F85B
:1020000035008DF8170076E0E7E70498006800686F
:102010000390039848F23F01CFF21001084003906B
:10202000049900914868D1F808C0CB680A6940EA71
:102030000C00184310434A6910438A691043CA6967
:102040001043096A01430398084303900498406AC7
:10205000042808D1FFE70499C86A096B0143039873
:1020600008430390FFE703980499096808600498FF
:10207000006840690390039820F0070003900498DB
:10208000416A0398084303900498406A04281AD1CF
:10209000FFE70498816A0398084303900498C06A94
:1020A00080B1FFE70498FFF7CDFC50B1FFE704993A
:1020B000402048650499012081F835008DF817000B
:1020C00019E0FFE7FFE7039804990968486104985D
:1020D000FFF78CFC01900498C16D3F208840019966
:1020E0008860049900204865049A012182F835101F
:1020F0008DF81700FFE79DF8170006B080BD0000BF
:1021000080B584B0039000F029FA02900398019002
:102110000198013048B1FFE740F24000C2F20000F0
:102120000178019808440190FFE7FFE700F016FAF4
:102130000299401A0199884201D2FFE7F6E704B0FC
:1021400080BD00008EB00D900C9100200A90099087
:1021500008900B90FFE70B980F2800F2CC81FFE767
:102160000B99012088400A900C9800680A99084051
:10217000099009980A99884240F0B881FFE70C98C5
:10218000406800F00300012807D0FFE70C98406882
:1021900000F0030002282FD1FFE70D988068089017
:1021A0000B984100032000FA01F108988843089039
:1021B0000C98C0680B99490000FA01F1089808438F
:1021C000089008980D9988600D98406808900B99C0
:1021D000012000FA01F10898884308900C984068A3
:1021E000C0F300100B9900FA01F108980843089019
:1021F00008980D994860FFE70C98406800F00300CC
:10220000032818D0FFE70D98C06808900B9841008C
:10221000032000FA01F10898884308900C98806820
:102220000B99490000FA01F10898084308900898B2
:102230000D99C860FFE70C98406800F00300022881
:1022400026D1FFE70D980B996FF0030202EA5101C6
:102250000844006A08900B9800F0070081000F20E6
:1022600000FA01F10898884308900C9800690B99CE
:1022700001F00701890000FA01F10898084308906D
:1022800008980D990B9B02EA530211440862FFE77C
:102290000D98006808900B984100032000FA01F1A6
:1022A0000898884308900C98406800F003000B9948
:1022B000490000FA01F108980843089008980D9920
:1022C00008600C9880798007002800F00E81FFE7F5
:1022D000FFE70020079043F64400C4F202000168C3
:1022E00041F480410160006800F480400790079845
:1022F000FFE70B9820F0030043F60801C4F2010148
:10230000405808900B9800F0030081000F2000FA5D
:1023100001F10898884308900D980021C4F2020149
:10232000884203D1FFE7002006905EE00D9840F25E
:102330000041C4F20201884203D1FFE70120059069
:1023400050E00D9840F60001C4F20201884203D12A
:10235000FFE70220049042E00D9840F60041C4F2ED
:102360000201884203D1FFE70320039034E00D9877
:1023700041F20001C4F20201884203D1FFE70420C8
:10238000029026E00D9841F20041C4F20201884219
:1023900003D1FFE70520019018E00D9841F60001F8
:1023A000C4F20201884203D1FFE7062000900AE050
:1023B0000D9941F60042C4F202020820914208BF82
:1023C00007200090FFE700980190FFE70198029036
:1023D000FFE702980390FFE703980490FFE7049853
:1023E0000590FFE705980690FFE70698C0B20B99A5
:1023F00001F00301890000FA01F1089808430890F0
:1024000008980B9921F0030143F60802C4F2010277
:10241000885043F60840C4F201000068089009990A
:102420000898884308900C988079C006002805D544
:10243000FFE70999089808430890FFE7089843F6D2
:102440000841C4F20101086043F60C40C4F20100E7
:102450000068089009990898884308900C9880793A
:102460008006002805D5FFE70999089808430890D9
:10247000FFE7089843F60C41C4F20101086043F6F7
:102480000440C4F201000068089009990898884344
:1024900008900C9880798007002805D5FFE70999F6
:1024A000089808430890FFE7089843F60441C4F2EF
:1024B0000101086043F60040C4F201000068089082
:1024C00009990898884308900C988079C00728B12A
:1024D000FFE70999089808430890FFE7089843F632
:1024E0000041C4F201010860FFE7FFE7FFE70B9836
:1024F00001300B902FE60EB07047000082B00190C3
:10250000ADF8021001980069BDF80210084204D02D
:10251000FFE701208DF8010003E000208DF80100A5
:10252000FFE79DF8010002B07047000082B0019003
:10253000ADF802108DF801209DF8010028B1FFE7E9
:10254000BDF802000199886105E0BDF802000004B1
:1025500001998861FFE702B07047000040F298607F
:10256000C2F200000068704740F24000C2F2000072
:10257000027840F29861C2F20001086810440860D5
:102580007047000080B543F60041C4F202010868BC
:1025900040F400700860086840F4806008600868D3
:1025A00040F480700860032000F08AF80F2000F0EB
:1025B00005F800F03BF8002080BD000080B582B037
:1025C000009040F23C00C2F20000006840F240017E
:1025D000C2F200010A784FF47A71B1FBF2F1B0FB5C
:1025E000F1F000F0A5FD20B1FFE701208DF8070014
:1025F00018E000980F280DD8FFE700994FF0FF3042
:10260000002200F043F8009840F24401C2F20001B9
:10261000086003E001208DF8070003E000208DF83A
:102620000700FFE79DF8070002B080BD82B0FFE71A
:102630000020019043F64400C4F20200016841F416
:1026400080410160006800F4804001900198FFE73C
:10265000FFE70020009043F64000C4F2020001684A
:1026600041F080510160006800F0805000900098B7
:10267000FFE702B07047000080B582B08DF8070018
:102680009DF9070003F0F2FD02B080BD80B586B071
:102690008DF81700049103920020029003F0FEFDD4
:1026A00002909DF91700019002980499039A02F094
:1026B00047FD0146019803F0F9FD06B080BD00001A
:1026C00080B582B00190019803F012FE02B080BD87
:1026D00080B584B002900191029820B9FFE70120F3
:1026E0008DF80F0021E1019843F60041C4F2020188
:1026F000096801F00701884212D9FFE7019943F602
:102700000040C4F202000170006800F00700019967
:10271000884204D0FFE701208DF80F0005E1FFE7B4
:1027200002980078800700282AD5FFE702980078F1
:102730004007002809D5FFE743F60801C4F202016B
:10274000086840F4E0500860FFE70298007800074E
:10275000002809D5FFE743F60801C4F20201086822
:1027600040F460400860FFE743F60801C4F202014C
:10277000086820F0F000029A926810430860FFE7B2
:1027800002980078C00700286ED0FFE702984068E2
:10279000012811D1FFE743F60000C4F202000068EF
:1027A00000F400310020B0EB514F04D1FFE70120CD
:1027B0008DF80F00B9E02CE002984068022805D09F
:1027C000FFE702984068032811D1FFE743F60000B5
:1027D000C4F20200006800F000710020B0EB516FFD
:1027E00004D1FFE701208DF80F009EE010E043F6D2
:1027F0000000C4F20200006800F002010020B0EB0B
:10280000510F04D1FFE701208DF80F008DE0FFE7A5
:10281000FFE743F60801C4F20201086820F0030054
:10282000029A526810430860FFF798FE0090FFE795
:1028300043F60800C4F20200006800F00C000299A0
:102840004968B0EB810F0ED0FFE7FFF787FE0099D4
:10285000401A41F28931884204D3FFE703208DF802
:102860000F0062E0E4E7FFE7019843F60041C4F29D
:102870000201096801F00701884212D2FFE70199BD
:1028800043F60040C4F202000170006800F0070047
:102890000199884204D0FFE701208DF80F0044E041
:1028A000FFE702980078400700280CD5FFE743F6C1
:1028B0000801C4F20201086820F4E050029AD268CC
:1028C00010430860FFE702980078000700280DD544
:1028D000FFE743F60801C4F20201086820F46040F3
:1028E000029A126940EAC2000860FFE700F04CF863
:1028F00043F60801C4F202010968C9B20A0947F2A5
:10290000FA11C0F60001895CC84040F23C01C2F2F5
:102910000001086040F24400C2F200000068FFF7C6
:102920004DFE00208DF80F00FFE79DF80F0004B06A
:1029300080BD000040F23C00C2F200000068704719
:1029400080B5FFF7F7FF43F60801C4F202010968FA
:10295000C1F3822247F20A21C0F60001895CC84017
:1029600080BD000080B5FFF7E5FF43F60801C4F223
:102970000201096889B24A0B47F20A21C0F6000138
:10298000895CC84080BD000080B586B000200590FD
:1029900004900390029043F60800C4F2020000681D
:1029A00000F00C000146019140B1FFE701980428B6
:1029B0000AD0FFE7019808280CD04FE042F200400F
:1029C000C0F2F40002904FE047F64000C0F27D10E4
:1029D000029049E043F60400C4F20200016801F0ED
:1029E0003F01059100684002002813D5FFE743F638
:1029F0000400C4F202000068C0F3881047F64001EA
:102A0000C0F27D11A0FB0101059A0023FDF742FCF5
:102A1000049012E043F60400C4F202000068C0F320
:102A2000881042F20041C0F2F401A0FB0101059AB6
:102A30000023FDF72FFC0490FFE743F60400C4F2E7
:102A40000200006800F44031022000EBD130039016
:102A500004980399B0FBF1F0029005E042F20040C7
:102A6000C0F2F4000290FFE7029806B080BD0000BB
:102A700080B586B00490049820B9FFE701208DF856
:102A8000170050E304980078C007002800F0A580E4
:102A9000FFE743F60800C4F20200006800F00C00F3
:102AA000042813D0FFE743F60800C4F202000068D0
:102AB00000F00C0008281ED1FFE743F60400C4F222
:102AC000020000684002002815D5FFE743F6000029
:102AD000C4F20200006800F400310020B0EB514F56
:102AE00008D0FFE70498406820B9FFE701208DF87F
:102AF000170018E370E0FFE704984068B0F5803FE6
:102B000009D1FFE743F60001C4F20201086840F46E
:102B10008030086020E004984068B0F5A02F0DD107
:102B2000FFE743F60001C4F20201086840F4802088
:102B30000860086840F4803008600CE043F600014B
:102B4000C4F20201086820F480300860086820F4AC
:102B500080200860FFE7FFE7FFE704984068E8B1DE
:102B6000FFE7FFF7FBFC0390FFE743F60000C4F22A
:102B70000200006800F400310020B0EB514F0CD18E
:102B8000FFE7FFF7EBFC0399401A652804D3FFE742
:102B900003208DF81700C6E2E7E71CE0FFF7DEFC34
:102BA0000390FFE743F60000C4F20200006800F45F
:102BB00000310020B0EB514F0CD0FFE7FFF7CEFC07
:102BC0000399401A652804D3FFE703208DF8170006
:102BD000A9E2E7E7FFE7FFE7FFE70498007880074F
:102BE000002840F19680FFE743F60800C4F2020097
:102BF000006810F00C0F13D0FFE743F60800C4F292
:102C00000200006800F00C0008282CD1FFE743F612
:102C10000400C4F2020000684002002823D4FFE749
:102C200043F60000C4F20200006800F00201002038
:102C3000B0EB510F09D0FFE70498C068012804D019
:102C4000FFE701208DF817006DE243F60001C4F2A2
:102C50000201086820F0F800049A126940EAC200F4
:102C60000860FFE754E00498C06870B3FFE70021F4
:102C7000C4F2472101200860FFF770FC0390FFE7D2
:102C800043F60000C4F20200006800F002010020D8
:102C9000B0EB510F0CD1FFE7FFF760FC0399401A2E
:102CA000032804D3FFE703208DF817003BE2E7E792
:102CB00043F60001C4F20201086820F0F800049A0B
:102CC000126940EAC200086021E00021C4F24721F5
:102CD00000200860FFF742FC0390FFE743F6000086
:102CE000C4F20200006800F002010020B0EB510FB6
:102CF0000CD0FFE7FFF732FC0399401A032804D3F6
:102D0000FFE703208DF817000DE2E7E7FFE7FFE795
:102D1000FFE704980078000700284BD5FFE70498E8
:102D2000406918B3FFE740F68061C4F247210120F3
:102D30000860FFF713FC0390FFE743F67400C4F24A
:102D40000200006800F002010020B0EB510F0CD12E
:102D5000FFE7FFF703FC0399401A032804D3FFE7BA
:102D600003208DF81700DEE1E7E722E040F68061FE
:102D7000C4F2472100200860FFF7F0FB0390FFE753
:102D800043F67400C4F20200006800F00201002063
:102D9000B0EB510F0CD0FFE7FFF7E0FB0399401AAF
:102DA000032804D3FFE703208DF81700BBE1E7E712
:102DB000FFE7FFE7049800784007002840F1CE8045
:102DC000FFE700208DF8070043F64000C4F2020040
:102DD0000068C000002815D4FFE7FFE7002000903E
:102DE00043F64000C4F20200016841F080510160E6
:102DF000006800F0805000900098FFE701208DF8F7
:102E00000700FFE747F20000C4F200000068C005B9
:102E1000002822D4FFE747F20001C4F2000108684D
:102E200040F480700860FFF799FB0390FFE747F2DA
:102E30000000C4F200000068C00500280CD4FFE7C1
:102E4000FFF78CFB0399401A032804D3FFE7032004
:102E50008DF8170067E1EAE7FFE7FFE7049880686D
:102E6000012809D1FFE743F67001C4F202010868A6
:102E700040F0010008601FE00498806805280DD12B
:102E8000FFE743F67001C4F20201086840F0040055
:102E90000860086840F0010008600CE043F670012B
:102EA000C4F20201086820F001000860086820F000
:102EB00004000860FFE7FFE7FFE704988068F8B1C7
:102EC000FFE7FFF74BFB0390FFE743F67000C4F208
:102ED0000200006800F002010020B0EB510F0ED19B
:102EE000FFE7FFF73BFB0399401A41F28931884223
:102EF00004D3FFE703208DF8170014E1E5E71EE097
:102F0000FFF72CFB0390FFE743F67000C4F20200CA
:102F1000006800F002010020B0EB510F0ED0FFE777
:102F2000FFF71CFB0399401A41F28931884204D310
:102F3000FFE703208DF81700F5E0E5E7FFE79DF8D0
:102F40000700012809D1FFE743F64001C4F202015E
:102F5000086820F080500860FFE7FFE70498806968
:102F6000002800F0DC80FFE743F60800C4F202000E
:102F7000006800F00C00082800F08580FFE7049846
:102F8000806902285CD1FFE76021C4F2472100205C
:102F90000860FFF7E3FA0390FFE743F60000C4F28E
:102FA0000200006800F000710020B0EB516F0CD0FF
:102FB000FFE7FFF7D3FA0399401A032804D3FFE78A
:102FC00003208DF81700AEE0E7E70499C869D1F84F
:102FD00020C04B6A8A6A40EA0C0040EA8310D203A0
:102FE0004FF6FF739A43A2F580321043C96A40EA54
:102FF000016043F60401C4F2020108606021C4F2DA
:10300000472101200860FFF7A9FA0390FFE743F684
:103010000000C4F20200006800F000710020B0EB74
:10302000516F0CD1FFE7FFF799FA0399401A032873
:1030300004D3FFE703208DF8170074E0E7E721E0F1
:103040006021C4F2472100200860FFF787FA03904F
:10305000FFE743F60000C4F20200006800F00071D0
:103060000020B0EB516F0CD0FFE7FFF777FA039920
:10307000401A032804D3FFE703208DF8170052E01D
:10308000E7E7FFE74AE004988069012804D1FFE7F9
:1030900001208DF8170046E043F60400C4F2020058
:1030A0000068029004988069012831D0FFE70298F7
:1030B00000F480000499C969884229D1FFE7029889
:1030C00000F03F000499096A884221D1FFE7029885
:1030D00047F6C07108400499496AB0EB811F17D1C7
:1030E000FFE7029800F440300499896AC9034FF65B
:1030F000FF729143A1F58031884209D1FFE7029820
:1031000000F070600499C96AB0EB016F04D0FFE76A
:1031100001208DF8170006E0FFE7FFE7FFE700203A
:103120008DF81700FFE79DF8170006B080BD00007E
:1031300080B582B00190019802F03EFB02B080BDE4
:1031400081B0009001B0704781B0009001B070472D
:1031500085B003900291FFE7039890F83C000128A6
:1031600004D1FFE702208DF813007EE003990120CF
:1031700081F83C00FFE7FFE70399022081F83D005A
:103180000398006840680190039800688068009088
:10319000019820F07000019002980168019808439E
:1031A000019001980399096848600398006800211C
:1031B000C4F2010188423CD0FFE703980068B0F1F7
:1031C000804F36D0FFE70398006840F20041C4F218
:1031D000000188422DD0FFE70398006840F6000107
:1031E000C4F20001884224D0FFE70398006840F64B
:1031F0000041C4F2000188421BD0FFE70398006839
:1032000040F20041C4F20101884212D0FFE7039866
:10321000006844F20001C4F20101884209D0FFE7CE
:103220000398006841F60001C4F2000188420ED103
:10323000FFE7009820F08000009002984168009815
:10324000084300900098039909688860FFE7039994
:10325000012081F83D00FFE70399002081F83C0040
:10326000FFE700208DF81300FFE79DF8130005B07D
:103270007047000080B582B00090009820B9FFE749
:1032800001208DF807003FE0009890F83D0040B91C
:10329000FFE70099002081F83C00009800F038F822
:1032A000FFE70099022081F83D00009951F8040BD6
:1032B00002F020FB0099012081F84600FFE7009909
:1032C000012081F83E00009981F83F00009981F8C3
:1032D0004000009981F84100FFE7FFE700990120D5
:1032E00081F84200009981F84300009981F8440078
:1032F000009981F84500FFE70099012081F83D0021
:1033000000208DF80700FFE79DF8070002B080BDA0
:1033100080B586B005900598006841F20001C4F2BE
:10332000000188421BD1FFE7FFE70020049043F62D
:103330004000C4F20200016841F010010160006821
:1033400000F0100004900498FFE73620019000225E
:103350001146FFF79BF90198FFF78EF937E00598C2
:10336000006841F60041C4F20001884212D1FFE733
:10337000FFE70020039043F64000C4F2020001681A
:1033800041F080010160006800F080000390039824
:10339000FFE71BE00598006842F20001C4F200015B
:1033A000884212D1FFE7FFE70020029043F6400079
:1033B000C4F20200016841F480710160006800F409
:1033C000807002900298FFE7FFE7FFE7FFE706B093
:1033D00080BD000083B00190019890F83D00012865
:1033E00004D0FFE701208DF80B006AE0019902206C
:1033F00081F83D0001980168C86840F00100C8608C
:10340000019800680021C4F2010188423CD0FFE726
:1034100001980068B0F1804F36D0FFE7019800684E
:1034200040F20041C4F2000188422DD0FFE701982C
:10343000006840F60001C4F20001884224D0FFE792
:103440000198006840F60041C4F2000188421BD098
:10345000FFE70198006840F20041C4F20101884290
:1034600012D0FFE70198006844F20001C4F20101A4
:10347000884209D0FFE70198006841F60001C4F2D4
:103480000001884212D1FFE701980068806800F0CF
:10349000070000900098062807D0FFE70198016810
:1034A000086840F001000860FFE706E00198016845
:1034B000086840F001000860FFE700208DF80B006D
:1034C000FFE79DF80B0003B07047000080B586B0A1
:1034D00004900391049820B9FFE701208DF81700AC
:1034E00088E0049890F83D0040B9FFE70499002077
:1034F00081F83C00049800F081F8FFE7049902206D
:1035000081F83D0004980168886844F207029043FE
:103510008860049951F8040B02F0ECF904980068F3
:10352000806802900498006880690190049800689F
:10353000006A00900398016802980843029001987D
:1035400040F203318843019003998868896940EA11
:103550000121019808430190019840F60C418843ED
:10356000019001984FF2F001884301900399C868D7
:10357000C96940EA0121019808430190039908694B
:10358000096A000140EA013101980843019000985E
:1035900020F022000090009820F08800009003990D
:1035A0004868496940EA0111009808430090029870
:1035B00004990968886001980499096888610098ED
:1035C0000499096808620499012081F84600049969
:1035D00081F83E00049981F83F00049981F8420087
:1035E000049981F84300049981F83D0000208DF88A
:1035F0001700FFE79DF8170006B080BD80B594B0B6
:10360000139000201290119010900F900E9013982C
:1036100000680021C4F2010188425AD1FFE7FFE7A8
:1036200000200D9043F64400C4F20200016841F00E
:1036300001010160006800F001000D900D98FFE7A6
:10364000FFE700200C9043F63000C4F2020001684E
:1036500041F010010160006800F010000C900C981F
:10366000FFE7FFE700200B9043F63000C4F20200B2
:10367000016841F001010160006800F001000B9059
:103680000B98FFE74FF400600E90022001900F901E
:10369000002002901090119001200390129041F2AE
:1036A0000000C4F202000EA90491FEF74BFD019B3D
:1036B000029A039804994FF4807CCDF838C00F9398
:1036C0001092119212900020C4F20200FEF73AFD0F
:1036D000B3E01398006840F20041C4F20001884250
:1036E00031D1FFE7FFE700200A9043F64000C4F223
:1036F0000200016841F002010160006800F0020070
:103700000A900A98FFE7FFE70020099043F630008F
:10371000C4F20200016841F001010160006800F09C
:10372000010009900998FFE7C0200E9002200F9039
:1037300000211091119112900020C4F202000EA9F4
:10374000FEF700FD78E01398006840F60001C4F22F
:103750000001884232D1FFE7FFE70020089043F6DE
:103760004000C4F20200016841F0040101600068F9
:1037700000F0040008900898FFE7FFE7002007909A
:1037800043F63000C4F20200016841F0020101601A
:10379000006800F0020007900798FFE7C0200E9035
:1037A00002200F90002110911191129040F20040E0
:1037B000C4F202000EA9FEF7C5FC3CE013980068B5
:1037C00040F20041C4F20101884233D1FFE7FFE734
:1037D0000020069043F64400C4F20200016841F064
:1037E00002010160006800F0020006900698FFE701
:1037F000FFE70020059043F63000C4F202000168A4
:1038000041F004010160006800F004000590059893
:10381000FFE7C0200E9002200F9000201090119022
:103820000320129040F60000C4F202000EA9FEF739
:1038300089FCFFE7FFE7FFE7FFE714B080BD00006A
:1038400080B586B004900391049890F83E008DF8FE
:103850000B00049890F83F008DF80A00049890F847
:1038600042008DF80900049890F843008DF8080094
:103870000398B8B9FFE79DF80B00012805D1FFE7D1
:103880009DF80900012804D0FFE701208DF81700FA
:1038900079E00499022081F83E00049981F8420001
:1038A000FFE742E00398042817D1FFE79DF80A00DC
:1038B000012805D1FFE79DF80800012804D0FFE7A3
:1038C00001208DF817005EE00499022081F83F0086
:1038D000049981F84300FFE726E09DF80B000128DA
:1038E0000FD1FFE79DF80A0001280AD1FFE79DF8F4
:1038F0000900012805D1FFE79DF80800012804D040
:10390000FFE701208DF817003DE00499022081F8BF
:103910003E00049981F83F00049981F8420004991F
:1039200081F84300FFE7FFE7FFE70398019020B12C
:10393000FFE70198042807D00DE0049800680021F3
:10394000012202F0A9F814E0049800680421012281
:1039500002F0A2F80DE00498006800210122009214
:1039600002F09AF8009A04980068042102F094F892
:10397000FFE704980168086840F001000860002033
:103980008DF81700FFE79DF8170006B080BD000016
:1039900081B0009001B0704780B584B00390039867
:1039A0000068C068029003980068006901909DF863
:1039B00004008007002824D5FFE79DF80800800751
:1039C00000281DD5FFE7039801686FF00200086129
:1039D000039901200877039800688069800720B167
:1039E000FFE70398FFF7D4FF06E0039800F0A0F983
:1039F000039800F0CDFAFFE7039900200877FFE76E
:103A0000FFE79DF804004007002825D5FFE79DF853
:103A10000800400700281ED5FFE7039801686FF0F3
:103A20000400086103990220087703980068806900
:103A300010F4407F04D0FFE70398FFF7A9FF06E0EA
:103A4000039800F075F9039800F0A2FAFFE70399D4
:103A500000200877FFE7FFE79DF804000007002833
:103A600024D5FFE79DF80800000700281DD5FFE7D3
:103A7000039801686FF00800086103990420087733
:103A800003980068C069800720B1FFE70398FFF73B
:103A90007FFF06E0039800F04BF9039800F078FAF6
:103AA000FFE7039900200877FFE7FFE79DF8040090
:103AB000C006002825D5FFE79DF80800C0060028AD
:103AC0001ED5FFE7039801686FF0100008610399A5
:103AD0000820087703980068C06910F4407F04D07C
:103AE000FFE70398FFF754FF06E0039800F020F982
:103AF000039800F04DFAFFE7039900200877FFE7ED
:103B0000FFE79DF80400C00778B1FFE79DF80800C3
:103B1000C00748B1FFE7039801686FF00100086132
:103B2000039800F01FFBFFE7FFE79DF80400000685
:103B3000002810D5FFE79DF808000006002809D5E9
:103B4000FFE7039801686FF0800008610398FFF7B2
:103B5000F7FAFFE7FFE79DF804004006002810D5BC
:103B6000FFE79DF808004006002809D5FFE7039805
:103B700001686FF040000861039800F027FBFFE741
:103B8000FFE79DF804008006002810D5FFE79DF8A8
:103B900008008006002809D5FFE7039801686FF048
:103BA000200008610398FFF7CFFAFFE7FFE704B0B2
:103BB00080BD000080B58AB0099000200890079071
:103BC0000690059004900998006844F20001C4F240
:103BD0000101884222D1FFE7FFE70020039043F66E
:103BE0003000C4F20200016841F010010160006879
:103BF00000F0100003900398FFE76020049002207B
:103C000005900020069007900320089041F20000E4
:103C1000C4F2020004A9FEF795FA86E0099800684C
:103C200041F60001C4F20001884223D1FFE7FFE71B
:103C30000020029043F63000C4F20200016841F017
:103C400002010160006800F0020002900298FFE7A4
:103C50004FF4404004900220059000200690079009
:103C60000920089040F20040C4F2020004A9FEF7C7
:103C700069FA59E00998006841F60041C4F2000170
:103C8000884223D1FFE7FFE70020019043F6300090
:103C9000C4F20200016841F020010160006800F0F8
:103CA000200001900198FFE74FF4807004900220FB
:103CB00005900020069007900920089041F20040EE
:103CC000C4F2020004A9FEF73DFA2CE0099800684E
:103CD00042F20001C4F20001884223D1FFE7FFE76E
:103CE0000020009043F63000C4F20200016841F069
:103CF00020010160006800F0200000900098FFE7BC
:103D00004FF4007004900220059000200690079068
:103D10000920089041F20040C4F2020004A9FEF715
:103D200011FAFFE7FFE7FFE7FFE70AB080BD0000F9
:103D300081B0009001B0704780B586B004900391C7
:103D4000029200208DF80700FFE7049890F83C00ED
:103D5000012804D1FFE702208DF8170089E00499BB
:103D6000012081F83C00FFE7FFE7029800900C2853
:103D700000F270800099DFE801F0076D6D6D206D35
:103D80006D6D3A6D6D6D530004980068039901F0F4
:103D90009FFE04980168886940F0080088610498D3
:103DA0000168886920F0040088610398026904981A
:103DB000016888691043886150E00498006803999D
:103DC00001F0FCFE04980168886940F40060886195
:103DD00004980168886920F480608861039802690A
:103DE00004980168886940EA0220886136E00498F6
:103DF0000068039901F05CFF04980168C86940F00D
:103E00000800C86104980168C86920F00400C8610E
:103E10000398026904980168C8691043C8611DE0ED
:103E200004980068039901F0BDFF04980168C8690F
:103E300040F40060C86104980168C86920F480609B
:103E4000C8610398026904980168C86940EA0220C1
:103E5000C86103E001208DF80700FFE7FFE7049940
:103E6000002081F83C00FFE79DF807008DF817005F
:103E7000FFE79DF8170006B080BD000080B582B056
:103E80000090009820B9FFE701208DF807003FE07F
:103E9000009890F83D0040B9FFE70099002081F8B4
:103EA0003C00009800F038F8FFE70099022081F804
:103EB0003D00009951F8040B01F01CFD0099012010
:103EC00081F84600FFE70099012081F83E00009943
:103ED00081F83F00009981F84000009981F8410085
:103EE000FFE7FFE70099012081F84200009981F87F
:103EF0004300009981F84400009981F84500FFE7EC
:103F00000099012081F83D0000208DF80700FFE7AF
:103F10009DF8070002B080BD83B00290029800684F
:103F200044F20001C4F20101884212D1FFE7FFE729
:103F30000020019043F64400C4F20200016841F4FD
:103F400080310160006800F4803001900198FFE743
:103F50001BE00298006841F60001C4F200018842AB
:103F600012D1FFE7FFE70020009043F64000C4F2C3
:103F70000200016841F040010160006800F040006B
:103F800000900098FFE7FFE7FFE703B070470000ED
:103F900081B0009001B0704780B58CB00A90099153
:103FA000099828B9FFE70A9890F83E0007901CE0AE
:103FB0000998042805D1FFE70A9890F83F00069079
:103FC00010E00998082805D1FFE70A9890F840000A
:103FD000059004E00A9890F841000590FFE70598E5
:103FE0000690FFE706980790FFE70798012804D09E
:103FF000FFE701208DF82F00AFE0099828B9FFE70F
:104000000A99022081F83E001EE00998042806D192
:10401000FFE70A99022081F83F00049012E0099816
:10402000082806D1FFE70A99022081F84000039092
:1040300005E00A99022081F841000390FFE7039808
:104040000490FFE70498FFE70A98006809990122A5
:10405000019201F021FD01980A9909680022C4F239
:104060000102914202900CD0FFE70A9800684FF6D7
:104070000041CBF6FE710844B0FA80F0400902908E
:10408000FFE70298C00738B1FFE70A980168486C5B
:1040900040F400404864FFE70A9800680021C4F239
:1040A000010188423CD0FFE70A980068B0F1804FD8
:1040B00036D0FFE70A98006840F20041C4F20001E0
:1040C00088422DD0FFE70A98006840F60001C4F24C
:1040D0000001884224D0FFE70A98006840F60041BA
:1040E000C4F2000188421BD0FFE70A98006840F242
:1040F0000041C4F20101884212D0FFE70A9800682B
:1041000044F20001C4F20101884209D0FFE70A9895
:10411000006841F60001C4F20001884212D1FFE7B5
:104120000A980068806800F0070008900898062840
:1041300007D0FFE70A980168086840F001000860AE
:10414000FFE706E00A980168086840F0010008608F
:10415000FFE700208DF82F00FFE79DF82F000CB03F
:1041600080BD000080B582B001900198006841F2E6
:104170000001C4F20001884226D1FFE740F29461B9
:10418000C2F2000108680130086040F2FC21C2F26E
:104190000001009108680130086040F2A800C2F2F6
:1041A0000000FDF713FB01F0F7F8009800680A28FB
:1041B00009DBFFE701F0A6F940F2A800C2F2000017
:1041C000FCF72EFFFFE7FFE702B080BD81B0009053
:1041D00001B0704782B00190ADF8021002B0704794
:1041E00081B0009001B0704780B592B011901198E5
:1041F00000680068109011980068C0680F901198CE
:10420000006840690E9000200D900C90109800F00E
:104210000F000D900D9888B9FFE79DF840008006CB
:1042200000280AD5FFE79DF83C008006002804D549
:10423000FFE7119801F07CFE02E2FFE70D980028ED
:1042400000F0C280FFE79DF83800C00738B9FFE7EB
:10425000BDF83C0010F4907F00F0B680FFE79DF8B9
:104260004000C00758B1FFE79DF83D00C00730B1DE
:10427000FFE71199486C40F001004864FFE79DF8A2
:104280004000400700280BD5FFE79DF83800C00725
:1042900030B1FFE71199486C40F002004864FFE735
:1042A0009DF84000800700280BD5FFE79DF83800F7
:1042B000C00730B1FFE71199486C40F00400486432
:1042C000FFE79DF840000007002811D5FFE79DF8A3
:1042D0003C008006002805D4FFE79DF83800C007A1
:1042E00030B1FFE71199486C40F008004864FFE7DF
:1042F0001198406C002866D0FFE79DF840008006CA
:1043000000280AD5FFE79DF83C008006002804D568
:10431000FFE7119801F00CFEFFE711980068406973
:10432000C0F380100C901198406C0007002804D452
:10433000FFE70C9800283ED0FFE7119801F09AFDA6
:10434000119800684069400600282FD5FFE7FFE775
:10435000FFE71198006850E8050F20F040000B902F
:10436000FFE70B991198026842E805100028F0D188
:10437000FFE7FFE71198C06B98B1FFE71198C16B99
:1043800045F65960C0F6000008651198C06BFDF74E
:104390004DFC28B1FFE71198C06B016D8847FFE71E
:1043A00003E01198FFF71CFFFFE703E01198FFF708
:1043B00017FFFFE706E01198FFF712FF11990020A1
:1043C0004864FFE7FFE73BE11198006B012840F0EC
:1043D0001781FFE79DF84000C006002840F11081DA
:1043E000FFE79DF83C00C006002840F10981FFE787
:1043F000FFE700200A901198006800680A90119861
:10440000006840680A900A98FFE7119800684069C0
:104410004006002840F19A80FFE71198C06B0068C1
:104420004068ADF82600BDF82600002875D0FFE7EB
:10443000BDF826001199898D88426EDAFFE7BDF834
:1044400026001199C8851198C06BC069B0F5807FAE
:1044500058D0FFE7FFE7FFE71198006850E8030F27
:1044600020F480700890FFE708991198026842E8EC
:1044700003100028F0D1FFE7FFE7FFE7FFE71198FF
:10448000006850E8050F20F001000790FFE707994A
:104490001198026842E805100028F0D1FFE7FFE715
:1044A000FFE7FFE71198006850E8050F20F0400093
:1044B0000690FFE706991198026842E80510002867
:1044C000F0D1FFE7FFE71199202081F84200119910
:1044D00000200863FFE7FFE71198006850E8030F2A
:1044E00020F010000590FFE705991198026842E856
:1044F00003100028F0D1FFE7FFE71198C06BFDF72C
:104500001FFBFFE71199022048631198818DC28D2E
:10451000891A89B2FFF75EFE17E0BDF826001199EF
:10452000898D884210D1FFE71198C06BC069B0F542
:10453000807F08D1FFE71199022048631198818D8F
:10454000FFF748FEFFE7FFE7FFE779E01199888D65
:10455000C98D401AADF812001198C08D00284ED0B8
:10456000FFE7BDF81200002849D0FFE7FFE7FFE7AB
:104570001198006850E8030F20F490700390FFE753
:1045800003991198026842E803100028F0D1FFE770
:10459000FFE7FFE7FFE71198006850E8050F20F0FC
:1045A00001000290FFE702991198026842E80510A5
:1045B0000028F0D1FFE7FFE71199202081F84200A1
:1045C000119900200863FFE7FFE71198006850E8A1
:1045D000030F20F010000190FFE701991198026885
:1045E00042E803100028F0D1FFE7FFE7119902200D
:1045F00048631198BDF81210FFF7ECFDFFE71FE0CC
:104600009DF84000000600280AD5FFE79DF83C0011
:104610000006002804D5FFE7119801F0DBFD0FE04C
:104620009DF84000400600280AD5FFE79DF83C00B1
:104630004006002804D5FFE7119801F065FCFFE76C
:1046400012B080BD80B582B00090009820B9FFE71D
:1046500001208DF8070040E00098806908B1FFE76D
:1046600000E0FFE7009890F8410040B9FFE70099AB
:10467000002081F84000009800F034F8FFE700992E
:10468000242081F8410000980168C86820F4005097
:10469000C860009801F000FD00980168086920F4E6
:1046A0009040086100980168486920F02A0048613C
:1046B00000980168C86840F40050C8600099002064
:1046C0004864009A202182F84110009A82F8421032
:1046D000009948638DF80700FFE79DF8070002B0D6
:1046E00080BD000080B592B01190002010900F9016
:1046F0000E900D900C901198006845F20001C4F2E4
:104700000001884240F0BD80FFE7FFE700200B90EA
:1047100043F64000C4F20200016841F480110160D8
:10472000006800F480100B900B98FFE7FFE7002073
:104730000A9043F63000C4F20200016841F004011F
:104740000160006800F004000A900A98FFE7FFE7A4
:104750000020099043F63000C4F20200016841F0E5
:1047600008010160006800F0080009900998FFE75F
:104770004FF480500C90022003900D900020079081
:104780000E90032004900F9008200590109040F6A2
:104790000000C4F202000CA90691FDF7D3FCDDF87D
:1047A0000CC0049A05980699079B4FF0040ECDF8AB
:1047B00030E0CDF834C00E930F92109040F60040D8
:1047C000C4F20200FDF7BEFC079940F26030C2F26D
:1047D0000000089046F2B802C4F2020202604FF0F4
:1047E0000062426040228260C1604FF480620261D8
:1047F00041618161C16101624162FDF7C9FB18B18C
:10480000FFE7FDF799F9FFE7FFE7119840F2603104
:10481000C2F20001816311988863FFE740F2003023
:10482000C2F20000029046F21001C4F202010160DF
:104830004FF00061416000218160C1604FF48062EF
:10484000026141618161C16101624162FDF7A0FBCA
:1048500018B1FFE7FDF770F9FFE7FFE7119840F2A5
:104860000031C2F20001C16311988863FFE735206F
:10487000019001210022FDF709FF0198FDF7FCFEE0
:10488000FFE712B080BD000081B0009001B070471A
:1048900081B0009001B07047FFE7FEE780B584B0BB
:1048A000FFE70020039043F63000C4F202000168E5
:1048B00041F400110160006800F4001003900398B7
:1048C000FFE70B200090002201921146FDF7DEFE6B
:1048D0000098FDF7D1FE019A2F2002900121FDF7EB
:1048E000D5FE0298FDF7C8FE04B080BD80B596B035
:1048F000002015901490139012901190FFE7002063
:10490000109043F63000C4F20200016841F010013B
:104910000160006800F0100010901098FFE7FFE7BA
:1049200000200F9043F63000C4F20200016841F00D
:1049300004010160006800F004000F900F98FFE789
:10494000FFE700200E9043F63000C4F20200016839
:1049500041F020010160006800F020000E900E98E8
:10496000FFE7FFE700200D9043F63000C4F202009D
:10497000016841F080010160006800F080000D9046
:104980000D98FFE7FFE700200C9043F63000C4F2DB
:104990000200016841F001010160006800F00100BF
:1049A0000C900C98FFE7FFE700200B9043F63000D7
:1049B000C4F20200016841F002010160006800F0E9
:1049C00002000B900B98FFE7FFE700200A9043F6E8
:1049D0003000C4F20200016841F008010160006883
:1049E00000F008000A900A98FFE741F20000C4F2C4
:1049F000020002901021019100220892FDF796FD1D
:104A0000089A40F60000C4F2020004904FF40051EE
:104A10000391FDF78BFD089A40F60040C4F20200B6
:104A200007904FF44F410591FDF780FD019A0298E0
:104A3000089911920122069212921391149111A9D0
:104A40000991FDF77FFBDDF80CC00498069B089ADE
:104A50000999CDF844C0129313921492FDF772FB9A
:104A6000089809994FF4406211921290139040F205
:104A70000040C4F20200FDF765FBDDF814C0069BA0
:104A80000798089A0999CDF844C01293139214928A
:104A9000FDF758FB089809994FF400721192129093
:104AA00013900020C4F20200FDF74CFB16B080BD4D
:104AB00080B588B00021009107910691059104917D
:104AC00003910291019140F20840C2F2000041F6C8
:104AD0000002C4F20002026040F28F624260816014
:104AE0006322C26001618161FFF7C8F918B1FFE775
:104AF000FDF722F8FFE76020019000220292039266
:104B0000059240F20840C2F2000001A9FFF714F933
:104B100018B1FFE7FDF710F8FFE740F20840C2F2D6
:104B2000000001A90422FFF707F918B1FFE7FDF71C
:104B300003F8FFE740F20840C2F20000FFF73AF83E
:104B400008B080BD80B588B0002100910791069122
:104B50000591049103910291019140F25040C2F2FB
:104B6000000041F60042C4F200020260532242609B
:104B7000816044F61F62C26001618161FEF77AFBC9
:104B800018B1FFE7FCF7D8FFFFE740F25040C2F250
:104B90000000FFF773F918B1FFE7FCF7CDFFFFE75F
:104BA00060200190002202920392059240F2504050
:104BB000C2F2000001A9FFF7BFF818B1FFE7FCF748
:104BC000BBFFFFE740F25040C2F20000FEF7F2FFE9
:104BD00008B080BD80B588B0002100910791069192
:104BE0000591049103910291019140F29840C2F223
:104BF000000042F20002C4F200020260532242604E
:104C0000816044F61F62C26001618161FEF732FB80
:104C100018B1FFE7FCF790FFFFE740F29840C2F2BF
:104C20000000FFF72BF918B1FFE7FCF785FFFFE75E
:104C300060200190002202920392059240F2984077
:104C4000C2F2000001A9FFF777F818B1FFE7FCF7FF
:104C500073FFFFE740F29840C2F20000FEF7AAFFA0
:104C600008B080BD80B58EB005A800902421FBF768
:104C700089FB0099002301930493039340F2C03011
:104C8000C2F2000002900022C4F2010202604360FE
:104C900083604FF6FF72C2600361436183614FF02E
:104CA000010CCDF814C00693CDF81CC008930F2258
:104CB00009920A93CDF82CC00C930D92FEF706FCD6
:104CC00018B1FFE7FCF738FFFFE7002003900490DE
:104CD00040F2C030C2F2000003A9FEF739FA18B161
:104CE000FFE7FCF729FFFFE70EB080BD80B58EB06F
:104CF00005A801902421FBF745FB019900230293AD
:104D00000493039340F2E040C2F2000040F20042FC
:104D1000C4F200020260436083604FF6FF72C2601B
:104D2000036183614FF0010CCDF814C00693CDF8F8
:104D30001CC008930F2209920A93CDF82CC00C9343
:104D40000D92FEF7C3FB18B1FFE7FCF7F5FEFFE796
:104D500000200390049040F2E040C2F2000003A95A
:104D6000FEF7F6F918B1FFE7FCF7E6FEFFE70EB035
:104D700080BD000080B58EB005A801902421FBF70E
:104D800001FB0199002302930493039340F22850FE
:104D9000C2F2000040F60002C4F20002026043606A
:104DA00083604FF6FF72C260036183614FF0010CB4
:104DB000CDF814C00693CDF81CC008930F220992B9
:104DC0000A93CDF82CC00C930D92FEF77FFB18B11F
:104DD000FFE7FCF7B1FEFFE700200390049040F2EC
:104DE0002850C2F2000003A9FEF7B2F918B1FFE79C
:104DF000FCF7A2FEFFE70EB080BD000080B582B0D8
:104E000000210191009140F27050C2F2000041F285
:104E10000002C4F20002026042F2CF0242608160EE
:104E20006322C2608161FEF725FA18B1FFE7FCF743
:104E300083FEFFE700200090019040F27050C2F224
:104E400000006946FEF784F918B1FFE7FCF774FE2D
:104E5000FFE702B080BD000080B58EB005A80090CD
:104E60002421FBF78FFA0099002301930493039305
:104E700040F2B850C2F20000029040F20042C4F288
:104E800001020260436083604FF6FF72C2600361FB
:104E9000436183614FF0010CCDF814C00693CDF847
:104EA0001CC008930F2209920A93CDF82CC00C93D2
:104EB0000D92FEF70BFB18B1FFE7FCF73DFEFFE795
:104EC00000200390049040F2B850C2F2000003A901
:104ED000FEF73EF918B1FFE7FCF72EFEFFE70EB034
:104EE00080BD000080B588B0002100910791069137
:104EF0000591049103910291019140F20060C2F288
:104F0000000044F20002C4F20102026040F28F622B
:104F1000426081606322C26001618161FEF7AEFF81
:104F200018B1FFE7FCF708FEFFE7602001900022C0
:104F300002920392059240F20060C2F2000001A9C1
:104F4000FEF7FAFE18B1FFE7FCF7F6FDFFE740F2C7
:104F50000060C2F2000001A90422FEF7EDFE18B1C4
:104F6000FFE7FCF7E9FDFFE740F20060C2F2000056
:104F7000FEF720FE08B080BD80B582B040F24860E8
:104F8000C2F20000019045F20001C4F2000101608C
:104F90004FF4E131416000218160C16001610C2268
:104FA00042618161C161FFF74DFB18B1FFE7FCF77A
:104FB000C3FDFFE702B080BDFFE7FEE780B582B02A
:104FC00001900020C4F202004FF40071FDF796FA40
:104FD000012804D1FFE701990120086003E001994D
:104FE00000200860FFE740F20040C4F202004FF4E6
:104FF0008061FDF783FA012804D1FFE701990120C0
:10500000486003E0019900204860FFE740F200405B
:10501000C4F202004FF40061FDF770FA012804D1D8
:10502000FFE701990120886003E001990020886072
:10503000FFE702B080BD000081B000200090FFE7D4
:105040000098032854DCFFE7009940F22800C2F2E0
:10505000000050F8210001EBC10140F28412C2F2BD
:10506000000202EBC1014860009940F20000C2F268
:10507000000050F8210001EBC10102EBC101C86042
:10508000009940F21400C2F2000050F8210001EB38
:10509000C10102EBC1018860009800EBC00002EB87
:1050A000C0010020C4F27A304861009800EBC000D3
:1050B00002EBC0010020C4F29630086140F2A80162
:1050C000C2F2000191ED300ABDEEC00A10EE100AE6
:1050D000009B03EBC30302F83300009800EB40028F
:1050E000002041F82200FFE7009801300090A7E778
:1050F00001B0704782B0ADF80600ADF80410ADF80D
:105100000220ADF80030BDF9060040F20841C2F2BD
:1051100000010A685063BDF9040009688863BDF99D
:10512000020040F20061C2F200010A685063BDF95A
:1051300000000968886302B070470000FFE7FEE7DF
:1051400088B0079006910592079800F00700049038
:105150000498C0F10700052803D3FFE7042001905D
:1051600004E00498C0F107000190FFE70198039064
:1051700004980430062803D8FFE70020009003E0DD
:10518000049803380090FFE700980290069803996E
:10519000012202FA01F101390840029B9840059969
:1051A0009A40013A1140084308B0704780B584B076
:1051B00002908DED010ACDED000A029818B9FFE7C3
:1051C0000020039093E00299086C48640299C86B30
:1051D00008649DED000A9DED011A30EE410A029827
:1051E00080ED0F0A02980078012838D1FFE7029875
:1051F00090ED010A90ED0F1A90ED102A31EE421A4F
:1052000020EE010A80ED090A029890ED020A90ED65
:105210000F1A20EE010A80ED0A0A0299486B886392
:105220000299086B4863029890ED0F0A90ED102ADE
:1052300090ED111A32EE022A30EE420A30EE010AE7
:1052400080ED0C0A029890ED030A90ED0C1A20EE06
:10525000010A80ED0B0A029800F04EF836E0029841
:10526000007890BBFFE7029890ED010A90ED0F1ACD
:1052700020EE010A80ED090A029890ED020A90EDF5
:105280000A1A90ED0F2A20EE020A30EE010A80ED94
:105290000A0A0299486B88630299086B486302986E
:1052A00090ED0F0A90ED101A30EE410A80ED0C0AD5
:1052B000029890ED030A90ED0C1A20EE010A80EDA1
:1052C0000B0A029800F018F8FFE7FFE7029890ED4C
:1052D000090A90ED0A2A90ED0B1A30EE020A30EE20
:1052E000010A80ED080A0298006A0390FFE79DED2D
:1052F000030A04B080BD000081B00090009890EDDA
:10530000051A90ED0A0AB4EE410AF1EE10FA04DD36
:10531000FFE700994869886215E0009890ED051A4A
:1053200090ED0A0AB1EE411AB4EE410AF1EE10FA1C
:1053300008DAFFE7009890ED050AB1EE400A80ED2B
:105340000A0AFFE7FFE7009890ED041A90ED080ABB
:10535000B4EE410AF1EE10FA04DDFFE700990869A6
:10536000086215E0009890ED041A90ED080AB1EE7D
:10537000411AB4EE410AF1EE10FA08DAFFE700989C
:1053800090ED040AB1EE400A80ED080AFFE7FFE75E
:1053900001B070477047000080B594B040F2A8009B
:1053A000C2F20000119090ED0C0A30EE000A9FED61
:1053B000522A20EE020A9FED511A80EE010A8DED6D
:1053C000130A90ED0E0A30EE000A20EE020A80EE7B
:1053D000010A8DED120A9DED130A9DED121A30EEB1
:1053E000010A10EE100A01F05BFE41EC100B51ECCB
:1053F000100B9FED3D0B53EC102B0893079201F01F
:1054000041F90246119801920A46019942EC101B9B
:105410008DED020BD0F8900001F042FE9DED020BE5
:1054200041EC110B8DED041B51EC100B9FED300B7B
:1054300053EC102B0D930C9201F07AFB9DED040BB5
:1054400041EC110B51EC110B53EC102B01F066F8F1
:1054500041EC100B51EC100B01F02EF81199C1F832
:1054600090009DED130A9DED121A30EE410A10EEE8
:10547000100A01F015FE079A089B41EC100B51EC45
:10548000100B01F0FFF80246119809920A4609999B
:1054900042EC101B8DED0A0BD0F8940001F000FED9
:1054A0009DED0A0B0C9A0D9B41EC110B8DED0E1B23
:1054B00051EC100B01F03CFB9DED0E0B41EC110B80
:1054C00051EC110B53EC102B01F028F841EC100BB0
:1054D00051EC100B00F0F0FF1199C1F8940014B0DA
:1054E00080BD00BF00BF00BF8FC2F5285C8F0640A3
:1054F0000000000000002440DA0F49400000704224
:105500007047000040F2A800C2F2000090ED1C0AB3
:10551000B5EE400AF1EE10FA00F09780FFE740F296
:10552000A800C2F2000090ED1C0A90ED1E1AB4EE25
:10553000410AF1EE10FA19DBFFE740F2A800C2F2CF
:10554000000090ED1C0AB5EE400AF1EE10FA0DDDF8
:10555000FFE740F2A800C2F2000090ED200A9FEDA4
:10556000951A30EE010A80ED1E0A27E040F2A800ED
:10557000C2F2000090ED1C0A90ED1E1AB4EE410A32
:10558000F1EE10FA19DCFFE740F2A800C2F20000C9
:1055900090ED1C0AB5EE400AF1EE10FA0DDAFFE7C5
:1055A00040F2A800C2F2000090ED200A9FED801AA0
:1055B00030EE010A80ED1E0AFFE7FFE740F2A80087
:1055C000C2F2000090ED1E0A90ED2E1AB6EE002AEF
:1055D00021EE021AB4EE410AF1EE10FA0DDBFFE7FC
:1055E00040F2A800C2F2000090ED2E0AB6EE001ABA
:1055F00020EE010A80ED1E0A1FE040F2A800C2F270
:10560000000090ED1E0A90ED2E1ABEEE002A21EE4B
:10561000021AB4EE410AF1EE10FA0DDCFFE740F297
:10562000A800C2F2000090ED2E0ABEEE001A20EE95
:10563000010A80ED1E0AFFE7FFE740F2A801C2F26F
:105640000001886FC1F8800006E040F2A801C2F2B4
:10565000000100208867FFE740F2A800C2F20000C6
:1056600090ED1D0AB5EE400AF1EE10FA00F09780B9
:10567000FFE740F2A800C2F2000090ED1D0A90ED95
:105680001F1AB4EE410AF1EE10FA19DBFFE740F2FF
:10569000A800C2F2000090ED1D0AB5EE400AF1EE3E
:1056A00010FA0DDDFFE740F2A800C2F2000090ED15
:1056B000210A9FED401A30EE010A80ED1F0A27E013
:1056C00040F2A800C2F2000090ED1D0A90ED1F1AF2
:1056D000B4EE410AF1EE10FA19DCFFE740F2A8003F
:1056E000C2F2000090ED1D0AB5EE400AF1EE10FA8C
:1056F0000DDAFFE740F2A800C2F2000090ED210AA7
:105700009FED2B1A30EE010A80ED1F0AFFE7FFE73D
:1057100040F2A800C2F2000090ED1F0A90ED2F1A8F
:10572000B6EE002A21EE021AB4EE410AF1EE10FAAA
:105730000DDBFFE740F2A800C2F2000090ED2F0A57
:10574000B6EE001A20EE010A80ED1F0A1FE040F2BB
:10575000A800C2F2000090ED1F0A90ED2F1ABEEED5
:10576000002A21EE021AB4EE410AF1EE10FA0DDC25
:10577000FFE740F2A800C2F2000090ED2F0ABEEE53
:10578000001A20EE010A80ED1F0AFFE7FFE740F252
:10579000A801C2F20001C86FC1F8840006E040F21F
:1057A000A801C2F200010020C867FFE7704700BFF0
:1057B000002014C50020144580B582B000900098E8
:1057C0000138B0F1807F03D3FFE70120019019E099
:1057D000009801384EF21401CEF2000108604FF03B
:1057E000FF300F2100F062FD4EF21801CEF20001F1
:1057F000002008604EF21002CEF200020721116074
:105800000190FFE7019802B080BD000080B5FCF771
:10581000ABFE80BD80B594B008A83021FAF7B2FD88
:10582000002007900690059004900390FFE7002069
:10583000029043F64000C4F20200016841F080513A
:105840000160006800F0805002900298FFE7FFE7D7
:105850000020019047F20000C4F20000016841F40A
:1058600080410160006800F4804001900198FFE7EA
:105870000220089001210B9110210C910E90002123
:105880000F9108211091A8211191129004201390DA
:1058900008A8FDF7EDF818B1FFE7FCF74DF9FFE7B1
:1058A0000F20039002200490002005904FF4A05098
:1058B00006904FF48050079003A80521FCF708FFDD
:1058C00018B1FFE7FCF738F9FFE714B080BD00001E
:1058D0004EF68851CEF20001086840F4700008606E
:1058E0007047000080B540F27050C2F20000FEF731
:1058F00053F880BD83B00290019102980068009037
:1059000002980021C4F20101884225D0FFE70298E5
:10591000B0F1804F20D0FFE7029840F20041C4F27E
:105920000001884218D0FFE7029840F60001C4F257
:105930000001884210D0FFE7029840F60041C4F20F
:105940000001884208D0FFE7029840F20041C4F20B
:10595000010188420AD1FFE7009820F07000009012
:1059600001984168009808430090FFE702980021E1
:10597000C4F20101884255D0FFE70298B0F1804F90
:1059800050D0FFE7029840F20041C4F20001884283
:1059900048D0FFE7029840F60001C4F200018842B7
:1059A00040D0FFE7029840F60041C4F2000188426F
:1059B00038D0FFE7029840F20041C4F2010188426A
:1059C00030D0FFE7029844F20001C4F2010188429E
:1059D00028D0FFE7029844F20041C4F20101884256
:1059E00020D0FFE7029844F60001C4F2010188428A
:1059F00018D0FFE7029841F60001C4F20001884286
:105A000010D0FFE7029841F60041C4F2000188423D
:105A100008D0FFE7029842F20001C4F20001884278
:105A20000AD1FFE7009820F4407000900198C16807
:105A3000009808430090FFE7009820F0800001994B
:105A4000496908430090019880680299C8620198EA
:105A500000680299886202980021C4F2010188421C
:105A600008D0FFE7029840F20041C4F201018842E9
:105A700005D1FFE70198006902990863FFE70299E1
:105A8000086840F00400086002990120486100980D
:105A90000299086003B0704784B0039002910192AC
:105AA000029800F01F01012088400090009A03999D
:105AB000086A904308620198029901F01F0100FAF8
:105AC00001F20399086A1043086204B070470000AD
:105AD00085B0049003910498006A01900499086AC3
